{
  "contractName": "App",
  "abi": [
    {
      "anonymous": false,
      "inputs": [
        {
          "indexed": false,
          "internalType": "string",
          "name": "name",
          "type": "string"
        },
        {
          "indexed": true,
          "internalType": "address",
          "name": "owner",
          "type": "address"
        }
      ],
      "name": "DropRobot",
      "type": "event"
    },
    {
      "anonymous": false,
      "inputs": [
        {
          "indexed": false,
          "internalType": "uint256",
          "name": "id",
          "type": "uint256"
        },
        {
          "indexed": false,
          "internalType": "string",
          "name": "name",
          "type": "string"
        },
        {
          "indexed": false,
          "internalType": "string",
          "name": "dna",
          "type": "string"
        },
        {
          "indexed": true,
          "internalType": "address",
          "name": "owner",
          "type": "address"
        }
      ],
      "name": "NewCommander",
      "type": "event"
    },
    {
      "anonymous": false,
      "inputs": [
        {
          "indexed": false,
          "internalType": "uint256",
          "name": "id",
          "type": "uint256"
        },
        {
          "indexed": false,
          "internalType": "string",
          "name": "name",
          "type": "string"
        },
        {
          "indexed": false,
          "internalType": "string",
          "name": "dna",
          "type": "string"
        },
        {
          "indexed": false,
          "internalType": "uint256",
          "name": "spieces",
          "type": "uint256"
        },
        {
          "indexed": true,
          "internalType": "address",
          "name": "owner",
          "type": "address"
        }
      ],
      "name": "NewRobot",
      "type": "event"
    },
    {
      "anonymous": false,
      "inputs": [
        {
          "indexed": true,
          "internalType": "address",
          "name": "previousOwner",
          "type": "address"
        },
        {
          "indexed": true,
          "internalType": "address",
          "name": "newOwner",
          "type": "address"
        }
      ],
      "name": "OwnershipTransferred",
      "type": "event"
    },
    {
      "inputs": [
        {
          "internalType": "string",
          "name": "name",
          "type": "string"
        }
      ],
      "name": "CreateCommander",
      "outputs": [],
      "stateMutability": "nonpayable",
      "type": "function"
    },
    {
      "inputs": [
        {
          "internalType": "uint256",
          "name": "robotId",
          "type": "uint256"
        }
      ],
      "name": "buyRobot",
      "outputs": [],
      "stateMutability": "payable",
      "type": "function",
      "payable": true
    },
    {
      "inputs": [
        {
          "internalType": "uint256",
          "name": "",
          "type": "uint256"
        }
      ],
      "name": "commanders",
      "outputs": [
        {
          "internalType": "string",
          "name": "name",
          "type": "string"
        },
        {
          "internalType": "string",
          "name": "dna",
          "type": "string"
        },
        {
          "internalType": "uint64",
          "name": "getFreeRobotReadyTime",
          "type": "uint64"
        },
        {
          "internalType": "uint64",
          "name": "giveStarReadyTime",
          "type": "uint64"
        }
      ],
      "stateMutability": "view",
      "type": "function",
      "constant": true
    },
    {
      "inputs": [
        {
          "internalType": "uint256",
          "name": "robotId",
          "type": "uint256"
        }
      ],
      "name": "dropRobot",
      "outputs": [],
      "stateMutability": "nonpayable",
      "type": "function"
    },
    {
      "inputs": [
        {
          "internalType": "uint256",
          "name": "choice",
          "type": "uint256"
        },
        {
          "internalType": "uint256",
          "name": "robotId",
          "type": "uint256"
        }
      ],
      "name": "gamble",
      "outputs": [],
      "stateMutability": "nonpayable",
      "type": "function"
    },
    {
      "inputs": [],
      "name": "getFreeRobot",
      "outputs": [],
      "stateMutability": "nonpayable",
      "type": "function"
    },
    {
      "inputs": [],
      "name": "getRobotsByOwner",
      "outputs": [
        {
          "internalType": "uint256[]",
          "name": "",
          "type": "uint256[]"
        }
      ],
      "stateMutability": "view",
      "type": "function",
      "constant": true
    },
    {
      "inputs": [
        {
          "internalType": "uint256",
          "name": "robotId",
          "type": "uint256"
        }
      ],
      "name": "giveStar",
      "outputs": [],
      "stateMutability": "nonpayable",
      "type": "function"
    },
    {
      "inputs": [],
      "name": "isOwner",
      "outputs": [
        {
          "internalType": "bool",
          "name": "",
          "type": "bool"
        }
      ],
      "stateMutability": "view",
      "type": "function",
      "constant": true
    },
    {
      "inputs": [
        {
          "internalType": "uint256",
          "name": "",
          "type": "uint256"
        }
      ],
      "name": "markets",
      "outputs": [
        {
          "internalType": "uint256",
          "name": "",
          "type": "uint256"
        }
      ],
      "stateMutability": "view",
      "type": "function",
      "constant": true
    },
    {
      "inputs": [
        {
          "internalType": "string",
          "name": "newDna",
          "type": "string"
        }
      ],
      "name": "modifyCommanderDna",
      "outputs": [],
      "stateMutability": "payable",
      "type": "function",
      "payable": true
    },
    {
      "inputs": [
        {
          "internalType": "string",
          "name": "newName",
          "type": "string"
        }
      ],
      "name": "modifyCommanderName",
      "outputs": [],
      "stateMutability": "payable",
      "type": "function",
      "payable": true
    },
    {
      "inputs": [],
      "name": "owner",
      "outputs": [
        {
          "internalType": "address",
          "name": "",
          "type": "address"
        }
      ],
      "stateMutability": "view",
      "type": "function",
      "constant": true
    },
    {
      "inputs": [
        {
          "internalType": "address",
          "name": "",
          "type": "address"
        }
      ],
      "name": "ownerRobotCount",
      "outputs": [
        {
          "internalType": "uint256",
          "name": "",
          "type": "uint256"
        }
      ],
      "stateMutability": "view",
      "type": "function",
      "constant": true
    },
    {
      "inputs": [
        {
          "internalType": "address",
          "name": "",
          "type": "address"
        }
      ],
      "name": "ownerToCommander",
      "outputs": [
        {
          "internalType": "uint256",
          "name": "",
          "type": "uint256"
        }
      ],
      "stateMutability": "view",
      "type": "function",
      "constant": true
    },
    {
      "inputs": [],
      "name": "renounceOwnership",
      "outputs": [],
      "stateMutability": "nonpayable",
      "type": "function"
    },
    {
      "inputs": [
        {
          "internalType": "uint256",
          "name": "",
          "type": "uint256"
        }
      ],
      "name": "robotToOwner",
      "outputs": [
        {
          "internalType": "address",
          "name": "",
          "type": "address"
        }
      ],
      "stateMutability": "view",
      "type": "function",
      "constant": true
    },
    {
      "inputs": [
        {
          "internalType": "uint256",
          "name": "",
          "type": "uint256"
        }
      ],
      "name": "robots",
      "outputs": [
        {
          "internalType": "string",
          "name": "name",
          "type": "string"
        },
        {
          "internalType": "string",
          "name": "dna",
          "type": "string"
        },
        {
          "internalType": "uint8",
          "name": "spieces",
          "type": "uint8"
        },
        {
          "internalType": "uint8",
          "name": "status",
          "type": "uint8"
        },
        {
          "internalType": "uint32",
          "name": "stars",
          "type": "uint32"
        },
        {
          "internalType": "uint256",
          "name": "price",
          "type": "uint256"
        },
        {
          "internalType": "uint256",
          "name": "idInMarket",
          "type": "uint256"
        }
      ],
      "stateMutability": "view",
      "type": "function",
      "constant": true
    },
    {
      "inputs": [
        {
          "internalType": "uint256",
          "name": "robotId",
          "type": "uint256"
        },
        {
          "internalType": "uint256",
          "name": "price",
          "type": "uint256"
        }
      ],
      "name": "saleRobot",
      "outputs": [],
      "stateMutability": "nonpayable",
      "type": "function"
    },
    {
      "inputs": [
        {
          "internalType": "uint256",
          "name": "fee",
          "type": "uint256"
        }
      ],
      "name": "setLevelupFee",
      "outputs": [],
      "stateMutability": "nonpayable",
      "type": "function"
    },
    {
      "inputs": [
        {
          "internalType": "uint256",
          "name": "robotId",
          "type": "uint256"
        },
        {
          "internalType": "string",
          "name": "newName",
          "type": "string"
        }
      ],
      "name": "setRobotName",
      "outputs": [],
      "stateMutability": "payable",
      "type": "function",
      "payable": true
    },
    {
      "inputs": [
        {
          "internalType": "uint256",
          "name": "robotId",
          "type": "uint256"
        },
        {
          "internalType": "uint256",
          "name": "price",
          "type": "uint256"
        }
      ],
      "name": "setRobotPrice",
      "outputs": [],
      "stateMutability": "nonpayable",
      "type": "function"
    },
    {
      "inputs": [
        {
          "internalType": "uint256",
          "name": "",
          "type": "uint256"
        }
      ],
      "name": "topRobots",
      "outputs": [
        {
          "internalType": "uint256",
          "name": "",
          "type": "uint256"
        }
      ],
      "stateMutability": "view",
      "type": "function",
      "constant": true
    },
    {
      "inputs": [
        {
          "internalType": "address",
          "name": "newOwner",
          "type": "address"
        }
      ],
      "name": "transferOwnership",
      "outputs": [],
      "stateMutability": "nonpayable",
      "type": "function"
    },
    {
      "inputs": [
        {
          "internalType": "uint256",
          "name": "robotId",
          "type": "uint256"
        }
      ],
      "name": "unSaleRobot",
      "outputs": [],
      "stateMutability": "nonpayable",
      "type": "function"
    }
  ],
  "bytecode": "0x608060405262015180600155600060025566038d7ea4c680006008553480156200002857600080fd5b50336000806101000a81548173ffffffffffffffffffffffffffffffffffffffff021916908373ffffffffffffffffffffffffffffffffffffffff16021790555060008054906101000a900473ffffffffffffffffffffffffffffffffffffffff1673ffffffffffffffffffffffffffffffffffffffff16600073ffffffffffffffffffffffffffffffffffffffff167f8be0079c531659141344cd1fd0a4f28419497f9722a3daafe3b4186f6b6457e060405160405180910390a3600360405180608001604052806040518060400160405280600481526020017f696e69740000000000000000000000000000000000000000000000000000000081525081526020016040518060400160405280600481526020017f696e6974000000000000000000000000000000000000000000000000000000008152508152602001600067ffffffffffffffff168152602001600067ffffffffffffffff1681525090806001815401808255809150506001900390600052602060002090600302016000909190919091506000820151816000019080519060200190620001ce92919062000254565b506020820151816001019080519060200190620001ed92919062000254565b5060408201518160020160006101000a81548167ffffffffffffffff021916908367ffffffffffffffff16021790555060608201518160020160086101000a81548167ffffffffffffffff021916908367ffffffffffffffff160217905550505062000368565b828054620002629062000333565b90600052602060002090601f016020900481019282620002865760008555620002d2565b82601f10620002a157805160ff1916838001178555620002d2565b82800160010185558215620002d2579182015b82811115620002d1578251825591602001919060010190620002b4565b5b509050620002e19190620002e5565b5090565b5b8082111562000300576000816000905550600101620002e6565b5090565b7f4e487b7100000000000000000000000000000000000000000000000000000000600052602260045260246000fd5b600060028204905060018216806200034c57607f821691505b60208210810362000362576200036162000304565b5b50919050565b6138d080620003786000396000f3fe6080604052600436106101665760003560e01c80639b41bb69116100d1578063b331ae571161008a578063e900574d11610064578063e900574d14610518578063e9ca0f2a14610534578063f242da121461055d578063f2fde38b1461058657610166565b8063b331ae57146104a8578063d06bd9e7146104c4578063d1763b3a146104ed57610166565b80639b41bb6914610396578063a03937c5146103bf578063a1a4d91c14610402578063a7d9e53e1461042b578063b060ff1914610454578063b1283e771461046b57610166565b80637c4213de116101235780637c4213de1461028e5780638da5cb5b146102aa5780638f32d59b146102d55780639403a0ce14610300578063955059611461033d5780639949460c1461037a57610166565b806308bdadf81461016b57806322e8c8fc14610194578063492d8b3d146101bd57806365ceceb1146101fd5780636aa438dc1461023a578063715018a614610277575b600080fd5b34801561017757600080fd5b50610192600480360381019061018d919061281f565b6105af565b005b3480156101a057600080fd5b506101bb60048036038101906101b6919061281f565b610723565b005b3480156101c957600080fd5b506101e460048036038101906101df919061285f565b61086c565b6040516101f49493929190612948565b60405180910390f35b34801561020957600080fd5b50610224600480360381019061021f91906129f9565b6109e4565b6040516102319190612a35565b60405180910390f35b34801561024657600080fd5b50610261600480360381019061025c91906129f9565b6109fc565b60405161026e9190612a35565b60405180910390f35b34801561028357600080fd5b5061028c610a14565b005b6102a860048036038101906102a39190612ab5565b610ae3565b005b3480156102b657600080fd5b506102bf610bab565b6040516102cc9190612b11565b60405180910390f35b3480156102e157600080fd5b506102ea610bd4565b6040516102f79190612b47565b60405180910390f35b34801561030c57600080fd5b506103276004803603810190610322919061285f565b610c2b565b6040516103349190612b11565b60405180910390f35b34801561034957600080fd5b50610364600480360381019061035f919061285f565b610c5e565b6040516103719190612a35565b60405180910390f35b610394600480360381019061038f9190612ab5565b610c82565b005b3480156103a257600080fd5b506103bd60048036038101906103b8919061285f565b610d4a565b005b3480156103cb57600080fd5b506103e660048036038101906103e1919061285f565b610ebb565b6040516103f99796959493929190612b9d565b60405180910390f35b34801561040e57600080fd5b5061042960048036038101906104249190612ab5565b611047565b005b34801561043757600080fd5b50610452600480360381019061044d919061281f565b6112f5565b005b34801561046057600080fd5b506104696113c6565b005b34801561047757600080fd5b50610492600480360381019061048d919061285f565b6114d3565b60405161049f9190612a35565b60405180910390f35b6104c260048036038101906104bd919061285f565b6114f7565b005b3480156104d057600080fd5b506104eb60048036038101906104e6919061285f565b611845565b005b3480156104f957600080fd5b506105026119f4565b60405161050f9190612cd8565b60405180910390f35b610532600480360381019061052d9190612cfa565b611b44565b005b34801561054057600080fd5b5061055b6004803603810190610556919061285f565b611d22565b005b34801561056957600080fd5b50610584600480360381019061057f919061285f565b612184565b005b34801561059257600080fd5b506105ad60048036038101906105a891906129f9565b61219f565b005b816006600082815260200190815260200160002060009054906101000a900473ffffffffffffffffffffffffffffffffffffffff1673ffffffffffffffffffffffffffffffffffffffff163373ffffffffffffffffffffffffffffffffffffffff1614610651576040517f08c379a000000000000000000000000000000000000000000000000000000000815260040161064890612da6565b60405180910390fd5b600a8390806001815401808255809150506001900390600052602060002001600090919091909150556001600484815481106106905761068f612dc6565b5b906000526020600020906005020160020160016101000a81548160ff021916908360ff16021790555081600484815481106106ce576106cd612dc6565b5b9060005260206000209060050201600301819055506001600a805490506106f59190612e24565b6004848154811061070957610708612dc6565b5b906000526020600020906005020160040181905550505050565b806006600082815260200190815260200160002060009054906101000a900473ffffffffffffffffffffffffffffffffffffffff1673ffffffffffffffffffffffffffffffffffffffff163373ffffffffffffffffffffffffffffffffffffffff16146107c5576040517f08c379a00000000000000000000000000000000000000000000000000000000081526004016107bc90612da6565b60405180910390fd5b600060016107d360066121bc565b6107dd9190612e58565b90506000600382116107f257600090506107f7565b600190505b80850361080b57610806612218565b610865565b610813610bab565b6006600086815260200190815260200160002060006101000a81548173ffffffffffffffffffffffffffffffffffffffff021916908373ffffffffffffffffffffffffffffffffffffffff1602179055505b5050505050565b6003818154811061087c57600080fd5b906000526020600020906003020160009150905080600001805461089f90612edd565b80601f01602080910402602001604051908101604052809291908181526020018280546108cb90612edd565b80156109185780601f106108ed57610100808354040283529160200191610918565b820191906000526020600020905b8154815290600101906020018083116108fb57829003601f168201915b50505050509080600101805461092d90612edd565b80601f016020809104026020016040519081016040528092919081815260200182805461095990612edd565b80156109a65780601f1061097b576101008083540402835291602001916109a6565b820191906000526020600020905b81548152906001019060200180831161098957829003601f168201915b5050505050908060020160009054906101000a900467ffffffffffffffff16908060020160089054906101000a900467ffffffffffffffff16905084565b60076020528060005260406000206000915090505481565b60056020528060005260406000206000915090505481565b610a1c610bd4565b610a2557600080fd5b600073ffffffffffffffffffffffffffffffffffffffff1660008054906101000a900473ffffffffffffffffffffffffffffffffffffffff1673ffffffffffffffffffffffffffffffffffffffff167f8be0079c531659141344cd1fd0a4f28419497f9722a3daafe3b4186f6b6457e060405160405180910390a360008060006101000a81548173ffffffffffffffffffffffffffffffffffffffff021916908373ffffffffffffffffffffffffffffffffffffffff160217905550565b6008543414610b27576040517f08c379a0000000000000000000000000000000000000000000000000000000008152600401610b1e90612f5a565b60405180910390fd5b6000600560003373ffffffffffffffffffffffffffffffffffffffff1673ffffffffffffffffffffffffffffffffffffffff168152602001908152602001600020549050600060038281548110610b8157610b80612dc6565b5b906000526020600020906003020190508383826001019190610ba49291906126b6565b5050505050565b60008060009054906101000a900473ffffffffffffffffffffffffffffffffffffffff16905090565b60008060009054906101000a900473ffffffffffffffffffffffffffffffffffffffff1673ffffffffffffffffffffffffffffffffffffffff163373ffffffffffffffffffffffffffffffffffffffff1614905090565b60066020528060005260406000206000915054906101000a900473ffffffffffffffffffffffffffffffffffffffff1681565b60098181548110610c6e57600080fd5b906000526020600020016000915090505481565b6008543414610cc6576040517f08c379a0000000000000000000000000000000000000000000000000000000008152600401610cbd90612f5a565b60405180910390fd5b6000600560003373ffffffffffffffffffffffffffffffffffffffff1673ffffffffffffffffffffffffffffffffffffffff168152602001908152602001600020549050600060038281548110610d2057610d1f612dc6565b5b906000526020600020906003020190508383826000019190610d439291906126b6565b5050505050565b806006600082815260200190815260200160002060009054906101000a900473ffffffffffffffffffffffffffffffffffffffff1673ffffffffffffffffffffffffffffffffffffffff163373ffffffffffffffffffffffffffffffffffffffff1614610dec576040517f08c379a0000000000000000000000000000000000000000000000000000000008152600401610de390612da6565b60405180910390fd5b610df4610bab565b6006600084815260200190815260200160002060006101000a81548173ffffffffffffffffffffffffffffffffffffffff021916908373ffffffffffffffffffffffffffffffffffffffff1602179055503373ffffffffffffffffffffffffffffffffffffffff167f21a51e05aaba7d9dfc436f444cce7ae7c5080aec1a649777bb7f2561643aaad560048481548110610e9157610e90612dc6565b5b9060005260206000209060050201600001604051610eaf919061300f565b60405180910390a25050565b60048181548110610ecb57600080fd5b9060005260206000209060050201600091509050806000018054610eee90612edd565b80601f0160208091040260200160405190810160405280929190818152602001828054610f1a90612edd565b8015610f675780601f10610f3c57610100808354040283529160200191610f67565b820191906000526020600020905b815481529060010190602001808311610f4a57829003601f168201915b505050505090806001018054610f7c90612edd565b80601f0160208091040260200160405190810160405280929190818152602001828054610fa890612edd565b8015610ff55780601f10610fca57610100808354040283529160200191610ff5565b820191906000526020600020905b815481529060010190602001808311610fd857829003601f168201915b5050505050908060020160009054906101000a900460ff16908060020160019054906101000a900460ff16908060020160029054906101000a900463ffffffff16908060030154908060040154905087565b6000600560003373ffffffffffffffffffffffffffffffffffffffff1673ffffffffffffffffffffffffffffffffffffffff16815260200190815260200160002054146110c9576040517f08c379a00000000000000000000000000000000000000000000000000000000081526004016110c09061307d565b60405180910390fd5b60006040518060400160405280600c81526020017f72616e646f6d537472696e67000000000000000000000000000000000000000081525090506003604051806080016040528085858080601f016020809104026020016040519081016040528093929190818152602001838380828437600081840152601f19601f8201169050808301925050505050505081526020018381526020014267ffffffffffffffff1681526020014267ffffffffffffffff16815250908060018154018082558091505060019003906000526020600020906003020160009091909190915060008201518160000190805190602001906111c392919061273c565b5060208201518160010190805190602001906111e092919061273c565b5060408201518160020160006101000a81548167ffffffffffffffff021916908367ffffffffffffffff16021790555060608201518160020160086101000a81548167ffffffffffffffff021916908367ffffffffffffffff1602179055505050600060016003805490506112559190612e24565b905080600560003373ffffffffffffffffffffffffffffffffffffffff1673ffffffffffffffffffffffffffffffffffffffff168152602001908152602001600020819055503373ffffffffffffffffffffffffffffffffffffffff167f0ba589754bdc7c1e308a8ce3362a7b42600571fdd695534edd1e0182e187149f828686866040516112e794939291906130d9565b60405180910390a250505050565b816006600082815260200190815260200160002060009054906101000a900473ffffffffffffffffffffffffffffffffffffffff1673ffffffffffffffffffffffffffffffffffffffff163373ffffffffffffffffffffffffffffffffffffffff1614611397576040517f08c379a000000000000000000000000000000000000000000000000000000000815260040161138e90612da6565b60405180910390fd5b81600484815481106113ac576113ab612dc6565b5b906000526020600020906005020160030181905550505050565b60006003600560003373ffffffffffffffffffffffffffffffffffffffff1673ffffffffffffffffffffffffffffffffffffffff168152602001908152602001600020548154811061141b5761141a612dc6565b5b90600052602060002090600302019050428160020160009054906101000a900467ffffffffffffffff1667ffffffffffffffff161115611490576040517f08c379a000000000000000000000000000000000000000000000000000000000815260040161148790613192565b60405180910390fd5b611498612222565b600154426114a69190612e58565b8160020160006101000a81548167ffffffffffffffff021916908367ffffffffffffffff16021790555050565b600a81815481106114e357600080fd5b906000526020600020016000915090505481565b6006600082815260200190815260200160002060009054906101000a900473ffffffffffffffffffffffffffffffffffffffff1673ffffffffffffffffffffffffffffffffffffffff163373ffffffffffffffffffffffffffffffffffffffff1603611598576040517f08c379a000000000000000000000000000000000000000000000000000000000815260040161158f90613224565b60405180910390fd5b6001600482815481106115ae576115ad612dc6565b5b906000526020600020906005020160020160019054906101000a900460ff1660ff1614611610576040517f08c379a000000000000000000000000000000000000000000000000000000000815260040161160790613290565b60405180910390fd5b6004818154811061162457611623612dc6565b5b906000526020600020906005020160030154341461164157600080fd5b600a6001600a805490506116559190612e24565b8154811061166657611665612dc6565b5b9060005260206000200154600a6004838154811061168757611686612dc6565b5b906000526020600020906005020160040154815481106116aa576116a9612dc6565b5b9060005260206000200181905550600a8054806116ca576116c96132b0565b5b600190038181906000526020600020016000905590556000600482815481106116f6576116f5612dc6565b5b906000526020600020906005020160020160016101000a81548160ff021916908360ff16021790555060006004828154811061173557611734612dc6565b5b90600052602060002090600502016003018190555060006006600083815260200190815260200160002060009054906101000a900473ffffffffffffffffffffffffffffffffffffffff169050336006600084815260200190815260200160002060006101000a81548173ffffffffffffffffffffffffffffffffffffffff021916908373ffffffffffffffffffffffffffffffffffffffff1602179055508073ffffffffffffffffffffffffffffffffffffffff166108fc611815605f61180760643461255d90919063ffffffff16565b61257890919063ffffffff16565b9081150290604051600060405180830381858888f19350505050158015611840573d6000803e3d6000fd5b505050565b806006600082815260200190815260200160002060009054906101000a900473ffffffffffffffffffffffffffffffffffffffff1673ffffffffffffffffffffffffffffffffffffffff163373ffffffffffffffffffffffffffffffffffffffff16146118e7576040517f08c379a00000000000000000000000000000000000000000000000000000000081526004016118de90612da6565b60405180910390fd5b600a6001600a805490506118fb9190612e24565b8154811061190c5761190b612dc6565b5b9060005260206000200154600a6004848154811061192d5761192c612dc6565b5b906000526020600020906005020160040154815481106119505761194f612dc6565b5b9060005260206000200181905550600a8054806119705761196f6132b0565b5b6001900381819060005260206000200160009055905560006004838154811061199c5761199b612dc6565b5b906000526020600020906005020160020160016101000a81548160ff021916908360ff1602179055506000600483815481106119db576119da612dc6565b5b9060005260206000209060050201600301819055505050565b60606000600760003373ffffffffffffffffffffffffffffffffffffffff1673ffffffffffffffffffffffffffffffffffffffff1681526020019081526020016000205467ffffffffffffffff811115611a5157611a506132df565b5b604051908082528060200260200182016040528015611a7f5781602001602082028036833780820191505090505b5090506000805b600480549050811015611b3b573373ffffffffffffffffffffffffffffffffffffffff166006600083815260200190815260200160002060009054906101000a900473ffffffffffffffffffffffffffffffffffffffff1673ffffffffffffffffffffffffffffffffffffffff1603611b285780838381518110611b0d57611b0c612dc6565b5b6020026020010181815250508180611b249061330e565b9250505b8080611b339061330e565b915050611a86565b50819250505090565b826006600082815260200190815260200160002060009054906101000a900473ffffffffffffffffffffffffffffffffffffffff1673ffffffffffffffffffffffffffffffffffffffff163373ffffffffffffffffffffffffffffffffffffffff1614611be6576040517f08c379a0000000000000000000000000000000000000000000000000000000008152600401611bdd90612da6565b60405180910390fd5b604051602001611bf5906133a2565b6040516020818303038152906040528051906020012060048581548110611c1f57611c1e612dc6565b5b9060005260206000209060050201600001604051602001611c40919061300f565b6040516020818303038152906040528051906020012014611ca0576008543414611c9f576040517f08c379a0000000000000000000000000000000000000000000000000000000008152600401611c9690612f5a565b60405180910390fd5b5b6014838390501115611ce7576040517f08c379a0000000000000000000000000000000000000000000000000000000008152600401611cde90613434565b60405180910390fd5b828260048681548110611cfd57611cfc612dc6565b5b90600052602060002090600502016000019190611d1b9291906126b6565b5050505050565b6006600082815260200190815260200160002060009054906101000a900473ffffffffffffffffffffffffffffffffffffffff1673ffffffffffffffffffffffffffffffffffffffff163373ffffffffffffffffffffffffffffffffffffffff1603611dc3576040517f08c379a0000000000000000000000000000000000000000000000000000000008152600401611dba906134c6565b60405180910390fd5b60006003600560003373ffffffffffffffffffffffffffffffffffffffff1673ffffffffffffffffffffffffffffffffffffffff1681526020019081526020016000205481548110611e1857611e17612dc6565b5b90600052602060002090600302019050428160020160089054906101000a900467ffffffffffffffff1667ffffffffffffffff161115611e8d576040517f08c379a0000000000000000000000000000000000000000000000000000000008152600401611e8490613558565b60405180910390fd5b60048281548110611ea157611ea0612dc6565b5b9060005260206000209060050201600201600281819054906101000a900463ffffffff1680929190611ed290613578565b91906101000a81548163ffffffff021916908363ffffffff160217905550506001548160020160088282829054906101000a900467ffffffffffffffff16611f1a91906135a4565b92506101000a81548167ffffffffffffffff021916908367ffffffffffffffff16021790555060646009805490501015611f7c576009829080600181540180825580915050600190039060005260206000200160009091909190915055612004565b6009600081548110611f9157611f90612dc6565b5b906000526020600020015460048381548110611fb057611faf612dc6565b5b906000526020600020906005020160020160029054906101000a900463ffffffff1663ffffffff16111561200357816009600081548110611ff457611ff3612dc6565b5b90600052602060002001819055505b5b60646009805490500361218057600080600190505b60648110156120f35760046009838154811061203857612037612dc6565b5b90600052602060002001548154811061205457612053612dc6565b5b906000526020600020906005020160020160029054906101000a900463ffffffff1663ffffffff1660046009838154811061209257612091612dc6565b5b9060005260206000200154815481106120ae576120ad612dc6565b5b906000526020600020906005020160020160029054906101000a900463ffffffff1663ffffffff1610156120e0578091505b80806120eb9061330e565b915050612019565b506000600960008154811061210b5761210a612dc6565b5b906000526020600020015490506009828154811061212c5761212b612dc6565b5b9060005260206000200154600960008154811061214c5761214b612dc6565b5b9060005260206000200181905550806009838154811061216f5761216e612dc6565b5b906000526020600020018190555050505b5050565b61218c610bd4565b61219557600080fd5b8060088190555050565b6121a7610bd4565b6121b057600080fd5b6121b9816125c0565b50565b6000600260008154809291906121d19061330e565b91905055508142336002546040516020016121ee9392919061364b565b6040516020818303038152906040528051906020012060001c61221191906136b7565b9050919050565b612220612222565b565b6064600760003373ffffffffffffffffffffffffffffffffffffffff1673ffffffffffffffffffffffffffffffffffffffff1681526020019081526020016000205411156122a5576040517f08c379a000000000000000000000000000000000000000000000000000000000815260040161229c90613734565b60405180910390fd5b60006122b160026121bc565b905060006040518060400160405280600c81526020017f72616e646f6d537472696e670000000000000000000000000000000000000000815250905060046040518060e001604052806040518060400160405280600681526020017f6e6f4e616d65000000000000000000000000000000000000000000000000000081525081526020018381526020018460ff168152602001600060ff168152602001600063ffffffff168152602001600081526020016000815250908060018154018082558091505060019003906000526020600020906005020160009091909190915060008201518160000190805190602001906123ac92919061273c565b5060208201518160010190805190602001906123c992919061273c565b5060408201518160020160006101000a81548160ff021916908360ff16021790555060608201518160020160016101000a81548160ff021916908360ff16021790555060808201518160020160026101000a81548163ffffffff021916908363ffffffff16021790555060a0820151816003015560c0820151816004015550506000600160048054905061245d9190612e24565b9050336006600083815260200190815260200160002060006101000a81548173ffffffffffffffffffffffffffffffffffffffff021916908373ffffffffffffffffffffffffffffffffffffffff160217905550600760003373ffffffffffffffffffffffffffffffffffffffff1673ffffffffffffffffffffffffffffffffffffffff16815260200190815260200160002060008154809291906125019061330e565b91905055503373ffffffffffffffffffffffffffffffffffffffff167fe4bc06e69dd7a0f1bc9ef5db431d371f0cab41d8156a6012711823b90466715b8284866040516125509392919061378f565b60405180910390a2505050565b600080828461256c91906137e0565b90508091505092915050565b600080830361258a57600090506125ba565b600082846125989190613811565b90508284826125a791906137e0565b146125b5576125b461386b565b5b809150505b92915050565b600073ffffffffffffffffffffffffffffffffffffffff168173ffffffffffffffffffffffffffffffffffffffff16036125f957600080fd5b8073ffffffffffffffffffffffffffffffffffffffff1660008054906101000a900473ffffffffffffffffffffffffffffffffffffffff1673ffffffffffffffffffffffffffffffffffffffff167f8be0079c531659141344cd1fd0a4f28419497f9722a3daafe3b4186f6b6457e060405160405180910390a3806000806101000a81548173ffffffffffffffffffffffffffffffffffffffff021916908373ffffffffffffffffffffffffffffffffffffffff16021790555050565b8280546126c290612edd565b90600052602060002090601f0160209004810192826126e4576000855561272b565b82601f106126fd57803560ff191683800117855561272b565b8280016001018555821561272b579182015b8281111561272a57823582559160200191906001019061270f565b5b50905061273891906127c2565b5090565b82805461274890612edd565b90600052602060002090601f01602090048101928261276a57600085556127b1565b82601f1061278357805160ff19168380011785556127b1565b828001600101855582156127b1579182015b828111156127b0578251825591602001919060010190612795565b5b5090506127be91906127c2565b5090565b5b808211156127db5760008160009055506001016127c3565b5090565b600080fd5b600080fd5b6000819050919050565b6127fc816127e9565b811461280757600080fd5b50565b600081359050612819816127f3565b92915050565b60008060408385031215612836576128356127df565b5b60006128448582860161280a565b92505060206128558582860161280a565b9150509250929050565b600060208284031215612875576128746127df565b5b60006128838482850161280a565b91505092915050565b600081519050919050565b600082825260208201905092915050565b60005b838110156128c65780820151818401526020810190506128ab565b838111156128d5576000848401525b50505050565b6000601f19601f8301169050919050565b60006128f78261288c565b6129018185612897565b93506129118185602086016128a8565b61291a816128db565b840191505092915050565b600067ffffffffffffffff82169050919050565b61294281612925565b82525050565b6000608082019050818103600083015261296281876128ec565b9050818103602083015261297681866128ec565b90506129856040830185612939565b6129926060830184612939565b95945050505050565b600073ffffffffffffffffffffffffffffffffffffffff82169050919050565b60006129c68261299b565b9050919050565b6129d6816129bb565b81146129e157600080fd5b50565b6000813590506129f3816129cd565b92915050565b600060208284031215612a0f57612a0e6127df565b5b6000612a1d848285016129e4565b91505092915050565b612a2f816127e9565b82525050565b6000602082019050612a4a6000830184612a26565b92915050565b600080fd5b600080fd5b600080fd5b60008083601f840112612a7557612a74612a50565b5b8235905067ffffffffffffffff811115612a9257612a91612a55565b5b602083019150836001820283011115612aae57612aad612a5a565b5b9250929050565b60008060208385031215612acc57612acb6127df565b5b600083013567ffffffffffffffff811115612aea57612ae96127e4565b5b612af685828601612a5f565b92509250509250929050565b612b0b816129bb565b82525050565b6000602082019050612b266000830184612b02565b92915050565b60008115159050919050565b612b4181612b2c565b82525050565b6000602082019050612b5c6000830184612b38565b92915050565b600060ff82169050919050565b612b7881612b62565b82525050565b600063ffffffff82169050919050565b612b9781612b7e565b82525050565b600060e0820190508181036000830152612bb7818a6128ec565b90508181036020830152612bcb81896128ec565b9050612bda6040830188612b6f565b612be76060830187612b6f565b612bf46080830186612b8e565b612c0160a0830185612a26565b612c0e60c0830184612a26565b98975050505050505050565b600081519050919050565b600082825260208201905092915050565b6000819050602082019050919050565b612c4f816127e9565b82525050565b6000612c618383612c46565b60208301905092915050565b6000602082019050919050565b6000612c8582612c1a565b612c8f8185612c25565b9350612c9a83612c36565b8060005b83811015612ccb578151612cb28882612c55565b9750612cbd83612c6d565b925050600181019050612c9e565b5085935050505092915050565b60006020820190508181036000830152612cf28184612c7a565b905092915050565b600080600060408486031215612d1357612d126127df565b5b6000612d218682870161280a565b935050602084013567ffffffffffffffff811115612d4257612d416127e4565b5b612d4e86828701612a5f565b92509250509250925092565b7f4e6f7420796f757220726f626f742e0000000000000000000000000000000000600082015250565b6000612d90600f83612897565b9150612d9b82612d5a565b602082019050919050565b60006020820190508181036000830152612dbf81612d83565b9050919050565b7f4e487b7100000000000000000000000000000000000000000000000000000000600052603260045260246000fd5b7f4e487b7100000000000000000000000000000000000000000000000000000000600052601160045260246000fd5b6000612e2f826127e9565b9150612e3a836127e9565b925082821015612e4d57612e4c612df5565b5b828203905092915050565b6000612e63826127e9565b9150612e6e836127e9565b9250827fffffffffffffffffffffffffffffffffffffffffffffffffffffffffffffffff03821115612ea357612ea2612df5565b5b828201905092915050565b7f4e487b7100000000000000000000000000000000000000000000000000000000600052602260045260246000fd5b60006002820490506001821680612ef557607f821691505b602082108103612f0857612f07612eae565b5b50919050565b7f506c656173652070617920656e6f7567682065746865722e0000000000000000600082015250565b6000612f44601883612897565b9150612f4f82612f0e565b602082019050919050565b60006020820190508181036000830152612f7381612f37565b9050919050565b60008190508160005260206000209050919050565b60008154612f9c81612edd565b612fa68186612897565b94506001821660008114612fc15760018114612fd357613006565b60ff1983168652602086019350613006565b612fdc85612f7a565b60005b83811015612ffe57815481890152600182019150602081019050612fdf565b808801955050505b50505092915050565b600060208201905081810360008301526130298184612f8f565b905092915050565b7f596f757220636f6d6d616e64657220616c726561647920657869737465642e00600082015250565b6000613067601f83612897565b915061307282613031565b602082019050919050565b600060208201905081810360008301526130968161305a565b9050919050565b82818337600083830152505050565b60006130b88385612897565b93506130c583858461309d565b6130ce836128db565b840190509392505050565b60006060820190506130ee6000830187612a26565b81810360208301526131018185876130ac565b9050818103604083015261311581846128ec565b905095945050505050565b7f4c657373207468616e206f6e65206461792073696e6365206c6173742074696d60008201527f6520796f75206765742061206672656520726f626f742e000000000000000000602082015250565b600061317c603783612897565b915061318782613120565b604082019050919050565b600060208201905081810360008301526131ab8161316f565b9050919050565b7f4974277320796f757220726f626f742c20796f752063616e277420627579206960008201527f742e000000000000000000000000000000000000000000000000000000000000602082015250565b600061320e602283612897565b9150613219826131b2565b604082019050919050565b6000602082019050818103600083015261323d81613201565b9050919050565b7f5468697320726f626f74206e6f74206f6e2073616c652e000000000000000000600082015250565b600061327a601783612897565b915061328582613244565b602082019050919050565b600060208201905081810360008301526132a98161326d565b9050919050565b7f4e487b7100000000000000000000000000000000000000000000000000000000600052603160045260246000fd5b7f4e487b7100000000000000000000000000000000000000000000000000000000600052604160045260246000fd5b6000613319826127e9565b91507fffffffffffffffffffffffffffffffffffffffffffffffffffffffffffffffff820361334b5761334a612df5565b5b600182019050919050565b7f6e6f4e616d650000000000000000000000000000000000000000000000000000600082015250565b600061338c600683612897565b915061339782613356565b602082019050919050565b600060208201905081810360008301526133bb8161337f565b9050919050565b7f526f626f74206e616d652063616e6e6f7420657863656564203230206368617260008201527f6163746572732e00000000000000000000000000000000000000000000000000602082015250565b600061341e602783612897565b9150613429826133c2565b604082019050919050565b6000602082019050818103600083015261344d81613411565b9050919050565b7f596f752063616e6e6f7420676976652061207374617220746f20796f7572206f60008201527f776e20726f626f742e0000000000000000000000000000000000000000000000602082015250565b60006134b0602983612897565b91506134bb82613454565b604082019050919050565b600060208201905081810360008301526134df816134a3565b9050919050565b7f4c657373207468616e206f6e65206461792073696e6365206c6173742074696d60008201527f6520796f752067697665206120737461722e0000000000000000000000000000602082015250565b6000613542603283612897565b915061354d826134e6565b604082019050919050565b6000602082019050818103600083015261357181613535565b9050919050565b600061358382612b7e565b915063ffffffff820361359957613598612df5565b5b600182019050919050565b60006135af82612925565b91506135ba83612925565b92508267ffffffffffffffff038211156135d7576135d6612df5565b5b828201905092915050565b6000819050919050565b6135fd6135f8826127e9565b6135e2565b82525050565b60008160601b9050919050565b600061361b82613603565b9050919050565b600061362d82613610565b9050919050565b613645613640826129bb565b613622565b82525050565b600061365782866135ec565b6020820191506136678285613634565b60148201915061367782846135ec565b602082019150819050949350505050565b7f4e487b7100000000000000000000000000000000000000000000000000000000600052601260045260246000fd5b60006136c2826127e9565b91506136cd836127e9565b9250826136dd576136dc613688565b5b828206905092915050565b7f596f7572207265706f2069732066756c6c2e0000000000000000000000000000600082015250565b600061371e601283612897565b9150613729826136e8565b602082019050919050565b6000602082019050818103600083015261374d81613711565b9050919050565b6000819050919050565b600061377961377461376f84612b62565b613754565b6127e9565b9050919050565b6137898161375e565b82525050565b60006080820190506137a46000830186612a26565b81810360208301526137b58161337f565b905081810360408301526137c981856128ec565b90506137d86060830184613780565b949350505050565b60006137eb826127e9565b91506137f6836127e9565b92508261380657613805613688565b5b828204905092915050565b600061381c826127e9565b9150613827836127e9565b9250817fffffffffffffffffffffffffffffffffffffffffffffffffffffffffffffffff04831182151516156138605761385f612df5565b5b828202905092915050565b7f4e487b7100000000000000000000000000000000000000000000000000000000600052600160045260246000fdfea26469706673582212204b2953b8188ad09fe1c2f16c35b7be43d6c7a327f3dd67859241538d1f29a05e64736f6c634300080d0033",
  "immutableReferences": {},
  "source": "// SPDX-License-Identifier: GPL-3.0\npragma solidity ^0.8.13;\n\nimport \"./RobotManage.sol\";\nimport \"./Star.sol\";\nimport \"./Gamble.sol\";\nimport \"./Trade.sol\";\n\n//\ncontract App is RobotManage, Star, Gamble, Trade {\n\n}",
  "sourcePath": "/Users/liqinghao/Desktop/RoboHashWeb3/contracts/robotgame/App.sol",
  "compiler": {
    "name": "solc",
    "version": "0.8.13+commit.abaa5c0e.Emscripten.clang"
  },
  "schemaVersion": "3.4.16",
  "updatedAt": "2023-11-07T02:32:25.969Z",
  "networkType": "ethereum",
  "devdoc": {
    "kind": "dev",
    "methods": {
      "isOwner()": {
        "returns": {
          "_0": "true if `msg.sender` is the owner of the contract."
        }
      },
      "owner()": {
        "returns": {
          "_0": "the address of the owner."
        }
      },
      "renounceOwnership()": {
        "details": "Allows the current owner to relinquish control of the contract."
      },
      "transferOwnership(address)": {
        "details": "Allows the current owner to transfer control of the contract to a newOwner.",
        "params": {
          "newOwner": "The address to transfer ownership to."
        }
      }
    },
    "version": 1
  },
  "userdoc": {
    "kind": "user",
    "methods": {
      "renounceOwnership()": {
        "notice": "Renouncing to ownership will leave the contract without an owner. It will not be possible to call the functions with the `onlyOwner` modifier anymore."
      }
    },
    "version": 1
  }
}