{
  "contractName": "App",
  "abi": [
    {
      "anonymous": false,
      "inputs": [
        {
          "indexed": false,
          "internalType": "string",
          "name": "name",
          "type": "string"
        },
        {
          "indexed": true,
          "internalType": "address",
          "name": "owner",
          "type": "address"
        }
      ],
      "name": "DropRobot",
      "type": "event"
    },
    {
      "anonymous": false,
      "inputs": [
        {
          "indexed": false,
          "internalType": "uint256",
          "name": "id",
          "type": "uint256"
        },
        {
          "indexed": false,
          "internalType": "string",
          "name": "name",
          "type": "string"
        },
        {
          "indexed": false,
          "internalType": "uint256",
          "name": "dna",
          "type": "uint256"
        },
        {
          "indexed": true,
          "internalType": "address",
          "name": "owner",
          "type": "address"
        }
      ],
      "name": "NewCommander",
      "type": "event"
    },
    {
      "anonymous": false,
      "inputs": [
        {
          "indexed": false,
          "internalType": "uint256",
          "name": "id",
          "type": "uint256"
        },
        {
          "indexed": false,
          "internalType": "string",
          "name": "name",
          "type": "string"
        },
        {
          "indexed": false,
          "internalType": "string",
          "name": "dna",
          "type": "string"
        },
        {
          "indexed": false,
          "internalType": "uint256",
          "name": "spieces",
          "type": "uint256"
        },
        {
          "indexed": true,
          "internalType": "address",
          "name": "owner",
          "type": "address"
        }
      ],
      "name": "NewRobot",
      "type": "event"
    },
    {
      "anonymous": false,
      "inputs": [
        {
          "indexed": true,
          "internalType": "address",
          "name": "previousOwner",
          "type": "address"
        },
        {
          "indexed": true,
          "internalType": "address",
          "name": "newOwner",
          "type": "address"
        }
      ],
      "name": "OwnershipTransferred",
      "type": "event"
    },
    {
      "inputs": [
        {
          "internalType": "string",
          "name": "name",
          "type": "string"
        }
      ],
      "name": "CreateCommander",
      "outputs": [],
      "stateMutability": "nonpayable",
      "type": "function"
    },
    {
      "inputs": [
        {
          "internalType": "address",
          "name": "",
          "type": "address"
        }
      ],
      "name": "addressToRandom",
      "outputs": [
        {
          "internalType": "uint256",
          "name": "result",
          "type": "uint256"
        },
        {
          "internalType": "uint8",
          "name": "status",
          "type": "uint8"
        }
      ],
      "stateMutability": "view",
      "type": "function",
      "constant": true
    },
    {
      "inputs": [
        {
          "internalType": "uint256",
          "name": "robotId",
          "type": "uint256"
        }
      ],
      "name": "buyRobot",
      "outputs": [],
      "stateMutability": "payable",
      "type": "function",
      "payable": true
    },
    {
      "inputs": [
        {
          "internalType": "uint256",
          "name": "",
          "type": "uint256"
        }
      ],
      "name": "commanders",
      "outputs": [
        {
          "internalType": "string",
          "name": "name",
          "type": "string"
        },
        {
          "internalType": "uint64",
          "name": "dna",
          "type": "uint64"
        },
        {
          "internalType": "uint64",
          "name": "getFreeRobotReadyTime",
          "type": "uint64"
        },
        {
          "internalType": "uint64",
          "name": "giveStarReadyTime",
          "type": "uint64"
        }
      ],
      "stateMutability": "view",
      "type": "function",
      "constant": true
    },
    {
      "inputs": [
        {
          "internalType": "uint256",
          "name": "robotId",
          "type": "uint256"
        }
      ],
      "name": "dropRobot",
      "outputs": [],
      "stateMutability": "nonpayable",
      "type": "function"
    },
    {
      "inputs": [],
      "name": "fee",
      "outputs": [
        {
          "internalType": "uint256",
          "name": "",
          "type": "uint256"
        }
      ],
      "stateMutability": "view",
      "type": "function",
      "constant": true
    },
    {
      "inputs": [
        {
          "internalType": "uint256",
          "name": "choice",
          "type": "uint256"
        },
        {
          "internalType": "uint256",
          "name": "robotId",
          "type": "uint256"
        }
      ],
      "name": "gamble",
      "outputs": [],
      "stateMutability": "nonpayable",
      "type": "function"
    },
    {
      "inputs": [],
      "name": "getFreeRobot",
      "outputs": [],
      "stateMutability": "nonpayable",
      "type": "function"
    },
    {
      "inputs": [],
      "name": "getRandomNumber",
      "outputs": [
        {
          "internalType": "bytes32",
          "name": "requestId",
          "type": "bytes32"
        }
      ],
      "stateMutability": "nonpayable",
      "type": "function"
    },
    {
      "inputs": [],
      "name": "getRobotsByOwner",
      "outputs": [
        {
          "internalType": "uint256[]",
          "name": "",
          "type": "uint256[]"
        }
      ],
      "stateMutability": "view",
      "type": "function",
      "constant": true
    },
    {
      "inputs": [
        {
          "internalType": "uint256",
          "name": "robotId",
          "type": "uint256"
        }
      ],
      "name": "giveStar",
      "outputs": [],
      "stateMutability": "nonpayable",
      "type": "function"
    },
    {
      "inputs": [],
      "name": "isOwner",
      "outputs": [
        {
          "internalType": "bool",
          "name": "",
          "type": "bool"
        }
      ],
      "stateMutability": "view",
      "type": "function",
      "constant": true
    },
    {
      "inputs": [],
      "name": "keyHash",
      "outputs": [
        {
          "internalType": "bytes32",
          "name": "",
          "type": "bytes32"
        }
      ],
      "stateMutability": "view",
      "type": "function",
      "constant": true
    },
    {
      "inputs": [
        {
          "internalType": "uint256",
          "name": "",
          "type": "uint256"
        }
      ],
      "name": "markets",
      "outputs": [
        {
          "internalType": "uint256",
          "name": "",
          "type": "uint256"
        }
      ],
      "stateMutability": "view",
      "type": "function",
      "constant": true
    },
    {
      "inputs": [
        {
          "internalType": "uint256",
          "name": "newDna",
          "type": "uint256"
        }
      ],
      "name": "modifyCommanderDna",
      "outputs": [],
      "stateMutability": "payable",
      "type": "function",
      "payable": true
    },
    {
      "inputs": [
        {
          "internalType": "string",
          "name": "newName",
          "type": "string"
        }
      ],
      "name": "modifyCommanderName",
      "outputs": [],
      "stateMutability": "payable",
      "type": "function",
      "payable": true
    },
    {
      "inputs": [],
      "name": "owner",
      "outputs": [
        {
          "internalType": "address",
          "name": "",
          "type": "address"
        }
      ],
      "stateMutability": "view",
      "type": "function",
      "constant": true
    },
    {
      "inputs": [
        {
          "internalType": "address",
          "name": "",
          "type": "address"
        }
      ],
      "name": "ownerRobotCount",
      "outputs": [
        {
          "internalType": "uint256",
          "name": "",
          "type": "uint256"
        }
      ],
      "stateMutability": "view",
      "type": "function",
      "constant": true
    },
    {
      "inputs": [
        {
          "internalType": "address",
          "name": "",
          "type": "address"
        }
      ],
      "name": "ownerToCommander",
      "outputs": [
        {
          "internalType": "uint256",
          "name": "",
          "type": "uint256"
        }
      ],
      "stateMutability": "view",
      "type": "function",
      "constant": true
    },
    {
      "inputs": [
        {
          "internalType": "bytes32",
          "name": "requestId",
          "type": "bytes32"
        },
        {
          "internalType": "uint256",
          "name": "randomness",
          "type": "uint256"
        }
      ],
      "name": "rawFulfillRandomness",
      "outputs": [],
      "stateMutability": "nonpayable",
      "type": "function"
    },
    {
      "inputs": [],
      "name": "renounceOwnership",
      "outputs": [],
      "stateMutability": "nonpayable",
      "type": "function"
    },
    {
      "inputs": [
        {
          "internalType": "bytes32",
          "name": "",
          "type": "bytes32"
        }
      ],
      "name": "requestIdToAddress",
      "outputs": [
        {
          "internalType": "address",
          "name": "",
          "type": "address"
        }
      ],
      "stateMutability": "view",
      "type": "function",
      "constant": true
    },
    {
      "inputs": [
        {
          "internalType": "uint256",
          "name": "",
          "type": "uint256"
        }
      ],
      "name": "robotToOwner",
      "outputs": [
        {
          "internalType": "address",
          "name": "",
          "type": "address"
        }
      ],
      "stateMutability": "view",
      "type": "function",
      "constant": true
    },
    {
      "inputs": [
        {
          "internalType": "uint256",
          "name": "",
          "type": "uint256"
        }
      ],
      "name": "robots",
      "outputs": [
        {
          "internalType": "string",
          "name": "name",
          "type": "string"
        },
        {
          "internalType": "string",
          "name": "dna",
          "type": "string"
        },
        {
          "internalType": "uint8",
          "name": "spieces",
          "type": "uint8"
        },
        {
          "internalType": "uint8",
          "name": "status",
          "type": "uint8"
        },
        {
          "internalType": "uint32",
          "name": "stars",
          "type": "uint32"
        },
        {
          "internalType": "uint256",
          "name": "price",
          "type": "uint256"
        },
        {
          "internalType": "uint256",
          "name": "idInMarket",
          "type": "uint256"
        }
      ],
      "stateMutability": "view",
      "type": "function",
      "constant": true
    },
    {
      "inputs": [
        {
          "internalType": "uint256",
          "name": "robotId",
          "type": "uint256"
        },
        {
          "internalType": "uint256",
          "name": "price",
          "type": "uint256"
        }
      ],
      "name": "saleRobot",
      "outputs": [],
      "stateMutability": "nonpayable",
      "type": "function"
    },
    {
      "inputs": [
        {
          "internalType": "uint256",
          "name": "fee",
          "type": "uint256"
        }
      ],
      "name": "setLevelupFee",
      "outputs": [],
      "stateMutability": "nonpayable",
      "type": "function"
    },
    {
      "inputs": [
        {
          "internalType": "uint256",
          "name": "robotId",
          "type": "uint256"
        },
        {
          "internalType": "string",
          "name": "newName",
          "type": "string"
        }
      ],
      "name": "setRobotName",
      "outputs": [],
      "stateMutability": "payable",
      "type": "function",
      "payable": true
    },
    {
      "inputs": [
        {
          "internalType": "uint256",
          "name": "robotId",
          "type": "uint256"
        },
        {
          "internalType": "uint256",
          "name": "price",
          "type": "uint256"
        }
      ],
      "name": "setRobotPrice",
      "outputs": [],
      "stateMutability": "nonpayable",
      "type": "function"
    },
    {
      "inputs": [
        {
          "internalType": "uint256",
          "name": "",
          "type": "uint256"
        }
      ],
      "name": "topRobots",
      "outputs": [
        {
          "internalType": "uint256",
          "name": "",
          "type": "uint256"
        }
      ],
      "stateMutability": "view",
      "type": "function",
      "constant": true
    },
    {
      "inputs": [
        {
          "internalType": "address",
          "name": "newOwner",
          "type": "address"
        }
      ],
      "name": "transferOwnership",
      "outputs": [],
      "stateMutability": "nonpayable",
      "type": "function"
    },
    {
      "inputs": [
        {
          "internalType": "uint256",
          "name": "robotId",
          "type": "uint256"
        }
      ],
      "name": "unSaleRobot",
      "outputs": [],
      "stateMutability": "nonpayable",
      "type": "function"
    }
  ],
  "bytecode": "0x60c060405262015180600255600060035566038d7ea4c68000600d553480156200002857600080fd5b50732ca8e0c643bde4c2e08ab1fa0da3401adad7734d73326c977e6efc84e512bb9c30f76e30c160ed06fb336000806101000a81548173ffffffffffffffffffffffffffffffffffffffff021916908373ffffffffffffffffffffffffffffffffffffffff16021790555060008054906101000a900473ffffffffffffffffffffffffffffffffffffffff1673ffffffffffffffffffffffffffffffffffffffff16600073ffffffffffffffffffffffffffffffffffffffff167f8be0079c531659141344cd1fd0a4f28419497f9722a3daafe3b4186f6b6457e060405160405180910390a38173ffffffffffffffffffffffffffffffffffffffff1660a08173ffffffffffffffffffffffffffffffffffffffff16815250508073ffffffffffffffffffffffffffffffffffffffff1660808173ffffffffffffffffffffffffffffffffffffffff16815250505050600860405180608001604052806040518060400160405280600481526020017f696e6974000000000000000000000000000000000000000000000000000000008152508152602001600067ffffffffffffffff168152602001600067ffffffffffffffff168152602001600067ffffffffffffffff16815250908060018154018082558091505060019003906000526020600020906002020160009091909190915060008201518160000190805190602001906200023892919062000302565b5060208201518160010160006101000a81548167ffffffffffffffff021916908367ffffffffffffffff16021790555060408201518160010160086101000a81548167ffffffffffffffff021916908367ffffffffffffffff16021790555060608201518160010160106101000a81548167ffffffffffffffff021916908367ffffffffffffffff16021790555050507f79d3d8832d904592c0bf9818b621522c988bb8b0c05cdc3b15aea1b6e8db0c1560001b6004819055506203d09060058190555062000416565b8280546200031090620003e1565b90600052602060002090601f01602090048101928262000334576000855562000380565b82601f106200034f57805160ff191683800117855562000380565b8280016001018555821562000380579182015b828111156200037f57825182559160200191906001019062000362565b5b5090506200038f919062000393565b5090565b5b80821115620003ae57600081600090555060010162000394565b5090565b7f4e487b7100000000000000000000000000000000000000000000000000000000600052602260045260246000fd5b60006002820490506001821680620003fa57607f821691505b60208210810362000410576200040f620003b2565b5b50919050565b60805160a05161434c6200044360003960008181610dd30152612b5601526000612b1a015261434c6000f3fe6080604052600436106101d85760003560e01c80639b41bb6911610102578063d06bd9e711610095578063e900574d11610064578063e900574d146106af578063e9ca0f2a146106cb578063f242da12146106f4578063f2fde38b1461071d576101d8565b8063d06bd9e714610605578063d1763b3a1461062e578063dbdff2c114610659578063ddca3f4314610684576101d8565b8063b060ff19116100d1578063b060ff1914610558578063b1283e771461056f578063b331ae57146105ac578063bc64beee146105c8576101d8565b80639b41bb691461049a578063a03937c5146104c3578063a1a4d91c14610506578063a7d9e53e1461052f576101d8565b80636aa438dc1161017a5780639403a0ce116101495780639403a0ce146103db57806394985ddd1461041857806395505961146104415780639949460c1461047e576101d8565b80636aa438dc14610331578063715018a61461036e5780638da5cb5b146103855780638f32d59b146103b0576101d8565b8063492d8b3d116101b6578063492d8b3d1461024b5780635add26ea1461028b57806361728f39146102c957806365ceceb1146102f4576101d8565b80630603243c146101dd57806308bdadf8146101f957806322e8c8fc14610222575b600080fd5b6101f760048036038101906101f29190612f36565b610746565b005b34801561020557600080fd5b50610220600480360381019061021b9190612f63565b610824565b005b34801561022e57600080fd5b5061024960048036038101906102449190612f63565b610998565b005b34801561025757600080fd5b50610272600480360381019061026d9190612f36565b610ae4565b604051610282949392919061305f565b60405180910390f35b34801561029757600080fd5b506102b260048036038101906102ad9190613109565b610be8565b6040516102c0929190613161565b60405180910390f35b3480156102d557600080fd5b506102de610c19565b6040516102eb91906131a3565b60405180910390f35b34801561030057600080fd5b5061031b60048036038101906103169190613109565b610c1f565b60405161032891906131be565b60405180910390f35b34801561033d57600080fd5b5061035860048036038101906103539190613109565b610c37565b60405161036591906131be565b60405180910390f35b34801561037a57600080fd5b50610383610c4f565b005b34801561039157600080fd5b5061039a610d1e565b6040516103a791906131e8565b60405180910390f35b3480156103bc57600080fd5b506103c5610d47565b6040516103d2919061321e565b60405180910390f35b3480156103e757600080fd5b5061040260048036038101906103fd9190612f36565b610d9e565b60405161040f91906131e8565b60405180910390f35b34801561042457600080fd5b5061043f600480360381019061043a9190613265565b610dd1565b005b34801561044d57600080fd5b5061046860048036038101906104639190612f36565b610e6d565b60405161047591906131be565b60405180910390f35b6104986004803603810190610493919061330a565b610e91565b005b3480156104a657600080fd5b506104c160048036038101906104bc9190612f36565b610f59565b005b3480156104cf57600080fd5b506104ea60048036038101906104e59190612f36565b6110ca565b6040516104fd9796959493929190613376565b60405180910390f35b34801561051257600080fd5b5061052d6004803603810190610528919061330a565b611256565b005b34801561053b57600080fd5b5061055660048036038101906105519190612f63565b611662565b005b34801561056457600080fd5b5061056d611733565b005b34801561057b57600080fd5b5061059660048036038101906105919190612f36565b611840565b6040516105a391906131be565b60405180910390f35b6105c660048036038101906105c19190612f36565b611864565b005b3480156105d457600080fd5b506105ef60048036038101906105ea91906133f3565b611bb2565b6040516105fc91906131e8565b60405180910390f35b34801561061157600080fd5b5061062c60048036038101906106279190612f36565b611be5565b005b34801561063a57600080fd5b50610643611d94565b60405161065091906134de565b60405180910390f35b34801561066557600080fd5b5061066e611ee4565b60405161067b91906131a3565b60405180910390f35b34801561069057600080fd5b50610699611fd7565b6040516106a691906131be565b60405180910390f35b6106c960048036038101906106c49190613500565b611fdd565b005b3480156106d757600080fd5b506106f260048036038101906106ed9190612f36565b6121bb565b005b34801561070057600080fd5b5061071b60048036038101906107169190612f36565b61261d565b005b34801561072957600080fd5b50610744600480360381019061073f9190613109565b612638565b005b600d54341461078a576040517f08c379a0000000000000000000000000000000000000000000000000000000008152600401610781906135ac565b60405180910390fd5b6000600a60003373ffffffffffffffffffffffffffffffffffffffff1673ffffffffffffffffffffffffffffffffffffffff1681526020019081526020016000205490506000600882815481106107e4576107e36135cc565b5b90600052602060002090600202019050828160010160006101000a81548167ffffffffffffffff021916908367ffffffffffffffff160217905550505050565b81600b600082815260200190815260200160002060009054906101000a900473ffffffffffffffffffffffffffffffffffffffff1673ffffffffffffffffffffffffffffffffffffffff163373ffffffffffffffffffffffffffffffffffffffff16146108c6576040517f08c379a00000000000000000000000000000000000000000000000000000000081526004016108bd90613647565b60405180910390fd5b600f839080600181540180825580915050600190039060005260206000200160009091909190915055600160098481548110610905576109046135cc565b5b906000526020600020906005020160020160016101000a81548160ff021916908360ff1602179055508160098481548110610943576109426135cc565b5b9060005260206000209060050201600301819055506001600f8054905061096a9190613696565b6009848154811061097e5761097d6135cc565b5b906000526020600020906005020160040181905550505050565b80600b600082815260200190815260200160002060009054906101000a900473ffffffffffffffffffffffffffffffffffffffff1673ffffffffffffffffffffffffffffffffffffffff163373ffffffffffffffffffffffffffffffffffffffff1614610a3a576040517f08c379a0000000000000000000000000000000000000000000000000000000008152600401610a3190613647565b60405180910390fd5b60006001600642610a4b91906136f9565b610a55919061372a565b9050600060038211610a6a5760009050610a6f565b600190505b808503610a8357610a7e612655565b610add565b610a8b610d1e565b600b600086815260200190815260200160002060006101000a81548173ffffffffffffffffffffffffffffffffffffffff021916908373ffffffffffffffffffffffffffffffffffffffff1602179055505b5050505050565b60088181548110610af457600080fd5b9060005260206000209060020201600091509050806000018054610b17906137af565b80601f0160208091040260200160405190810160405280929190818152602001828054610b43906137af565b8015610b905780601f10610b6557610100808354040283529160200191610b90565b820191906000526020600020905b815481529060010190602001808311610b7357829003601f168201915b5050505050908060010160009054906101000a900467ffffffffffffffff16908060010160089054906101000a900467ffffffffffffffff16908060010160109054906101000a900467ffffffffffffffff16905084565b60076020528060005260406000206000915090508060000154908060010160009054906101000a900460ff16905082565b60045481565b600c6020528060005260406000206000915090505481565b600a6020528060005260406000206000915090505481565b610c57610d47565b610c6057600080fd5b600073ffffffffffffffffffffffffffffffffffffffff1660008054906101000a900473ffffffffffffffffffffffffffffffffffffffff1673ffffffffffffffffffffffffffffffffffffffff167f8be0079c531659141344cd1fd0a4f28419497f9722a3daafe3b4186f6b6457e060405160405180910390a360008060006101000a81548173ffffffffffffffffffffffffffffffffffffffff021916908373ffffffffffffffffffffffffffffffffffffffff160217905550565b60008060009054906101000a900473ffffffffffffffffffffffffffffffffffffffff16905090565b60008060009054906101000a900473ffffffffffffffffffffffffffffffffffffffff1673ffffffffffffffffffffffffffffffffffffffff163373ffffffffffffffffffffffffffffffffffffffff1614905090565b600b6020528060005260406000206000915054906101000a900473ffffffffffffffffffffffffffffffffffffffff1681565b7f000000000000000000000000000000000000000000000000000000000000000073ffffffffffffffffffffffffffffffffffffffff163373ffffffffffffffffffffffffffffffffffffffff1614610e5f576040517f08c379a0000000000000000000000000000000000000000000000000000000008152600401610e569061382c565b60405180910390fd5b610e69828261265f565b5050565b600e8181548110610e7d57600080fd5b906000526020600020016000915090505481565b600d543414610ed5576040517f08c379a0000000000000000000000000000000000000000000000000000000008152600401610ecc906135ac565b60405180910390fd5b6000600a60003373ffffffffffffffffffffffffffffffffffffffff1673ffffffffffffffffffffffffffffffffffffffff168152602001908152602001600020549050600060088281548110610f2f57610f2e6135cc565b5b906000526020600020906002020190508383826000019190610f52929190612dcd565b5050505050565b80600b600082815260200190815260200160002060009054906101000a900473ffffffffffffffffffffffffffffffffffffffff1673ffffffffffffffffffffffffffffffffffffffff163373ffffffffffffffffffffffffffffffffffffffff1614610ffb576040517f08c379a0000000000000000000000000000000000000000000000000000000008152600401610ff290613647565b60405180910390fd5b611003610d1e565b600b600084815260200190815260200160002060006101000a81548173ffffffffffffffffffffffffffffffffffffffff021916908373ffffffffffffffffffffffffffffffffffffffff1602179055503373ffffffffffffffffffffffffffffffffffffffff167f21a51e05aaba7d9dfc436f444cce7ae7c5080aec1a649777bb7f2561643aaad5600984815481106110a05761109f6135cc565b5b90600052602060002090600502016000016040516110be91906138e1565b60405180910390a25050565b600981815481106110da57600080fd5b90600052602060002090600502016000915090508060000180546110fd906137af565b80601f0160208091040260200160405190810160405280929190818152602001828054611129906137af565b80156111765780601f1061114b57610100808354040283529160200191611176565b820191906000526020600020905b81548152906001019060200180831161115957829003601f168201915b50505050509080600101805461118b906137af565b80601f01602080910402602001604051908101604052809291908181526020018280546111b7906137af565b80156112045780601f106111d957610100808354040283529160200191611204565b820191906000526020600020905b8154815290600101906020018083116111e757829003601f168201915b5050505050908060020160009054906101000a900460ff16908060020160019054906101000a900460ff16908060020160029054906101000a900463ffffffff16908060030154908060040154905087565b6000600a60003373ffffffffffffffffffffffffffffffffffffffff1673ffffffffffffffffffffffffffffffffffffffff16815260200190815260200160002054146112d8576040517f08c379a00000000000000000000000000000000000000000000000000000000081526004016112cf9061394f565b60405180910390fd5b6112e0611ee4565b50600080600090505b612710811215611406576001600760003373ffffffffffffffffffffffffffffffffffffffff1673ffffffffffffffffffffffffffffffffffffffff16815260200190815260200160002060010160009054906101000a900460ff1660ff16036113f357600b600a600760003373ffffffffffffffffffffffffffffffffffffffff1673ffffffffffffffffffffffffffffffffffffffff1681526020019081526020016000206000015461139e91906136f9565b1891506002600760003373ffffffffffffffffffffffffffffffffffffffff1673ffffffffffffffffffffffffffffffffffffffff16815260200190815260200160002060010160009054906101000a905050505b80806113fe90613979565b9150506112e9565b5060008167ffffffffffffffff1603611454576040517f08c379a000000000000000000000000000000000000000000000000000000000815260040161144b90613a0d565b60405180910390fd5b6008604051806080016040528085858080601f016020809104026020016040519081016040528093929190818152602001838380828437600081840152601f19601f8201169050808301925050505050505081526020018367ffffffffffffffff1681526020014267ffffffffffffffff1681526020014267ffffffffffffffff168152509080600181540180825580915050600190039060005260206000209060020201600090919091909150600082015181600001908051906020019061151e929190612e53565b5060208201518160010160006101000a81548167ffffffffffffffff021916908367ffffffffffffffff16021790555060408201518160010160086101000a81548167ffffffffffffffff021916908367ffffffffffffffff16021790555060608201518160010160106101000a81548167ffffffffffffffff021916908367ffffffffffffffff1602179055505050600060016008805490506115c29190613696565b905080600a60003373ffffffffffffffffffffffffffffffffffffffff1673ffffffffffffffffffffffffffffffffffffffff168152602001908152602001600020819055503373ffffffffffffffffffffffffffffffffffffffff167fb3bd84143f6e6d17498683c26fa5ba25766eb0340e890d8667d8d82b0ed03255828686866040516116549493929190613aa4565b60405180910390a250505050565b81600b600082815260200190815260200160002060009054906101000a900473ffffffffffffffffffffffffffffffffffffffff1673ffffffffffffffffffffffffffffffffffffffff163373ffffffffffffffffffffffffffffffffffffffff1614611704576040517f08c379a00000000000000000000000000000000000000000000000000000000081526004016116fb90613647565b60405180910390fd5b8160098481548110611719576117186135cc565b5b906000526020600020906005020160030181905550505050565b60006008600a60003373ffffffffffffffffffffffffffffffffffffffff1673ffffffffffffffffffffffffffffffffffffffff1681526020019081526020016000205481548110611788576117876135cc565b5b90600052602060002090600202019050428160010160089054906101000a900467ffffffffffffffff1667ffffffffffffffff1611156117fd576040517f08c379a00000000000000000000000000000000000000000000000000000000081526004016117f490613b56565b60405180910390fd5b611805612775565b60025442611813919061372a565b8160010160086101000a81548167ffffffffffffffff021916908367ffffffffffffffff16021790555050565b600f818154811061185057600080fd5b906000526020600020016000915090505481565b600b600082815260200190815260200160002060009054906101000a900473ffffffffffffffffffffffffffffffffffffffff1673ffffffffffffffffffffffffffffffffffffffff163373ffffffffffffffffffffffffffffffffffffffff1603611905576040517f08c379a00000000000000000000000000000000000000000000000000000000081526004016118fc90613be8565b60405180910390fd5b60016009828154811061191b5761191a6135cc565b5b906000526020600020906005020160020160019054906101000a900460ff1660ff161461197d576040517f08c379a000000000000000000000000000000000000000000000000000000000815260040161197490613c54565b60405180910390fd5b60098181548110611991576119906135cc565b5b90600052602060002090600502016003015434146119ae57600080fd5b600f6001600f805490506119c29190613696565b815481106119d3576119d26135cc565b5b9060005260206000200154600f600983815481106119f4576119f36135cc565b5b90600052602060002090600502016004015481548110611a1757611a166135cc565b5b9060005260206000200181905550600f805480611a3757611a36613c74565b5b60019003818190600052602060002001600090559055600060098281548110611a6357611a626135cc565b5b906000526020600020906005020160020160016101000a81548160ff021916908360ff160217905550600060098281548110611aa257611aa16135cc565b5b9060005260206000209060050201600301819055506000600b600083815260200190815260200160002060009054906101000a900473ffffffffffffffffffffffffffffffffffffffff16905033600b600084815260200190815260200160002060006101000a81548173ffffffffffffffffffffffffffffffffffffffff021916908373ffffffffffffffffffffffffffffffffffffffff1602179055508073ffffffffffffffffffffffffffffffffffffffff166108fc611b82605f611b74606434612ab390919063ffffffff16565b612ace90919063ffffffff16565b9081150290604051600060405180830381858888f19350505050158015611bad573d6000803e3d6000fd5b505050565b60066020528060005260406000206000915054906101000a900473ffffffffffffffffffffffffffffffffffffffff1681565b80600b600082815260200190815260200160002060009054906101000a900473ffffffffffffffffffffffffffffffffffffffff1673ffffffffffffffffffffffffffffffffffffffff163373ffffffffffffffffffffffffffffffffffffffff1614611c87576040517f08c379a0000000000000000000000000000000000000000000000000000000008152600401611c7e90613647565b60405180910390fd5b600f6001600f80549050611c9b9190613696565b81548110611cac57611cab6135cc565b5b9060005260206000200154600f60098481548110611ccd57611ccc6135cc565b5b90600052602060002090600502016004015481548110611cf057611cef6135cc565b5b9060005260206000200181905550600f805480611d1057611d0f613c74565b5b60019003818190600052602060002001600090559055600060098381548110611d3c57611d3b6135cc565b5b906000526020600020906005020160020160016101000a81548160ff021916908360ff160217905550600060098381548110611d7b57611d7a6135cc565b5b9060005260206000209060050201600301819055505050565b60606000600c60003373ffffffffffffffffffffffffffffffffffffffff1673ffffffffffffffffffffffffffffffffffffffff1681526020019081526020016000205467ffffffffffffffff811115611df157611df0613ca3565b5b604051908082528060200260200182016040528015611e1f5781602001602082028036833780820191505090505b5090506000805b600980549050811015611edb573373ffffffffffffffffffffffffffffffffffffffff16600b600083815260200190815260200160002060009054906101000a900473ffffffffffffffffffffffffffffffffffffffff1673ffffffffffffffffffffffffffffffffffffffff1603611ec85780838381518110611ead57611eac6135cc565b5b6020026020010181815250508180611ec490613cd2565b9250505b8080611ed390613cd2565b915050611e26565b50819250505090565b600080611ef5600454600554612b16565b9050336006600083815260200190815260200160002060006101000a81548173ffffffffffffffffffffffffffffffffffffffff021916908373ffffffffffffffffffffffffffffffffffffffff160217905550604051806040016040528060008152602001600060ff16815250600760003373ffffffffffffffffffffffffffffffffffffffff1673ffffffffffffffffffffffffffffffffffffffff1681526020019081526020016000206000820151816000015560208201518160010160006101000a81548160ff021916908360ff1602179055509050508091505090565b60055481565b82600b600082815260200190815260200160002060009054906101000a900473ffffffffffffffffffffffffffffffffffffffff1673ffffffffffffffffffffffffffffffffffffffff163373ffffffffffffffffffffffffffffffffffffffff161461207f576040517f08c379a000000000000000000000000000000000000000000000000000000000815260040161207690613647565b60405180910390fd5b60405160200161208e90613d66565b60405160208183030381529060405280519060200120600985815481106120b8576120b76135cc565b5b90600052602060002090600502016000016040516020016120d991906138e1565b604051602081830303815290604052805190602001201461213957600d543414612138576040517f08c379a000000000000000000000000000000000000000000000000000000000815260040161212f906135ac565b60405180910390fd5b5b6014838390501115612180576040517f08c379a000000000000000000000000000000000000000000000000000000000815260040161217790613df8565b60405180910390fd5b828260098681548110612196576121956135cc565b5b906000526020600020906005020160000191906121b4929190612dcd565b5050505050565b600b600082815260200190815260200160002060009054906101000a900473ffffffffffffffffffffffffffffffffffffffff1673ffffffffffffffffffffffffffffffffffffffff163373ffffffffffffffffffffffffffffffffffffffff160361225c576040517f08c379a000000000000000000000000000000000000000000000000000000000815260040161225390613e8a565b60405180910390fd5b60006008600a60003373ffffffffffffffffffffffffffffffffffffffff1673ffffffffffffffffffffffffffffffffffffffff16815260200190815260200160002054815481106122b1576122b06135cc565b5b90600052602060002090600202019050428160010160109054906101000a900467ffffffffffffffff1667ffffffffffffffff161115612326576040517f08c379a000000000000000000000000000000000000000000000000000000000815260040161231d90613f1c565b60405180910390fd5b6009828154811061233a576123396135cc565b5b9060005260206000209060050201600201600281819054906101000a900463ffffffff168092919061236b90613f3c565b91906101000a81548163ffffffff021916908363ffffffff160217905550506002548160010160108282829054906101000a900467ffffffffffffffff166123b39190613f68565b92506101000a81548167ffffffffffffffff021916908367ffffffffffffffff1602179055506064600e80549050101561241557600e82908060018154018082558091505060019003906000526020600020016000909190919091505561249d565b600e60008154811061242a576124296135cc565b5b906000526020600020015460098381548110612449576124486135cc565b5b906000526020600020906005020160020160029054906101000a900463ffffffff1663ffffffff16111561249c5781600e60008154811061248d5761248c6135cc565b5b90600052602060002001819055505b5b6064600e805490500361261957600080600190505b606481101561258c576009600e83815481106124d1576124d06135cc565b5b9060005260206000200154815481106124ed576124ec6135cc565b5b906000526020600020906005020160020160029054906101000a900463ffffffff1663ffffffff166009600e838154811061252b5761252a6135cc565b5b906000526020600020015481548110612547576125466135cc565b5b906000526020600020906005020160020160029054906101000a900463ffffffff1663ffffffff161015612579578091505b808061258490613cd2565b9150506124b2565b506000600e6000815481106125a4576125a36135cc565b5b90600052602060002001549050600e82815481106125c5576125c46135cc565b5b9060005260206000200154600e6000815481106125e5576125e46135cc565b5b906000526020600020018190555080600e8381548110612608576126076135cc565b5b906000526020600020018190555050505b5050565b612625610d47565b61262e57600080fd5b80600d8190555050565b612640610d47565b61264957600080fd5b61265281612c68565b50565b61265d612775565b565b60006006600084815260200190815260200160002060009054906101000a900473ffffffffffffffffffffffffffffffffffffffff1690506006600084815260200190815260200160002060006101000a81549073ffffffffffffffffffffffffffffffffffffffff021916905581600760008373ffffffffffffffffffffffffffffffffffffffff1673ffffffffffffffffffffffffffffffffffffffff168152602001908152602001600020600001819055506001600760008373ffffffffffffffffffffffffffffffffffffffff1673ffffffffffffffffffffffffffffffffffffffff16815260200190815260200160002060010160006101000a81548160ff021916908360ff160217905550505050565b6064600c60003373ffffffffffffffffffffffffffffffffffffffff1673ffffffffffffffffffffffffffffffffffffffff1681526020019081526020016000205411156127f8576040517f08c379a00000000000000000000000000000000000000000000000000000000081526004016127ef90613ff2565b60405180910390fd5b600060024261280791906136f9565b905060006040518060400160405280600c81526020017f72616e646f6d537472696e670000000000000000000000000000000000000000815250905060096040518060e001604052806040518060400160405280600681526020017f6e6f4e616d65000000000000000000000000000000000000000000000000000081525081526020018381526020018460ff168152602001600060ff168152602001600063ffffffff16815260200160008152602001600081525090806001815401808255809150506001900390600052602060002090600502016000909190919091506000820151816000019080519060200190612902929190612e53565b50602082015181600101908051906020019061291f929190612e53565b5060408201518160020160006101000a81548160ff021916908360ff16021790555060608201518160020160016101000a81548160ff021916908360ff16021790555060808201518160020160026101000a81548163ffffffff021916908363ffffffff16021790555060a0820151816003015560c082015181600401555050600060016009805490506129b39190613696565b905033600b600083815260200190815260200160002060006101000a81548173ffffffffffffffffffffffffffffffffffffffff021916908373ffffffffffffffffffffffffffffffffffffffff160217905550600c60003373ffffffffffffffffffffffffffffffffffffffff1673ffffffffffffffffffffffffffffffffffffffff1681526020019081526020016000206000815480929190612a5790613cd2565b91905055503373ffffffffffffffffffffffffffffffffffffffff167fe4bc06e69dd7a0f1bc9ef5db431d371f0cab41d8156a6012711823b90466715b828486604051612aa693929190614043565b60405180910390a2505050565b6000808284612ac29190614094565b90508091505092915050565b6000808303612ae05760009050612b10565b60008284612aee91906140c5565b9050828482612afd9190614094565b14612b0b57612b0a61411f565b5b809150505b92915050565b60007f000000000000000000000000000000000000000000000000000000000000000073ffffffffffffffffffffffffffffffffffffffff16634000aea07f000000000000000000000000000000000000000000000000000000000000000084866000604051602001612b8a92919061414e565b6040516020818303038152906040526040518463ffffffff1660e01b8152600401612bb7939291906141cc565b6020604051808303816000875af1158015612bd6573d6000803e3d6000fd5b505050506040513d601f19601f82011682018060405250810190612bfa9190614236565b506000612c1d846000306001600089815260200190815260200160002054612d5e565b9050600180600086815260200190815260200160002054612c3e919061372a565b6001600086815260200190815260200160002081905550612c5f8482612d9a565b91505092915050565b600073ffffffffffffffffffffffffffffffffffffffff168173ffffffffffffffffffffffffffffffffffffffff1603612ca157600080fd5b8073ffffffffffffffffffffffffffffffffffffffff1660008054906101000a900473ffffffffffffffffffffffffffffffffffffffff1673ffffffffffffffffffffffffffffffffffffffff167f8be0079c531659141344cd1fd0a4f28419497f9722a3daafe3b4186f6b6457e060405160405180910390a3806000806101000a81548173ffffffffffffffffffffffffffffffffffffffff021916908373ffffffffffffffffffffffffffffffffffffffff16021790555050565b600084848484604051602001612d779493929190614263565b6040516020818303038152906040528051906020012060001c9050949350505050565b60008282604051602001612daf9291906142ea565b60405160208183030381529060405280519060200120905092915050565b828054612dd9906137af565b90600052602060002090601f016020900481019282612dfb5760008555612e42565b82601f10612e1457803560ff1916838001178555612e42565b82800160010185558215612e42579182015b82811115612e41578235825591602001919060010190612e26565b5b509050612e4f9190612ed9565b5090565b828054612e5f906137af565b90600052602060002090601f016020900481019282612e815760008555612ec8565b82601f10612e9a57805160ff1916838001178555612ec8565b82800160010185558215612ec8579182015b82811115612ec7578251825591602001919060010190612eac565b5b509050612ed59190612ed9565b5090565b5b80821115612ef2576000816000905550600101612eda565b5090565b600080fd5b600080fd5b6000819050919050565b612f1381612f00565b8114612f1e57600080fd5b50565b600081359050612f3081612f0a565b92915050565b600060208284031215612f4c57612f4b612ef6565b5b6000612f5a84828501612f21565b91505092915050565b60008060408385031215612f7a57612f79612ef6565b5b6000612f8885828601612f21565b9250506020612f9985828601612f21565b9150509250929050565b600081519050919050565b600082825260208201905092915050565b60005b83811015612fdd578082015181840152602081019050612fc2565b83811115612fec576000848401525b50505050565b6000601f19601f8301169050919050565b600061300e82612fa3565b6130188185612fae565b9350613028818560208601612fbf565b61303181612ff2565b840191505092915050565b600067ffffffffffffffff82169050919050565b6130598161303c565b82525050565b600060808201905081810360008301526130798187613003565b90506130886020830186613050565b6130956040830185613050565b6130a26060830184613050565b95945050505050565b600073ffffffffffffffffffffffffffffffffffffffff82169050919050565b60006130d6826130ab565b9050919050565b6130e6816130cb565b81146130f157600080fd5b50565b600081359050613103816130dd565b92915050565b60006020828403121561311f5761311e612ef6565b5b600061312d848285016130f4565b91505092915050565b61313f81612f00565b82525050565b600060ff82169050919050565b61315b81613145565b82525050565b60006040820190506131766000830185613136565b6131836020830184613152565b9392505050565b6000819050919050565b61319d8161318a565b82525050565b60006020820190506131b86000830184613194565b92915050565b60006020820190506131d36000830184613136565b92915050565b6131e2816130cb565b82525050565b60006020820190506131fd60008301846131d9565b92915050565b60008115159050919050565b61321881613203565b82525050565b6000602082019050613233600083018461320f565b92915050565b6132428161318a565b811461324d57600080fd5b50565b60008135905061325f81613239565b92915050565b6000806040838503121561327c5761327b612ef6565b5b600061328a85828601613250565b925050602061329b85828601612f21565b9150509250929050565b600080fd5b600080fd5b600080fd5b60008083601f8401126132ca576132c96132a5565b5b8235905067ffffffffffffffff8111156132e7576132e66132aa565b5b602083019150836001820283011115613303576133026132af565b5b9250929050565b6000806020838503121561332157613320612ef6565b5b600083013567ffffffffffffffff81111561333f5761333e612efb565b5b61334b858286016132b4565b92509250509250929050565b600063ffffffff82169050919050565b61337081613357565b82525050565b600060e0820190508181036000830152613390818a613003565b905081810360208301526133a48189613003565b90506133b36040830188613152565b6133c06060830187613152565b6133cd6080830186613367565b6133da60a0830185613136565b6133e760c0830184613136565b98975050505050505050565b60006020828403121561340957613408612ef6565b5b600061341784828501613250565b91505092915050565b600081519050919050565b600082825260208201905092915050565b6000819050602082019050919050565b61345581612f00565b82525050565b6000613467838361344c565b60208301905092915050565b6000602082019050919050565b600061348b82613420565b613495818561342b565b93506134a08361343c565b8060005b838110156134d15781516134b8888261345b565b97506134c383613473565b9250506001810190506134a4565b5085935050505092915050565b600060208201905081810360008301526134f88184613480565b905092915050565b60008060006040848603121561351957613518612ef6565b5b600061352786828701612f21565b935050602084013567ffffffffffffffff81111561354857613547612efb565b5b613554868287016132b4565b92509250509250925092565b7f506c656173652070617920656e6f7567682065746865722e0000000000000000600082015250565b6000613596601883612fae565b91506135a182613560565b602082019050919050565b600060208201905081810360008301526135c581613589565b9050919050565b7f4e487b7100000000000000000000000000000000000000000000000000000000600052603260045260246000fd5b7f4e6f7420796f757220726f626f742e0000000000000000000000000000000000600082015250565b6000613631600f83612fae565b915061363c826135fb565b602082019050919050565b6000602082019050818103600083015261366081613624565b9050919050565b7f4e487b7100000000000000000000000000000000000000000000000000000000600052601160045260246000fd5b60006136a182612f00565b91506136ac83612f00565b9250828210156136bf576136be613667565b5b828203905092915050565b7f4e487b7100000000000000000000000000000000000000000000000000000000600052601260045260246000fd5b600061370482612f00565b915061370f83612f00565b92508261371f5761371e6136ca565b5b828206905092915050565b600061373582612f00565b915061374083612f00565b9250827fffffffffffffffffffffffffffffffffffffffffffffffffffffffffffffffff0382111561377557613774613667565b5b828201905092915050565b7f4e487b7100000000000000000000000000000000000000000000000000000000600052602260045260246000fd5b600060028204905060018216806137c757607f821691505b6020821081036137da576137d9613780565b5b50919050565b7f4f6e6c7920565246436f6f7264696e61746f722063616e2066756c66696c6c00600082015250565b6000613816601f83612fae565b9150613821826137e0565b602082019050919050565b6000602082019050818103600083015261384581613809565b9050919050565b60008190508160005260206000209050919050565b6000815461386e816137af565b6138788186612fae565b9450600182166000811461389357600181146138a5576138d8565b60ff19831686526020860193506138d8565b6138ae8561384c565b60005b838110156138d0578154818901526001820191506020810190506138b1565b808801955050505b50505092915050565b600060208201905081810360008301526138fb8184613861565b905092915050565b7f596f757220636f6d6d616e64657220616c726561647920657869737465642e00600082015250565b6000613939601f83612fae565b915061394482613903565b602082019050919050565b600060208201905081810360008301526139688161392c565b9050919050565b6000819050919050565b60006139848261396f565b91507f7fffffffffffffffffffffffffffffffffffffffffffffffffffffffffffffff82036139b6576139b5613667565b5b600182019050919050565b7f4765742072616e646f6d20646e612066616c692e000000000000000000000000600082015250565b60006139f7601483612fae565b9150613a02826139c1565b602082019050919050565b60006020820190508181036000830152613a26816139ea565b9050919050565b82818337600083830152505050565b6000613a488385612fae565b9350613a55838584613a2d565b613a5e83612ff2565b840190509392505050565b6000819050919050565b6000613a8e613a89613a848461303c565b613a69565b612f00565b9050919050565b613a9e81613a73565b82525050565b6000606082019050613ab96000830187613136565b8181036020830152613acc818587613a3c565b9050613adb6040830184613a95565b95945050505050565b7f4c657373207468616e206f6e65206461792073696e6365206c6173742074696d60008201527f6520796f75206765742061206672656520726f626f742e000000000000000000602082015250565b6000613b40603783612fae565b9150613b4b82613ae4565b604082019050919050565b60006020820190508181036000830152613b6f81613b33565b9050919050565b7f4974277320796f757220726f626f742c20796f752063616e277420627579206960008201527f742e000000000000000000000000000000000000000000000000000000000000602082015250565b6000613bd2602283612fae565b9150613bdd82613b76565b604082019050919050565b60006020820190508181036000830152613c0181613bc5565b9050919050565b7f5468697320726f626f74206e6f74206f6e2073616c652e000000000000000000600082015250565b6000613c3e601783612fae565b9150613c4982613c08565b602082019050919050565b60006020820190508181036000830152613c6d81613c31565b9050919050565b7f4e487b7100000000000000000000000000000000000000000000000000000000600052603160045260246000fd5b7f4e487b7100000000000000000000000000000000000000000000000000000000600052604160045260246000fd5b6000613cdd82612f00565b91507fffffffffffffffffffffffffffffffffffffffffffffffffffffffffffffffff8203613d0f57613d0e613667565b5b600182019050919050565b7f6e6f4e616d650000000000000000000000000000000000000000000000000000600082015250565b6000613d50600683612fae565b9150613d5b82613d1a565b602082019050919050565b60006020820190508181036000830152613d7f81613d43565b9050919050565b7f526f626f74206e616d652063616e6e6f7420657863656564203230206368617260008201527f6163746572732e00000000000000000000000000000000000000000000000000602082015250565b6000613de2602783612fae565b9150613ded82613d86565b604082019050919050565b60006020820190508181036000830152613e1181613dd5565b9050919050565b7f596f752063616e6e6f7420676976652061207374617220746f20796f7572206f60008201527f776e20726f626f742e0000000000000000000000000000000000000000000000602082015250565b6000613e74602983612fae565b9150613e7f82613e18565b604082019050919050565b60006020820190508181036000830152613ea381613e67565b9050919050565b7f4c657373207468616e206f6e65206461792073696e6365206c6173742074696d60008201527f6520796f752067697665206120737461722e0000000000000000000000000000602082015250565b6000613f06603283612fae565b9150613f1182613eaa565b604082019050919050565b60006020820190508181036000830152613f3581613ef9565b9050919050565b6000613f4782613357565b915063ffffffff8203613f5d57613f5c613667565b5b600182019050919050565b6000613f738261303c565b9150613f7e8361303c565b92508267ffffffffffffffff03821115613f9b57613f9a613667565b5b828201905092915050565b7f596f7572207265706f2069732066756c6c2e0000000000000000000000000000600082015250565b6000613fdc601283612fae565b9150613fe782613fa6565b602082019050919050565b6000602082019050818103600083015261400b81613fcf565b9050919050565b600061402d61402861402384613145565b613a69565b612f00565b9050919050565b61403d81614012565b82525050565b60006080820190506140586000830186613136565b818103602083015261406981613d43565b9050818103604083015261407d8185613003565b905061408c6060830184614034565b949350505050565b600061409f82612f00565b91506140aa83612f00565b9250826140ba576140b96136ca565b5b828204905092915050565b60006140d082612f00565b91506140db83612f00565b9250817fffffffffffffffffffffffffffffffffffffffffffffffffffffffffffffffff048311821515161561411457614113613667565b5b828202905092915050565b7f4e487b7100000000000000000000000000000000000000000000000000000000600052600160045260246000fd5b60006040820190506141636000830185613194565b6141706020830184613136565b9392505050565b600081519050919050565b600082825260208201905092915050565b600061419e82614177565b6141a88185614182565b93506141b8818560208601612fbf565b6141c181612ff2565b840191505092915050565b60006060820190506141e160008301866131d9565b6141ee6020830185613136565b81810360408301526142008184614193565b9050949350505050565b61421381613203565b811461421e57600080fd5b50565b6000815190506142308161420a565b92915050565b60006020828403121561424c5761424b612ef6565b5b600061425a84828501614221565b91505092915050565b60006080820190506142786000830187613194565b6142856020830186613136565b61429260408301856131d9565b61429f6060830184613136565b95945050505050565b6000819050919050565b6142c36142be8261318a565b6142a8565b82525050565b6000819050919050565b6142e46142df82612f00565b6142c9565b82525050565b60006142f682856142b2565b60208201915061430682846142d3565b602082019150819050939250505056fea2646970667358221220f36b564e9ad1fc3c2a4b7109b98b70bdd2d6a1b0683c13b01ae50c6d972beb8864736f6c634300080d0033",
  "immutableReferences": {
    "168": [
      {
        "length": 32,
        "start": 11034
      }
    ],
    "170": [
      {
        "length": 32,
        "start": 3539
      },
      {
        "length": 32,
        "start": 11094
      }
    ]
  },
  "source": "// SPDX-License-Identifier: GPL-3.0\npragma solidity ^0.8.13;\n\nimport \"./RobotManage.sol\";\nimport \"./Star.sol\";\nimport \"./Gamble.sol\";\nimport \"./Trade.sol\";\n\n//\ncontract App is RobotManage, Star, Gamble, Trade {\n\n}",
  "sourcePath": "/Users/liqinghao/Desktop/RoboHashWeb3/contracts/robotgame/App.sol",
  "compiler": {
    "name": "solc",
    "version": "0.8.13+commit.abaa5c0e.Emscripten.clang"
  },
  "schemaVersion": "3.4.16",
  "updatedAt": "2023-11-08T09:32:55.623Z",
  "networkType": "ethereum",
  "devdoc": {
    "kind": "dev",
    "methods": {
      "isOwner()": {
        "returns": {
          "_0": "true if `msg.sender` is the owner of the contract."
        }
      },
      "owner()": {
        "returns": {
          "_0": "the address of the owner."
        }
      },
      "renounceOwnership()": {
        "details": "Allows the current owner to relinquish control of the contract."
      },
      "transferOwnership(address)": {
        "details": "Allows the current owner to transfer control of the contract to a newOwner.",
        "params": {
          "newOwner": "The address to transfer ownership to."
        }
      }
    },
    "version": 1
  },
  "userdoc": {
    "kind": "user",
    "methods": {
      "renounceOwnership()": {
        "notice": "Renouncing to ownership will leave the contract without an owner. It will not be possible to call the functions with the `onlyOwner` modifier anymore."
      }
    },
    "version": 1
  }
}