{
  "contractName": "Basic",
  "abi": [
    {
      "anonymous": false,
      "inputs": [
        {
          "indexed": false,
          "internalType": "uint256",
          "name": "index",
          "type": "uint256"
        },
        {
          "indexed": false,
          "internalType": "string",
          "name": "name",
          "type": "string"
        },
        {
          "indexed": false,
          "internalType": "string",
          "name": "dna",
          "type": "string"
        },
        {
          "indexed": true,
          "internalType": "address",
          "name": "owner",
          "type": "address"
        }
      ],
      "name": "NewCommander",
      "type": "event"
    },
    {
      "anonymous": false,
      "inputs": [
        {
          "indexed": false,
          "internalType": "uint256",
          "name": "index",
          "type": "uint256"
        },
        {
          "indexed": false,
          "internalType": "string",
          "name": "name",
          "type": "string"
        },
        {
          "indexed": false,
          "internalType": "string",
          "name": "dna",
          "type": "string"
        },
        {
          "indexed": false,
          "internalType": "uint256",
          "name": "spieces",
          "type": "uint256"
        },
        {
          "indexed": true,
          "internalType": "address",
          "name": "owner",
          "type": "address"
        }
      ],
      "name": "NewRobot",
      "type": "event"
    },
    {
      "anonymous": false,
      "inputs": [
        {
          "indexed": true,
          "internalType": "address",
          "name": "previousOwner",
          "type": "address"
        },
        {
          "indexed": true,
          "internalType": "address",
          "name": "newOwner",
          "type": "address"
        }
      ],
      "name": "OwnershipTransferred",
      "type": "event"
    },
    {
      "inputs": [
        {
          "internalType": "uint256",
          "name": "",
          "type": "uint256"
        }
      ],
      "name": "commanders",
      "outputs": [
        {
          "internalType": "string",
          "name": "name",
          "type": "string"
        },
        {
          "internalType": "string",
          "name": "dna",
          "type": "string"
        },
        {
          "internalType": "uint64",
          "name": "getFreeRobotReadyTime",
          "type": "uint64"
        },
        {
          "internalType": "uint64",
          "name": "giveStarReadyTime",
          "type": "uint64"
        }
      ],
      "stateMutability": "view",
      "type": "function"
    },
    {
      "inputs": [],
      "name": "isOwner",
      "outputs": [
        {
          "internalType": "bool",
          "name": "",
          "type": "bool"
        }
      ],
      "stateMutability": "view",
      "type": "function"
    },
    {
      "inputs": [],
      "name": "owner",
      "outputs": [
        {
          "internalType": "address",
          "name": "",
          "type": "address"
        }
      ],
      "stateMutability": "view",
      "type": "function"
    },
    {
      "inputs": [
        {
          "internalType": "address",
          "name": "",
          "type": "address"
        }
      ],
      "name": "ownerCommanderCount",
      "outputs": [
        {
          "internalType": "uint256",
          "name": "",
          "type": "uint256"
        }
      ],
      "stateMutability": "view",
      "type": "function"
    },
    {
      "inputs": [
        {
          "internalType": "address",
          "name": "",
          "type": "address"
        }
      ],
      "name": "ownerRobotCount",
      "outputs": [
        {
          "internalType": "uint256",
          "name": "",
          "type": "uint256"
        }
      ],
      "stateMutability": "view",
      "type": "function"
    },
    {
      "inputs": [
        {
          "internalType": "address",
          "name": "",
          "type": "address"
        }
      ],
      "name": "ownerToCommander",
      "outputs": [
        {
          "internalType": "uint256",
          "name": "",
          "type": "uint256"
        }
      ],
      "stateMutability": "view",
      "type": "function"
    },
    {
      "inputs": [],
      "name": "renounceOwnership",
      "outputs": [],
      "stateMutability": "nonpayable",
      "type": "function"
    },
    {
      "inputs": [
        {
          "internalType": "uint256",
          "name": "",
          "type": "uint256"
        }
      ],
      "name": "robotToOwner",
      "outputs": [
        {
          "internalType": "address",
          "name": "",
          "type": "address"
        }
      ],
      "stateMutability": "view",
      "type": "function"
    },
    {
      "inputs": [
        {
          "internalType": "uint256",
          "name": "",
          "type": "uint256"
        }
      ],
      "name": "robots",
      "outputs": [
        {
          "internalType": "string",
          "name": "name",
          "type": "string"
        },
        {
          "internalType": "string",
          "name": "dna",
          "type": "string"
        },
        {
          "internalType": "uint8",
          "name": "spieces",
          "type": "uint8"
        },
        {
          "internalType": "uint8",
          "name": "status",
          "type": "uint8"
        },
        {
          "internalType": "uint32",
          "name": "stars",
          "type": "uint32"
        },
        {
          "internalType": "uint256",
          "name": "price",
          "type": "uint256"
        }
      ],
      "stateMutability": "view",
      "type": "function"
    },
    {
      "inputs": [
        {
          "internalType": "address",
          "name": "newOwner",
          "type": "address"
        }
      ],
      "name": "transferOwnership",
      "outputs": [],
      "stateMutability": "nonpayable",
      "type": "function"
    },
    {
      "inputs": [
        {
          "internalType": "string",
          "name": "name",
          "type": "string"
        }
      ],
      "name": "CreateCommander",
      "outputs": [],
      "stateMutability": "nonpayable",
      "type": "function"
    },
    {
      "inputs": [],
      "name": "getFreeRobot",
      "outputs": [],
      "stateMutability": "nonpayable",
      "type": "function"
    }
  ],
  "bytecode": "0x6080604052620151805f60146101000a81548167ffffffffffffffff021916908367ffffffffffffffff1602179055505f60015534801561003e575f80fd5b50335f806101000a81548173ffffffffffffffffffffffffffffffffffffffff021916908373ffffffffffffffffffffffffffffffffffffffff1602179055505f8054906101000a900473ffffffffffffffffffffffffffffffffffffffff1673ffffffffffffffffffffffffffffffffffffffff165f73ffffffffffffffffffffffffffffffffffffffff167f8be0079c531659141344cd1fd0a4f28419497f9722a3daafe3b4186f6b6457e060405160405180910390a3611afe806101045f395ff3fe608060405234801561000f575f80fd5b50600436106100b2575f3560e01c80638f32d59b1161006f5780638f32d59b146101a15780639403a0ce146101bf578063a03937c5146101ef578063a1a4d91c14610224578063b060ff1914610240578063f2fde38b1461024a576100b2565b80632ff1e244146100b6578063492d8b3d146100e657806365ceceb1146101195780636aa438dc14610149578063715018a6146101795780638da5cb5b14610183575b5f80fd5b6100d060048036038101906100cb9190610fc4565b610266565b6040516100dd9190611007565b60405180910390f35b61010060048036038101906100fb919061104a565b61027b565b6040516101109493929190611121565b60405180910390f35b610133600480360381019061012e9190610fc4565b6103e9565b6040516101409190611007565b60405180910390f35b610163600480360381019061015e9190610fc4565b6103fe565b6040516101709190611007565b60405180910390f35b610181610413565b005b61018b6104dd565b6040516101989190611181565b60405180910390f35b6101a9610504565b6040516101b691906111b4565b60405180910390f35b6101d960048036038101906101d4919061104a565b610559565b6040516101e69190611181565b60405180910390f35b6102096004803603810190610204919061104a565b610589565b60405161021b96959493929190611206565b60405180910390f35b61023e600480360381019061023991906112d4565b610705565b005b6102486109da565b005b610264600480360381019061025f9190610fc4565b610af3565b005b6005602052805f5260405f205f915090505481565b6002818154811061028a575f80fd5b905f5260205f2090600302015f91509050805f0180546102a99061134c565b80601f01602080910402602001604051908101604052809291908181526020018280546102d59061134c565b80156103205780601f106102f757610100808354040283529160200191610320565b820191905f5260205f20905b81548152906001019060200180831161030357829003601f168201915b5050505050908060010180546103359061134c565b80601f01602080910402602001604051908101604052809291908181526020018280546103619061134c565b80156103ac5780601f10610383576101008083540402835291602001916103ac565b820191905f5260205f20905b81548152906001019060200180831161038f57829003601f168201915b505050505090806002015f9054906101000a900467ffffffffffffffff16908060020160089054906101000a900467ffffffffffffffff16905084565b6007602052805f5260405f205f915090505481565b6004602052805f5260405f205f915090505481565b61041b610504565b610423575f80fd5b5f73ffffffffffffffffffffffffffffffffffffffff165f8054906101000a900473ffffffffffffffffffffffffffffffffffffffff1673ffffffffffffffffffffffffffffffffffffffff167f8be0079c531659141344cd1fd0a4f28419497f9722a3daafe3b4186f6b6457e060405160405180910390a35f805f6101000a81548173ffffffffffffffffffffffffffffffffffffffff021916908373ffffffffffffffffffffffffffffffffffffffff160217905550565b5f805f9054906101000a900473ffffffffffffffffffffffffffffffffffffffff16905090565b5f805f9054906101000a900473ffffffffffffffffffffffffffffffffffffffff1673ffffffffffffffffffffffffffffffffffffffff163373ffffffffffffffffffffffffffffffffffffffff1614905090565b6006602052805f5260405f205f915054906101000a900473ffffffffffffffffffffffffffffffffffffffff1681565b60038181548110610598575f80fd5b905f5260205f2090600402015f91509050805f0180546105b79061134c565b80601f01602080910402602001604051908101604052809291908181526020018280546105e39061134c565b801561062e5780601f106106055761010080835404028352916020019161062e565b820191905f5260205f20905b81548152906001019060200180831161061157829003601f168201915b5050505050908060010180546106439061134c565b80601f016020809104026020016040519081016040528092919081815260200182805461066f9061134c565b80156106ba5780601f10610691576101008083540402835291602001916106ba565b820191905f5260205f20905b81548152906001019060200180831161069d57829003601f168201915b505050505090806002015f9054906101000a900460ff16908060020160019054906101000a900460ff16908060020160029054906101000a900463ffffffff16908060030154905086565b5f60055f3373ffffffffffffffffffffffffffffffffffffffff1673ffffffffffffffffffffffffffffffffffffffff1681526020019081526020015f205414610784576040517f08c379a000000000000000000000000000000000000000000000000000000000815260040161077b906113c6565b60405180910390fd5b5f6040518060400160405280600c81526020017f72616e646f6d537472696e67000000000000000000000000000000000000000081525090506002604051806080016040528085858080601f0160208091040260200160405190810160405280939291908181526020018383808284375f81840152601f19601f8201169050808301925050505050505081526020018381526020014267ffffffffffffffff1681526020014267ffffffffffffffff16815250908060018154018082558091505060019003905f5260205f2090600302015f909190919091505f820151815f01908161087091906115ae565b50602082015181600101908161088691906115ae565b506040820151816002015f6101000a81548167ffffffffffffffff021916908367ffffffffffffffff16021790555060608201518160020160086101000a81548167ffffffffffffffff021916908367ffffffffffffffff16021790555050505f60016002805490506108f991906116aa565b90508060045f3373ffffffffffffffffffffffffffffffffffffffff1673ffffffffffffffffffffffffffffffffffffffff1681526020019081526020015f2081905550600160055f3373ffffffffffffffffffffffffffffffffffffffff1673ffffffffffffffffffffffffffffffffffffffff1681526020019081526020015f20819055503373ffffffffffffffffffffffffffffffffffffffff167f0ba589754bdc7c1e308a8ce3362a7b42600571fdd695534edd1e0182e187149f828686866040516109cc9493929190611717565b60405180910390a250505050565b5f600260045f3373ffffffffffffffffffffffffffffffffffffffff1673ffffffffffffffffffffffffffffffffffffffff1681526020019081526020015f205481548110610a2c57610a2b61175c565b5b905f5260205f209060030201905042816002015f9054906101000a900467ffffffffffffffff1667ffffffffffffffff161115610a9e576040517f08c379a0000000000000000000000000000000000000000000000000000000008152600401610a95906117f9565b60405180910390fd5b610aa6610b0f565b5f60149054906101000a900467ffffffffffffffff1642610ac79190611817565b816002015f6101000a81548167ffffffffffffffff021916908367ffffffffffffffff16021790555050565b610afb610504565b610b03575f80fd5b610b0c81610e17565b50565b606460075f3373ffffffffffffffffffffffffffffffffffffffff1673ffffffffffffffffffffffffffffffffffffffff1681526020019081526020015f20541115610b90576040517f08c379a0000000000000000000000000000000000000000000000000000000008152600401610b879061189c565b60405180910390fd5b5f610b9b6002610f09565b90505f6040518060400160405280600c81526020017f72616e646f6d537472696e670000000000000000000000000000000000000000815250905060036040518060c001604052806040518060400160405280600681526020017f6e6f4e616d65000000000000000000000000000000000000000000000000000081525081526020018381526020018460ff1681526020015f60ff1681526020015f63ffffffff1681526020015f815250908060018154018082558091505060019003905f5260205f2090600402015f909190919091505f820151815f019081610c7f91906115ae565b506020820151816001019081610c9591906115ae565b506040820151816002015f6101000a81548160ff021916908360ff16021790555060608201518160020160016101000a81548160ff021916908360ff16021790555060808201518160020160026101000a81548163ffffffff021916908363ffffffff16021790555060a0820151816003015550505f6001600380549050610d1d91906116aa565b90503360065f8381526020019081526020015f205f6101000a81548173ffffffffffffffffffffffffffffffffffffffff021916908373ffffffffffffffffffffffffffffffffffffffff16021790555060075f3373ffffffffffffffffffffffffffffffffffffffff1673ffffffffffffffffffffffffffffffffffffffff1681526020019081526020015f205f815480929190610dbb906118ba565b91905055503373ffffffffffffffffffffffffffffffffffffffff167fe4bc06e69dd7a0f1bc9ef5db431d371f0cab41d8156a6012711823b90466715b828486604051610e0a9392919061197b565b60405180910390a2505050565b5f73ffffffffffffffffffffffffffffffffffffffff168173ffffffffffffffffffffffffffffffffffffffff1603610e4e575f80fd5b8073ffffffffffffffffffffffffffffffffffffffff165f8054906101000a900473ffffffffffffffffffffffffffffffffffffffff1673ffffffffffffffffffffffffffffffffffffffff167f8be0079c531659141344cd1fd0a4f28419497f9722a3daafe3b4186f6b6457e060405160405180910390a3805f806101000a81548173ffffffffffffffffffffffffffffffffffffffff021916908373ffffffffffffffffffffffffffffffffffffffff16021790555050565b5f60015f815480929190610f1c906118ba565b9190505550814233600154604051602001610f3993929190611a2f565b604051602081830303815290604052805190602001205f1c610f5b9190611a98565b9050919050565b5f80fd5b5f80fd5b5f73ffffffffffffffffffffffffffffffffffffffff82169050919050565b5f610f9382610f6a565b9050919050565b610fa381610f89565b8114610fad575f80fd5b50565b5f81359050610fbe81610f9a565b92915050565b5f60208284031215610fd957610fd8610f62565b5b5f610fe684828501610fb0565b91505092915050565b5f819050919050565b61100181610fef565b82525050565b5f60208201905061101a5f830184610ff8565b92915050565b61102981610fef565b8114611033575f80fd5b50565b5f8135905061104481611020565b92915050565b5f6020828403121561105f5761105e610f62565b5b5f61106c84828501611036565b91505092915050565b5f81519050919050565b5f82825260208201905092915050565b5f5b838110156110ac578082015181840152602081019050611091565b5f8484015250505050565b5f601f19601f8301169050919050565b5f6110d182611075565b6110db818561107f565b93506110eb81856020860161108f565b6110f4816110b7565b840191505092915050565b5f67ffffffffffffffff82169050919050565b61111b816110ff565b82525050565b5f6080820190508181035f83015261113981876110c7565b9050818103602083015261114d81866110c7565b905061115c6040830185611112565b6111696060830184611112565b95945050505050565b61117b81610f89565b82525050565b5f6020820190506111945f830184611172565b92915050565b5f8115159050919050565b6111ae8161119a565b82525050565b5f6020820190506111c75f8301846111a5565b92915050565b5f60ff82169050919050565b6111e2816111cd565b82525050565b5f63ffffffff82169050919050565b611200816111e8565b82525050565b5f60c0820190508181035f83015261121e81896110c7565b9050818103602083015261123281886110c7565b905061124160408301876111d9565b61124e60608301866111d9565b61125b60808301856111f7565b61126860a0830184610ff8565b979650505050505050565b5f80fd5b5f80fd5b5f80fd5b5f8083601f84011261129457611293611273565b5b8235905067ffffffffffffffff8111156112b1576112b0611277565b5b6020830191508360018202830111156112cd576112cc61127b565b5b9250929050565b5f80602083850312156112ea576112e9610f62565b5b5f83013567ffffffffffffffff81111561130757611306610f66565b5b6113138582860161127f565b92509250509250929050565b7f4e487b71000000000000000000000000000000000000000000000000000000005f52602260045260245ffd5b5f600282049050600182168061136357607f821691505b6020821081036113765761137561131f565b5b50919050565b7f596f757220636f6d6d616e64657220616c726561647920657869737465642e005f82015250565b5f6113b0601f8361107f565b91506113bb8261137c565b602082019050919050565b5f6020820190508181035f8301526113dd816113a4565b9050919050565b7f4e487b71000000000000000000000000000000000000000000000000000000005f52604160045260245ffd5b5f819050815f5260205f209050919050565b5f6020601f8301049050919050565b5f82821b905092915050565b5f6008830261146d7fffffffffffffffffffffffffffffffffffffffffffffffffffffffffffffffff82611432565b6114778683611432565b95508019841693508086168417925050509392505050565b5f819050919050565b5f6114b26114ad6114a884610fef565b61148f565b610fef565b9050919050565b5f819050919050565b6114cb83611498565b6114df6114d7826114b9565b84845461143e565b825550505050565b5f90565b6114f36114e7565b6114fe8184846114c2565b505050565b5b81811015611521576115165f826114eb565b600181019050611504565b5050565b601f8211156115665761153781611411565b61154084611423565b8101602085101561154f578190505b61156361155b85611423565b830182611503565b50505b505050565b5f82821c905092915050565b5f6115865f198460080261156b565b1980831691505092915050565b5f61159e8383611577565b9150826002028217905092915050565b6115b782611075565b67ffffffffffffffff8111156115d0576115cf6113e4565b5b6115da825461134c565b6115e5828285611525565b5f60209050601f831160018114611616575f8415611604578287015190505b61160e8582611593565b865550611675565b601f19841661162486611411565b5f5b8281101561164b57848901518255600182019150602085019450602081019050611626565b868310156116685784890151611664601f891682611577565b8355505b6001600288020188555050505b505050505050565b7f4e487b71000000000000000000000000000000000000000000000000000000005f52601160045260245ffd5b5f6116b482610fef565b91506116bf83610fef565b92508282039050818111156116d7576116d661167d565b5b92915050565b828183375f83830152505050565b5f6116f6838561107f565b93506117038385846116dd565b61170c836110b7565b840190509392505050565b5f60608201905061172a5f830187610ff8565b818103602083015261173d8185876116eb565b9050818103604083015261175181846110c7565b905095945050505050565b7f4e487b71000000000000000000000000000000000000000000000000000000005f52603260045260245ffd5b7f4c657373207468616e206f6e65206461792073696e6365206c6173742074696d5f8201527f6520796f75206765742061206672656520726f626f742e000000000000000000602082015250565b5f6117e360378361107f565b91506117ee82611789565b604082019050919050565b5f6020820190508181035f830152611810816117d7565b9050919050565b5f611821826110ff565b915061182c836110ff565b9250828201905067ffffffffffffffff81111561184c5761184b61167d565b5b92915050565b7f596f7572207265706f2069732066756c6c2e00000000000000000000000000005f82015250565b5f61188660128361107f565b915061189182611852565b602082019050919050565b5f6020820190508181035f8301526118b38161187a565b9050919050565b5f6118c482610fef565b91507fffffffffffffffffffffffffffffffffffffffffffffffffffffffffffffffff82036118f6576118f561167d565b5b600182019050919050565b7f6e6f4e616d6500000000000000000000000000000000000000000000000000005f82015250565b5f61193560068361107f565b915061194082611901565b602082019050919050565b5f61196561196061195b846111cd565b61148f565b610fef565b9050919050565b6119758161194b565b82525050565b5f60808201905061198e5f830186610ff8565b818103602083015261199f81611929565b905081810360408301526119b381856110c7565b90506119c2606083018461196c565b949350505050565b5f819050919050565b6119e46119df82610fef565b6119ca565b82525050565b5f8160601b9050919050565b5f611a00826119ea565b9050919050565b5f611a11826119f6565b9050919050565b611a29611a2482610f89565b611a07565b82525050565b5f611a3a82866119d3565b602082019150611a4a8285611a18565b601482019150611a5a82846119d3565b602082019150819050949350505050565b7f4e487b71000000000000000000000000000000000000000000000000000000005f52601260045260245ffd5b5f611aa282610fef565b9150611aad83610fef565b925082611abd57611abc611a6b565b5b82820690509291505056fea2646970667358221220858d11c6a48b8e0e60cff353fe7afc6020f8c90f44fa3dd67f26eb9506733ffa64736f6c63430008150033",
  "immutableReferences": {},
  "source": "// SPDX-License-Identifier: GPL-3.0\npragma solidity ^0.8.21;\n\nimport \"./Ownable.sol\";\nimport \"./RobotBasic.sol\";\nimport \"./CommanderBasic.sol\";\n\n//\n//commander\ncontract Basic is Ownable, RobotBasic, CommanderBasic {\n\n    uint64 readyTime = 1 days; //1\n    uint randNonce = 0;\n\n    //\n    function randMod(uint modulus) internal returns(uint) {\n        randNonce ++;\n        return uint(keccak256(abi.encodePacked(block.timestamp, msg.sender, randNonce))) % modulus;\n    }\n\n    //commander\n    Commander[] public commanders;\n\n    //\n    Robot[] public robots;\n\n    // => commander id\n    mapping(address => uint) public ownerToCommander;\n    // => commander\n    mapping(address => uint) public ownerCommanderCount;\n    //robot id => \n    mapping(uint => address) public robotToOwner;\n    // => \n    mapping(address => uint) public ownerRobotCount;\n\n    //\n    modifier ownerOfRobot(uint robotId) {\n        require(msg.sender == robotToOwner[robotId], \"Not your robot.\");\n        _;\n    }\n\n    event NewCommander(uint index, string name, string dna, address indexed owner);\n\n    event NewRobot(uint index, string name, string dna, uint spieces, address indexed owner);\n\n    //commander\n    function CreateCommander(string calldata name) public {\n        require(ownerCommanderCount[msg.sender] == 0, \"Your commander already existed.\");\n            \n        string memory dna = \"randomString\";\n\n        commanders.push(Commander(name, dna, uint64(block.timestamp), uint64(block.timestamp)));\n\n        uint index = commanders.length - 1;\n\n        ownerToCommander[msg.sender] = index;\n\n        ownerCommanderCount[msg.sender] = 1;\n\n        //\n        emit NewCommander(index, name, dna, msg.sender);\n    }\n\n    //\n    function CreateRobot() internal {\n\n        //the limitation of robots you can hold is 100\n        require(ownerRobotCount[msg.sender] <= 100, \"Your repo is full.\");\n        //get random spieces\n        uint8 spieces = uint8(randMod(2));\n        string memory dna = \"randomString\";\n        robots.push(Robot(\"noName\", dna, spieces, 0, 0, 0));\n        uint index = robots.length - 1;    \n        robotToOwner[index] = msg.sender;\n        ownerRobotCount[msg.sender] ++;\n\n        emit NewRobot(index, \"noName\", dna, spieces, msg.sender);\n    }\n\n    //\n    function getFreeRobot() public {\n        //\n        Commander storage commander = commanders[ownerToCommander[msg.sender]];\n        require(commander.getFreeRobotReadyTime <= block.timestamp, \"Less than one day since last time you get a free robot.\");\n        CreateRobot();\n        commander.getFreeRobotReadyTime = uint64(block.timestamp) + readyTime;\n    }\n\n}",
  "sourcePath": "/Users/liqinghao/Desktop/RoboHashWeb3/contracts/robotgame/Basic.sol",
  "compiler": {
    "name": "solc",
    "version": "0.8.21+commit.d9974bed.Emscripten.clang"
  },
  "schemaVersion": "3.4.16",
  "updatedAt": "2023-10-27T09:47:39.503Z",
  "devdoc": {
    "kind": "dev",
    "methods": {
      "isOwner()": {
        "returns": {
          "_0": "true if `msg.sender` is the owner of the contract."
        }
      },
      "owner()": {
        "returns": {
          "_0": "the address of the owner."
        }
      },
      "renounceOwnership()": {
        "details": "Allows the current owner to relinquish control of the contract."
      },
      "transferOwnership(address)": {
        "details": "Allows the current owner to transfer control of the contract to a newOwner.",
        "params": {
          "newOwner": "The address to transfer ownership to."
        }
      }
    },
    "version": 1
  },
  "userdoc": {
    "kind": "user",
    "methods": {
      "renounceOwnership()": {
        "notice": "Renouncing to ownership will leave the contract without an owner. It will not be possible to call the functions with the `onlyOwner` modifier anymore."
      }
    },
    "version": 1
  }
}