{
  "contractName": "Basic",
  "abi": [
    {
      "anonymous": false,
      "inputs": [
        {
          "indexed": false,
          "internalType": "uint256",
          "name": "id",
          "type": "uint256"
        },
        {
          "indexed": false,
          "internalType": "string",
          "name": "name",
          "type": "string"
        },
        {
          "indexed": false,
          "internalType": "string",
          "name": "dna",
          "type": "string"
        },
        {
          "indexed": true,
          "internalType": "address",
          "name": "owner",
          "type": "address"
        }
      ],
      "name": "NewCommander",
      "type": "event"
    },
    {
      "anonymous": false,
      "inputs": [
        {
          "indexed": false,
          "internalType": "uint256",
          "name": "id",
          "type": "uint256"
        },
        {
          "indexed": false,
          "internalType": "string",
          "name": "name",
          "type": "string"
        },
        {
          "indexed": false,
          "internalType": "string",
          "name": "dna",
          "type": "string"
        },
        {
          "indexed": false,
          "internalType": "uint256",
          "name": "spieces",
          "type": "uint256"
        },
        {
          "indexed": true,
          "internalType": "address",
          "name": "owner",
          "type": "address"
        }
      ],
      "name": "NewRobot",
      "type": "event"
    },
    {
      "anonymous": false,
      "inputs": [
        {
          "indexed": true,
          "internalType": "address",
          "name": "previousOwner",
          "type": "address"
        },
        {
          "indexed": true,
          "internalType": "address",
          "name": "newOwner",
          "type": "address"
        }
      ],
      "name": "OwnershipTransferred",
      "type": "event"
    },
    {
      "inputs": [
        {
          "internalType": "uint256",
          "name": "",
          "type": "uint256"
        }
      ],
      "name": "commanders",
      "outputs": [
        {
          "internalType": "string",
          "name": "name",
          "type": "string"
        },
        {
          "internalType": "string",
          "name": "dna",
          "type": "string"
        },
        {
          "internalType": "uint64",
          "name": "getFreeRobotReadyTime",
          "type": "uint64"
        },
        {
          "internalType": "uint64",
          "name": "giveStarReadyTime",
          "type": "uint64"
        }
      ],
      "stateMutability": "view",
      "type": "function"
    },
    {
      "inputs": [],
      "name": "isOwner",
      "outputs": [
        {
          "internalType": "bool",
          "name": "",
          "type": "bool"
        }
      ],
      "stateMutability": "view",
      "type": "function"
    },
    {
      "inputs": [],
      "name": "owner",
      "outputs": [
        {
          "internalType": "address",
          "name": "",
          "type": "address"
        }
      ],
      "stateMutability": "view",
      "type": "function"
    },
    {
      "inputs": [
        {
          "internalType": "address",
          "name": "",
          "type": "address"
        }
      ],
      "name": "ownerRobotCount",
      "outputs": [
        {
          "internalType": "uint256",
          "name": "",
          "type": "uint256"
        }
      ],
      "stateMutability": "view",
      "type": "function"
    },
    {
      "inputs": [
        {
          "internalType": "address",
          "name": "",
          "type": "address"
        }
      ],
      "name": "ownerToCommander",
      "outputs": [
        {
          "internalType": "uint256",
          "name": "",
          "type": "uint256"
        }
      ],
      "stateMutability": "view",
      "type": "function"
    },
    {
      "inputs": [],
      "name": "renounceOwnership",
      "outputs": [],
      "stateMutability": "nonpayable",
      "type": "function"
    },
    {
      "inputs": [
        {
          "internalType": "uint256",
          "name": "",
          "type": "uint256"
        }
      ],
      "name": "robotToOwner",
      "outputs": [
        {
          "internalType": "address",
          "name": "",
          "type": "address"
        }
      ],
      "stateMutability": "view",
      "type": "function"
    },
    {
      "inputs": [
        {
          "internalType": "uint256",
          "name": "",
          "type": "uint256"
        }
      ],
      "name": "robots",
      "outputs": [
        {
          "internalType": "string",
          "name": "name",
          "type": "string"
        },
        {
          "internalType": "string",
          "name": "dna",
          "type": "string"
        },
        {
          "internalType": "uint8",
          "name": "spieces",
          "type": "uint8"
        },
        {
          "internalType": "uint8",
          "name": "status",
          "type": "uint8"
        },
        {
          "internalType": "uint32",
          "name": "stars",
          "type": "uint32"
        },
        {
          "internalType": "uint256",
          "name": "price",
          "type": "uint256"
        },
        {
          "internalType": "uint256",
          "name": "idInMarket",
          "type": "uint256"
        }
      ],
      "stateMutability": "view",
      "type": "function"
    },
    {
      "inputs": [
        {
          "internalType": "address",
          "name": "newOwner",
          "type": "address"
        }
      ],
      "name": "transferOwnership",
      "outputs": [],
      "stateMutability": "nonpayable",
      "type": "function"
    },
    {
      "inputs": [
        {
          "internalType": "string",
          "name": "name",
          "type": "string"
        }
      ],
      "name": "CreateCommander",
      "outputs": [],
      "stateMutability": "nonpayable",
      "type": "function"
    },
    {
      "inputs": [],
      "name": "getFreeRobot",
      "outputs": [],
      "stateMutability": "nonpayable",
      "type": "function"
    }
  ],
  "bytecode": "0x6080604052620151806001555f60025534801561001a575f80fd5b50335f806101000a81548173ffffffffffffffffffffffffffffffffffffffff021916908373ffffffffffffffffffffffffffffffffffffffff1602179055505f8054906101000a900473ffffffffffffffffffffffffffffffffffffffff1673ffffffffffffffffffffffffffffffffffffffff165f73ffffffffffffffffffffffffffffffffffffffff167f8be0079c531659141344cd1fd0a4f28419497f9722a3daafe3b4186f6b6457e060405160405180910390a3611a75806100e05f395ff3fe608060405234801561000f575f80fd5b50600436106100a7575f3560e01c80638f32d59b1161006f5780638f32d59b146101665780639403a0ce14610184578063a03937c5146101b4578063a1a4d91c146101ea578063b060ff1914610206578063f2fde38b14610210576100a7565b8063492d8b3d146100ab57806365ceceb1146100de5780636aa438dc1461010e578063715018a61461013e5780638da5cb5b14610148575b5f80fd5b6100c560048036038101906100c09190610f0e565b61022c565b6040516100d59493929190610fe5565b60405180910390f35b6100f860048036038101906100f39190611090565b61039a565b60405161010591906110ca565b60405180910390f35b61012860048036038101906101239190611090565b6103af565b60405161013591906110ca565b60405180910390f35b6101466103c4565b005b61015061048e565b60405161015d91906110f2565b60405180910390f35b61016e6104b5565b60405161017b9190611125565b60405180910390f35b61019e60048036038101906101999190610f0e565b61050a565b6040516101ab91906110f2565b60405180910390f35b6101ce60048036038101906101c99190610f0e565b61053a565b6040516101e19796959493929190611177565b60405180910390f35b61020460048036038101906101ff9190611253565b6106bc565b005b61020e61094e565b005b61022a60048036038101906102259190611090565b610a54565b005b6003818154811061023b575f80fd5b905f5260205f2090600302015f91509050805f01805461025a906112cb565b80601f0160208091040260200160405190810160405280929190818152602001828054610286906112cb565b80156102d15780601f106102a8576101008083540402835291602001916102d1565b820191905f5260205f20905b8154815290600101906020018083116102b457829003601f168201915b5050505050908060010180546102e6906112cb565b80601f0160208091040260200160405190810160405280929190818152602001828054610312906112cb565b801561035d5780601f106103345761010080835404028352916020019161035d565b820191905f5260205f20905b81548152906001019060200180831161034057829003601f168201915b505050505090806002015f9054906101000a900467ffffffffffffffff16908060020160089054906101000a900467ffffffffffffffff16905084565b6007602052805f5260405f205f915090505481565b6005602052805f5260405f205f915090505481565b6103cc6104b5565b6103d4575f80fd5b5f73ffffffffffffffffffffffffffffffffffffffff165f8054906101000a900473ffffffffffffffffffffffffffffffffffffffff1673ffffffffffffffffffffffffffffffffffffffff167f8be0079c531659141344cd1fd0a4f28419497f9722a3daafe3b4186f6b6457e060405160405180910390a35f805f6101000a81548173ffffffffffffffffffffffffffffffffffffffff021916908373ffffffffffffffffffffffffffffffffffffffff160217905550565b5f805f9054906101000a900473ffffffffffffffffffffffffffffffffffffffff16905090565b5f805f9054906101000a900473ffffffffffffffffffffffffffffffffffffffff1673ffffffffffffffffffffffffffffffffffffffff163373ffffffffffffffffffffffffffffffffffffffff1614905090565b6006602052805f5260405f205f915054906101000a900473ffffffffffffffffffffffffffffffffffffffff1681565b60048181548110610549575f80fd5b905f5260205f2090600502015f91509050805f018054610568906112cb565b80601f0160208091040260200160405190810160405280929190818152602001828054610594906112cb565b80156105df5780601f106105b6576101008083540402835291602001916105df565b820191905f5260205f20905b8154815290600101906020018083116105c257829003601f168201915b5050505050908060010180546105f4906112cb565b80601f0160208091040260200160405190810160405280929190818152602001828054610620906112cb565b801561066b5780601f106106425761010080835404028352916020019161066b565b820191905f5260205f20905b81548152906001019060200180831161064e57829003601f168201915b505050505090806002015f9054906101000a900460ff16908060020160019054906101000a900460ff16908060020160029054906101000a900463ffffffff16908060030154908060040154905087565b5f60055f3373ffffffffffffffffffffffffffffffffffffffff1673ffffffffffffffffffffffffffffffffffffffff1681526020019081526020015f20540361073b576040517f08c379a000000000000000000000000000000000000000000000000000000000815260040161073290611345565b60405180910390fd5b5f6040518060400160405280600c81526020017f72616e646f6d537472696e67000000000000000000000000000000000000000081525090506003604051806080016040528085858080601f0160208091040260200160405190810160405280939291908181526020018383808284375f81840152601f19601f8201169050808301925050505050505081526020018381526020014267ffffffffffffffff1681526020014267ffffffffffffffff16815250908060018154018082558091505060019003905f5260205f2090600302015f909190919091505f820151815f019081610827919061152d565b50602082015181600101908161083d919061152d565b506040820151816002015f6101000a81548167ffffffffffffffff021916908367ffffffffffffffff16021790555060608201518160020160086101000a81548167ffffffffffffffff021916908367ffffffffffffffff16021790555050505f60016003805490506108b09190611629565b90508060055f3373ffffffffffffffffffffffffffffffffffffffff1673ffffffffffffffffffffffffffffffffffffffff1681526020019081526020015f20819055503373ffffffffffffffffffffffffffffffffffffffff167f0ba589754bdc7c1e308a8ce3362a7b42600571fdd695534edd1e0182e187149f828686866040516109409493929190611696565b60405180910390a250505050565b5f600360055f3373ffffffffffffffffffffffffffffffffffffffff1673ffffffffffffffffffffffffffffffffffffffff1681526020019081526020015f2054815481106109a05761099f6116db565b5b905f5260205f209060030201905042816002015f9054906101000a900467ffffffffffffffff1667ffffffffffffffff161115610a12576040517f08c379a0000000000000000000000000000000000000000000000000000000008152600401610a0990611778565b60405180910390fd5b610a1a610a70565b60015442610a289190611796565b816002015f6101000a81548167ffffffffffffffff021916908367ffffffffffffffff16021790555050565b610a5c6104b5565b610a64575f80fd5b610a6d81610d88565b50565b606460075f3373ffffffffffffffffffffffffffffffffffffffff1673ffffffffffffffffffffffffffffffffffffffff1681526020019081526020015f20541115610af1576040517f08c379a0000000000000000000000000000000000000000000000000000000008152600401610ae890611813565b60405180910390fd5b5f610afc6002610e7a565b90505f6040518060400160405280600c81526020017f72616e646f6d537472696e670000000000000000000000000000000000000000815250905060046040518060e001604052806040518060400160405280600681526020017f6e6f4e616d65000000000000000000000000000000000000000000000000000081525081526020018381526020018460ff1681526020015f60ff1681526020015f63ffffffff1681526020015f81526020015f815250908060018154018082558091505060019003905f5260205f2090600502015f909190919091505f820151815f019081610be6919061152d565b506020820151816001019081610bfc919061152d565b506040820151816002015f6101000a81548160ff021916908360ff16021790555060608201518160020160016101000a81548160ff021916908360ff16021790555060808201518160020160026101000a81548163ffffffff021916908363ffffffff16021790555060a0820151816003015560c0820151816004015550505f6001600480549050610c8e9190611629565b90503360065f8381526020019081526020015f205f6101000a81548173ffffffffffffffffffffffffffffffffffffffff021916908373ffffffffffffffffffffffffffffffffffffffff16021790555060075f3373ffffffffffffffffffffffffffffffffffffffff1673ffffffffffffffffffffffffffffffffffffffff1681526020019081526020015f205f815480929190610d2c90611831565b91905055503373ffffffffffffffffffffffffffffffffffffffff167fe4bc06e69dd7a0f1bc9ef5db431d371f0cab41d8156a6012711823b90466715b828486604051610d7b939291906118f2565b60405180910390a2505050565b5f73ffffffffffffffffffffffffffffffffffffffff168173ffffffffffffffffffffffffffffffffffffffff1603610dbf575f80fd5b8073ffffffffffffffffffffffffffffffffffffffff165f8054906101000a900473ffffffffffffffffffffffffffffffffffffffff1673ffffffffffffffffffffffffffffffffffffffff167f8be0079c531659141344cd1fd0a4f28419497f9722a3daafe3b4186f6b6457e060405160405180910390a3805f806101000a81548173ffffffffffffffffffffffffffffffffffffffff021916908373ffffffffffffffffffffffffffffffffffffffff16021790555050565b5f60025f815480929190610e8d90611831565b9190505550814233600254604051602001610eaa939291906119a6565b604051602081830303815290604052805190602001205f1c610ecc9190611a0f565b9050919050565b5f80fd5b5f80fd5b5f819050919050565b610eed81610edb565b8114610ef7575f80fd5b50565b5f81359050610f0881610ee4565b92915050565b5f60208284031215610f2357610f22610ed3565b5b5f610f3084828501610efa565b91505092915050565b5f81519050919050565b5f82825260208201905092915050565b5f5b83811015610f70578082015181840152602081019050610f55565b5f8484015250505050565b5f601f19601f8301169050919050565b5f610f9582610f39565b610f9f8185610f43565b9350610faf818560208601610f53565b610fb881610f7b565b840191505092915050565b5f67ffffffffffffffff82169050919050565b610fdf81610fc3565b82525050565b5f6080820190508181035f830152610ffd8187610f8b565b905081810360208301526110118186610f8b565b90506110206040830185610fd6565b61102d6060830184610fd6565b95945050505050565b5f73ffffffffffffffffffffffffffffffffffffffff82169050919050565b5f61105f82611036565b9050919050565b61106f81611055565b8114611079575f80fd5b50565b5f8135905061108a81611066565b92915050565b5f602082840312156110a5576110a4610ed3565b5b5f6110b28482850161107c565b91505092915050565b6110c481610edb565b82525050565b5f6020820190506110dd5f8301846110bb565b92915050565b6110ec81611055565b82525050565b5f6020820190506111055f8301846110e3565b92915050565b5f8115159050919050565b61111f8161110b565b82525050565b5f6020820190506111385f830184611116565b92915050565b5f60ff82169050919050565b6111538161113e565b82525050565b5f63ffffffff82169050919050565b61117181611159565b82525050565b5f60e0820190508181035f83015261118f818a610f8b565b905081810360208301526111a38189610f8b565b90506111b2604083018861114a565b6111bf606083018761114a565b6111cc6080830186611168565b6111d960a08301856110bb565b6111e660c08301846110bb565b98975050505050505050565b5f80fd5b5f80fd5b5f80fd5b5f8083601f840112611213576112126111f2565b5b8235905067ffffffffffffffff8111156112305761122f6111f6565b5b60208301915083600182028301111561124c5761124b6111fa565b5b9250929050565b5f806020838503121561126957611268610ed3565b5b5f83013567ffffffffffffffff81111561128657611285610ed7565b5b611292858286016111fe565b92509250509250929050565b7f4e487b71000000000000000000000000000000000000000000000000000000005f52602260045260245ffd5b5f60028204905060018216806112e257607f821691505b6020821081036112f5576112f461129e565b5b50919050565b7f596f757220636f6d6d616e64657220616c726561647920657869737465642e005f82015250565b5f61132f601f83610f43565b915061133a826112fb565b602082019050919050565b5f6020820190508181035f83015261135c81611323565b9050919050565b7f4e487b71000000000000000000000000000000000000000000000000000000005f52604160045260245ffd5b5f819050815f5260205f209050919050565b5f6020601f8301049050919050565b5f82821b905092915050565b5f600883026113ec7fffffffffffffffffffffffffffffffffffffffffffffffffffffffffffffffff826113b1565b6113f686836113b1565b95508019841693508086168417925050509392505050565b5f819050919050565b5f61143161142c61142784610edb565b61140e565b610edb565b9050919050565b5f819050919050565b61144a83611417565b61145e61145682611438565b8484546113bd565b825550505050565b5f90565b611472611466565b61147d818484611441565b505050565b5b818110156114a0576114955f8261146a565b600181019050611483565b5050565b601f8211156114e5576114b681611390565b6114bf846113a2565b810160208510156114ce578190505b6114e26114da856113a2565b830182611482565b50505b505050565b5f82821c905092915050565b5f6115055f19846008026114ea565b1980831691505092915050565b5f61151d83836114f6565b9150826002028217905092915050565b61153682610f39565b67ffffffffffffffff81111561154f5761154e611363565b5b61155982546112cb565b6115648282856114a4565b5f60209050601f831160018114611595575f8415611583578287015190505b61158d8582611512565b8655506115f4565b601f1984166115a386611390565b5f5b828110156115ca578489015182556001820191506020850194506020810190506115a5565b868310156115e757848901516115e3601f8916826114f6565b8355505b6001600288020188555050505b505050505050565b7f4e487b71000000000000000000000000000000000000000000000000000000005f52601160045260245ffd5b5f61163382610edb565b915061163e83610edb565b9250828203905081811115611656576116556115fc565b5b92915050565b828183375f83830152505050565b5f6116758385610f43565b935061168283858461165c565b61168b83610f7b565b840190509392505050565b5f6060820190506116a95f8301876110bb565b81810360208301526116bc81858761166a565b905081810360408301526116d08184610f8b565b905095945050505050565b7f4e487b71000000000000000000000000000000000000000000000000000000005f52603260045260245ffd5b7f4c657373207468616e206f6e65206461792073696e6365206c6173742074696d5f8201527f6520796f75206765742061206672656520726f626f742e000000000000000000602082015250565b5f611762603783610f43565b915061176d82611708565b604082019050919050565b5f6020820190508181035f83015261178f81611756565b9050919050565b5f6117a082610edb565b91506117ab83610edb565b92508282019050808211156117c3576117c26115fc565b5b92915050565b7f596f7572207265706f2069732066756c6c2e00000000000000000000000000005f82015250565b5f6117fd601283610f43565b9150611808826117c9565b602082019050919050565b5f6020820190508181035f83015261182a816117f1565b9050919050565b5f61183b82610edb565b91507fffffffffffffffffffffffffffffffffffffffffffffffffffffffffffffffff820361186d5761186c6115fc565b5b600182019050919050565b7f6e6f4e616d6500000000000000000000000000000000000000000000000000005f82015250565b5f6118ac600683610f43565b91506118b782611878565b602082019050919050565b5f6118dc6118d76118d28461113e565b61140e565b610edb565b9050919050565b6118ec816118c2565b82525050565b5f6080820190506119055f8301866110bb565b8181036020830152611916816118a0565b9050818103604083015261192a8185610f8b565b905061193960608301846118e3565b949350505050565b5f819050919050565b61195b61195682610edb565b611941565b82525050565b5f8160601b9050919050565b5f61197782611961565b9050919050565b5f6119888261196d565b9050919050565b6119a061199b82611055565b61197e565b82525050565b5f6119b1828661194a565b6020820191506119c1828561198f565b6014820191506119d1828461194a565b602082019150819050949350505050565b7f4e487b71000000000000000000000000000000000000000000000000000000005f52601260045260245ffd5b5f611a1982610edb565b9150611a2483610edb565b925082611a3457611a336119e2565b5b82820690509291505056fea264697066735822122014fd7d2ddabe1296438c57426f1058294b01f4623759e0ddf097dc121fce6c9f64736f6c63430008150033",
  "immutableReferences": {},
  "source": "// SPDX-License-Identifier: GPL-3.0\npragma solidity ^0.8.21;\n\nimport \"./Ownable.sol\";\nimport \"./RobotBasic.sol\";\nimport \"./CommanderBasic.sol\";\n\n//\n//commander\ncontract Basic is Ownable, RobotBasic, CommanderBasic {\n\n    uint readyTime = 1 days; //1\n    uint randNonce = 0;\n\n    //\n    function randMod(uint modulus) internal returns(uint) {\n        randNonce ++;\n        return uint(keccak256(abi.encodePacked(block.timestamp, msg.sender, randNonce))) % modulus;\n    }\n\n    //commander\n    Commander[] public commanders;\n\n    //\n    Robot[] public robots;\n\n    // => commander id\n    mapping(address => uint) public ownerToCommander;\n    \n    //robot id => \n    mapping(uint => address) public robotToOwner;\n\n    // => \n    mapping(address => uint) public ownerRobotCount;\n\n    //\n    modifier ownerOfRobot(uint robotId) {\n        require(msg.sender == robotToOwner[robotId], \"Not your robot.\");\n        _;\n    }\n\n    event NewCommander(uint id, string name, string dna, address indexed owner);\n\n    event NewRobot(uint id, string name, string dna, uint spieces, address indexed owner);\n\n    //commander\n    function CreateCommander(string calldata name) public {\n        require(ownerToCommander[msg.sender] != 0, \"Your commander already existed.\");\n            \n        string memory dna = \"randomString\";\n\n        commanders.push(Commander(name, dna, uint64(block.timestamp), uint64(block.timestamp)));\n\n        uint id = commanders.length - 1;\n\n        ownerToCommander[msg.sender] = id;\n\n        //\n        emit NewCommander(id, name, dna, msg.sender);\n    }\n\n    //\n    function CreateRobot() internal {\n\n        //the limitation of robots you can hold is 100\n        require(ownerRobotCount[msg.sender] <= 100, \"Your repo is full.\");\n        //get random spieces\n        uint8 spieces = uint8(randMod(2));\n        string memory dna = \"randomString\";\n        robots.push(Robot(\"noName\", dna, spieces, 0, 0, 0, 0));\n        uint id = robots.length - 1;    \n        robotToOwner[id] = msg.sender;\n        ownerRobotCount[msg.sender] ++;\n\n        emit NewRobot(id, \"noName\", dna, spieces, msg.sender);\n    }\n\n    //\n    function getFreeRobot() public {\n        //\n        Commander storage commander = commanders[ownerToCommander[msg.sender]];\n        require(commander.getFreeRobotReadyTime <= block.timestamp, \"Less than one day since last time you get a free robot.\");\n        CreateRobot();\n        commander.getFreeRobotReadyTime = uint64(block.timestamp + readyTime);\n    }\n\n}",
  "sourcePath": "/Users/liqinghao/Desktop/RoboHashWeb3/contracts/robotgame/Basic.sol",
  "compiler": {
    "name": "solc",
    "version": "0.8.21+commit.d9974bed.Emscripten.clang"
  },
  "schemaVersion": "3.4.16",
  "updatedAt": "2023-11-06T02:21:21.297Z",
  "devdoc": {
    "kind": "dev",
    "methods": {
      "isOwner()": {
        "returns": {
          "_0": "true if `msg.sender` is the owner of the contract."
        }
      },
      "owner()": {
        "returns": {
          "_0": "the address of the owner."
        }
      },
      "renounceOwnership()": {
        "details": "Allows the current owner to relinquish control of the contract."
      },
      "transferOwnership(address)": {
        "details": "Allows the current owner to transfer control of the contract to a newOwner.",
        "params": {
          "newOwner": "The address to transfer ownership to."
        }
      }
    },
    "version": 1
  },
  "userdoc": {
    "kind": "user",
    "methods": {
      "renounceOwnership()": {
        "notice": "Renouncing to ownership will leave the contract without an owner. It will not be possible to call the functions with the `onlyOwner` modifier anymore."
      }
    },
    "version": 1
  }
}