{
  "contractName": "Basic",
  "abi": [
    {
      "inputs": [],
      "stateMutability": "nonpayable",
      "type": "constructor"
    },
    {
      "anonymous": false,
      "inputs": [
        {
          "indexed": false,
          "internalType": "uint256",
          "name": "id",
          "type": "uint256"
        },
        {
          "indexed": false,
          "internalType": "string",
          "name": "name",
          "type": "string"
        },
        {
          "indexed": false,
          "internalType": "string",
          "name": "dna",
          "type": "string"
        },
        {
          "indexed": true,
          "internalType": "address",
          "name": "owner",
          "type": "address"
        }
      ],
      "name": "NewCommander",
      "type": "event"
    },
    {
      "anonymous": false,
      "inputs": [
        {
          "indexed": false,
          "internalType": "uint256",
          "name": "id",
          "type": "uint256"
        },
        {
          "indexed": false,
          "internalType": "string",
          "name": "name",
          "type": "string"
        },
        {
          "indexed": false,
          "internalType": "string",
          "name": "dna",
          "type": "string"
        },
        {
          "indexed": false,
          "internalType": "uint256",
          "name": "spieces",
          "type": "uint256"
        },
        {
          "indexed": true,
          "internalType": "address",
          "name": "owner",
          "type": "address"
        }
      ],
      "name": "NewRobot",
      "type": "event"
    },
    {
      "anonymous": false,
      "inputs": [
        {
          "indexed": true,
          "internalType": "address",
          "name": "previousOwner",
          "type": "address"
        },
        {
          "indexed": true,
          "internalType": "address",
          "name": "newOwner",
          "type": "address"
        }
      ],
      "name": "OwnershipTransferred",
      "type": "event"
    },
    {
      "inputs": [
        {
          "internalType": "uint256",
          "name": "",
          "type": "uint256"
        }
      ],
      "name": "commanders",
      "outputs": [
        {
          "internalType": "string",
          "name": "name",
          "type": "string"
        },
        {
          "internalType": "string",
          "name": "dna",
          "type": "string"
        },
        {
          "internalType": "uint64",
          "name": "getFreeRobotReadyTime",
          "type": "uint64"
        },
        {
          "internalType": "uint64",
          "name": "giveStarReadyTime",
          "type": "uint64"
        }
      ],
      "stateMutability": "view",
      "type": "function"
    },
    {
      "inputs": [],
      "name": "isOwner",
      "outputs": [
        {
          "internalType": "bool",
          "name": "",
          "type": "bool"
        }
      ],
      "stateMutability": "view",
      "type": "function"
    },
    {
      "inputs": [],
      "name": "owner",
      "outputs": [
        {
          "internalType": "address",
          "name": "",
          "type": "address"
        }
      ],
      "stateMutability": "view",
      "type": "function"
    },
    {
      "inputs": [
        {
          "internalType": "address",
          "name": "",
          "type": "address"
        }
      ],
      "name": "ownerRobotCount",
      "outputs": [
        {
          "internalType": "uint256",
          "name": "",
          "type": "uint256"
        }
      ],
      "stateMutability": "view",
      "type": "function"
    },
    {
      "inputs": [
        {
          "internalType": "address",
          "name": "",
          "type": "address"
        }
      ],
      "name": "ownerToCommander",
      "outputs": [
        {
          "internalType": "uint256",
          "name": "",
          "type": "uint256"
        }
      ],
      "stateMutability": "view",
      "type": "function"
    },
    {
      "inputs": [],
      "name": "renounceOwnership",
      "outputs": [],
      "stateMutability": "nonpayable",
      "type": "function"
    },
    {
      "inputs": [
        {
          "internalType": "uint256",
          "name": "",
          "type": "uint256"
        }
      ],
      "name": "robotToOwner",
      "outputs": [
        {
          "internalType": "address",
          "name": "",
          "type": "address"
        }
      ],
      "stateMutability": "view",
      "type": "function"
    },
    {
      "inputs": [
        {
          "internalType": "uint256",
          "name": "",
          "type": "uint256"
        }
      ],
      "name": "robots",
      "outputs": [
        {
          "internalType": "string",
          "name": "name",
          "type": "string"
        },
        {
          "internalType": "string",
          "name": "dna",
          "type": "string"
        },
        {
          "internalType": "uint8",
          "name": "spieces",
          "type": "uint8"
        },
        {
          "internalType": "uint8",
          "name": "status",
          "type": "uint8"
        },
        {
          "internalType": "uint32",
          "name": "stars",
          "type": "uint32"
        },
        {
          "internalType": "uint256",
          "name": "price",
          "type": "uint256"
        },
        {
          "internalType": "uint256",
          "name": "idInMarket",
          "type": "uint256"
        }
      ],
      "stateMutability": "view",
      "type": "function"
    },
    {
      "inputs": [
        {
          "internalType": "address",
          "name": "newOwner",
          "type": "address"
        }
      ],
      "name": "transferOwnership",
      "outputs": [],
      "stateMutability": "nonpayable",
      "type": "function"
    },
    {
      "inputs": [
        {
          "internalType": "string",
          "name": "name",
          "type": "string"
        }
      ],
      "name": "CreateCommander",
      "outputs": [],
      "stateMutability": "nonpayable",
      "type": "function"
    },
    {
      "inputs": [],
      "name": "getFreeRobot",
      "outputs": [],
      "stateMutability": "nonpayable",
      "type": "function"
    }
  ],
  "bytecode": "0x60806040526201518060015560006002553480156200001d57600080fd5b50336000806101000a81548173ffffffffffffffffffffffffffffffffffffffff021916908373ffffffffffffffffffffffffffffffffffffffff16021790555060008054906101000a900473ffffffffffffffffffffffffffffffffffffffff1673ffffffffffffffffffffffffffffffffffffffff16600073ffffffffffffffffffffffffffffffffffffffff167f8be0079c531659141344cd1fd0a4f28419497f9722a3daafe3b4186f6b6457e060405160405180910390a3600360405180608001604052806040518060400160405280600481526020017f696e69740000000000000000000000000000000000000000000000000000000081525081526020016040518060400160405280600481526020017f696e6974000000000000000000000000000000000000000000000000000000008152508152602001600067ffffffffffffffff168152602001600067ffffffffffffffff1681525090806001815401808255809150506001900390600052602060002090600302016000909190919091506000820151816000019080519060200190620001c392919062000249565b506020820151816001019080519060200190620001e292919062000249565b5060408201518160020160006101000a81548167ffffffffffffffff021916908367ffffffffffffffff16021790555060608201518160020160086101000a81548167ffffffffffffffff021916908367ffffffffffffffff16021790555050506200035d565b828054620002579062000328565b90600052602060002090601f0160209004810192826200027b5760008555620002c7565b82601f106200029657805160ff1916838001178555620002c7565b82800160010185558215620002c7579182015b82811115620002c6578251825591602001919060010190620002a9565b5b509050620002d69190620002da565b5090565b5b80821115620002f5576000816000905550600101620002db565b5090565b7f4e487b7100000000000000000000000000000000000000000000000000000000600052602260045260246000fd5b600060028204905060018216806200034157607f821691505b602082108103620003575762000356620002f9565b5b50919050565b611979806200036d6000396000f3fe608060405234801561001057600080fd5b50600436106100a95760003560e01c80638f32d59b116100715780638f32d59b146101695780639403a0ce14610187578063a03937c5146101b7578063a1a4d91c146101ed578063b060ff1914610209578063f2fde38b14610213576100a9565b8063492d8b3d146100ae57806365ceceb1146100e15780636aa438dc14610111578063715018a6146101415780638da5cb5b1461014b575b600080fd5b6100c860048036038101906100c3919061102d565b61022f565b6040516100d89493929190611116565b60405180910390f35b6100fb60048036038101906100f691906111c7565b6103a7565b6040516101089190611203565b60405180910390f35b61012b600480360381019061012691906111c7565b6103bf565b6040516101389190611203565b60405180910390f35b6101496103d7565b005b6101536104a6565b604051610160919061122d565b60405180910390f35b6101716104cf565b60405161017e9190611263565b60405180910390f35b6101a1600480360381019061019c919061102d565b610526565b6040516101ae919061122d565b60405180910390f35b6101d160048036038101906101cc919061102d565b610559565b6040516101e497969594939291906112b9565b60405180910390f35b6102076004803603810190610202919061139b565b6106e5565b005b610211610993565b005b61022d600480360381019061022891906111c7565b610aa0565b005b6003818154811061023f57600080fd5b906000526020600020906003020160009150905080600001805461026290611417565b80601f016020809104026020016040519081016040528092919081815260200182805461028e90611417565b80156102db5780601f106102b0576101008083540402835291602001916102db565b820191906000526020600020905b8154815290600101906020018083116102be57829003601f168201915b5050505050908060010180546102f090611417565b80601f016020809104026020016040519081016040528092919081815260200182805461031c90611417565b80156103695780601f1061033e57610100808354040283529160200191610369565b820191906000526020600020905b81548152906001019060200180831161034c57829003601f168201915b5050505050908060020160009054906101000a900467ffffffffffffffff16908060020160089054906101000a900467ffffffffffffffff16905084565b60076020528060005260406000206000915090505481565b60056020528060005260406000206000915090505481565b6103df6104cf565b6103e857600080fd5b600073ffffffffffffffffffffffffffffffffffffffff1660008054906101000a900473ffffffffffffffffffffffffffffffffffffffff1673ffffffffffffffffffffffffffffffffffffffff167f8be0079c531659141344cd1fd0a4f28419497f9722a3daafe3b4186f6b6457e060405160405180910390a360008060006101000a81548173ffffffffffffffffffffffffffffffffffffffff021916908373ffffffffffffffffffffffffffffffffffffffff160217905550565b60008060009054906101000a900473ffffffffffffffffffffffffffffffffffffffff16905090565b60008060009054906101000a900473ffffffffffffffffffffffffffffffffffffffff1673ffffffffffffffffffffffffffffffffffffffff163373ffffffffffffffffffffffffffffffffffffffff1614905090565b60066020528060005260406000206000915054906101000a900473ffffffffffffffffffffffffffffffffffffffff1681565b6004818154811061056957600080fd5b906000526020600020906005020160009150905080600001805461058c90611417565b80601f01602080910402602001604051908101604052809291908181526020018280546105b890611417565b80156106055780601f106105da57610100808354040283529160200191610605565b820191906000526020600020905b8154815290600101906020018083116105e857829003601f168201915b50505050509080600101805461061a90611417565b80601f016020809104026020016040519081016040528092919081815260200182805461064690611417565b80156106935780601f1061066857610100808354040283529160200191610693565b820191906000526020600020905b81548152906001019060200180831161067657829003601f168201915b5050505050908060020160009054906101000a900460ff16908060020160019054906101000a900460ff16908060020160029054906101000a900463ffffffff16908060030154908060040154905087565b6000600560003373ffffffffffffffffffffffffffffffffffffffff1673ffffffffffffffffffffffffffffffffffffffff1681526020019081526020016000205414610767576040517f08c379a000000000000000000000000000000000000000000000000000000000815260040161075e90611494565b60405180910390fd5b60006040518060400160405280600c81526020017f72616e646f6d537472696e67000000000000000000000000000000000000000081525090506003604051806080016040528085858080601f016020809104026020016040519081016040528093929190818152602001838380828437600081840152601f19601f8201169050808301925050505050505081526020018381526020014267ffffffffffffffff1681526020014267ffffffffffffffff1681525090806001815401808255809150506001900390600052602060002090600302016000909190919091506000820151816000019080519060200190610861929190610f4a565b50602082015181600101908051906020019061087e929190610f4a565b5060408201518160020160006101000a81548167ffffffffffffffff021916908367ffffffffffffffff16021790555060608201518160020160086101000a81548167ffffffffffffffff021916908367ffffffffffffffff1602179055505050600060016003805490506108f391906114e3565b905080600560003373ffffffffffffffffffffffffffffffffffffffff1673ffffffffffffffffffffffffffffffffffffffff168152602001908152602001600020819055503373ffffffffffffffffffffffffffffffffffffffff167f0ba589754bdc7c1e308a8ce3362a7b42600571fdd695534edd1e0182e187149f828686866040516109859493929190611553565b60405180910390a250505050565b60006003600560003373ffffffffffffffffffffffffffffffffffffffff1673ffffffffffffffffffffffffffffffffffffffff16815260200190815260200160002054815481106109e8576109e761159a565b5b90600052602060002090600302019050428160020160009054906101000a900467ffffffffffffffff1667ffffffffffffffff161115610a5d576040517f08c379a0000000000000000000000000000000000000000000000000000000008152600401610a549061163b565b60405180910390fd5b610a65610abd565b60015442610a73919061165b565b8160020160006101000a81548167ffffffffffffffff021916908367ffffffffffffffff16021790555050565b610aa86104cf565b610ab157600080fd5b610aba81610df8565b50565b6064600760003373ffffffffffffffffffffffffffffffffffffffff1673ffffffffffffffffffffffffffffffffffffffff168152602001908152602001600020541115610b40576040517f08c379a0000000000000000000000000000000000000000000000000000000008152600401610b37906116fd565b60405180910390fd5b6000610b4c6002610eee565b905060006040518060400160405280600c81526020017f72616e646f6d537472696e670000000000000000000000000000000000000000815250905060046040518060e001604052806040518060400160405280600681526020017f6e6f4e616d65000000000000000000000000000000000000000000000000000081525081526020018381526020018460ff168152602001600060ff168152602001600063ffffffff16815260200160008152602001600081525090806001815401808255809150506001900390600052602060002090600502016000909190919091506000820151816000019080519060200190610c47929190610f4a565b506020820151816001019080519060200190610c64929190610f4a565b5060408201518160020160006101000a81548160ff021916908360ff16021790555060608201518160020160016101000a81548160ff021916908360ff16021790555060808201518160020160026101000a81548163ffffffff021916908363ffffffff16021790555060a0820151816003015560c08201518160040155505060006001600480549050610cf891906114e3565b9050336006600083815260200190815260200160002060006101000a81548173ffffffffffffffffffffffffffffffffffffffff021916908373ffffffffffffffffffffffffffffffffffffffff160217905550600760003373ffffffffffffffffffffffffffffffffffffffff1673ffffffffffffffffffffffffffffffffffffffff1681526020019081526020016000206000815480929190610d9c9061171d565b91905055503373ffffffffffffffffffffffffffffffffffffffff167fe4bc06e69dd7a0f1bc9ef5db431d371f0cab41d8156a6012711823b90466715b828486604051610deb939291906117ec565b60405180910390a2505050565b600073ffffffffffffffffffffffffffffffffffffffff168173ffffffffffffffffffffffffffffffffffffffff1603610e3157600080fd5b8073ffffffffffffffffffffffffffffffffffffffff1660008054906101000a900473ffffffffffffffffffffffffffffffffffffffff1673ffffffffffffffffffffffffffffffffffffffff167f8be0079c531659141344cd1fd0a4f28419497f9722a3daafe3b4186f6b6457e060405160405180910390a3806000806101000a81548173ffffffffffffffffffffffffffffffffffffffff021916908373ffffffffffffffffffffffffffffffffffffffff16021790555050565b600060026000815480929190610f039061171d565b9190505550814233600254604051602001610f20939291906118a6565b6040516020818303038152906040528051906020012060001c610f439190611912565b9050919050565b828054610f5690611417565b90600052602060002090601f016020900481019282610f785760008555610fbf565b82601f10610f9157805160ff1916838001178555610fbf565b82800160010185558215610fbf579182015b82811115610fbe578251825591602001919060010190610fa3565b5b509050610fcc9190610fd0565b5090565b5b80821115610fe9576000816000905550600101610fd1565b5090565b600080fd5b600080fd5b6000819050919050565b61100a81610ff7565b811461101557600080fd5b50565b60008135905061102781611001565b92915050565b60006020828403121561104357611042610fed565b5b600061105184828501611018565b91505092915050565b600081519050919050565b600082825260208201905092915050565b60005b83811015611094578082015181840152602081019050611079565b838111156110a3576000848401525b50505050565b6000601f19601f8301169050919050565b60006110c58261105a565b6110cf8185611065565b93506110df818560208601611076565b6110e8816110a9565b840191505092915050565b600067ffffffffffffffff82169050919050565b611110816110f3565b82525050565b6000608082019050818103600083015261113081876110ba565b9050818103602083015261114481866110ba565b90506111536040830185611107565b6111606060830184611107565b95945050505050565b600073ffffffffffffffffffffffffffffffffffffffff82169050919050565b600061119482611169565b9050919050565b6111a481611189565b81146111af57600080fd5b50565b6000813590506111c18161119b565b92915050565b6000602082840312156111dd576111dc610fed565b5b60006111eb848285016111b2565b91505092915050565b6111fd81610ff7565b82525050565b600060208201905061121860008301846111f4565b92915050565b61122781611189565b82525050565b6000602082019050611242600083018461121e565b92915050565b60008115159050919050565b61125d81611248565b82525050565b60006020820190506112786000830184611254565b92915050565b600060ff82169050919050565b6112948161127e565b82525050565b600063ffffffff82169050919050565b6112b38161129a565b82525050565b600060e08201905081810360008301526112d3818a6110ba565b905081810360208301526112e781896110ba565b90506112f6604083018861128b565b611303606083018761128b565b61131060808301866112aa565b61131d60a08301856111f4565b61132a60c08301846111f4565b98975050505050505050565b600080fd5b600080fd5b600080fd5b60008083601f84011261135b5761135a611336565b5b8235905067ffffffffffffffff8111156113785761137761133b565b5b60208301915083600182028301111561139457611393611340565b5b9250929050565b600080602083850312156113b2576113b1610fed565b5b600083013567ffffffffffffffff8111156113d0576113cf610ff2565b5b6113dc85828601611345565b92509250509250929050565b7f4e487b7100000000000000000000000000000000000000000000000000000000600052602260045260246000fd5b6000600282049050600182168061142f57607f821691505b602082108103611442576114416113e8565b5b50919050565b7f596f757220636f6d6d616e64657220616c726561647920657869737465642e00600082015250565b600061147e601f83611065565b915061148982611448565b602082019050919050565b600060208201905081810360008301526114ad81611471565b9050919050565b7f4e487b7100000000000000000000000000000000000000000000000000000000600052601160045260246000fd5b60006114ee82610ff7565b91506114f983610ff7565b92508282101561150c5761150b6114b4565b5b828203905092915050565b82818337600083830152505050565b60006115328385611065565b935061153f838584611517565b611548836110a9565b840190509392505050565b600060608201905061156860008301876111f4565b818103602083015261157b818587611526565b9050818103604083015261158f81846110ba565b905095945050505050565b7f4e487b7100000000000000000000000000000000000000000000000000000000600052603260045260246000fd5b7f4c657373207468616e206f6e65206461792073696e6365206c6173742074696d60008201527f6520796f75206765742061206672656520726f626f742e000000000000000000602082015250565b6000611625603783611065565b9150611630826115c9565b604082019050919050565b6000602082019050818103600083015261165481611618565b9050919050565b600061166682610ff7565b915061167183610ff7565b9250827fffffffffffffffffffffffffffffffffffffffffffffffffffffffffffffffff038211156116a6576116a56114b4565b5b828201905092915050565b7f596f7572207265706f2069732066756c6c2e0000000000000000000000000000600082015250565b60006116e7601283611065565b91506116f2826116b1565b602082019050919050565b60006020820190508181036000830152611716816116da565b9050919050565b600061172882610ff7565b91507fffffffffffffffffffffffffffffffffffffffffffffffffffffffffffffffff820361175a576117596114b4565b5b600182019050919050565b7f6e6f4e616d650000000000000000000000000000000000000000000000000000600082015250565b600061179b600683611065565b91506117a682611765565b602082019050919050565b6000819050919050565b60006117d66117d16117cc8461127e565b6117b1565b610ff7565b9050919050565b6117e6816117bb565b82525050565b600060808201905061180160008301866111f4565b81810360208301526118128161178e565b9050818103604083015261182681856110ba565b905061183560608301846117dd565b949350505050565b6000819050919050565b61185861185382610ff7565b61183d565b82525050565b60008160601b9050919050565b60006118768261185e565b9050919050565b60006118888261186b565b9050919050565b6118a061189b82611189565b61187d565b82525050565b60006118b28286611847565b6020820191506118c2828561188f565b6014820191506118d28284611847565b602082019150819050949350505050565b7f4e487b7100000000000000000000000000000000000000000000000000000000600052601260045260246000fd5b600061191d82610ff7565b915061192883610ff7565b925082611938576119376118e3565b5b82820690509291505056fea2646970667358221220a582d763365dfc557369cff8d3793024aab7f22787e1a99eb7f6e71afc873bbc64736f6c634300080d0033",
  "immutableReferences": {},
  "source": "// SPDX-License-Identifier: GPL-3.0\npragma solidity ^0.8.13;\n\nimport \"./Ownable.sol\";\nimport \"./RobotBasic.sol\";\nimport \"./CommanderBasic.sol\";\n\n//\n//commander\ncontract Basic is Ownable, RobotBasic, CommanderBasic {\n\n    uint readyTime = 1 days; //1\n    uint randNonce = 0;\n\n    //\n    function randMod(uint modulus) internal returns(uint) {\n        randNonce ++;\n        return uint(keccak256(abi.encodePacked(block.timestamp, msg.sender, randNonce))) % modulus;\n    }\n\n    //commander\n    Commander[] public commanders;\n\n    //\n    Robot[] public robots;\n\n    // => commander id\n    mapping(address => uint) public ownerToCommander;\n    \n    //robot id => \n    mapping(uint => address) public robotToOwner;\n\n    // => \n    mapping(address => uint) public ownerRobotCount;\n\n    //\n    modifier ownerOfRobot(uint robotId) {\n        require(msg.sender == robotToOwner[robotId], \"Not your robot.\");\n        _;\n    }\n\n    event NewCommander(uint id, string name, string dna, address indexed owner);\n\n    event NewRobot(uint id, string name, string dna, uint spieces, address indexed owner);\n\n    constructor() {\n        commanders.push(Commander(\"init\", \"init\", 0, 0));\n    }\n\n    //commander\n    function CreateCommander(string calldata name) public {\n        require(ownerToCommander[msg.sender] == 0, \"Your commander already existed.\");\n            \n        string memory dna = \"randomString\";\n\n        commanders.push(Commander(name, dna, uint64(block.timestamp), uint64(block.timestamp)));\n\n        uint id = commanders.length - 1;\n\n        ownerToCommander[msg.sender] = id;\n\n        //\n        emit NewCommander(id, name, dna, msg.sender);\n    }\n\n    //\n    function CreateRobot() internal {\n\n        //the limitation of robots you can hold is 100\n        require(ownerRobotCount[msg.sender] <= 100, \"Your repo is full.\");\n        //get random spieces\n        uint8 spieces = uint8(randMod(2));\n        string memory dna = \"randomString\";\n        robots.push(Robot(\"noName\", dna, spieces, 0, 0, 0, 0));\n        uint id = robots.length - 1;    \n        robotToOwner[id] = msg.sender;\n        ownerRobotCount[msg.sender] ++;\n\n        emit NewRobot(id, \"noName\", dna, spieces, msg.sender);\n    }\n\n    //\n    function getFreeRobot() public {\n        //\n        Commander storage commander = commanders[ownerToCommander[msg.sender]];\n        require(commander.getFreeRobotReadyTime <= block.timestamp, \"Less than one day since last time you get a free robot.\");\n        CreateRobot();\n        commander.getFreeRobotReadyTime = uint64(block.timestamp + readyTime);\n    }\n\n}",
  "sourcePath": "/Users/liqinghao/Desktop/RoboHashWeb3/contracts/robotgame/Basic.sol",
  "compiler": {
    "name": "solc",
    "version": "0.8.13+commit.abaa5c0e.Emscripten.clang"
  },
  "schemaVersion": "3.4.16",
  "updatedAt": "2023-11-07T01:29:53.928Z",
  "devdoc": {
    "kind": "dev",
    "methods": {
      "isOwner()": {
        "returns": {
          "_0": "true if `msg.sender` is the owner of the contract."
        }
      },
      "owner()": {
        "returns": {
          "_0": "the address of the owner."
        }
      },
      "renounceOwnership()": {
        "details": "Allows the current owner to relinquish control of the contract."
      },
      "transferOwnership(address)": {
        "details": "Allows the current owner to transfer control of the contract to a newOwner.",
        "params": {
          "newOwner": "The address to transfer ownership to."
        }
      }
    },
    "version": 1
  },
  "userdoc": {
    "kind": "user",
    "methods": {
      "renounceOwnership()": {
        "notice": "Renouncing to ownership will leave the contract without an owner. It will not be possible to call the functions with the `onlyOwner` modifier anymore."
      }
    },
    "version": 1
  }
}