{
  "contractName": "Basic",
  "abi": [
    {
      "inputs": [],
      "stateMutability": "nonpayable",
      "type": "constructor"
    },
    {
      "anonymous": false,
      "inputs": [
        {
          "indexed": false,
          "internalType": "uint256",
          "name": "id",
          "type": "uint256"
        },
        {
          "indexed": false,
          "internalType": "string",
          "name": "name",
          "type": "string"
        },
        {
          "indexed": false,
          "internalType": "uint256",
          "name": "dna",
          "type": "uint256"
        },
        {
          "indexed": true,
          "internalType": "address",
          "name": "owner",
          "type": "address"
        }
      ],
      "name": "NewCommander",
      "type": "event"
    },
    {
      "anonymous": false,
      "inputs": [
        {
          "indexed": false,
          "internalType": "uint256",
          "name": "id",
          "type": "uint256"
        },
        {
          "indexed": false,
          "internalType": "string",
          "name": "name",
          "type": "string"
        },
        {
          "indexed": false,
          "internalType": "string",
          "name": "dna",
          "type": "string"
        },
        {
          "indexed": false,
          "internalType": "uint256",
          "name": "spieces",
          "type": "uint256"
        },
        {
          "indexed": true,
          "internalType": "address",
          "name": "owner",
          "type": "address"
        }
      ],
      "name": "NewRobot",
      "type": "event"
    },
    {
      "anonymous": false,
      "inputs": [
        {
          "indexed": true,
          "internalType": "address",
          "name": "previousOwner",
          "type": "address"
        },
        {
          "indexed": true,
          "internalType": "address",
          "name": "newOwner",
          "type": "address"
        }
      ],
      "name": "OwnershipTransferred",
      "type": "event"
    },
    {
      "inputs": [
        {
          "internalType": "address",
          "name": "",
          "type": "address"
        }
      ],
      "name": "addressToRandom",
      "outputs": [
        {
          "internalType": "uint256",
          "name": "result",
          "type": "uint256"
        },
        {
          "internalType": "uint8",
          "name": "status",
          "type": "uint8"
        }
      ],
      "stateMutability": "view",
      "type": "function"
    },
    {
      "inputs": [
        {
          "internalType": "uint256",
          "name": "",
          "type": "uint256"
        }
      ],
      "name": "commanders",
      "outputs": [
        {
          "internalType": "string",
          "name": "name",
          "type": "string"
        },
        {
          "internalType": "uint64",
          "name": "dna",
          "type": "uint64"
        },
        {
          "internalType": "uint64",
          "name": "getFreeRobotReadyTime",
          "type": "uint64"
        },
        {
          "internalType": "uint64",
          "name": "giveStarReadyTime",
          "type": "uint64"
        }
      ],
      "stateMutability": "view",
      "type": "function"
    },
    {
      "inputs": [],
      "name": "fee",
      "outputs": [
        {
          "internalType": "uint256",
          "name": "",
          "type": "uint256"
        }
      ],
      "stateMutability": "view",
      "type": "function"
    },
    {
      "inputs": [],
      "name": "isOwner",
      "outputs": [
        {
          "internalType": "bool",
          "name": "",
          "type": "bool"
        }
      ],
      "stateMutability": "view",
      "type": "function"
    },
    {
      "inputs": [],
      "name": "keyHash",
      "outputs": [
        {
          "internalType": "bytes32",
          "name": "",
          "type": "bytes32"
        }
      ],
      "stateMutability": "view",
      "type": "function"
    },
    {
      "inputs": [],
      "name": "owner",
      "outputs": [
        {
          "internalType": "address",
          "name": "",
          "type": "address"
        }
      ],
      "stateMutability": "view",
      "type": "function"
    },
    {
      "inputs": [
        {
          "internalType": "address",
          "name": "",
          "type": "address"
        }
      ],
      "name": "ownerRobotCount",
      "outputs": [
        {
          "internalType": "uint256",
          "name": "",
          "type": "uint256"
        }
      ],
      "stateMutability": "view",
      "type": "function"
    },
    {
      "inputs": [
        {
          "internalType": "address",
          "name": "",
          "type": "address"
        }
      ],
      "name": "ownerToCommander",
      "outputs": [
        {
          "internalType": "uint256",
          "name": "",
          "type": "uint256"
        }
      ],
      "stateMutability": "view",
      "type": "function"
    },
    {
      "inputs": [
        {
          "internalType": "bytes32",
          "name": "requestId",
          "type": "bytes32"
        },
        {
          "internalType": "uint256",
          "name": "randomness",
          "type": "uint256"
        }
      ],
      "name": "rawFulfillRandomness",
      "outputs": [],
      "stateMutability": "nonpayable",
      "type": "function"
    },
    {
      "inputs": [],
      "name": "renounceOwnership",
      "outputs": [],
      "stateMutability": "nonpayable",
      "type": "function"
    },
    {
      "inputs": [
        {
          "internalType": "bytes32",
          "name": "",
          "type": "bytes32"
        }
      ],
      "name": "requestIdToAddress",
      "outputs": [
        {
          "internalType": "address",
          "name": "",
          "type": "address"
        }
      ],
      "stateMutability": "view",
      "type": "function"
    },
    {
      "inputs": [
        {
          "internalType": "uint256",
          "name": "",
          "type": "uint256"
        }
      ],
      "name": "robotToOwner",
      "outputs": [
        {
          "internalType": "address",
          "name": "",
          "type": "address"
        }
      ],
      "stateMutability": "view",
      "type": "function"
    },
    {
      "inputs": [
        {
          "internalType": "uint256",
          "name": "",
          "type": "uint256"
        }
      ],
      "name": "robots",
      "outputs": [
        {
          "internalType": "string",
          "name": "name",
          "type": "string"
        },
        {
          "internalType": "string",
          "name": "dna",
          "type": "string"
        },
        {
          "internalType": "uint8",
          "name": "spieces",
          "type": "uint8"
        },
        {
          "internalType": "uint8",
          "name": "status",
          "type": "uint8"
        },
        {
          "internalType": "uint32",
          "name": "stars",
          "type": "uint32"
        },
        {
          "internalType": "uint256",
          "name": "price",
          "type": "uint256"
        },
        {
          "internalType": "uint256",
          "name": "idInMarket",
          "type": "uint256"
        }
      ],
      "stateMutability": "view",
      "type": "function"
    },
    {
      "inputs": [
        {
          "internalType": "address",
          "name": "newOwner",
          "type": "address"
        }
      ],
      "name": "transferOwnership",
      "outputs": [],
      "stateMutability": "nonpayable",
      "type": "function"
    },
    {
      "inputs": [],
      "name": "getRandomNumber",
      "outputs": [
        {
          "internalType": "bytes32",
          "name": "requestId",
          "type": "bytes32"
        }
      ],
      "stateMutability": "nonpayable",
      "type": "function"
    },
    {
      "inputs": [
        {
          "internalType": "string",
          "name": "name",
          "type": "string"
        }
      ],
      "name": "CreateCommander",
      "outputs": [],
      "stateMutability": "nonpayable",
      "type": "function"
    },
    {
      "inputs": [],
      "name": "getFreeRobot",
      "outputs": [],
      "stateMutability": "nonpayable",
      "type": "function"
    }
  ],
  "bytecode": "0x60c06040526201518060025560006003553480156200001d57600080fd5b50732ca8e0c643bde4c2e08ab1fa0da3401adad7734d73326c977e6efc84e512bb9c30f76e30c160ed06fb336000806101000a81548173ffffffffffffffffffffffffffffffffffffffff021916908373ffffffffffffffffffffffffffffffffffffffff16021790555060008054906101000a900473ffffffffffffffffffffffffffffffffffffffff1673ffffffffffffffffffffffffffffffffffffffff16600073ffffffffffffffffffffffffffffffffffffffff167f8be0079c531659141344cd1fd0a4f28419497f9722a3daafe3b4186f6b6457e060405160405180910390a38173ffffffffffffffffffffffffffffffffffffffff1660a08173ffffffffffffffffffffffffffffffffffffffff16815250508073ffffffffffffffffffffffffffffffffffffffff1660808173ffffffffffffffffffffffffffffffffffffffff16815250505050600860405180608001604052806040518060400160405280600481526020017f696e6974000000000000000000000000000000000000000000000000000000008152508152602001600067ffffffffffffffff168152602001600067ffffffffffffffff168152602001600067ffffffffffffffff16815250908060018154018082558091505060019003906000526020600020906002020160009091909190915060008201518160000190805190602001906200022d929190620002f7565b5060208201518160010160006101000a81548167ffffffffffffffff021916908367ffffffffffffffff16021790555060408201518160010160086101000a81548167ffffffffffffffff021916908367ffffffffffffffff16021790555060608201518160010160106101000a81548167ffffffffffffffff021916908367ffffffffffffffff16021790555050507f79d3d8832d904592c0bf9818b621522c988bb8b0c05cdc3b15aea1b6e8db0c1560001b6004819055506203d0906005819055506200040b565b8280546200030590620003d6565b90600052602060002090601f01602090048101928262000329576000855562000375565b82601f106200034457805160ff191683800117855562000375565b8280016001018555821562000375579182015b828111156200037457825182559160200191906001019062000357565b5b50905062000384919062000388565b5090565b5b80821115620003a357600081600090555060010162000389565b5090565b7f4e487b7100000000000000000000000000000000000000000000000000000000600052602260045260246000fd5b60006002820490506001821680620003ef57607f821691505b602082108103620004055762000404620003a7565b5b50919050565b60805160a05161237e6200043860003960008181610657015261137301526000611337015261237e6000f3fe608060405234801561001057600080fd5b506004361061010b5760003560e01c80639403a0ce116100a2578063b060ff1911610071578063b060ff19146102d6578063bc64beee146102e0578063dbdff2c114610310578063ddca3f431461032e578063f2fde38b1461034c5761010b565b80639403a0ce1461023857806394985ddd14610268578063a03937c514610284578063a1a4d91c146102ba5761010b565b80636aa438dc116100de5780636aa438dc146101c2578063715018a6146101f25780638da5cb5b146101fc5780638f32d59b1461021a5761010b565b8063492d8b3d146101105780635add26ea1461014357806361728f391461017457806365ceceb114610192575b600080fd5b61012a600480360381019061012591906116cd565b610368565b60405161013a94939291906117b6565b60405180910390f35b61015d60048036038101906101589190611860565b61046c565b60405161016b9291906118b8565b60405180910390f35b61017c61049d565b60405161018991906118fa565b60405180910390f35b6101ac60048036038101906101a79190611860565b6104a3565b6040516101b99190611915565b60405180910390f35b6101dc60048036038101906101d79190611860565b6104bb565b6040516101e99190611915565b60405180910390f35b6101fa6104d3565b005b6102046105a2565b604051610211919061193f565b60405180910390f35b6102226105cb565b60405161022f9190611975565b60405180910390f35b610252600480360381019061024d91906116cd565b610622565b60405161025f919061193f565b60405180910390f35b610282600480360381019061027d91906119bc565b610655565b005b61029e600480360381019061029991906116cd565b6106f1565b6040516102b19796959493929190611a1b565b60405180910390f35b6102d460048036038101906102cf9190611afd565b61087d565b005b6102de610c89565b005b6102fa60048036038101906102f59190611b4a565b610d96565b604051610307919061193f565b60405180910390f35b610318610dc9565b60405161032591906118fa565b60405180910390f35b610336610ebc565b6040516103439190611915565b60405180910390f35b61036660048036038101906103619190611860565b610ec2565b005b6008818154811061037857600080fd5b906000526020600020906002020160009150905080600001805461039b90611ba6565b80601f01602080910402602001604051908101604052809291908181526020018280546103c790611ba6565b80156104145780601f106103e957610100808354040283529160200191610414565b820191906000526020600020905b8154815290600101906020018083116103f757829003601f168201915b5050505050908060010160009054906101000a900467ffffffffffffffff16908060010160089054906101000a900467ffffffffffffffff16908060010160109054906101000a900467ffffffffffffffff16905084565b60076020528060005260406000206000915090508060000154908060010160009054906101000a900460ff16905082565b60045481565b600c6020528060005260406000206000915090505481565b600a6020528060005260406000206000915090505481565b6104db6105cb565b6104e457600080fd5b600073ffffffffffffffffffffffffffffffffffffffff1660008054906101000a900473ffffffffffffffffffffffffffffffffffffffff1673ffffffffffffffffffffffffffffffffffffffff167f8be0079c531659141344cd1fd0a4f28419497f9722a3daafe3b4186f6b6457e060405160405180910390a360008060006101000a81548173ffffffffffffffffffffffffffffffffffffffff021916908373ffffffffffffffffffffffffffffffffffffffff160217905550565b60008060009054906101000a900473ffffffffffffffffffffffffffffffffffffffff16905090565b60008060009054906101000a900473ffffffffffffffffffffffffffffffffffffffff1673ffffffffffffffffffffffffffffffffffffffff163373ffffffffffffffffffffffffffffffffffffffff1614905090565b600b6020528060005260406000206000915054906101000a900473ffffffffffffffffffffffffffffffffffffffff1681565b7f000000000000000000000000000000000000000000000000000000000000000073ffffffffffffffffffffffffffffffffffffffff163373ffffffffffffffffffffffffffffffffffffffff16146106e3576040517f08c379a00000000000000000000000000000000000000000000000000000000081526004016106da90611c23565b60405180910390fd5b6106ed8282610edf565b5050565b6009818154811061070157600080fd5b906000526020600020906005020160009150905080600001805461072490611ba6565b80601f016020809104026020016040519081016040528092919081815260200182805461075090611ba6565b801561079d5780601f106107725761010080835404028352916020019161079d565b820191906000526020600020905b81548152906001019060200180831161078057829003601f168201915b5050505050908060010180546107b290611ba6565b80601f01602080910402602001604051908101604052809291908181526020018280546107de90611ba6565b801561082b5780601f106108005761010080835404028352916020019161082b565b820191906000526020600020905b81548152906001019060200180831161080e57829003601f168201915b5050505050908060020160009054906101000a900460ff16908060020160019054906101000a900460ff16908060020160029054906101000a900463ffffffff16908060030154908060040154905087565b6000600a60003373ffffffffffffffffffffffffffffffffffffffff1673ffffffffffffffffffffffffffffffffffffffff16815260200190815260200160002054146108ff576040517f08c379a00000000000000000000000000000000000000000000000000000000081526004016108f690611c8f565b60405180910390fd5b610907610dc9565b50600080600090505b612710811215610a2d576001600760003373ffffffffffffffffffffffffffffffffffffffff1673ffffffffffffffffffffffffffffffffffffffff16815260200190815260200160002060010160009054906101000a900460ff1660ff1603610a1a57600b600a600760003373ffffffffffffffffffffffffffffffffffffffff1673ffffffffffffffffffffffffffffffffffffffff168152602001908152602001600020600001546109c59190611cde565b1891506002600760003373ffffffffffffffffffffffffffffffffffffffff1673ffffffffffffffffffffffffffffffffffffffff16815260200190815260200160002060010160009054906101000a905050505b8080610a2590611d48565b915050610910565b5060008167ffffffffffffffff1603610a7b576040517f08c379a0000000000000000000000000000000000000000000000000000000008152600401610a7290611ddc565b60405180910390fd5b6008604051806080016040528085858080601f016020809104026020016040519081016040528093929190818152602001838380828437600081840152601f19601f8201169050808301925050505050505081526020018367ffffffffffffffff1681526020014267ffffffffffffffff1681526020014267ffffffffffffffff1681525090806001815401808255809150506001900390600052602060002090600202016000909190919091506000820151816000019080519060200190610b459291906115ea565b5060208201518160010160006101000a81548167ffffffffffffffff021916908367ffffffffffffffff16021790555060408201518160010160086101000a81548167ffffffffffffffff021916908367ffffffffffffffff16021790555060608201518160010160106101000a81548167ffffffffffffffff021916908367ffffffffffffffff160217905550505060006001600880549050610be99190611dfc565b905080600a60003373ffffffffffffffffffffffffffffffffffffffff1673ffffffffffffffffffffffffffffffffffffffff168152602001908152602001600020819055503373ffffffffffffffffffffffffffffffffffffffff167fb3bd84143f6e6d17498683c26fa5ba25766eb0340e890d8667d8d82b0ed0325582868686604051610c7b9493929190611ea7565b60405180910390a250505050565b60006008600a60003373ffffffffffffffffffffffffffffffffffffffff1673ffffffffffffffffffffffffffffffffffffffff1681526020019081526020016000205481548110610cde57610cdd611ee7565b5b90600052602060002090600202019050428160010160089054906101000a900467ffffffffffffffff1667ffffffffffffffff161115610d53576040517f08c379a0000000000000000000000000000000000000000000000000000000008152600401610d4a90611f88565b60405180910390fd5b610d5b610ff5565b60025442610d699190611fa8565b8160010160086101000a81548167ffffffffffffffff021916908367ffffffffffffffff16021790555050565b60066020528060005260406000206000915054906101000a900473ffffffffffffffffffffffffffffffffffffffff1681565b600080610dda600454600554611333565b9050336006600083815260200190815260200160002060006101000a81548173ffffffffffffffffffffffffffffffffffffffff021916908373ffffffffffffffffffffffffffffffffffffffff160217905550604051806040016040528060008152602001600060ff16815250600760003373ffffffffffffffffffffffffffffffffffffffff1673ffffffffffffffffffffffffffffffffffffffff1681526020019081526020016000206000820151816000015560208201518160010160006101000a81548160ff021916908360ff1602179055509050508091505090565b60055481565b610eca6105cb565b610ed357600080fd5b610edc81611485565b50565b60006006600084815260200190815260200160002060009054906101000a900473ffffffffffffffffffffffffffffffffffffffff1690506006600084815260200190815260200160002060006101000a81549073ffffffffffffffffffffffffffffffffffffffff021916905581600760008373ffffffffffffffffffffffffffffffffffffffff1673ffffffffffffffffffffffffffffffffffffffff168152602001908152602001600020600001819055506001600760008373ffffffffffffffffffffffffffffffffffffffff1673ffffffffffffffffffffffffffffffffffffffff16815260200190815260200160002060010160006101000a81548160ff021916908360ff160217905550505050565b6064600c60003373ffffffffffffffffffffffffffffffffffffffff1673ffffffffffffffffffffffffffffffffffffffff168152602001908152602001600020541115611078576040517f08c379a000000000000000000000000000000000000000000000000000000000815260040161106f9061204a565b60405180910390fd5b60006002426110879190611cde565b905060006040518060400160405280600c81526020017f72616e646f6d537472696e670000000000000000000000000000000000000000815250905060096040518060e001604052806040518060400160405280600681526020017f6e6f4e616d65000000000000000000000000000000000000000000000000000081525081526020018381526020018460ff168152602001600060ff168152602001600063ffffffff168152602001600081526020016000815250908060018154018082558091505060019003906000526020600020906005020160009091909190915060008201518160000190805190602001906111829291906115ea565b50602082015181600101908051906020019061119f9291906115ea565b5060408201518160020160006101000a81548160ff021916908360ff16021790555060608201518160020160016101000a81548160ff021916908360ff16021790555060808201518160020160026101000a81548163ffffffff021916908363ffffffff16021790555060a0820151816003015560c082015181600401555050600060016009805490506112339190611dfc565b905033600b600083815260200190815260200160002060006101000a81548173ffffffffffffffffffffffffffffffffffffffff021916908373ffffffffffffffffffffffffffffffffffffffff160217905550600c60003373ffffffffffffffffffffffffffffffffffffffff1673ffffffffffffffffffffffffffffffffffffffff16815260200190815260200160002060008154809291906112d79061206a565b91905055503373ffffffffffffffffffffffffffffffffffffffff167fe4bc06e69dd7a0f1bc9ef5db431d371f0cab41d8156a6012711823b90466715b8284866040516113269392919061212f565b60405180910390a2505050565b60007f000000000000000000000000000000000000000000000000000000000000000073ffffffffffffffffffffffffffffffffffffffff16634000aea07f0000000000000000000000000000000000000000000000000000000000000000848660006040516020016113a7929190612180565b6040516020818303038152906040526040518463ffffffff1660e01b81526004016113d4939291906121fe565b6020604051808303816000875af11580156113f3573d6000803e3d6000fd5b505050506040513d601f19601f820116820180604052508101906114179190612268565b50600061143a84600030600160008981526020019081526020016000205461157b565b905060018060008681526020019081526020016000205461145b9190611fa8565b600160008681526020019081526020016000208190555061147c84826115b7565b91505092915050565b600073ffffffffffffffffffffffffffffffffffffffff168173ffffffffffffffffffffffffffffffffffffffff16036114be57600080fd5b8073ffffffffffffffffffffffffffffffffffffffff1660008054906101000a900473ffffffffffffffffffffffffffffffffffffffff1673ffffffffffffffffffffffffffffffffffffffff167f8be0079c531659141344cd1fd0a4f28419497f9722a3daafe3b4186f6b6457e060405160405180910390a3806000806101000a81548173ffffffffffffffffffffffffffffffffffffffff021916908373ffffffffffffffffffffffffffffffffffffffff16021790555050565b6000848484846040516020016115949493929190612295565b6040516020818303038152906040528051906020012060001c9050949350505050565b600082826040516020016115cc92919061231c565b60405160208183030381529060405280519060200120905092915050565b8280546115f690611ba6565b90600052602060002090601f016020900481019282611618576000855561165f565b82601f1061163157805160ff191683800117855561165f565b8280016001018555821561165f579182015b8281111561165e578251825591602001919060010190611643565b5b50905061166c9190611670565b5090565b5b80821115611689576000816000905550600101611671565b5090565b600080fd5b600080fd5b6000819050919050565b6116aa81611697565b81146116b557600080fd5b50565b6000813590506116c7816116a1565b92915050565b6000602082840312156116e3576116e261168d565b5b60006116f1848285016116b8565b91505092915050565b600081519050919050565b600082825260208201905092915050565b60005b83811015611734578082015181840152602081019050611719565b83811115611743576000848401525b50505050565b6000601f19601f8301169050919050565b6000611765826116fa565b61176f8185611705565b935061177f818560208601611716565b61178881611749565b840191505092915050565b600067ffffffffffffffff82169050919050565b6117b081611793565b82525050565b600060808201905081810360008301526117d0818761175a565b90506117df60208301866117a7565b6117ec60408301856117a7565b6117f960608301846117a7565b95945050505050565b600073ffffffffffffffffffffffffffffffffffffffff82169050919050565b600061182d82611802565b9050919050565b61183d81611822565b811461184857600080fd5b50565b60008135905061185a81611834565b92915050565b6000602082840312156118765761187561168d565b5b60006118848482850161184b565b91505092915050565b61189681611697565b82525050565b600060ff82169050919050565b6118b28161189c565b82525050565b60006040820190506118cd600083018561188d565b6118da60208301846118a9565b9392505050565b6000819050919050565b6118f4816118e1565b82525050565b600060208201905061190f60008301846118eb565b92915050565b600060208201905061192a600083018461188d565b92915050565b61193981611822565b82525050565b60006020820190506119546000830184611930565b92915050565b60008115159050919050565b61196f8161195a565b82525050565b600060208201905061198a6000830184611966565b92915050565b611999816118e1565b81146119a457600080fd5b50565b6000813590506119b681611990565b92915050565b600080604083850312156119d3576119d261168d565b5b60006119e1858286016119a7565b92505060206119f2858286016116b8565b9150509250929050565b600063ffffffff82169050919050565b611a15816119fc565b82525050565b600060e0820190508181036000830152611a35818a61175a565b90508181036020830152611a49818961175a565b9050611a5860408301886118a9565b611a6560608301876118a9565b611a726080830186611a0c565b611a7f60a083018561188d565b611a8c60c083018461188d565b98975050505050505050565b600080fd5b600080fd5b600080fd5b60008083601f840112611abd57611abc611a98565b5b8235905067ffffffffffffffff811115611ada57611ad9611a9d565b5b602083019150836001820283011115611af657611af5611aa2565b5b9250929050565b60008060208385031215611b1457611b1361168d565b5b600083013567ffffffffffffffff811115611b3257611b31611692565b5b611b3e85828601611aa7565b92509250509250929050565b600060208284031215611b6057611b5f61168d565b5b6000611b6e848285016119a7565b91505092915050565b7f4e487b7100000000000000000000000000000000000000000000000000000000600052602260045260246000fd5b60006002820490506001821680611bbe57607f821691505b602082108103611bd157611bd0611b77565b5b50919050565b7f4f6e6c7920565246436f6f7264696e61746f722063616e2066756c66696c6c00600082015250565b6000611c0d601f83611705565b9150611c1882611bd7565b602082019050919050565b60006020820190508181036000830152611c3c81611c00565b9050919050565b7f596f757220636f6d6d616e64657220616c726561647920657869737465642e00600082015250565b6000611c79601f83611705565b9150611c8482611c43565b602082019050919050565b60006020820190508181036000830152611ca881611c6c565b9050919050565b7f4e487b7100000000000000000000000000000000000000000000000000000000600052601260045260246000fd5b6000611ce982611697565b9150611cf483611697565b925082611d0457611d03611caf565b5b828206905092915050565b7f4e487b7100000000000000000000000000000000000000000000000000000000600052601160045260246000fd5b6000819050919050565b6000611d5382611d3e565b91507f7fffffffffffffffffffffffffffffffffffffffffffffffffffffffffffffff8203611d8557611d84611d0f565b5b600182019050919050565b7f4765742072616e646f6d20646e612066616c692e000000000000000000000000600082015250565b6000611dc6601483611705565b9150611dd182611d90565b602082019050919050565b60006020820190508181036000830152611df581611db9565b9050919050565b6000611e0782611697565b9150611e1283611697565b925082821015611e2557611e24611d0f565b5b828203905092915050565b82818337600083830152505050565b6000611e4b8385611705565b9350611e58838584611e30565b611e6183611749565b840190509392505050565b6000819050919050565b6000611e91611e8c611e8784611793565b611e6c565b611697565b9050919050565b611ea181611e76565b82525050565b6000606082019050611ebc600083018761188d565b8181036020830152611ecf818587611e3f565b9050611ede6040830184611e98565b95945050505050565b7f4e487b7100000000000000000000000000000000000000000000000000000000600052603260045260246000fd5b7f4c657373207468616e206f6e65206461792073696e6365206c6173742074696d60008201527f6520796f75206765742061206672656520726f626f742e000000000000000000602082015250565b6000611f72603783611705565b9150611f7d82611f16565b604082019050919050565b60006020820190508181036000830152611fa181611f65565b9050919050565b6000611fb382611697565b9150611fbe83611697565b9250827fffffffffffffffffffffffffffffffffffffffffffffffffffffffffffffffff03821115611ff357611ff2611d0f565b5b828201905092915050565b7f596f7572207265706f2069732066756c6c2e0000000000000000000000000000600082015250565b6000612034601283611705565b915061203f82611ffe565b602082019050919050565b6000602082019050818103600083015261206381612027565b9050919050565b600061207582611697565b91507fffffffffffffffffffffffffffffffffffffffffffffffffffffffffffffffff82036120a7576120a6611d0f565b5b600182019050919050565b7f6e6f4e616d650000000000000000000000000000000000000000000000000000600082015250565b60006120e8600683611705565b91506120f3826120b2565b602082019050919050565b600061211961211461210f8461189c565b611e6c565b611697565b9050919050565b612129816120fe565b82525050565b6000608082019050612144600083018661188d565b8181036020830152612155816120db565b90508181036040830152612169818561175a565b90506121786060830184612120565b949350505050565b600060408201905061219560008301856118eb565b6121a2602083018461188d565b9392505050565b600081519050919050565b600082825260208201905092915050565b60006121d0826121a9565b6121da81856121b4565b93506121ea818560208601611716565b6121f381611749565b840191505092915050565b60006060820190506122136000830186611930565b612220602083018561188d565b818103604083015261223281846121c5565b9050949350505050565b6122458161195a565b811461225057600080fd5b50565b6000815190506122628161223c565b92915050565b60006020828403121561227e5761227d61168d565b5b600061228c84828501612253565b91505092915050565b60006080820190506122aa60008301876118eb565b6122b7602083018661188d565b6122c46040830185611930565b6122d1606083018461188d565b95945050505050565b6000819050919050565b6122f56122f0826118e1565b6122da565b82525050565b6000819050919050565b61231661231182611697565b6122fb565b82525050565b600061232882856122e4565b6020820191506123388284612305565b602082019150819050939250505056fea2646970667358221220e30b0c38b4d1c00a642b797498c914829ff6ceabee1eae1845aee43a13006a8b64736f6c634300080d0033",
  "immutableReferences": {
    "168": [
      {
        "length": 32,
        "start": 4919
      }
    ],
    "170": [
      {
        "length": 32,
        "start": 1623
      },
      {
        "length": 32,
        "start": 4979
      }
    ]
  },
  "source": "// SPDX-License-Identifier: GPL-3.0\npragma solidity ^0.8.13;\n\nimport \"./Ownable.sol\";\nimport \"./RobotBasic.sol\";\nimport \"./CommanderBasic.sol\";\nimport \"@chainlink/contracts/src/v0.8/vrf/VRFConsumerBase.sol\";\n\n//\n//commander\ncontract Basic is Ownable, RobotBasic, CommanderBasic, VRFConsumerBase {\n\n    uint readyTime = 1 days; //1\n    uint randNonce = 0;\n\n    bytes32 public keyHash;\n    uint256 public fee;\n\n    struct Random {\n        uint result;\n        uint8 status; //0  1  2\n    }\n\n    mapping(bytes32 => address) public requestIdToAddress;\n    mapping(address => Random) public addressToRandom;\n\n    //commander\n    Commander[] public commanders;\n\n    //\n    Robot[] public robots;\n\n    // => commander id\n    mapping(address => uint) public ownerToCommander;\n    \n    //robot id => \n    mapping(uint => address) public robotToOwner;\n\n    // => \n    mapping(address => uint) public ownerRobotCount;\n\n    //\n    modifier ownerOfRobot(uint robotId) {\n        require(msg.sender == robotToOwner[robotId], \"Not your robot.\");\n        _;\n    }\n\n    event NewCommander(uint id, string name, uint dna, address indexed owner);\n\n    event NewRobot(uint id, string name, string dna, uint spieces, address indexed owner);\n\n    constructor() VRFConsumerBase(0x2Ca8E0C643bDe4C2E08ab1fA0da3401AdAD7734D,\n    0x326C977E6efc84E512bB9C30f76E30c160eD06FB) {\n        commanders.push(Commander(\"init\", 0, 0, 0));\n        keyHash = 0x79d3d8832d904592c0bf9818b621522c988bb8b0c05cdc3b15aea1b6e8db0c15;\n        fee = 250000;\n    }\n\n    //\n    function getRandomNumber() public returns (bytes32 requestId) {\n        //vrf\n        bytes32 reqId = requestRandomness(keyHash, fee);\n        requestIdToAddress[reqId] = msg.sender;\n        addressToRandom[msg.sender] = Random(0, 0);\n        return reqId;\n    }\n\n    //vrf\n    function fulfillRandomness(bytes32 requestId, uint256 randomness) internal override {\n        address addr = requestIdToAddress[requestId];\n        delete requestIdToAddress[requestId];\n        addressToRandom[addr].result = randomness;\n        addressToRandom[addr].status = 1;\n    }\n\n    //commander\n    function CreateCommander(string calldata name) public {\n        require(ownerToCommander[msg.sender] == 0, \"Your commander already existed.\");\n        getRandomNumber();\n        uint64 randomDna;\n        for (int i = 0; i < 10000; i++) {\n            if (addressToRandom[msg.sender].status == 1) {\n                randomDna = uint64(addressToRandom[msg.sender].result % 10^10 + 1);\n                addressToRandom[msg.sender].status == 2;\n            }\n        }    \n        require (randomDna != 0, \"Get random dna fali.\");\n        commanders.push(Commander(name, randomDna, uint64(block.timestamp), uint64(block.timestamp)));\n\n        uint id = commanders.length - 1;\n\n        ownerToCommander[msg.sender] = id;\n\n        //\n        emit NewCommander(id, name, randomDna, msg.sender);\n    }\n\n    //\n    function CreateRobot() internal {\n\n        //the limitation of robots you can hold is 100\n        require(ownerRobotCount[msg.sender] <= 100, \"Your repo is full.\");\n        //get random spieces\n        uint8 spieces = uint8(block.timestamp % 2);\n        string memory dna = \"randomString\";\n        robots.push(Robot(\"noName\", dna, spieces, 0, 0, 0, 0));\n        uint id = robots.length - 1;    \n        robotToOwner[id] = msg.sender;\n        ownerRobotCount[msg.sender] ++;\n\n        emit NewRobot(id, \"noName\", dna, spieces, msg.sender);\n    }\n\n    //\n    function getFreeRobot() public {\n        //\n        Commander storage commander = commanders[ownerToCommander[msg.sender]];\n        require(commander.getFreeRobotReadyTime <= block.timestamp, \"Less than one day since last time you get a free robot.\");\n        CreateRobot();\n        commander.getFreeRobotReadyTime = uint64(block.timestamp + readyTime);\n    }\n\n}",
  "sourcePath": "/Users/liqinghao/Desktop/RoboHashWeb3/contracts/robotgame/Basic.sol",
  "compiler": {
    "name": "solc",
    "version": "0.8.13+commit.abaa5c0e.Emscripten.clang"
  },
  "schemaVersion": "3.4.16",
  "updatedAt": "2023-11-08T04:49:21.235Z",
  "devdoc": {
    "kind": "dev",
    "methods": {
      "isOwner()": {
        "returns": {
          "_0": "true if `msg.sender` is the owner of the contract."
        }
      },
      "owner()": {
        "returns": {
          "_0": "the address of the owner."
        }
      },
      "renounceOwnership()": {
        "details": "Allows the current owner to relinquish control of the contract."
      },
      "transferOwnership(address)": {
        "details": "Allows the current owner to transfer control of the contract to a newOwner.",
        "params": {
          "newOwner": "The address to transfer ownership to."
        }
      }
    },
    "version": 1
  },
  "userdoc": {
    "kind": "user",
    "methods": {
      "renounceOwnership()": {
        "notice": "Renouncing to ownership will leave the contract without an owner. It will not be possible to call the functions with the `onlyOwner` modifier anymore."
      }
    },
    "version": 1
  }
}