{
  "contractName": "Gamble",
  "abi": [
    {
      "anonymous": false,
      "inputs": [
        {
          "indexed": false,
          "internalType": "uint256",
          "name": "id",
          "type": "uint256"
        },
        {
          "indexed": false,
          "internalType": "string",
          "name": "name",
          "type": "string"
        },
        {
          "indexed": false,
          "internalType": "string",
          "name": "dna",
          "type": "string"
        },
        {
          "indexed": true,
          "internalType": "address",
          "name": "owner",
          "type": "address"
        }
      ],
      "name": "NewCommander",
      "type": "event"
    },
    {
      "anonymous": false,
      "inputs": [
        {
          "indexed": false,
          "internalType": "uint256",
          "name": "id",
          "type": "uint256"
        },
        {
          "indexed": false,
          "internalType": "string",
          "name": "name",
          "type": "string"
        },
        {
          "indexed": false,
          "internalType": "string",
          "name": "dna",
          "type": "string"
        },
        {
          "indexed": false,
          "internalType": "uint256",
          "name": "spieces",
          "type": "uint256"
        },
        {
          "indexed": true,
          "internalType": "address",
          "name": "owner",
          "type": "address"
        }
      ],
      "name": "NewRobot",
      "type": "event"
    },
    {
      "anonymous": false,
      "inputs": [
        {
          "indexed": true,
          "internalType": "address",
          "name": "previousOwner",
          "type": "address"
        },
        {
          "indexed": true,
          "internalType": "address",
          "name": "newOwner",
          "type": "address"
        }
      ],
      "name": "OwnershipTransferred",
      "type": "event"
    },
    {
      "inputs": [
        {
          "internalType": "string",
          "name": "name",
          "type": "string"
        }
      ],
      "name": "CreateCommander",
      "outputs": [],
      "stateMutability": "nonpayable",
      "type": "function"
    },
    {
      "inputs": [
        {
          "internalType": "uint256",
          "name": "",
          "type": "uint256"
        }
      ],
      "name": "commanders",
      "outputs": [
        {
          "internalType": "string",
          "name": "name",
          "type": "string"
        },
        {
          "internalType": "string",
          "name": "dna",
          "type": "string"
        },
        {
          "internalType": "uint64",
          "name": "getFreeRobotReadyTime",
          "type": "uint64"
        },
        {
          "internalType": "uint64",
          "name": "giveStarReadyTime",
          "type": "uint64"
        }
      ],
      "stateMutability": "view",
      "type": "function"
    },
    {
      "inputs": [],
      "name": "getFreeRobot",
      "outputs": [],
      "stateMutability": "nonpayable",
      "type": "function"
    },
    {
      "inputs": [],
      "name": "isOwner",
      "outputs": [
        {
          "internalType": "bool",
          "name": "",
          "type": "bool"
        }
      ],
      "stateMutability": "view",
      "type": "function"
    },
    {
      "inputs": [],
      "name": "owner",
      "outputs": [
        {
          "internalType": "address",
          "name": "",
          "type": "address"
        }
      ],
      "stateMutability": "view",
      "type": "function"
    },
    {
      "inputs": [
        {
          "internalType": "address",
          "name": "",
          "type": "address"
        }
      ],
      "name": "ownerRobotCount",
      "outputs": [
        {
          "internalType": "uint256",
          "name": "",
          "type": "uint256"
        }
      ],
      "stateMutability": "view",
      "type": "function"
    },
    {
      "inputs": [
        {
          "internalType": "address",
          "name": "",
          "type": "address"
        }
      ],
      "name": "ownerToCommander",
      "outputs": [
        {
          "internalType": "uint256",
          "name": "",
          "type": "uint256"
        }
      ],
      "stateMutability": "view",
      "type": "function"
    },
    {
      "inputs": [],
      "name": "renounceOwnership",
      "outputs": [],
      "stateMutability": "nonpayable",
      "type": "function"
    },
    {
      "inputs": [
        {
          "internalType": "uint256",
          "name": "",
          "type": "uint256"
        }
      ],
      "name": "robotToOwner",
      "outputs": [
        {
          "internalType": "address",
          "name": "",
          "type": "address"
        }
      ],
      "stateMutability": "view",
      "type": "function"
    },
    {
      "inputs": [
        {
          "internalType": "uint256",
          "name": "",
          "type": "uint256"
        }
      ],
      "name": "robots",
      "outputs": [
        {
          "internalType": "string",
          "name": "name",
          "type": "string"
        },
        {
          "internalType": "string",
          "name": "dna",
          "type": "string"
        },
        {
          "internalType": "uint8",
          "name": "spieces",
          "type": "uint8"
        },
        {
          "internalType": "uint8",
          "name": "status",
          "type": "uint8"
        },
        {
          "internalType": "uint32",
          "name": "stars",
          "type": "uint32"
        },
        {
          "internalType": "uint256",
          "name": "price",
          "type": "uint256"
        },
        {
          "internalType": "uint256",
          "name": "idInMarket",
          "type": "uint256"
        }
      ],
      "stateMutability": "view",
      "type": "function"
    },
    {
      "inputs": [
        {
          "internalType": "address",
          "name": "newOwner",
          "type": "address"
        }
      ],
      "name": "transferOwnership",
      "outputs": [],
      "stateMutability": "nonpayable",
      "type": "function"
    },
    {
      "inputs": [
        {
          "internalType": "uint256",
          "name": "choice",
          "type": "uint256"
        },
        {
          "internalType": "uint256",
          "name": "robotId",
          "type": "uint256"
        }
      ],
      "name": "gamble",
      "outputs": [],
      "stateMutability": "nonpayable",
      "type": "function"
    }
  ],
  "bytecode": "0x6080604052620151806001555f60025534801561001a575f80fd5b50335f806101000a81548173ffffffffffffffffffffffffffffffffffffffff021916908373ffffffffffffffffffffffffffffffffffffffff1602179055505f8054906101000a900473ffffffffffffffffffffffffffffffffffffffff1673ffffffffffffffffffffffffffffffffffffffff165f73ffffffffffffffffffffffffffffffffffffffff167f8be0079c531659141344cd1fd0a4f28419497f9722a3daafe3b4186f6b6457e060405160405180910390a3611c8c806100e05f395ff3fe608060405234801561000f575f80fd5b50600436106100b2575f3560e01c80638f32d59b1161006f5780638f32d59b1461018d5780639403a0ce146101ab578063a03937c5146101db578063a1a4d91c14610211578063b060ff191461022d578063f2fde38b14610237576100b2565b806322e8c8fc146100b6578063492d8b3d146100d257806365ceceb1146101055780636aa438dc14610135578063715018a6146101655780638da5cb5b1461016f575b5f80fd5b6100d060048036038101906100cb919061107f565b610253565b005b6100ec60048036038101906100e791906110bd565b610393565b6040516100fc9493929190611194565b60405180910390f35b61011f600480360381019061011a919061123f565b610501565b60405161012c9190611279565b60405180910390f35b61014f600480360381019061014a919061123f565b610516565b60405161015c9190611279565b60405180910390f35b61016d61052b565b005b6101776105f5565b60405161018491906112a1565b60405180910390f35b61019561061c565b6040516101a291906112d4565b60405180910390f35b6101c560048036038101906101c091906110bd565b610671565b6040516101d291906112a1565b60405180910390f35b6101f560048036038101906101f091906110bd565b6106a1565b6040516102089796959493929190611326565b60405180910390f35b61022b60048036038101906102269190611402565b610823565b005b610235610ab5565b005b610251600480360381019061024c919061123f565b610bbb565b005b8060065f8281526020019081526020015f205f9054906101000a900473ffffffffffffffffffffffffffffffffffffffff1673ffffffffffffffffffffffffffffffffffffffff163373ffffffffffffffffffffffffffffffffffffffff16146102f2576040517f08c379a00000000000000000000000000000000000000000000000000000000081526004016102e990611497565b60405180910390fd5b5f60016102ff6006610bd7565b61030991906114e2565b90505f6003821161031c575f9050610321565b600190505b80850361033557610330610c30565b61038c565b61033d6105f5565b60065f8681526020019081526020015f205f6101000a81548173ffffffffffffffffffffffffffffffffffffffff021916908373ffffffffffffffffffffffffffffffffffffffff1602179055505b5050505050565b600381815481106103a2575f80fd5b905f5260205f2090600302015f91509050805f0180546103c190611542565b80601f01602080910402602001604051908101604052809291908181526020018280546103ed90611542565b80156104385780601f1061040f57610100808354040283529160200191610438565b820191905f5260205f20905b81548152906001019060200180831161041b57829003601f168201915b50505050509080600101805461044d90611542565b80601f016020809104026020016040519081016040528092919081815260200182805461047990611542565b80156104c45780601f1061049b576101008083540402835291602001916104c4565b820191905f5260205f20905b8154815290600101906020018083116104a757829003601f168201915b505050505090806002015f9054906101000a900467ffffffffffffffff16908060020160089054906101000a900467ffffffffffffffff16905084565b6007602052805f5260405f205f915090505481565b6005602052805f5260405f205f915090505481565b61053361061c565b61053b575f80fd5b5f73ffffffffffffffffffffffffffffffffffffffff165f8054906101000a900473ffffffffffffffffffffffffffffffffffffffff1673ffffffffffffffffffffffffffffffffffffffff167f8be0079c531659141344cd1fd0a4f28419497f9722a3daafe3b4186f6b6457e060405160405180910390a35f805f6101000a81548173ffffffffffffffffffffffffffffffffffffffff021916908373ffffffffffffffffffffffffffffffffffffffff160217905550565b5f805f9054906101000a900473ffffffffffffffffffffffffffffffffffffffff16905090565b5f805f9054906101000a900473ffffffffffffffffffffffffffffffffffffffff1673ffffffffffffffffffffffffffffffffffffffff163373ffffffffffffffffffffffffffffffffffffffff1614905090565b6006602052805f5260405f205f915054906101000a900473ffffffffffffffffffffffffffffffffffffffff1681565b600481815481106106b0575f80fd5b905f5260205f2090600502015f91509050805f0180546106cf90611542565b80601f01602080910402602001604051908101604052809291908181526020018280546106fb90611542565b80156107465780601f1061071d57610100808354040283529160200191610746565b820191905f5260205f20905b81548152906001019060200180831161072957829003601f168201915b50505050509080600101805461075b90611542565b80601f016020809104026020016040519081016040528092919081815260200182805461078790611542565b80156107d25780601f106107a9576101008083540402835291602001916107d2565b820191905f5260205f20905b8154815290600101906020018083116107b557829003601f168201915b505050505090806002015f9054906101000a900460ff16908060020160019054906101000a900460ff16908060020160029054906101000a900463ffffffff16908060030154908060040154905087565b5f60055f3373ffffffffffffffffffffffffffffffffffffffff1673ffffffffffffffffffffffffffffffffffffffff1681526020019081526020015f2054036108a2576040517f08c379a0000000000000000000000000000000000000000000000000000000008152600401610899906115bc565b60405180910390fd5b5f6040518060400160405280600c81526020017f72616e646f6d537472696e67000000000000000000000000000000000000000081525090506003604051806080016040528085858080601f0160208091040260200160405190810160405280939291908181526020018383808284375f81840152601f19601f8201169050808301925050505050505081526020018381526020014267ffffffffffffffff1681526020014267ffffffffffffffff16815250908060018154018082558091505060019003905f5260205f2090600302015f909190919091505f820151815f01908161098e91906117a4565b5060208201518160010190816109a491906117a4565b506040820151816002015f6101000a81548167ffffffffffffffff021916908367ffffffffffffffff16021790555060608201518160020160086101000a81548167ffffffffffffffff021916908367ffffffffffffffff16021790555050505f6001600380549050610a179190611873565b90508060055f3373ffffffffffffffffffffffffffffffffffffffff1673ffffffffffffffffffffffffffffffffffffffff1681526020019081526020015f20819055503373ffffffffffffffffffffffffffffffffffffffff167f0ba589754bdc7c1e308a8ce3362a7b42600571fdd695534edd1e0182e187149f82868686604051610aa794939291906118e0565b60405180910390a250505050565b5f600360055f3373ffffffffffffffffffffffffffffffffffffffff1673ffffffffffffffffffffffffffffffffffffffff1681526020019081526020015f205481548110610b0757610b06611925565b5b905f5260205f209060030201905042816002015f9054906101000a900467ffffffffffffffff1667ffffffffffffffff161115610b79576040517f08c379a0000000000000000000000000000000000000000000000000000000008152600401610b70906119c2565b60405180910390fd5b610b81610c3a565b60015442610b8f91906114e2565b816002015f6101000a81548167ffffffffffffffff021916908367ffffffffffffffff16021790555050565b610bc361061c565b610bcb575f80fd5b610bd481610f52565b50565b5f60025f815480929190610bea906119e0565b9190505550814233600254604051602001610c0793929190611a8c565b604051602081830303815290604052805190602001205f1c610c299190611af5565b9050919050565b610c38610c3a565b565b606460075f3373ffffffffffffffffffffffffffffffffffffffff1673ffffffffffffffffffffffffffffffffffffffff1681526020019081526020015f20541115610cbb576040517f08c379a0000000000000000000000000000000000000000000000000000000008152600401610cb290611b6f565b60405180910390fd5b5f610cc66002610bd7565b90505f6040518060400160405280600c81526020017f72616e646f6d537472696e670000000000000000000000000000000000000000815250905060046040518060e001604052806040518060400160405280600681526020017f6e6f4e616d65000000000000000000000000000000000000000000000000000081525081526020018381526020018460ff1681526020015f60ff1681526020015f63ffffffff1681526020015f81526020015f815250908060018154018082558091505060019003905f5260205f2090600502015f909190919091505f820151815f019081610db091906117a4565b506020820151816001019081610dc691906117a4565b506040820151816002015f6101000a81548160ff021916908360ff16021790555060608201518160020160016101000a81548160ff021916908360ff16021790555060808201518160020160026101000a81548163ffffffff021916908363ffffffff16021790555060a0820151816003015560c0820151816004015550505f6001600480549050610e589190611873565b90503360065f8381526020019081526020015f205f6101000a81548173ffffffffffffffffffffffffffffffffffffffff021916908373ffffffffffffffffffffffffffffffffffffffff16021790555060075f3373ffffffffffffffffffffffffffffffffffffffff1673ffffffffffffffffffffffffffffffffffffffff1681526020019081526020015f205f815480929190610ef6906119e0565b91905055503373ffffffffffffffffffffffffffffffffffffffff167fe4bc06e69dd7a0f1bc9ef5db431d371f0cab41d8156a6012711823b90466715b828486604051610f4593929190611c07565b60405180910390a2505050565b5f73ffffffffffffffffffffffffffffffffffffffff168173ffffffffffffffffffffffffffffffffffffffff1603610f89575f80fd5b8073ffffffffffffffffffffffffffffffffffffffff165f8054906101000a900473ffffffffffffffffffffffffffffffffffffffff1673ffffffffffffffffffffffffffffffffffffffff167f8be0079c531659141344cd1fd0a4f28419497f9722a3daafe3b4186f6b6457e060405160405180910390a3805f806101000a81548173ffffffffffffffffffffffffffffffffffffffff021916908373ffffffffffffffffffffffffffffffffffffffff16021790555050565b5f80fd5b5f80fd5b5f819050919050565b61105e8161104c565b8114611068575f80fd5b50565b5f8135905061107981611055565b92915050565b5f806040838503121561109557611094611044565b5b5f6110a28582860161106b565b92505060206110b38582860161106b565b9150509250929050565b5f602082840312156110d2576110d1611044565b5b5f6110df8482850161106b565b91505092915050565b5f81519050919050565b5f82825260208201905092915050565b5f5b8381101561111f578082015181840152602081019050611104565b5f8484015250505050565b5f601f19601f8301169050919050565b5f611144826110e8565b61114e81856110f2565b935061115e818560208601611102565b6111678161112a565b840191505092915050565b5f67ffffffffffffffff82169050919050565b61118e81611172565b82525050565b5f6080820190508181035f8301526111ac818761113a565b905081810360208301526111c0818661113a565b90506111cf6040830185611185565b6111dc6060830184611185565b95945050505050565b5f73ffffffffffffffffffffffffffffffffffffffff82169050919050565b5f61120e826111e5565b9050919050565b61121e81611204565b8114611228575f80fd5b50565b5f8135905061123981611215565b92915050565b5f6020828403121561125457611253611044565b5b5f6112618482850161122b565b91505092915050565b6112738161104c565b82525050565b5f60208201905061128c5f83018461126a565b92915050565b61129b81611204565b82525050565b5f6020820190506112b45f830184611292565b92915050565b5f8115159050919050565b6112ce816112ba565b82525050565b5f6020820190506112e75f8301846112c5565b92915050565b5f60ff82169050919050565b611302816112ed565b82525050565b5f63ffffffff82169050919050565b61132081611308565b82525050565b5f60e0820190508181035f83015261133e818a61113a565b90508181036020830152611352818961113a565b905061136160408301886112f9565b61136e60608301876112f9565b61137b6080830186611317565b61138860a083018561126a565b61139560c083018461126a565b98975050505050505050565b5f80fd5b5f80fd5b5f80fd5b5f8083601f8401126113c2576113c16113a1565b5b8235905067ffffffffffffffff8111156113df576113de6113a5565b5b6020830191508360018202830111156113fb576113fa6113a9565b5b9250929050565b5f806020838503121561141857611417611044565b5b5f83013567ffffffffffffffff81111561143557611434611048565b5b611441858286016113ad565b92509250509250929050565b7f4e6f7420796f757220726f626f742e00000000000000000000000000000000005f82015250565b5f611481600f836110f2565b915061148c8261144d565b602082019050919050565b5f6020820190508181035f8301526114ae81611475565b9050919050565b7f4e487b71000000000000000000000000000000000000000000000000000000005f52601160045260245ffd5b5f6114ec8261104c565b91506114f78361104c565b925082820190508082111561150f5761150e6114b5565b5b92915050565b7f4e487b71000000000000000000000000000000000000000000000000000000005f52602260045260245ffd5b5f600282049050600182168061155957607f821691505b60208210810361156c5761156b611515565b5b50919050565b7f596f757220636f6d6d616e64657220616c726561647920657869737465642e005f82015250565b5f6115a6601f836110f2565b91506115b182611572565b602082019050919050565b5f6020820190508181035f8301526115d38161159a565b9050919050565b7f4e487b71000000000000000000000000000000000000000000000000000000005f52604160045260245ffd5b5f819050815f5260205f209050919050565b5f6020601f8301049050919050565b5f82821b905092915050565b5f600883026116637fffffffffffffffffffffffffffffffffffffffffffffffffffffffffffffffff82611628565b61166d8683611628565b95508019841693508086168417925050509392505050565b5f819050919050565b5f6116a86116a361169e8461104c565b611685565b61104c565b9050919050565b5f819050919050565b6116c18361168e565b6116d56116cd826116af565b848454611634565b825550505050565b5f90565b6116e96116dd565b6116f48184846116b8565b505050565b5b818110156117175761170c5f826116e1565b6001810190506116fa565b5050565b601f82111561175c5761172d81611607565b61173684611619565b81016020851015611745578190505b61175961175185611619565b8301826116f9565b50505b505050565b5f82821c905092915050565b5f61177c5f1984600802611761565b1980831691505092915050565b5f611794838361176d565b9150826002028217905092915050565b6117ad826110e8565b67ffffffffffffffff8111156117c6576117c56115da565b5b6117d08254611542565b6117db82828561171b565b5f60209050601f83116001811461180c575f84156117fa578287015190505b6118048582611789565b86555061186b565b601f19841661181a86611607565b5f5b828110156118415784890151825560018201915060208501945060208101905061181c565b8683101561185e578489015161185a601f89168261176d565b8355505b6001600288020188555050505b505050505050565b5f61187d8261104c565b91506118888361104c565b92508282039050818111156118a05761189f6114b5565b5b92915050565b828183375f83830152505050565b5f6118bf83856110f2565b93506118cc8385846118a6565b6118d58361112a565b840190509392505050565b5f6060820190506118f35f83018761126a565b81810360208301526119068185876118b4565b9050818103604083015261191a818461113a565b905095945050505050565b7f4e487b71000000000000000000000000000000000000000000000000000000005f52603260045260245ffd5b7f4c657373207468616e206f6e65206461792073696e6365206c6173742074696d5f8201527f6520796f75206765742061206672656520726f626f742e000000000000000000602082015250565b5f6119ac6037836110f2565b91506119b782611952565b604082019050919050565b5f6020820190508181035f8301526119d9816119a0565b9050919050565b5f6119ea8261104c565b91507fffffffffffffffffffffffffffffffffffffffffffffffffffffffffffffffff8203611a1c57611a1b6114b5565b5b600182019050919050565b5f819050919050565b611a41611a3c8261104c565b611a27565b82525050565b5f8160601b9050919050565b5f611a5d82611a47565b9050919050565b5f611a6e82611a53565b9050919050565b611a86611a8182611204565b611a64565b82525050565b5f611a978286611a30565b602082019150611aa78285611a75565b601482019150611ab78284611a30565b602082019150819050949350505050565b7f4e487b71000000000000000000000000000000000000000000000000000000005f52601260045260245ffd5b5f611aff8261104c565b9150611b0a8361104c565b925082611b1a57611b19611ac8565b5b828206905092915050565b7f596f7572207265706f2069732066756c6c2e00000000000000000000000000005f82015250565b5f611b596012836110f2565b9150611b6482611b25565b602082019050919050565b5f6020820190508181035f830152611b8681611b4d565b9050919050565b7f6e6f4e616d6500000000000000000000000000000000000000000000000000005f82015250565b5f611bc16006836110f2565b9150611bcc82611b8d565b602082019050919050565b5f611bf1611bec611be7846112ed565b611685565b61104c565b9050919050565b611c0181611bd7565b82525050565b5f608082019050611c1a5f83018661126a565b8181036020830152611c2b81611bb5565b90508181036040830152611c3f818561113a565b9050611c4e6060830184611bf8565b94935050505056fea2646970667358221220a3fa02fd2990f06f89ffc47c3fbdf86ad13243b8b958974b6cb5e8e0d6f0ec6e64736f6c63430008150033",
  "immutableReferences": {},
  "source": "// SPDX-License-Identifier: MIT \npragma solidity ^0.8.21;\n\nimport \"./Basic.sol\";\n\n//\ncontract Gamble is Basic {\n\n    //\n    //\n    //\n    function gamble(uint choice, uint robotId) external ownerOfRobot(robotId) {\n\n        uint randInt = randMod(6) + 1;\n        uint res;\n        if (randInt <=3 ) {\n            res = 0;\n        } else {\n            res = 1;\n        }\n\n        if (choice == res) {\n             getFreeRobotAfterGambleWin();\n        } else {\n            robotToOwner[robotId] = owner();\n        }\n    }\n\n    //\n    function getFreeRobotAfterGambleWin() internal {\n        CreateRobot();\n    }\n}",
  "sourcePath": "/Users/liqinghao/Desktop/RoboHashWeb3/contracts/robotgame/Gamble.sol",
  "compiler": {
    "name": "solc",
    "version": "0.8.21+commit.d9974bed.Emscripten.clang"
  },
  "schemaVersion": "3.4.16",
  "updatedAt": "2023-11-06T02:21:21.308Z",
  "devdoc": {
    "kind": "dev",
    "methods": {
      "isOwner()": {
        "returns": {
          "_0": "true if `msg.sender` is the owner of the contract."
        }
      },
      "owner()": {
        "returns": {
          "_0": "the address of the owner."
        }
      },
      "renounceOwnership()": {
        "details": "Allows the current owner to relinquish control of the contract."
      },
      "transferOwnership(address)": {
        "details": "Allows the current owner to transfer control of the contract to a newOwner.",
        "params": {
          "newOwner": "The address to transfer ownership to."
        }
      }
    },
    "version": 1
  },
  "userdoc": {
    "kind": "user",
    "methods": {
      "renounceOwnership()": {
        "notice": "Renouncing to ownership will leave the contract without an owner. It will not be possible to call the functions with the `onlyOwner` modifier anymore."
      }
    },
    "version": 1
  }
}