{
  "contractName": "Gamble",
  "abi": [
    {
      "anonymous": false,
      "inputs": [
        {
          "indexed": false,
          "internalType": "uint256",
          "name": "id",
          "type": "uint256"
        },
        {
          "indexed": false,
          "internalType": "string",
          "name": "name",
          "type": "string"
        },
        {
          "indexed": false,
          "internalType": "uint256",
          "name": "dna",
          "type": "uint256"
        },
        {
          "indexed": true,
          "internalType": "address",
          "name": "owner",
          "type": "address"
        }
      ],
      "name": "NewCommander",
      "type": "event"
    },
    {
      "anonymous": false,
      "inputs": [
        {
          "indexed": false,
          "internalType": "uint256",
          "name": "id",
          "type": "uint256"
        },
        {
          "indexed": false,
          "internalType": "string",
          "name": "name",
          "type": "string"
        },
        {
          "indexed": false,
          "internalType": "string",
          "name": "dna",
          "type": "string"
        },
        {
          "indexed": false,
          "internalType": "uint256",
          "name": "spieces",
          "type": "uint256"
        },
        {
          "indexed": true,
          "internalType": "address",
          "name": "owner",
          "type": "address"
        }
      ],
      "name": "NewRobot",
      "type": "event"
    },
    {
      "anonymous": false,
      "inputs": [
        {
          "indexed": true,
          "internalType": "address",
          "name": "previousOwner",
          "type": "address"
        },
        {
          "indexed": true,
          "internalType": "address",
          "name": "newOwner",
          "type": "address"
        }
      ],
      "name": "OwnershipTransferred",
      "type": "event"
    },
    {
      "inputs": [
        {
          "internalType": "string",
          "name": "name",
          "type": "string"
        }
      ],
      "name": "CreateCommander",
      "outputs": [],
      "stateMutability": "nonpayable",
      "type": "function"
    },
    {
      "inputs": [
        {
          "internalType": "address",
          "name": "",
          "type": "address"
        }
      ],
      "name": "addressToRandom",
      "outputs": [
        {
          "internalType": "uint256",
          "name": "result",
          "type": "uint256"
        },
        {
          "internalType": "uint8",
          "name": "status",
          "type": "uint8"
        }
      ],
      "stateMutability": "view",
      "type": "function"
    },
    {
      "inputs": [
        {
          "internalType": "uint256",
          "name": "",
          "type": "uint256"
        }
      ],
      "name": "commanders",
      "outputs": [
        {
          "internalType": "string",
          "name": "name",
          "type": "string"
        },
        {
          "internalType": "uint64",
          "name": "dna",
          "type": "uint64"
        },
        {
          "internalType": "uint64",
          "name": "getFreeRobotReadyTime",
          "type": "uint64"
        },
        {
          "internalType": "uint64",
          "name": "giveStarReadyTime",
          "type": "uint64"
        }
      ],
      "stateMutability": "view",
      "type": "function"
    },
    {
      "inputs": [],
      "name": "fee",
      "outputs": [
        {
          "internalType": "uint256",
          "name": "",
          "type": "uint256"
        }
      ],
      "stateMutability": "view",
      "type": "function"
    },
    {
      "inputs": [],
      "name": "getFreeRobot",
      "outputs": [],
      "stateMutability": "nonpayable",
      "type": "function"
    },
    {
      "inputs": [],
      "name": "getRandomNumber",
      "outputs": [
        {
          "internalType": "bytes32",
          "name": "requestId",
          "type": "bytes32"
        }
      ],
      "stateMutability": "nonpayable",
      "type": "function"
    },
    {
      "inputs": [],
      "name": "isOwner",
      "outputs": [
        {
          "internalType": "bool",
          "name": "",
          "type": "bool"
        }
      ],
      "stateMutability": "view",
      "type": "function"
    },
    {
      "inputs": [],
      "name": "keyHash",
      "outputs": [
        {
          "internalType": "bytes32",
          "name": "",
          "type": "bytes32"
        }
      ],
      "stateMutability": "view",
      "type": "function"
    },
    {
      "inputs": [],
      "name": "owner",
      "outputs": [
        {
          "internalType": "address",
          "name": "",
          "type": "address"
        }
      ],
      "stateMutability": "view",
      "type": "function"
    },
    {
      "inputs": [
        {
          "internalType": "address",
          "name": "",
          "type": "address"
        }
      ],
      "name": "ownerRobotCount",
      "outputs": [
        {
          "internalType": "uint256",
          "name": "",
          "type": "uint256"
        }
      ],
      "stateMutability": "view",
      "type": "function"
    },
    {
      "inputs": [
        {
          "internalType": "address",
          "name": "",
          "type": "address"
        }
      ],
      "name": "ownerToCommander",
      "outputs": [
        {
          "internalType": "uint256",
          "name": "",
          "type": "uint256"
        }
      ],
      "stateMutability": "view",
      "type": "function"
    },
    {
      "inputs": [
        {
          "internalType": "bytes32",
          "name": "requestId",
          "type": "bytes32"
        },
        {
          "internalType": "uint256",
          "name": "randomness",
          "type": "uint256"
        }
      ],
      "name": "rawFulfillRandomness",
      "outputs": [],
      "stateMutability": "nonpayable",
      "type": "function"
    },
    {
      "inputs": [],
      "name": "renounceOwnership",
      "outputs": [],
      "stateMutability": "nonpayable",
      "type": "function"
    },
    {
      "inputs": [
        {
          "internalType": "bytes32",
          "name": "",
          "type": "bytes32"
        }
      ],
      "name": "requestIdToAddress",
      "outputs": [
        {
          "internalType": "address",
          "name": "",
          "type": "address"
        }
      ],
      "stateMutability": "view",
      "type": "function"
    },
    {
      "inputs": [
        {
          "internalType": "uint256",
          "name": "",
          "type": "uint256"
        }
      ],
      "name": "robotToOwner",
      "outputs": [
        {
          "internalType": "address",
          "name": "",
          "type": "address"
        }
      ],
      "stateMutability": "view",
      "type": "function"
    },
    {
      "inputs": [
        {
          "internalType": "uint256",
          "name": "",
          "type": "uint256"
        }
      ],
      "name": "robots",
      "outputs": [
        {
          "internalType": "string",
          "name": "name",
          "type": "string"
        },
        {
          "internalType": "string",
          "name": "dna",
          "type": "string"
        },
        {
          "internalType": "uint8",
          "name": "spieces",
          "type": "uint8"
        },
        {
          "internalType": "uint8",
          "name": "status",
          "type": "uint8"
        },
        {
          "internalType": "uint32",
          "name": "stars",
          "type": "uint32"
        },
        {
          "internalType": "uint256",
          "name": "price",
          "type": "uint256"
        },
        {
          "internalType": "uint256",
          "name": "idInMarket",
          "type": "uint256"
        }
      ],
      "stateMutability": "view",
      "type": "function"
    },
    {
      "inputs": [
        {
          "internalType": "address",
          "name": "newOwner",
          "type": "address"
        }
      ],
      "name": "transferOwnership",
      "outputs": [],
      "stateMutability": "nonpayable",
      "type": "function"
    },
    {
      "inputs": [
        {
          "internalType": "uint256",
          "name": "choice",
          "type": "uint256"
        },
        {
          "internalType": "uint256",
          "name": "robotId",
          "type": "uint256"
        }
      ],
      "name": "gamble",
      "outputs": [],
      "stateMutability": "nonpayable",
      "type": "function"
    }
  ],
  "bytecode": "0x60c06040526201518060025560006003553480156200001d57600080fd5b50732ca8e0c643bde4c2e08ab1fa0da3401adad7734d73326c977e6efc84e512bb9c30f76e30c160ed06fb336000806101000a81548173ffffffffffffffffffffffffffffffffffffffff021916908373ffffffffffffffffffffffffffffffffffffffff16021790555060008054906101000a900473ffffffffffffffffffffffffffffffffffffffff1673ffffffffffffffffffffffffffffffffffffffff16600073ffffffffffffffffffffffffffffffffffffffff167f8be0079c531659141344cd1fd0a4f28419497f9722a3daafe3b4186f6b6457e060405160405180910390a38173ffffffffffffffffffffffffffffffffffffffff1660a08173ffffffffffffffffffffffffffffffffffffffff16815250508073ffffffffffffffffffffffffffffffffffffffff1660808173ffffffffffffffffffffffffffffffffffffffff16815250505050600860405180608001604052806040518060400160405280600481526020017f696e6974000000000000000000000000000000000000000000000000000000008152508152602001600067ffffffffffffffff168152602001600067ffffffffffffffff168152602001600067ffffffffffffffff16815250908060018154018082558091505060019003906000526020600020906002020160009091909190915060008201518160000190805190602001906200022d929190620002f7565b5060208201518160010160006101000a81548167ffffffffffffffff021916908367ffffffffffffffff16021790555060408201518160010160086101000a81548167ffffffffffffffff021916908367ffffffffffffffff16021790555060608201518160010160106101000a81548167ffffffffffffffff021916908367ffffffffffffffff16021790555050507f79d3d8832d904592c0bf9818b621522c988bb8b0c05cdc3b15aea1b6e8db0c1560001b6004819055506203d0906005819055506200040b565b8280546200030590620003d6565b90600052602060002090601f01602090048101928262000329576000855562000375565b82601f106200034457805160ff191683800117855562000375565b8280016001018555821562000375579182015b828111156200037457825182559160200191906001019062000357565b5b50905062000384919062000388565b5090565b5b80821115620003a357600081600090555060010162000389565b5090565b7f4e487b7100000000000000000000000000000000000000000000000000000000600052602260045260246000fd5b60006002820490506001821680620003ef57607f821691505b602082108103620004055762000404620003a7565b5b50919050565b60805160a0516125a762000438600039600081816107ca01526114f0015260006114b401526125a76000f3fe608060405234801561001057600080fd5b50600436106101165760003560e01c80639403a0ce116100a2578063b060ff1911610071578063b060ff19146102fd578063bc64beee14610307578063dbdff2c114610337578063ddca3f4314610355578063f2fde38b1461037357610116565b80639403a0ce1461025f57806394985ddd1461028f578063a03937c5146102ab578063a1a4d91c146102e157610116565b806365ceceb1116100e957806365ceceb1146101b95780636aa438dc146101e9578063715018a6146102195780638da5cb5b146102235780638f32d59b1461024157610116565b806322e8c8fc1461011b578063492d8b3d146101375780635add26ea1461016a57806361728f391461019b575b600080fd5b6101356004803603810190610130919061184a565b61038f565b005b610151600480360381019061014c919061188a565b6104db565b6040516101619493929190611973565b60405180910390f35b610184600480360381019061017f9190611a1d565b6105df565b604051610192929190611a75565b60405180910390f35b6101a3610610565b6040516101b09190611ab7565b60405180910390f35b6101d360048036038101906101ce9190611a1d565b610616565b6040516101e09190611ad2565b60405180910390f35b61020360048036038101906101fe9190611a1d565b61062e565b6040516102109190611ad2565b60405180910390f35b610221610646565b005b61022b610715565b6040516102389190611afc565b60405180910390f35b61024961073e565b6040516102569190611b32565b60405180910390f35b6102796004803603810190610274919061188a565b610795565b6040516102869190611afc565b60405180910390f35b6102a960048036038101906102a49190611b79565b6107c8565b005b6102c560048036038101906102c0919061188a565b610864565b6040516102d89796959493929190611bd8565b60405180910390f35b6102fb60048036038101906102f69190611cba565b6109f0565b005b610305610dfc565b005b610321600480360381019061031c9190611d07565b610f09565b60405161032e9190611afc565b60405180910390f35b61033f610f3c565b60405161034c9190611ab7565b60405180910390f35b61035d61102f565b60405161036a9190611ad2565b60405180910390f35b61038d60048036038101906103889190611a1d565b611035565b005b80600b600082815260200190815260200160002060009054906101000a900473ffffffffffffffffffffffffffffffffffffffff1673ffffffffffffffffffffffffffffffffffffffff163373ffffffffffffffffffffffffffffffffffffffff1614610431576040517f08c379a000000000000000000000000000000000000000000000000000000000815260040161042890611d80565b60405180910390fd5b600060016006426104429190611dcf565b61044c9190611e2f565b90506000600382116104615760009050610466565b600190505b80850361047a57610475611052565b6104d4565b610482610715565b600b600086815260200190815260200160002060006101000a81548173ffffffffffffffffffffffffffffffffffffffff021916908373ffffffffffffffffffffffffffffffffffffffff1602179055505b5050505050565b600881815481106104eb57600080fd5b906000526020600020906002020160009150905080600001805461050e90611eb4565b80601f016020809104026020016040519081016040528092919081815260200182805461053a90611eb4565b80156105875780601f1061055c57610100808354040283529160200191610587565b820191906000526020600020905b81548152906001019060200180831161056a57829003601f168201915b5050505050908060010160009054906101000a900467ffffffffffffffff16908060010160089054906101000a900467ffffffffffffffff16908060010160109054906101000a900467ffffffffffffffff16905084565b60076020528060005260406000206000915090508060000154908060010160009054906101000a900460ff16905082565b60045481565b600c6020528060005260406000206000915090505481565b600a6020528060005260406000206000915090505481565b61064e61073e565b61065757600080fd5b600073ffffffffffffffffffffffffffffffffffffffff1660008054906101000a900473ffffffffffffffffffffffffffffffffffffffff1673ffffffffffffffffffffffffffffffffffffffff167f8be0079c531659141344cd1fd0a4f28419497f9722a3daafe3b4186f6b6457e060405160405180910390a360008060006101000a81548173ffffffffffffffffffffffffffffffffffffffff021916908373ffffffffffffffffffffffffffffffffffffffff160217905550565b60008060009054906101000a900473ffffffffffffffffffffffffffffffffffffffff16905090565b60008060009054906101000a900473ffffffffffffffffffffffffffffffffffffffff1673ffffffffffffffffffffffffffffffffffffffff163373ffffffffffffffffffffffffffffffffffffffff1614905090565b600b6020528060005260406000206000915054906101000a900473ffffffffffffffffffffffffffffffffffffffff1681565b7f000000000000000000000000000000000000000000000000000000000000000073ffffffffffffffffffffffffffffffffffffffff163373ffffffffffffffffffffffffffffffffffffffff1614610856576040517f08c379a000000000000000000000000000000000000000000000000000000000815260040161084d90611f31565b60405180910390fd5b610860828261105c565b5050565b6009818154811061087457600080fd5b906000526020600020906005020160009150905080600001805461089790611eb4565b80601f01602080910402602001604051908101604052809291908181526020018280546108c390611eb4565b80156109105780601f106108e557610100808354040283529160200191610910565b820191906000526020600020905b8154815290600101906020018083116108f357829003601f168201915b50505050509080600101805461092590611eb4565b80601f016020809104026020016040519081016040528092919081815260200182805461095190611eb4565b801561099e5780601f106109735761010080835404028352916020019161099e565b820191906000526020600020905b81548152906001019060200180831161098157829003601f168201915b5050505050908060020160009054906101000a900460ff16908060020160019054906101000a900460ff16908060020160029054906101000a900463ffffffff16908060030154908060040154905087565b6000600a60003373ffffffffffffffffffffffffffffffffffffffff1673ffffffffffffffffffffffffffffffffffffffff1681526020019081526020016000205414610a72576040517f08c379a0000000000000000000000000000000000000000000000000000000008152600401610a6990611f9d565b60405180910390fd5b610a7a610f3c565b50600080600090505b612710811215610ba0576001600760003373ffffffffffffffffffffffffffffffffffffffff1673ffffffffffffffffffffffffffffffffffffffff16815260200190815260200160002060010160009054906101000a900460ff1660ff1603610b8d57600b600a600760003373ffffffffffffffffffffffffffffffffffffffff1673ffffffffffffffffffffffffffffffffffffffff16815260200190815260200160002060000154610b389190611dcf565b1891506002600760003373ffffffffffffffffffffffffffffffffffffffff1673ffffffffffffffffffffffffffffffffffffffff16815260200190815260200160002060010160009054906101000a905050505b8080610b9890611fc7565b915050610a83565b5060008167ffffffffffffffff1603610bee576040517f08c379a0000000000000000000000000000000000000000000000000000000008152600401610be59061205b565b60405180910390fd5b6008604051806080016040528085858080601f016020809104026020016040519081016040528093929190818152602001838380828437600081840152601f19601f8201169050808301925050505050505081526020018367ffffffffffffffff1681526020014267ffffffffffffffff1681526020014267ffffffffffffffff1681525090806001815401808255809150506001900390600052602060002090600202016000909190919091506000820151816000019080519060200190610cb8929190611767565b5060208201518160010160006101000a81548167ffffffffffffffff021916908367ffffffffffffffff16021790555060408201518160010160086101000a81548167ffffffffffffffff021916908367ffffffffffffffff16021790555060608201518160010160106101000a81548167ffffffffffffffff021916908367ffffffffffffffff160217905550505060006001600880549050610d5c919061207b565b905080600a60003373ffffffffffffffffffffffffffffffffffffffff1673ffffffffffffffffffffffffffffffffffffffff168152602001908152602001600020819055503373ffffffffffffffffffffffffffffffffffffffff167fb3bd84143f6e6d17498683c26fa5ba25766eb0340e890d8667d8d82b0ed0325582868686604051610dee9493929190612126565b60405180910390a250505050565b60006008600a60003373ffffffffffffffffffffffffffffffffffffffff1673ffffffffffffffffffffffffffffffffffffffff1681526020019081526020016000205481548110610e5157610e50612166565b5b90600052602060002090600202019050428160010160089054906101000a900467ffffffffffffffff1667ffffffffffffffff161115610ec6576040517f08c379a0000000000000000000000000000000000000000000000000000000008152600401610ebd90612207565b60405180910390fd5b610ece611172565b60025442610edc9190611e2f565b8160010160086101000a81548167ffffffffffffffff021916908367ffffffffffffffff16021790555050565b60066020528060005260406000206000915054906101000a900473ffffffffffffffffffffffffffffffffffffffff1681565b600080610f4d6004546005546114b0565b9050336006600083815260200190815260200160002060006101000a81548173ffffffffffffffffffffffffffffffffffffffff021916908373ffffffffffffffffffffffffffffffffffffffff160217905550604051806040016040528060008152602001600060ff16815250600760003373ffffffffffffffffffffffffffffffffffffffff1673ffffffffffffffffffffffffffffffffffffffff1681526020019081526020016000206000820151816000015560208201518160010160006101000a81548160ff021916908360ff1602179055509050508091505090565b60055481565b61103d61073e565b61104657600080fd5b61104f81611602565b50565b61105a611172565b565b60006006600084815260200190815260200160002060009054906101000a900473ffffffffffffffffffffffffffffffffffffffff1690506006600084815260200190815260200160002060006101000a81549073ffffffffffffffffffffffffffffffffffffffff021916905581600760008373ffffffffffffffffffffffffffffffffffffffff1673ffffffffffffffffffffffffffffffffffffffff168152602001908152602001600020600001819055506001600760008373ffffffffffffffffffffffffffffffffffffffff1673ffffffffffffffffffffffffffffffffffffffff16815260200190815260200160002060010160006101000a81548160ff021916908360ff160217905550505050565b6064600c60003373ffffffffffffffffffffffffffffffffffffffff1673ffffffffffffffffffffffffffffffffffffffff1681526020019081526020016000205411156111f5576040517f08c379a00000000000000000000000000000000000000000000000000000000081526004016111ec90612273565b60405180910390fd5b60006002426112049190611dcf565b905060006040518060400160405280600c81526020017f72616e646f6d537472696e670000000000000000000000000000000000000000815250905060096040518060e001604052806040518060400160405280600681526020017f6e6f4e616d65000000000000000000000000000000000000000000000000000081525081526020018381526020018460ff168152602001600060ff168152602001600063ffffffff168152602001600081526020016000815250908060018154018082558091505060019003906000526020600020906005020160009091909190915060008201518160000190805190602001906112ff929190611767565b50602082015181600101908051906020019061131c929190611767565b5060408201518160020160006101000a81548160ff021916908360ff16021790555060608201518160020160016101000a81548160ff021916908360ff16021790555060808201518160020160026101000a81548163ffffffff021916908363ffffffff16021790555060a0820151816003015560c082015181600401555050600060016009805490506113b0919061207b565b905033600b600083815260200190815260200160002060006101000a81548173ffffffffffffffffffffffffffffffffffffffff021916908373ffffffffffffffffffffffffffffffffffffffff160217905550600c60003373ffffffffffffffffffffffffffffffffffffffff1673ffffffffffffffffffffffffffffffffffffffff168152602001908152602001600020600081548092919061145490612293565b91905055503373ffffffffffffffffffffffffffffffffffffffff167fe4bc06e69dd7a0f1bc9ef5db431d371f0cab41d8156a6012711823b90466715b8284866040516114a393929190612358565b60405180910390a2505050565b60007f000000000000000000000000000000000000000000000000000000000000000073ffffffffffffffffffffffffffffffffffffffff16634000aea07f0000000000000000000000000000000000000000000000000000000000000000848660006040516020016115249291906123a9565b6040516020818303038152906040526040518463ffffffff1660e01b815260040161155193929190612427565b6020604051808303816000875af1158015611570573d6000803e3d6000fd5b505050506040513d601f19601f820116820180604052508101906115949190612491565b5060006115b78460003060016000898152602001908152602001600020546116f8565b90506001806000868152602001908152602001600020546115d89190611e2f565b60016000868152602001908152602001600020819055506115f98482611734565b91505092915050565b600073ffffffffffffffffffffffffffffffffffffffff168173ffffffffffffffffffffffffffffffffffffffff160361163b57600080fd5b8073ffffffffffffffffffffffffffffffffffffffff1660008054906101000a900473ffffffffffffffffffffffffffffffffffffffff1673ffffffffffffffffffffffffffffffffffffffff167f8be0079c531659141344cd1fd0a4f28419497f9722a3daafe3b4186f6b6457e060405160405180910390a3806000806101000a81548173ffffffffffffffffffffffffffffffffffffffff021916908373ffffffffffffffffffffffffffffffffffffffff16021790555050565b60008484848460405160200161171194939291906124be565b6040516020818303038152906040528051906020012060001c9050949350505050565b60008282604051602001611749929190612545565b60405160208183030381529060405280519060200120905092915050565b82805461177390611eb4565b90600052602060002090601f01602090048101928261179557600085556117dc565b82601f106117ae57805160ff19168380011785556117dc565b828001600101855582156117dc579182015b828111156117db5782518255916020019190600101906117c0565b5b5090506117e991906117ed565b5090565b5b808211156118065760008160009055506001016117ee565b5090565b600080fd5b600080fd5b6000819050919050565b61182781611814565b811461183257600080fd5b50565b6000813590506118448161181e565b92915050565b600080604083850312156118615761186061180a565b5b600061186f85828601611835565b925050602061188085828601611835565b9150509250929050565b6000602082840312156118a05761189f61180a565b5b60006118ae84828501611835565b91505092915050565b600081519050919050565b600082825260208201905092915050565b60005b838110156118f15780820151818401526020810190506118d6565b83811115611900576000848401525b50505050565b6000601f19601f8301169050919050565b6000611922826118b7565b61192c81856118c2565b935061193c8185602086016118d3565b61194581611906565b840191505092915050565b600067ffffffffffffffff82169050919050565b61196d81611950565b82525050565b6000608082019050818103600083015261198d8187611917565b905061199c6020830186611964565b6119a96040830185611964565b6119b66060830184611964565b95945050505050565b600073ffffffffffffffffffffffffffffffffffffffff82169050919050565b60006119ea826119bf565b9050919050565b6119fa816119df565b8114611a0557600080fd5b50565b600081359050611a17816119f1565b92915050565b600060208284031215611a3357611a3261180a565b5b6000611a4184828501611a08565b91505092915050565b611a5381611814565b82525050565b600060ff82169050919050565b611a6f81611a59565b82525050565b6000604082019050611a8a6000830185611a4a565b611a976020830184611a66565b9392505050565b6000819050919050565b611ab181611a9e565b82525050565b6000602082019050611acc6000830184611aa8565b92915050565b6000602082019050611ae76000830184611a4a565b92915050565b611af6816119df565b82525050565b6000602082019050611b116000830184611aed565b92915050565b60008115159050919050565b611b2c81611b17565b82525050565b6000602082019050611b476000830184611b23565b92915050565b611b5681611a9e565b8114611b6157600080fd5b50565b600081359050611b7381611b4d565b92915050565b60008060408385031215611b9057611b8f61180a565b5b6000611b9e85828601611b64565b9250506020611baf85828601611835565b9150509250929050565b600063ffffffff82169050919050565b611bd281611bb9565b82525050565b600060e0820190508181036000830152611bf2818a611917565b90508181036020830152611c068189611917565b9050611c156040830188611a66565b611c226060830187611a66565b611c2f6080830186611bc9565b611c3c60a0830185611a4a565b611c4960c0830184611a4a565b98975050505050505050565b600080fd5b600080fd5b600080fd5b60008083601f840112611c7a57611c79611c55565b5b8235905067ffffffffffffffff811115611c9757611c96611c5a565b5b602083019150836001820283011115611cb357611cb2611c5f565b5b9250929050565b60008060208385031215611cd157611cd061180a565b5b600083013567ffffffffffffffff811115611cef57611cee61180f565b5b611cfb85828601611c64565b92509250509250929050565b600060208284031215611d1d57611d1c61180a565b5b6000611d2b84828501611b64565b91505092915050565b7f4e6f7420796f757220726f626f742e0000000000000000000000000000000000600082015250565b6000611d6a600f836118c2565b9150611d7582611d34565b602082019050919050565b60006020820190508181036000830152611d9981611d5d565b9050919050565b7f4e487b7100000000000000000000000000000000000000000000000000000000600052601260045260246000fd5b6000611dda82611814565b9150611de583611814565b925082611df557611df4611da0565b5b828206905092915050565b7f4e487b7100000000000000000000000000000000000000000000000000000000600052601160045260246000fd5b6000611e3a82611814565b9150611e4583611814565b9250827fffffffffffffffffffffffffffffffffffffffffffffffffffffffffffffffff03821115611e7a57611e79611e00565b5b828201905092915050565b7f4e487b7100000000000000000000000000000000000000000000000000000000600052602260045260246000fd5b60006002820490506001821680611ecc57607f821691505b602082108103611edf57611ede611e85565b5b50919050565b7f4f6e6c7920565246436f6f7264696e61746f722063616e2066756c66696c6c00600082015250565b6000611f1b601f836118c2565b9150611f2682611ee5565b602082019050919050565b60006020820190508181036000830152611f4a81611f0e565b9050919050565b7f596f757220636f6d6d616e64657220616c726561647920657869737465642e00600082015250565b6000611f87601f836118c2565b9150611f9282611f51565b602082019050919050565b60006020820190508181036000830152611fb681611f7a565b9050919050565b6000819050919050565b6000611fd282611fbd565b91507f7fffffffffffffffffffffffffffffffffffffffffffffffffffffffffffffff820361200457612003611e00565b5b600182019050919050565b7f4765742072616e646f6d20646e612066616c692e000000000000000000000000600082015250565b60006120456014836118c2565b91506120508261200f565b602082019050919050565b6000602082019050818103600083015261207481612038565b9050919050565b600061208682611814565b915061209183611814565b9250828210156120a4576120a3611e00565b5b828203905092915050565b82818337600083830152505050565b60006120ca83856118c2565b93506120d78385846120af565b6120e083611906565b840190509392505050565b6000819050919050565b600061211061210b61210684611950565b6120eb565b611814565b9050919050565b612120816120f5565b82525050565b600060608201905061213b6000830187611a4a565b818103602083015261214e8185876120be565b905061215d6040830184612117565b95945050505050565b7f4e487b7100000000000000000000000000000000000000000000000000000000600052603260045260246000fd5b7f4c657373207468616e206f6e65206461792073696e6365206c6173742074696d60008201527f6520796f75206765742061206672656520726f626f742e000000000000000000602082015250565b60006121f16037836118c2565b91506121fc82612195565b604082019050919050565b60006020820190508181036000830152612220816121e4565b9050919050565b7f596f7572207265706f2069732066756c6c2e0000000000000000000000000000600082015250565b600061225d6012836118c2565b915061226882612227565b602082019050919050565b6000602082019050818103600083015261228c81612250565b9050919050565b600061229e82611814565b91507fffffffffffffffffffffffffffffffffffffffffffffffffffffffffffffffff82036122d0576122cf611e00565b5b600182019050919050565b7f6e6f4e616d650000000000000000000000000000000000000000000000000000600082015250565b60006123116006836118c2565b915061231c826122db565b602082019050919050565b600061234261233d61233884611a59565b6120eb565b611814565b9050919050565b61235281612327565b82525050565b600060808201905061236d6000830186611a4a565b818103602083015261237e81612304565b905081810360408301526123928185611917565b90506123a16060830184612349565b949350505050565b60006040820190506123be6000830185611aa8565b6123cb6020830184611a4a565b9392505050565b600081519050919050565b600082825260208201905092915050565b60006123f9826123d2565b61240381856123dd565b93506124138185602086016118d3565b61241c81611906565b840191505092915050565b600060608201905061243c6000830186611aed565b6124496020830185611a4a565b818103604083015261245b81846123ee565b9050949350505050565b61246e81611b17565b811461247957600080fd5b50565b60008151905061248b81612465565b92915050565b6000602082840312156124a7576124a661180a565b5b60006124b58482850161247c565b91505092915050565b60006080820190506124d36000830187611aa8565b6124e06020830186611a4a565b6124ed6040830185611aed565b6124fa6060830184611a4a565b95945050505050565b6000819050919050565b61251e61251982611a9e565b612503565b82525050565b6000819050919050565b61253f61253a82611814565b612524565b82525050565b6000612551828561250d565b602082019150612561828461252e565b602082019150819050939250505056fea264697066735822122021fdc0ddc61f6455ec773994029f511c9dea769d104e675b823a55d2c8591cc464736f6c634300080d0033",
  "immutableReferences": {
    "168": [
      {
        "length": 32,
        "start": 5300
      }
    ],
    "170": [
      {
        "length": 32,
        "start": 1994
      },
      {
        "length": 32,
        "start": 5360
      }
    ]
  },
  "source": "// SPDX-License-Identifier: MIT \npragma solidity ^0.8.13;\n\nimport \"./Basic.sol\";\n\n//\ncontract Gamble is Basic {\n\n    //\n    //\n    //\n    function gamble(uint choice, uint robotId) external ownerOfRobot(robotId) {\n\n        uint randInt = block.timestamp % 6 + 1;\n        uint res;\n        if (randInt <=3 ) {\n            res = 0;\n        } else {\n            res = 1;\n        }\n\n        if (choice == res) {\n             getFreeRobotAfterGambleWin();\n        } else {\n            robotToOwner[robotId] = owner();\n        }\n    }\n\n    //\n    function getFreeRobotAfterGambleWin() internal {\n        CreateRobot();\n    }\n}",
  "sourcePath": "/Users/liqinghao/Desktop/RoboHashWeb3/contracts/robotgame/Gamble.sol",
  "compiler": {
    "name": "solc",
    "version": "0.8.13+commit.abaa5c0e.Emscripten.clang"
  },
  "schemaVersion": "3.4.16",
  "updatedAt": "2023-11-08T04:49:21.254Z",
  "devdoc": {
    "kind": "dev",
    "methods": {
      "isOwner()": {
        "returns": {
          "_0": "true if `msg.sender` is the owner of the contract."
        }
      },
      "owner()": {
        "returns": {
          "_0": "the address of the owner."
        }
      },
      "renounceOwnership()": {
        "details": "Allows the current owner to relinquish control of the contract."
      },
      "transferOwnership(address)": {
        "details": "Allows the current owner to transfer control of the contract to a newOwner.",
        "params": {
          "newOwner": "The address to transfer ownership to."
        }
      }
    },
    "version": 1
  },
  "userdoc": {
    "kind": "user",
    "methods": {
      "renounceOwnership()": {
        "notice": "Renouncing to ownership will leave the contract without an owner. It will not be possible to call the functions with the `onlyOwner` modifier anymore."
      }
    },
    "version": 1
  }
}