{
  "contractName": "Gamble",
  "abi": [
    {
      "anonymous": false,
      "inputs": [
        {
          "indexed": false,
          "internalType": "uint256",
          "name": "id",
          "type": "uint256"
        },
        {
          "indexed": false,
          "internalType": "string",
          "name": "name",
          "type": "string"
        },
        {
          "indexed": false,
          "internalType": "string",
          "name": "dna",
          "type": "string"
        },
        {
          "indexed": true,
          "internalType": "address",
          "name": "owner",
          "type": "address"
        }
      ],
      "name": "NewCommander",
      "type": "event"
    },
    {
      "anonymous": false,
      "inputs": [
        {
          "indexed": false,
          "internalType": "uint256",
          "name": "id",
          "type": "uint256"
        },
        {
          "indexed": false,
          "internalType": "string",
          "name": "name",
          "type": "string"
        },
        {
          "indexed": false,
          "internalType": "string",
          "name": "dna",
          "type": "string"
        },
        {
          "indexed": false,
          "internalType": "uint256",
          "name": "spieces",
          "type": "uint256"
        },
        {
          "indexed": true,
          "internalType": "address",
          "name": "owner",
          "type": "address"
        }
      ],
      "name": "NewRobot",
      "type": "event"
    },
    {
      "anonymous": false,
      "inputs": [
        {
          "indexed": true,
          "internalType": "address",
          "name": "previousOwner",
          "type": "address"
        },
        {
          "indexed": true,
          "internalType": "address",
          "name": "newOwner",
          "type": "address"
        }
      ],
      "name": "OwnershipTransferred",
      "type": "event"
    },
    {
      "inputs": [
        {
          "internalType": "string",
          "name": "name",
          "type": "string"
        }
      ],
      "name": "CreateCommander",
      "outputs": [],
      "stateMutability": "nonpayable",
      "type": "function"
    },
    {
      "inputs": [
        {
          "internalType": "uint256",
          "name": "",
          "type": "uint256"
        }
      ],
      "name": "commanders",
      "outputs": [
        {
          "internalType": "string",
          "name": "name",
          "type": "string"
        },
        {
          "internalType": "string",
          "name": "dna",
          "type": "string"
        },
        {
          "internalType": "uint64",
          "name": "getFreeRobotReadyTime",
          "type": "uint64"
        },
        {
          "internalType": "uint64",
          "name": "giveStarReadyTime",
          "type": "uint64"
        }
      ],
      "stateMutability": "view",
      "type": "function"
    },
    {
      "inputs": [],
      "name": "getFreeRobot",
      "outputs": [],
      "stateMutability": "nonpayable",
      "type": "function"
    },
    {
      "inputs": [],
      "name": "isOwner",
      "outputs": [
        {
          "internalType": "bool",
          "name": "",
          "type": "bool"
        }
      ],
      "stateMutability": "view",
      "type": "function"
    },
    {
      "inputs": [],
      "name": "owner",
      "outputs": [
        {
          "internalType": "address",
          "name": "",
          "type": "address"
        }
      ],
      "stateMutability": "view",
      "type": "function"
    },
    {
      "inputs": [
        {
          "internalType": "address",
          "name": "",
          "type": "address"
        }
      ],
      "name": "ownerRobotCount",
      "outputs": [
        {
          "internalType": "uint256",
          "name": "",
          "type": "uint256"
        }
      ],
      "stateMutability": "view",
      "type": "function"
    },
    {
      "inputs": [
        {
          "internalType": "address",
          "name": "",
          "type": "address"
        }
      ],
      "name": "ownerToCommander",
      "outputs": [
        {
          "internalType": "uint256",
          "name": "",
          "type": "uint256"
        }
      ],
      "stateMutability": "view",
      "type": "function"
    },
    {
      "inputs": [],
      "name": "renounceOwnership",
      "outputs": [],
      "stateMutability": "nonpayable",
      "type": "function"
    },
    {
      "inputs": [
        {
          "internalType": "uint256",
          "name": "",
          "type": "uint256"
        }
      ],
      "name": "robotToOwner",
      "outputs": [
        {
          "internalType": "address",
          "name": "",
          "type": "address"
        }
      ],
      "stateMutability": "view",
      "type": "function"
    },
    {
      "inputs": [
        {
          "internalType": "uint256",
          "name": "",
          "type": "uint256"
        }
      ],
      "name": "robots",
      "outputs": [
        {
          "internalType": "string",
          "name": "name",
          "type": "string"
        },
        {
          "internalType": "string",
          "name": "dna",
          "type": "string"
        },
        {
          "internalType": "uint8",
          "name": "spieces",
          "type": "uint8"
        },
        {
          "internalType": "uint8",
          "name": "status",
          "type": "uint8"
        },
        {
          "internalType": "uint32",
          "name": "stars",
          "type": "uint32"
        },
        {
          "internalType": "uint256",
          "name": "price",
          "type": "uint256"
        },
        {
          "internalType": "uint256",
          "name": "idInMarket",
          "type": "uint256"
        }
      ],
      "stateMutability": "view",
      "type": "function"
    },
    {
      "inputs": [
        {
          "internalType": "address",
          "name": "newOwner",
          "type": "address"
        }
      ],
      "name": "transferOwnership",
      "outputs": [],
      "stateMutability": "nonpayable",
      "type": "function"
    },
    {
      "inputs": [
        {
          "internalType": "uint256",
          "name": "choice",
          "type": "uint256"
        },
        {
          "internalType": "uint256",
          "name": "robotId",
          "type": "uint256"
        }
      ],
      "name": "gamble",
      "outputs": [],
      "stateMutability": "nonpayable",
      "type": "function"
    }
  ],
  "bytecode": "0x60806040526201518060015560006002553480156200001d57600080fd5b50336000806101000a81548173ffffffffffffffffffffffffffffffffffffffff021916908373ffffffffffffffffffffffffffffffffffffffff16021790555060008054906101000a900473ffffffffffffffffffffffffffffffffffffffff1673ffffffffffffffffffffffffffffffffffffffff16600073ffffffffffffffffffffffffffffffffffffffff167f8be0079c531659141344cd1fd0a4f28419497f9722a3daafe3b4186f6b6457e060405160405180910390a3600360405180608001604052806040518060400160405280600481526020017f696e69740000000000000000000000000000000000000000000000000000000081525081526020016040518060400160405280600481526020017f696e6974000000000000000000000000000000000000000000000000000000008152508152602001600067ffffffffffffffff168152602001600067ffffffffffffffff1681525090806001815401808255809150506001900390600052602060002090600302016000909190919091506000820151816000019080519060200190620001c392919062000249565b506020820151816001019080519060200190620001e292919062000249565b5060408201518160020160006101000a81548167ffffffffffffffff021916908367ffffffffffffffff16021790555060608201518160020160086101000a81548167ffffffffffffffff021916908367ffffffffffffffff16021790555050506200035d565b828054620002579062000328565b90600052602060002090601f0160209004810192826200027b5760008555620002c7565b82601f106200029657805160ff1916838001178555620002c7565b82800160010185558215620002c7579182015b82811115620002c6578251825591602001919060010190620002a9565b5b509050620002d69190620002da565b5090565b5b80821115620002f5576000816000905550600101620002db565b5090565b7f4e487b7100000000000000000000000000000000000000000000000000000000600052602260045260246000fd5b600060028204905060018216806200034157607f821691505b602082108103620003575762000356620002f9565b5b50919050565b611b9f806200036d6000396000f3fe608060405234801561001057600080fd5b50600436106100b45760003560e01c80638f32d59b116100715780638f32d59b146101905780639403a0ce146101ae578063a03937c5146101de578063a1a4d91c14610214578063b060ff1914610230578063f2fde38b1461023a576100b4565b806322e8c8fc146100b9578063492d8b3d146100d557806365ceceb1146101085780636aa438dc14610138578063715018a6146101685780638da5cb5b14610172575b600080fd5b6100d360048036038101906100ce91906111a7565b610256565b005b6100ef60048036038101906100ea91906111e7565b61039f565b6040516100ff94939291906112d0565b60405180910390f35b610122600480360381019061011d9190611381565b610517565b60405161012f91906113bd565b60405180910390f35b610152600480360381019061014d9190611381565b61052f565b60405161015f91906113bd565b60405180910390f35b610170610547565b005b61017a610616565b60405161018791906113e7565b60405180910390f35b61019861063f565b6040516101a5919061141d565b60405180910390f35b6101c860048036038101906101c391906111e7565b610696565b6040516101d591906113e7565b60405180910390f35b6101f860048036038101906101f391906111e7565b6106c9565b60405161020b9796959493929190611473565b60405180910390f35b61022e60048036038101906102299190611555565b610855565b005b610238610b03565b005b610254600480360381019061024f9190611381565b610c10565b005b806006600082815260200190815260200160002060009054906101000a900473ffffffffffffffffffffffffffffffffffffffff1673ffffffffffffffffffffffffffffffffffffffff163373ffffffffffffffffffffffffffffffffffffffff16146102f8576040517f08c379a00000000000000000000000000000000000000000000000000000000081526004016102ef906115ee565b60405180910390fd5b600060016103066006610c2d565b610310919061163d565b9050600060038211610325576000905061032a565b600190505b80850361033e57610339610c89565b610398565b610346610616565b6006600086815260200190815260200160002060006101000a81548173ffffffffffffffffffffffffffffffffffffffff021916908373ffffffffffffffffffffffffffffffffffffffff1602179055505b5050505050565b600381815481106103af57600080fd5b90600052602060002090600302016000915090508060000180546103d2906116c2565b80601f01602080910402602001604051908101604052809291908181526020018280546103fe906116c2565b801561044b5780601f106104205761010080835404028352916020019161044b565b820191906000526020600020905b81548152906001019060200180831161042e57829003601f168201915b505050505090806001018054610460906116c2565b80601f016020809104026020016040519081016040528092919081815260200182805461048c906116c2565b80156104d95780601f106104ae576101008083540402835291602001916104d9565b820191906000526020600020905b8154815290600101906020018083116104bc57829003601f168201915b5050505050908060020160009054906101000a900467ffffffffffffffff16908060020160089054906101000a900467ffffffffffffffff16905084565b60076020528060005260406000206000915090505481565b60056020528060005260406000206000915090505481565b61054f61063f565b61055857600080fd5b600073ffffffffffffffffffffffffffffffffffffffff1660008054906101000a900473ffffffffffffffffffffffffffffffffffffffff1673ffffffffffffffffffffffffffffffffffffffff167f8be0079c531659141344cd1fd0a4f28419497f9722a3daafe3b4186f6b6457e060405160405180910390a360008060006101000a81548173ffffffffffffffffffffffffffffffffffffffff021916908373ffffffffffffffffffffffffffffffffffffffff160217905550565b60008060009054906101000a900473ffffffffffffffffffffffffffffffffffffffff16905090565b60008060009054906101000a900473ffffffffffffffffffffffffffffffffffffffff1673ffffffffffffffffffffffffffffffffffffffff163373ffffffffffffffffffffffffffffffffffffffff1614905090565b60066020528060005260406000206000915054906101000a900473ffffffffffffffffffffffffffffffffffffffff1681565b600481815481106106d957600080fd5b90600052602060002090600502016000915090508060000180546106fc906116c2565b80601f0160208091040260200160405190810160405280929190818152602001828054610728906116c2565b80156107755780601f1061074a57610100808354040283529160200191610775565b820191906000526020600020905b81548152906001019060200180831161075857829003601f168201915b50505050509080600101805461078a906116c2565b80601f01602080910402602001604051908101604052809291908181526020018280546107b6906116c2565b80156108035780601f106107d857610100808354040283529160200191610803565b820191906000526020600020905b8154815290600101906020018083116107e657829003601f168201915b5050505050908060020160009054906101000a900460ff16908060020160019054906101000a900460ff16908060020160029054906101000a900463ffffffff16908060030154908060040154905087565b6000600560003373ffffffffffffffffffffffffffffffffffffffff1673ffffffffffffffffffffffffffffffffffffffff16815260200190815260200160002054146108d7576040517f08c379a00000000000000000000000000000000000000000000000000000000081526004016108ce9061173f565b60405180910390fd5b60006040518060400160405280600c81526020017f72616e646f6d537472696e67000000000000000000000000000000000000000081525090506003604051806080016040528085858080601f016020809104026020016040519081016040528093929190818152602001838380828437600081840152601f19601f8201169050808301925050505050505081526020018381526020014267ffffffffffffffff1681526020014267ffffffffffffffff16815250908060018154018082558091505060019003906000526020600020906003020160009091909190915060008201518160000190805190602001906109d19291906110c4565b5060208201518160010190805190602001906109ee9291906110c4565b5060408201518160020160006101000a81548167ffffffffffffffff021916908367ffffffffffffffff16021790555060608201518160020160086101000a81548167ffffffffffffffff021916908367ffffffffffffffff160217905550505060006001600380549050610a63919061175f565b905080600560003373ffffffffffffffffffffffffffffffffffffffff1673ffffffffffffffffffffffffffffffffffffffff168152602001908152602001600020819055503373ffffffffffffffffffffffffffffffffffffffff167f0ba589754bdc7c1e308a8ce3362a7b42600571fdd695534edd1e0182e187149f82868686604051610af594939291906117cf565b60405180910390a250505050565b60006003600560003373ffffffffffffffffffffffffffffffffffffffff1673ffffffffffffffffffffffffffffffffffffffff1681526020019081526020016000205481548110610b5857610b57611816565b5b90600052602060002090600302019050428160020160009054906101000a900467ffffffffffffffff1667ffffffffffffffff161115610bcd576040517f08c379a0000000000000000000000000000000000000000000000000000000008152600401610bc4906118b7565b60405180910390fd5b610bd5610c93565b60015442610be3919061163d565b8160020160006101000a81548167ffffffffffffffff021916908367ffffffffffffffff16021790555050565b610c1861063f565b610c2157600080fd5b610c2a81610fce565b50565b600060026000815480929190610c42906118d7565b9190505550814233600254604051602001610c5f93929190611988565b6040516020818303038152906040528051906020012060001c610c8291906119f4565b9050919050565b610c91610c93565b565b6064600760003373ffffffffffffffffffffffffffffffffffffffff1673ffffffffffffffffffffffffffffffffffffffff168152602001908152602001600020541115610d16576040517f08c379a0000000000000000000000000000000000000000000000000000000008152600401610d0d90611a71565b60405180910390fd5b6000610d226002610c2d565b905060006040518060400160405280600c81526020017f72616e646f6d537472696e670000000000000000000000000000000000000000815250905060046040518060e001604052806040518060400160405280600681526020017f6e6f4e616d65000000000000000000000000000000000000000000000000000081525081526020018381526020018460ff168152602001600060ff168152602001600063ffffffff16815260200160008152602001600081525090806001815401808255809150506001900390600052602060002090600502016000909190919091506000820151816000019080519060200190610e1d9291906110c4565b506020820151816001019080519060200190610e3a9291906110c4565b5060408201518160020160006101000a81548160ff021916908360ff16021790555060608201518160020160016101000a81548160ff021916908360ff16021790555060808201518160020160026101000a81548163ffffffff021916908363ffffffff16021790555060a0820151816003015560c08201518160040155505060006001600480549050610ece919061175f565b9050336006600083815260200190815260200160002060006101000a81548173ffffffffffffffffffffffffffffffffffffffff021916908373ffffffffffffffffffffffffffffffffffffffff160217905550600760003373ffffffffffffffffffffffffffffffffffffffff1673ffffffffffffffffffffffffffffffffffffffff1681526020019081526020016000206000815480929190610f72906118d7565b91905055503373ffffffffffffffffffffffffffffffffffffffff167fe4bc06e69dd7a0f1bc9ef5db431d371f0cab41d8156a6012711823b90466715b828486604051610fc193929190611b18565b60405180910390a2505050565b600073ffffffffffffffffffffffffffffffffffffffff168173ffffffffffffffffffffffffffffffffffffffff160361100757600080fd5b8073ffffffffffffffffffffffffffffffffffffffff1660008054906101000a900473ffffffffffffffffffffffffffffffffffffffff1673ffffffffffffffffffffffffffffffffffffffff167f8be0079c531659141344cd1fd0a4f28419497f9722a3daafe3b4186f6b6457e060405160405180910390a3806000806101000a81548173ffffffffffffffffffffffffffffffffffffffff021916908373ffffffffffffffffffffffffffffffffffffffff16021790555050565b8280546110d0906116c2565b90600052602060002090601f0160209004810192826110f25760008555611139565b82601f1061110b57805160ff1916838001178555611139565b82800160010185558215611139579182015b8281111561113857825182559160200191906001019061111d565b5b509050611146919061114a565b5090565b5b8082111561116357600081600090555060010161114b565b5090565b600080fd5b600080fd5b6000819050919050565b61118481611171565b811461118f57600080fd5b50565b6000813590506111a18161117b565b92915050565b600080604083850312156111be576111bd611167565b5b60006111cc85828601611192565b92505060206111dd85828601611192565b9150509250929050565b6000602082840312156111fd576111fc611167565b5b600061120b84828501611192565b91505092915050565b600081519050919050565b600082825260208201905092915050565b60005b8381101561124e578082015181840152602081019050611233565b8381111561125d576000848401525b50505050565b6000601f19601f8301169050919050565b600061127f82611214565b611289818561121f565b9350611299818560208601611230565b6112a281611263565b840191505092915050565b600067ffffffffffffffff82169050919050565b6112ca816112ad565b82525050565b600060808201905081810360008301526112ea8187611274565b905081810360208301526112fe8186611274565b905061130d60408301856112c1565b61131a60608301846112c1565b95945050505050565b600073ffffffffffffffffffffffffffffffffffffffff82169050919050565b600061134e82611323565b9050919050565b61135e81611343565b811461136957600080fd5b50565b60008135905061137b81611355565b92915050565b60006020828403121561139757611396611167565b5b60006113a58482850161136c565b91505092915050565b6113b781611171565b82525050565b60006020820190506113d260008301846113ae565b92915050565b6113e181611343565b82525050565b60006020820190506113fc60008301846113d8565b92915050565b60008115159050919050565b61141781611402565b82525050565b6000602082019050611432600083018461140e565b92915050565b600060ff82169050919050565b61144e81611438565b82525050565b600063ffffffff82169050919050565b61146d81611454565b82525050565b600060e082019050818103600083015261148d818a611274565b905081810360208301526114a18189611274565b90506114b06040830188611445565b6114bd6060830187611445565b6114ca6080830186611464565b6114d760a08301856113ae565b6114e460c08301846113ae565b98975050505050505050565b600080fd5b600080fd5b600080fd5b60008083601f840112611515576115146114f0565b5b8235905067ffffffffffffffff811115611532576115316114f5565b5b60208301915083600182028301111561154e5761154d6114fa565b5b9250929050565b6000806020838503121561156c5761156b611167565b5b600083013567ffffffffffffffff81111561158a5761158961116c565b5b611596858286016114ff565b92509250509250929050565b7f4e6f7420796f757220726f626f742e0000000000000000000000000000000000600082015250565b60006115d8600f8361121f565b91506115e3826115a2565b602082019050919050565b60006020820190508181036000830152611607816115cb565b9050919050565b7f4e487b7100000000000000000000000000000000000000000000000000000000600052601160045260246000fd5b600061164882611171565b915061165383611171565b9250827fffffffffffffffffffffffffffffffffffffffffffffffffffffffffffffffff038211156116885761168761160e565b5b828201905092915050565b7f4e487b7100000000000000000000000000000000000000000000000000000000600052602260045260246000fd5b600060028204905060018216806116da57607f821691505b6020821081036116ed576116ec611693565b5b50919050565b7f596f757220636f6d6d616e64657220616c726561647920657869737465642e00600082015250565b6000611729601f8361121f565b9150611734826116f3565b602082019050919050565b600060208201905081810360008301526117588161171c565b9050919050565b600061176a82611171565b915061177583611171565b9250828210156117885761178761160e565b5b828203905092915050565b82818337600083830152505050565b60006117ae838561121f565b93506117bb838584611793565b6117c483611263565b840190509392505050565b60006060820190506117e460008301876113ae565b81810360208301526117f78185876117a2565b9050818103604083015261180b8184611274565b905095945050505050565b7f4e487b7100000000000000000000000000000000000000000000000000000000600052603260045260246000fd5b7f4c657373207468616e206f6e65206461792073696e6365206c6173742074696d60008201527f6520796f75206765742061206672656520726f626f742e000000000000000000602082015250565b60006118a160378361121f565b91506118ac82611845565b604082019050919050565b600060208201905081810360008301526118d081611894565b9050919050565b60006118e282611171565b91507fffffffffffffffffffffffffffffffffffffffffffffffffffffffffffffffff82036119145761191361160e565b5b600182019050919050565b6000819050919050565b61193a61193582611171565b61191f565b82525050565b60008160601b9050919050565b600061195882611940565b9050919050565b600061196a8261194d565b9050919050565b61198261197d82611343565b61195f565b82525050565b60006119948286611929565b6020820191506119a48285611971565b6014820191506119b48284611929565b602082019150819050949350505050565b7f4e487b7100000000000000000000000000000000000000000000000000000000600052601260045260246000fd5b60006119ff82611171565b9150611a0a83611171565b925082611a1a57611a196119c5565b5b828206905092915050565b7f596f7572207265706f2069732066756c6c2e0000000000000000000000000000600082015250565b6000611a5b60128361121f565b9150611a6682611a25565b602082019050919050565b60006020820190508181036000830152611a8a81611a4e565b9050919050565b7f6e6f4e616d650000000000000000000000000000000000000000000000000000600082015250565b6000611ac760068361121f565b9150611ad282611a91565b602082019050919050565b6000819050919050565b6000611b02611afd611af884611438565b611add565b611171565b9050919050565b611b1281611ae7565b82525050565b6000608082019050611b2d60008301866113ae565b8181036020830152611b3e81611aba565b90508181036040830152611b528185611274565b9050611b616060830184611b09565b94935050505056fea26469706673582212207a197ef6911b751085818d1eeaebae96ef1a857ec552ca951304180d330b805864736f6c634300080d0033",
  "immutableReferences": {},
  "source": "// SPDX-License-Identifier: MIT \npragma solidity ^0.8.13;\n\nimport \"./Basic.sol\";\n\n//\ncontract Gamble is Basic {\n\n    //\n    //\n    //\n    function gamble(uint choice, uint robotId) external ownerOfRobot(robotId) {\n\n        uint randInt = randMod(6) + 1;\n        uint res;\n        if (randInt <=3 ) {\n            res = 0;\n        } else {\n            res = 1;\n        }\n\n        if (choice == res) {\n             getFreeRobotAfterGambleWin();\n        } else {\n            robotToOwner[robotId] = owner();\n        }\n    }\n\n    //\n    function getFreeRobotAfterGambleWin() internal {\n        CreateRobot();\n    }\n}",
  "sourcePath": "/Users/liqinghao/Desktop/RoboHashWeb3/contracts/robotgame/Gamble.sol",
  "compiler": {
    "name": "solc",
    "version": "0.8.13+commit.abaa5c0e.Emscripten.clang"
  },
  "schemaVersion": "3.4.16",
  "updatedAt": "2023-11-07T01:29:53.971Z",
  "devdoc": {
    "kind": "dev",
    "methods": {
      "isOwner()": {
        "returns": {
          "_0": "true if `msg.sender` is the owner of the contract."
        }
      },
      "owner()": {
        "returns": {
          "_0": "the address of the owner."
        }
      },
      "renounceOwnership()": {
        "details": "Allows the current owner to relinquish control of the contract."
      },
      "transferOwnership(address)": {
        "details": "Allows the current owner to transfer control of the contract to a newOwner.",
        "params": {
          "newOwner": "The address to transfer ownership to."
        }
      }
    },
    "version": 1
  },
  "userdoc": {
    "kind": "user",
    "methods": {
      "renounceOwnership()": {
        "notice": "Renouncing to ownership will leave the contract without an owner. It will not be possible to call the functions with the `onlyOwner` modifier anymore."
      }
    },
    "version": 1
  }
}