{
  "contractName": "Gamble",
  "abi": [
    {
      "anonymous": false,
      "inputs": [
        {
          "indexed": false,
          "internalType": "uint256",
          "name": "index",
          "type": "uint256"
        },
        {
          "indexed": false,
          "internalType": "string",
          "name": "name",
          "type": "string"
        },
        {
          "indexed": false,
          "internalType": "string",
          "name": "dna",
          "type": "string"
        },
        {
          "indexed": true,
          "internalType": "address",
          "name": "owner",
          "type": "address"
        }
      ],
      "name": "NewCommander",
      "type": "event"
    },
    {
      "anonymous": false,
      "inputs": [
        {
          "indexed": false,
          "internalType": "uint256",
          "name": "index",
          "type": "uint256"
        },
        {
          "indexed": false,
          "internalType": "string",
          "name": "name",
          "type": "string"
        },
        {
          "indexed": false,
          "internalType": "string",
          "name": "dna",
          "type": "string"
        },
        {
          "indexed": false,
          "internalType": "uint256",
          "name": "spieces",
          "type": "uint256"
        },
        {
          "indexed": true,
          "internalType": "address",
          "name": "owner",
          "type": "address"
        }
      ],
      "name": "NewRobot",
      "type": "event"
    },
    {
      "anonymous": false,
      "inputs": [
        {
          "indexed": true,
          "internalType": "address",
          "name": "previousOwner",
          "type": "address"
        },
        {
          "indexed": true,
          "internalType": "address",
          "name": "newOwner",
          "type": "address"
        }
      ],
      "name": "OwnershipTransferred",
      "type": "event"
    },
    {
      "inputs": [
        {
          "internalType": "string",
          "name": "name",
          "type": "string"
        }
      ],
      "name": "CreateCommander",
      "outputs": [],
      "stateMutability": "nonpayable",
      "type": "function"
    },
    {
      "inputs": [
        {
          "internalType": "uint256",
          "name": "",
          "type": "uint256"
        }
      ],
      "name": "commanders",
      "outputs": [
        {
          "internalType": "string",
          "name": "name",
          "type": "string"
        },
        {
          "internalType": "string",
          "name": "dna",
          "type": "string"
        },
        {
          "internalType": "uint64",
          "name": "getFreeRobotReadyTime",
          "type": "uint64"
        },
        {
          "internalType": "uint64",
          "name": "giveStarReadyTime",
          "type": "uint64"
        }
      ],
      "stateMutability": "view",
      "type": "function"
    },
    {
      "inputs": [],
      "name": "getFreeRobot",
      "outputs": [],
      "stateMutability": "nonpayable",
      "type": "function"
    },
    {
      "inputs": [],
      "name": "isOwner",
      "outputs": [
        {
          "internalType": "bool",
          "name": "",
          "type": "bool"
        }
      ],
      "stateMutability": "view",
      "type": "function"
    },
    {
      "inputs": [],
      "name": "owner",
      "outputs": [
        {
          "internalType": "address",
          "name": "",
          "type": "address"
        }
      ],
      "stateMutability": "view",
      "type": "function"
    },
    {
      "inputs": [
        {
          "internalType": "address",
          "name": "",
          "type": "address"
        }
      ],
      "name": "ownerCommanderCount",
      "outputs": [
        {
          "internalType": "uint256",
          "name": "",
          "type": "uint256"
        }
      ],
      "stateMutability": "view",
      "type": "function"
    },
    {
      "inputs": [
        {
          "internalType": "address",
          "name": "",
          "type": "address"
        }
      ],
      "name": "ownerRobotCount",
      "outputs": [
        {
          "internalType": "uint256",
          "name": "",
          "type": "uint256"
        }
      ],
      "stateMutability": "view",
      "type": "function"
    },
    {
      "inputs": [
        {
          "internalType": "address",
          "name": "",
          "type": "address"
        }
      ],
      "name": "ownerToCommander",
      "outputs": [
        {
          "internalType": "uint256",
          "name": "",
          "type": "uint256"
        }
      ],
      "stateMutability": "view",
      "type": "function"
    },
    {
      "inputs": [],
      "name": "renounceOwnership",
      "outputs": [],
      "stateMutability": "nonpayable",
      "type": "function"
    },
    {
      "inputs": [
        {
          "internalType": "uint256",
          "name": "",
          "type": "uint256"
        }
      ],
      "name": "robotToOwner",
      "outputs": [
        {
          "internalType": "address",
          "name": "",
          "type": "address"
        }
      ],
      "stateMutability": "view",
      "type": "function"
    },
    {
      "inputs": [
        {
          "internalType": "uint256",
          "name": "",
          "type": "uint256"
        }
      ],
      "name": "robots",
      "outputs": [
        {
          "internalType": "string",
          "name": "name",
          "type": "string"
        },
        {
          "internalType": "string",
          "name": "dna",
          "type": "string"
        },
        {
          "internalType": "uint8",
          "name": "spieces",
          "type": "uint8"
        },
        {
          "internalType": "uint8",
          "name": "status",
          "type": "uint8"
        },
        {
          "internalType": "uint32",
          "name": "stars",
          "type": "uint32"
        },
        {
          "internalType": "uint256",
          "name": "price",
          "type": "uint256"
        }
      ],
      "stateMutability": "view",
      "type": "function"
    },
    {
      "inputs": [
        {
          "internalType": "address",
          "name": "newOwner",
          "type": "address"
        }
      ],
      "name": "transferOwnership",
      "outputs": [],
      "stateMutability": "nonpayable",
      "type": "function"
    },
    {
      "inputs": [
        {
          "internalType": "uint256",
          "name": "choice",
          "type": "uint256"
        },
        {
          "internalType": "uint256",
          "name": "robotId",
          "type": "uint256"
        }
      ],
      "name": "gamble",
      "outputs": [],
      "stateMutability": "nonpayable",
      "type": "function"
    }
  ],
  "bytecode": "0x6080604052620151805f60146101000a81548167ffffffffffffffff021916908367ffffffffffffffff1602179055505f60015534801561003e575f80fd5b50335f806101000a81548173ffffffffffffffffffffffffffffffffffffffff021916908373ffffffffffffffffffffffffffffffffffffffff1602179055505f8054906101000a900473ffffffffffffffffffffffffffffffffffffffff1673ffffffffffffffffffffffffffffffffffffffff165f73ffffffffffffffffffffffffffffffffffffffff167f8be0079c531659141344cd1fd0a4f28419497f9722a3daafe3b4186f6b6457e060405160405180910390a3611d58806101045f395ff3fe608060405234801561000f575f80fd5b50600436106100cd575f3560e01c80638da5cb5b1161008a578063a03937c511610064578063a03937c514610226578063a1a4d91c1461025b578063b060ff1914610277578063f2fde38b14610281576100cd565b80638da5cb5b146101ba5780638f32d59b146101d85780639403a0ce146101f6576100cd565b806322e8c8fc146100d15780632ff1e244146100ed578063492d8b3d1461011d57806365ceceb1146101505780636aa438dc14610180578063715018a6146101b0575b5f80fd5b6100eb60048036038101906100e6919061111e565b61029d565b005b610107600480360381019061010291906111b6565b6103dd565b60405161011491906111f0565b60405180910390f35b61013760048036038101906101329190611209565b6103f2565b60405161014794939291906112e0565b60405180910390f35b61016a600480360381019061016591906111b6565b610560565b60405161017791906111f0565b60405180910390f35b61019a600480360381019061019591906111b6565b610575565b6040516101a791906111f0565b60405180910390f35b6101b861058a565b005b6101c2610654565b6040516101cf9190611340565b60405180910390f35b6101e061067b565b6040516101ed9190611373565b60405180910390f35b610210600480360381019061020b9190611209565b6106d0565b60405161021d9190611340565b60405180910390f35b610240600480360381019061023b9190611209565b610700565b604051610252969594939291906113c5565b60405180910390f35b61027560048036038101906102709190611493565b61087c565b005b61027f610b51565b005b61029b600480360381019061029691906111b6565b610c6a565b005b8060065f8281526020019081526020015f205f9054906101000a900473ffffffffffffffffffffffffffffffffffffffff1673ffffffffffffffffffffffffffffffffffffffff163373ffffffffffffffffffffffffffffffffffffffff161461033c576040517f08c379a000000000000000000000000000000000000000000000000000000000815260040161033390611528565b60405180910390fd5b5f60016103496006610c86565b6103539190611573565b90505f60038211610366575f905061036b565b600190505b80850361037f5761037a610cdf565b6103d6565b610387610654565b60065f8681526020019081526020015f205f6101000a81548173ffffffffffffffffffffffffffffffffffffffff021916908373ffffffffffffffffffffffffffffffffffffffff1602179055505b5050505050565b6005602052805f5260405f205f915090505481565b60028181548110610401575f80fd5b905f5260205f2090600302015f91509050805f018054610420906115d3565b80601f016020809104026020016040519081016040528092919081815260200182805461044c906115d3565b80156104975780601f1061046e57610100808354040283529160200191610497565b820191905f5260205f20905b81548152906001019060200180831161047a57829003601f168201915b5050505050908060010180546104ac906115d3565b80601f01602080910402602001604051908101604052809291908181526020018280546104d8906115d3565b80156105235780601f106104fa57610100808354040283529160200191610523565b820191905f5260205f20905b81548152906001019060200180831161050657829003601f168201915b505050505090806002015f9054906101000a900467ffffffffffffffff16908060020160089054906101000a900467ffffffffffffffff16905084565b6007602052805f5260405f205f915090505481565b6004602052805f5260405f205f915090505481565b61059261067b565b61059a575f80fd5b5f73ffffffffffffffffffffffffffffffffffffffff165f8054906101000a900473ffffffffffffffffffffffffffffffffffffffff1673ffffffffffffffffffffffffffffffffffffffff167f8be0079c531659141344cd1fd0a4f28419497f9722a3daafe3b4186f6b6457e060405160405180910390a35f805f6101000a81548173ffffffffffffffffffffffffffffffffffffffff021916908373ffffffffffffffffffffffffffffffffffffffff160217905550565b5f805f9054906101000a900473ffffffffffffffffffffffffffffffffffffffff16905090565b5f805f9054906101000a900473ffffffffffffffffffffffffffffffffffffffff1673ffffffffffffffffffffffffffffffffffffffff163373ffffffffffffffffffffffffffffffffffffffff1614905090565b6006602052805f5260405f205f915054906101000a900473ffffffffffffffffffffffffffffffffffffffff1681565b6003818154811061070f575f80fd5b905f5260205f2090600402015f91509050805f01805461072e906115d3565b80601f016020809104026020016040519081016040528092919081815260200182805461075a906115d3565b80156107a55780601f1061077c576101008083540402835291602001916107a5565b820191905f5260205f20905b81548152906001019060200180831161078857829003601f168201915b5050505050908060010180546107ba906115d3565b80601f01602080910402602001604051908101604052809291908181526020018280546107e6906115d3565b80156108315780601f1061080857610100808354040283529160200191610831565b820191905f5260205f20905b81548152906001019060200180831161081457829003601f168201915b505050505090806002015f9054906101000a900460ff16908060020160019054906101000a900460ff16908060020160029054906101000a900463ffffffff16908060030154905086565b5f60055f3373ffffffffffffffffffffffffffffffffffffffff1673ffffffffffffffffffffffffffffffffffffffff1681526020019081526020015f2054146108fb576040517f08c379a00000000000000000000000000000000000000000000000000000000081526004016108f29061164d565b60405180910390fd5b5f6040518060400160405280600c81526020017f72616e646f6d537472696e67000000000000000000000000000000000000000081525090506002604051806080016040528085858080601f0160208091040260200160405190810160405280939291908181526020018383808284375f81840152601f19601f8201169050808301925050505050505081526020018381526020014267ffffffffffffffff1681526020014267ffffffffffffffff16815250908060018154018082558091505060019003905f5260205f2090600302015f909190919091505f820151815f0190816109e79190611835565b5060208201518160010190816109fd9190611835565b506040820151816002015f6101000a81548167ffffffffffffffff021916908367ffffffffffffffff16021790555060608201518160020160086101000a81548167ffffffffffffffff021916908367ffffffffffffffff16021790555050505f6001600280549050610a709190611904565b90508060045f3373ffffffffffffffffffffffffffffffffffffffff1673ffffffffffffffffffffffffffffffffffffffff1681526020019081526020015f2081905550600160055f3373ffffffffffffffffffffffffffffffffffffffff1673ffffffffffffffffffffffffffffffffffffffff1681526020019081526020015f20819055503373ffffffffffffffffffffffffffffffffffffffff167f0ba589754bdc7c1e308a8ce3362a7b42600571fdd695534edd1e0182e187149f82868686604051610b439493929190611971565b60405180910390a250505050565b5f600260045f3373ffffffffffffffffffffffffffffffffffffffff1673ffffffffffffffffffffffffffffffffffffffff1681526020019081526020015f205481548110610ba357610ba26119b6565b5b905f5260205f209060030201905042816002015f9054906101000a900467ffffffffffffffff1667ffffffffffffffff161115610c15576040517f08c379a0000000000000000000000000000000000000000000000000000000008152600401610c0c90611a53565b60405180910390fd5b610c1d610ce9565b5f60149054906101000a900467ffffffffffffffff1642610c3e9190611a71565b816002015f6101000a81548167ffffffffffffffff021916908367ffffffffffffffff16021790555050565b610c7261067b565b610c7a575f80fd5b610c8381610ff1565b50565b5f60015f815480929190610c9990611aac565b9190505550814233600154604051602001610cb693929190611b58565b604051602081830303815290604052805190602001205f1c610cd89190611bc1565b9050919050565b610ce7610ce9565b565b606460075f3373ffffffffffffffffffffffffffffffffffffffff1673ffffffffffffffffffffffffffffffffffffffff1681526020019081526020015f20541115610d6a576040517f08c379a0000000000000000000000000000000000000000000000000000000008152600401610d6190611c3b565b60405180910390fd5b5f610d756002610c86565b90505f6040518060400160405280600c81526020017f72616e646f6d537472696e670000000000000000000000000000000000000000815250905060036040518060c001604052806040518060400160405280600681526020017f6e6f4e616d65000000000000000000000000000000000000000000000000000081525081526020018381526020018460ff1681526020015f60ff1681526020015f63ffffffff1681526020015f815250908060018154018082558091505060019003905f5260205f2090600402015f909190919091505f820151815f019081610e599190611835565b506020820151816001019081610e6f9190611835565b506040820151816002015f6101000a81548160ff021916908360ff16021790555060608201518160020160016101000a81548160ff021916908360ff16021790555060808201518160020160026101000a81548163ffffffff021916908363ffffffff16021790555060a0820151816003015550505f6001600380549050610ef79190611904565b90503360065f8381526020019081526020015f205f6101000a81548173ffffffffffffffffffffffffffffffffffffffff021916908373ffffffffffffffffffffffffffffffffffffffff16021790555060075f3373ffffffffffffffffffffffffffffffffffffffff1673ffffffffffffffffffffffffffffffffffffffff1681526020019081526020015f205f815480929190610f9590611aac565b91905055503373ffffffffffffffffffffffffffffffffffffffff167fe4bc06e69dd7a0f1bc9ef5db431d371f0cab41d8156a6012711823b90466715b828486604051610fe493929190611cd3565b60405180910390a2505050565b5f73ffffffffffffffffffffffffffffffffffffffff168173ffffffffffffffffffffffffffffffffffffffff1603611028575f80fd5b8073ffffffffffffffffffffffffffffffffffffffff165f8054906101000a900473ffffffffffffffffffffffffffffffffffffffff1673ffffffffffffffffffffffffffffffffffffffff167f8be0079c531659141344cd1fd0a4f28419497f9722a3daafe3b4186f6b6457e060405160405180910390a3805f806101000a81548173ffffffffffffffffffffffffffffffffffffffff021916908373ffffffffffffffffffffffffffffffffffffffff16021790555050565b5f80fd5b5f80fd5b5f819050919050565b6110fd816110eb565b8114611107575f80fd5b50565b5f81359050611118816110f4565b92915050565b5f8060408385031215611134576111336110e3565b5b5f6111418582860161110a565b92505060206111528582860161110a565b9150509250929050565b5f73ffffffffffffffffffffffffffffffffffffffff82169050919050565b5f6111858261115c565b9050919050565b6111958161117b565b811461119f575f80fd5b50565b5f813590506111b08161118c565b92915050565b5f602082840312156111cb576111ca6110e3565b5b5f6111d8848285016111a2565b91505092915050565b6111ea816110eb565b82525050565b5f6020820190506112035f8301846111e1565b92915050565b5f6020828403121561121e5761121d6110e3565b5b5f61122b8482850161110a565b91505092915050565b5f81519050919050565b5f82825260208201905092915050565b5f5b8381101561126b578082015181840152602081019050611250565b5f8484015250505050565b5f601f19601f8301169050919050565b5f61129082611234565b61129a818561123e565b93506112aa81856020860161124e565b6112b381611276565b840191505092915050565b5f67ffffffffffffffff82169050919050565b6112da816112be565b82525050565b5f6080820190508181035f8301526112f88187611286565b9050818103602083015261130c8186611286565b905061131b60408301856112d1565b61132860608301846112d1565b95945050505050565b61133a8161117b565b82525050565b5f6020820190506113535f830184611331565b92915050565b5f8115159050919050565b61136d81611359565b82525050565b5f6020820190506113865f830184611364565b92915050565b5f60ff82169050919050565b6113a18161138c565b82525050565b5f63ffffffff82169050919050565b6113bf816113a7565b82525050565b5f60c0820190508181035f8301526113dd8189611286565b905081810360208301526113f18188611286565b90506114006040830187611398565b61140d6060830186611398565b61141a60808301856113b6565b61142760a08301846111e1565b979650505050505050565b5f80fd5b5f80fd5b5f80fd5b5f8083601f84011261145357611452611432565b5b8235905067ffffffffffffffff8111156114705761146f611436565b5b60208301915083600182028301111561148c5761148b61143a565b5b9250929050565b5f80602083850312156114a9576114a86110e3565b5b5f83013567ffffffffffffffff8111156114c6576114c56110e7565b5b6114d28582860161143e565b92509250509250929050565b7f4e6f7420796f757220726f626f742e00000000000000000000000000000000005f82015250565b5f611512600f8361123e565b915061151d826114de565b602082019050919050565b5f6020820190508181035f83015261153f81611506565b9050919050565b7f4e487b71000000000000000000000000000000000000000000000000000000005f52601160045260245ffd5b5f61157d826110eb565b9150611588836110eb565b92508282019050808211156115a05761159f611546565b5b92915050565b7f4e487b71000000000000000000000000000000000000000000000000000000005f52602260045260245ffd5b5f60028204905060018216806115ea57607f821691505b6020821081036115fd576115fc6115a6565b5b50919050565b7f596f757220636f6d6d616e64657220616c726561647920657869737465642e005f82015250565b5f611637601f8361123e565b915061164282611603565b602082019050919050565b5f6020820190508181035f8301526116648161162b565b9050919050565b7f4e487b71000000000000000000000000000000000000000000000000000000005f52604160045260245ffd5b5f819050815f5260205f209050919050565b5f6020601f8301049050919050565b5f82821b905092915050565b5f600883026116f47fffffffffffffffffffffffffffffffffffffffffffffffffffffffffffffffff826116b9565b6116fe86836116b9565b95508019841693508086168417925050509392505050565b5f819050919050565b5f61173961173461172f846110eb565b611716565b6110eb565b9050919050565b5f819050919050565b6117528361171f565b61176661175e82611740565b8484546116c5565b825550505050565b5f90565b61177a61176e565b611785818484611749565b505050565b5b818110156117a85761179d5f82611772565b60018101905061178b565b5050565b601f8211156117ed576117be81611698565b6117c7846116aa565b810160208510156117d6578190505b6117ea6117e2856116aa565b83018261178a565b50505b505050565b5f82821c905092915050565b5f61180d5f19846008026117f2565b1980831691505092915050565b5f61182583836117fe565b9150826002028217905092915050565b61183e82611234565b67ffffffffffffffff8111156118575761185661166b565b5b61186182546115d3565b61186c8282856117ac565b5f60209050601f83116001811461189d575f841561188b578287015190505b611895858261181a565b8655506118fc565b601f1984166118ab86611698565b5f5b828110156118d2578489015182556001820191506020850194506020810190506118ad565b868310156118ef57848901516118eb601f8916826117fe565b8355505b6001600288020188555050505b505050505050565b5f61190e826110eb565b9150611919836110eb565b925082820390508181111561193157611930611546565b5b92915050565b828183375f83830152505050565b5f611950838561123e565b935061195d838584611937565b61196683611276565b840190509392505050565b5f6060820190506119845f8301876111e1565b8181036020830152611997818587611945565b905081810360408301526119ab8184611286565b905095945050505050565b7f4e487b71000000000000000000000000000000000000000000000000000000005f52603260045260245ffd5b7f4c657373207468616e206f6e65206461792073696e6365206c6173742074696d5f8201527f6520796f75206765742061206672656520726f626f742e000000000000000000602082015250565b5f611a3d60378361123e565b9150611a48826119e3565b604082019050919050565b5f6020820190508181035f830152611a6a81611a31565b9050919050565b5f611a7b826112be565b9150611a86836112be565b9250828201905067ffffffffffffffff811115611aa657611aa5611546565b5b92915050565b5f611ab6826110eb565b91507fffffffffffffffffffffffffffffffffffffffffffffffffffffffffffffffff8203611ae857611ae7611546565b5b600182019050919050565b5f819050919050565b611b0d611b08826110eb565b611af3565b82525050565b5f8160601b9050919050565b5f611b2982611b13565b9050919050565b5f611b3a82611b1f565b9050919050565b611b52611b4d8261117b565b611b30565b82525050565b5f611b638286611afc565b602082019150611b738285611b41565b601482019150611b838284611afc565b602082019150819050949350505050565b7f4e487b71000000000000000000000000000000000000000000000000000000005f52601260045260245ffd5b5f611bcb826110eb565b9150611bd6836110eb565b925082611be657611be5611b94565b5b828206905092915050565b7f596f7572207265706f2069732066756c6c2e00000000000000000000000000005f82015250565b5f611c2560128361123e565b9150611c3082611bf1565b602082019050919050565b5f6020820190508181035f830152611c5281611c19565b9050919050565b7f6e6f4e616d6500000000000000000000000000000000000000000000000000005f82015250565b5f611c8d60068361123e565b9150611c9882611c59565b602082019050919050565b5f611cbd611cb8611cb38461138c565b611716565b6110eb565b9050919050565b611ccd81611ca3565b82525050565b5f608082019050611ce65f8301866111e1565b8181036020830152611cf781611c81565b90508181036040830152611d0b8185611286565b9050611d1a6060830184611cc4565b94935050505056fea264697066735822122010a42b5cfdb2bd256d99dd1c2d5f75d76efc9c75037bad7dd3f7abb552580f3d64736f6c63430008150033",
  "immutableReferences": {},
  "source": "// SPDX-License-Identifier: MIT \npragma solidity ^0.8.21;\n\nimport \"./Basic.sol\";\n\n//\ncontract Gamble is Basic {\n\n    //\n    //\n    //\n    function gamble(uint choice, uint robotId) external ownerOfRobot(robotId) {\n\n        uint randInt = randMod(6) + 1;\n        uint res;\n        if (randInt <=3 ) {\n            res = 0;\n        } else {\n            res = 1;\n        }\n\n        if (choice == res) {\n             getFreeRobotAfterGambleWin();\n        } else {\n            robotToOwner[robotId] = owner();\n        }\n    }\n\n    //\n    function getFreeRobotAfterGambleWin() internal {\n        CreateRobot();\n    }\n}",
  "sourcePath": "/Users/liqinghao/Desktop/RoboHashWeb3/contracts/robotgame/Gamble.sol",
  "compiler": {
    "name": "solc",
    "version": "0.8.21+commit.d9974bed.Emscripten.clang"
  },
  "schemaVersion": "3.4.16",
  "updatedAt": "2023-10-27T09:47:39.528Z",
  "devdoc": {
    "kind": "dev",
    "methods": {
      "isOwner()": {
        "returns": {
          "_0": "true if `msg.sender` is the owner of the contract."
        }
      },
      "owner()": {
        "returns": {
          "_0": "the address of the owner."
        }
      },
      "renounceOwnership()": {
        "details": "Allows the current owner to relinquish control of the contract."
      },
      "transferOwnership(address)": {
        "details": "Allows the current owner to transfer control of the contract to a newOwner.",
        "params": {
          "newOwner": "The address to transfer ownership to."
        }
      }
    },
    "version": 1
  },
  "userdoc": {
    "kind": "user",
    "methods": {
      "renounceOwnership()": {
        "notice": "Renouncing to ownership will leave the contract without an owner. It will not be possible to call the functions with the `onlyOwner` modifier anymore."
      }
    },
    "version": 1
  }
}