{
  "contractName": "RobotManage",
  "abi": [
    {
      "anonymous": false,
      "inputs": [
        {
          "indexed": false,
          "internalType": "string",
          "name": "name",
          "type": "string"
        },
        {
          "indexed": true,
          "internalType": "address",
          "name": "owner",
          "type": "address"
        }
      ],
      "name": "DropRobot",
      "type": "event"
    },
    {
      "anonymous": false,
      "inputs": [
        {
          "indexed": false,
          "internalType": "uint256",
          "name": "id",
          "type": "uint256"
        },
        {
          "indexed": false,
          "internalType": "string",
          "name": "name",
          "type": "string"
        },
        {
          "indexed": false,
          "internalType": "string",
          "name": "dna",
          "type": "string"
        },
        {
          "indexed": true,
          "internalType": "address",
          "name": "owner",
          "type": "address"
        }
      ],
      "name": "NewCommander",
      "type": "event"
    },
    {
      "anonymous": false,
      "inputs": [
        {
          "indexed": false,
          "internalType": "uint256",
          "name": "id",
          "type": "uint256"
        },
        {
          "indexed": false,
          "internalType": "string",
          "name": "name",
          "type": "string"
        },
        {
          "indexed": false,
          "internalType": "string",
          "name": "dna",
          "type": "string"
        },
        {
          "indexed": false,
          "internalType": "uint256",
          "name": "spieces",
          "type": "uint256"
        },
        {
          "indexed": true,
          "internalType": "address",
          "name": "owner",
          "type": "address"
        }
      ],
      "name": "NewRobot",
      "type": "event"
    },
    {
      "anonymous": false,
      "inputs": [
        {
          "indexed": true,
          "internalType": "address",
          "name": "previousOwner",
          "type": "address"
        },
        {
          "indexed": true,
          "internalType": "address",
          "name": "newOwner",
          "type": "address"
        }
      ],
      "name": "OwnershipTransferred",
      "type": "event"
    },
    {
      "inputs": [
        {
          "internalType": "string",
          "name": "name",
          "type": "string"
        }
      ],
      "name": "CreateCommander",
      "outputs": [],
      "stateMutability": "nonpayable",
      "type": "function"
    },
    {
      "inputs": [
        {
          "internalType": "uint256",
          "name": "",
          "type": "uint256"
        }
      ],
      "name": "commanders",
      "outputs": [
        {
          "internalType": "string",
          "name": "name",
          "type": "string"
        },
        {
          "internalType": "string",
          "name": "dna",
          "type": "string"
        },
        {
          "internalType": "uint64",
          "name": "getFreeRobotReadyTime",
          "type": "uint64"
        },
        {
          "internalType": "uint64",
          "name": "giveStarReadyTime",
          "type": "uint64"
        }
      ],
      "stateMutability": "view",
      "type": "function"
    },
    {
      "inputs": [],
      "name": "getFreeRobot",
      "outputs": [],
      "stateMutability": "nonpayable",
      "type": "function"
    },
    {
      "inputs": [],
      "name": "isOwner",
      "outputs": [
        {
          "internalType": "bool",
          "name": "",
          "type": "bool"
        }
      ],
      "stateMutability": "view",
      "type": "function"
    },
    {
      "inputs": [],
      "name": "owner",
      "outputs": [
        {
          "internalType": "address",
          "name": "",
          "type": "address"
        }
      ],
      "stateMutability": "view",
      "type": "function"
    },
    {
      "inputs": [
        {
          "internalType": "address",
          "name": "",
          "type": "address"
        }
      ],
      "name": "ownerRobotCount",
      "outputs": [
        {
          "internalType": "uint256",
          "name": "",
          "type": "uint256"
        }
      ],
      "stateMutability": "view",
      "type": "function"
    },
    {
      "inputs": [
        {
          "internalType": "address",
          "name": "",
          "type": "address"
        }
      ],
      "name": "ownerToCommander",
      "outputs": [
        {
          "internalType": "uint256",
          "name": "",
          "type": "uint256"
        }
      ],
      "stateMutability": "view",
      "type": "function"
    },
    {
      "inputs": [],
      "name": "renounceOwnership",
      "outputs": [],
      "stateMutability": "nonpayable",
      "type": "function"
    },
    {
      "inputs": [
        {
          "internalType": "uint256",
          "name": "",
          "type": "uint256"
        }
      ],
      "name": "robotToOwner",
      "outputs": [
        {
          "internalType": "address",
          "name": "",
          "type": "address"
        }
      ],
      "stateMutability": "view",
      "type": "function"
    },
    {
      "inputs": [
        {
          "internalType": "uint256",
          "name": "",
          "type": "uint256"
        }
      ],
      "name": "robots",
      "outputs": [
        {
          "internalType": "string",
          "name": "name",
          "type": "string"
        },
        {
          "internalType": "string",
          "name": "dna",
          "type": "string"
        },
        {
          "internalType": "uint8",
          "name": "spieces",
          "type": "uint8"
        },
        {
          "internalType": "uint8",
          "name": "status",
          "type": "uint8"
        },
        {
          "internalType": "uint32",
          "name": "stars",
          "type": "uint32"
        },
        {
          "internalType": "uint256",
          "name": "price",
          "type": "uint256"
        },
        {
          "internalType": "uint256",
          "name": "idInMarket",
          "type": "uint256"
        }
      ],
      "stateMutability": "view",
      "type": "function"
    },
    {
      "inputs": [
        {
          "internalType": "address",
          "name": "newOwner",
          "type": "address"
        }
      ],
      "name": "transferOwnership",
      "outputs": [],
      "stateMutability": "nonpayable",
      "type": "function"
    },
    {
      "inputs": [
        {
          "internalType": "uint256",
          "name": "fee",
          "type": "uint256"
        }
      ],
      "name": "setLevelupFee",
      "outputs": [],
      "stateMutability": "nonpayable",
      "type": "function"
    },
    {
      "inputs": [
        {
          "internalType": "string",
          "name": "newName",
          "type": "string"
        }
      ],
      "name": "modifyCommanderName",
      "outputs": [],
      "stateMutability": "payable",
      "type": "function"
    },
    {
      "inputs": [
        {
          "internalType": "string",
          "name": "newDna",
          "type": "string"
        }
      ],
      "name": "modifyCommanderDna",
      "outputs": [],
      "stateMutability": "payable",
      "type": "function"
    },
    {
      "inputs": [],
      "name": "getRobotsByOwner",
      "outputs": [
        {
          "internalType": "uint256[]",
          "name": "",
          "type": "uint256[]"
        }
      ],
      "stateMutability": "view",
      "type": "function"
    },
    {
      "inputs": [
        {
          "internalType": "uint256",
          "name": "robotId",
          "type": "uint256"
        },
        {
          "internalType": "string",
          "name": "newName",
          "type": "string"
        }
      ],
      "name": "setRobotName",
      "outputs": [],
      "stateMutability": "payable",
      "type": "function"
    },
    {
      "inputs": [
        {
          "internalType": "uint256",
          "name": "robotId",
          "type": "uint256"
        }
      ],
      "name": "dropRobot",
      "outputs": [],
      "stateMutability": "nonpayable",
      "type": "function"
    }
  ],
  "bytecode": "0x6080604052620151806001555f60025566038d7ea4c68000600855348015610025575f80fd5b50335f806101000a81548173ffffffffffffffffffffffffffffffffffffffff021916908373ffffffffffffffffffffffffffffffffffffffff1602179055505f8054906101000a900473ffffffffffffffffffffffffffffffffffffffff1673ffffffffffffffffffffffffffffffffffffffff165f73ffffffffffffffffffffffffffffffffffffffff167f8be0079c531659141344cd1fd0a4f28419497f9722a3daafe3b4186f6b6457e060405160405180910390a3612668806100eb5f395ff3fe6080604052600436106100fd575f3560e01c80639949460c11610094578063b060ff1911610063578063b060ff1914610328578063d1763b3a1461033e578063e900574d14610368578063f242da1214610384578063f2fde38b146103ac576100fd565b80639949460c1461027a5780639b41bb6914610296578063a03937c5146102be578063a1a4d91c14610300576100fd565b80637c4213de116100d05780637c4213de146101ce5780638da5cb5b146101ea5780638f32d59b146102145780639403a0ce1461023e576100fd565b8063492d8b3d1461010157806365ceceb1146101405780636aa438dc1461017c578063715018a6146101b8575b5f80fd5b34801561010c575f80fd5b50610127600480360381019061012291906116d9565b6103d4565b60405161013794939291906117b0565b60405180910390f35b34801561014b575f80fd5b506101666004803603810190610161919061185b565b610542565b6040516101739190611895565b60405180910390f35b348015610187575f80fd5b506101a2600480360381019061019d919061185b565b610557565b6040516101af9190611895565b60405180910390f35b3480156101c3575f80fd5b506101cc61056c565b005b6101e860048036038101906101e3919061190f565b610636565b005b3480156101f5575f80fd5b506101fe6106f8565b60405161020b9190611969565b60405180910390f35b34801561021f575f80fd5b5061022861071f565b604051610235919061199c565b60405180910390f35b348015610249575f80fd5b50610264600480360381019061025f91906116d9565b610774565b6040516102719190611969565b60405180910390f35b610294600480360381019061028f919061190f565b6107a4565b005b3480156102a1575f80fd5b506102bc60048036038101906102b791906116d9565b610865565b005b3480156102c9575f80fd5b506102e460048036038101906102df91906116d9565b6109cd565b6040516102f797969594939291906119ee565b60405180910390f35b34801561030b575f80fd5b506103266004803603810190610321919061190f565b610b4f565b005b348015610333575f80fd5b5061033c610de1565b005b348015610349575f80fd5b50610352610ee7565b60405161035f9190611b20565b60405180910390f35b610382600480360381019061037d9190611b40565b611030565b005b34801561038f575f80fd5b506103aa60048036038101906103a591906116d9565b611205565b005b3480156103b7575f80fd5b506103d260048036038101906103cd919061185b565b61121f565b005b600381815481106103e3575f80fd5b905f5260205f2090600302015f91509050805f01805461040290611bca565b80601f016020809104026020016040519081016040528092919081815260200182805461042e90611bca565b80156104795780601f1061045057610100808354040283529160200191610479565b820191905f5260205f20905b81548152906001019060200180831161045c57829003601f168201915b50505050509080600101805461048e90611bca565b80601f01602080910402602001604051908101604052809291908181526020018280546104ba90611bca565b80156105055780601f106104dc57610100808354040283529160200191610505565b820191905f5260205f20905b8154815290600101906020018083116104e857829003601f168201915b505050505090806002015f9054906101000a900467ffffffffffffffff16908060020160089054906101000a900467ffffffffffffffff16905084565b6007602052805f5260405f205f915090505481565b6005602052805f5260405f205f915090505481565b61057461071f565b61057c575f80fd5b5f73ffffffffffffffffffffffffffffffffffffffff165f8054906101000a900473ffffffffffffffffffffffffffffffffffffffff1673ffffffffffffffffffffffffffffffffffffffff167f8be0079c531659141344cd1fd0a4f28419497f9722a3daafe3b4186f6b6457e060405160405180910390a35f805f6101000a81548173ffffffffffffffffffffffffffffffffffffffff021916908373ffffffffffffffffffffffffffffffffffffffff160217905550565b600854341461067a576040517f08c379a000000000000000000000000000000000000000000000000000000000815260040161067190611c44565b60405180910390fd5b5f60055f3373ffffffffffffffffffffffffffffffffffffffff1673ffffffffffffffffffffffffffffffffffffffff1681526020019081526020015f205490505f600382815481106106d0576106cf611c62565b5b905f5260205f209060030201905083838260010191826106f1929190611e63565b5050505050565b5f805f9054906101000a900473ffffffffffffffffffffffffffffffffffffffff16905090565b5f805f9054906101000a900473ffffffffffffffffffffffffffffffffffffffff1673ffffffffffffffffffffffffffffffffffffffff163373ffffffffffffffffffffffffffffffffffffffff1614905090565b6006602052805f5260405f205f915054906101000a900473ffffffffffffffffffffffffffffffffffffffff1681565b60085434146107e8576040517f08c379a00000000000000000000000000000000000000000000000000000000081526004016107df90611c44565b60405180910390fd5b5f60055f3373ffffffffffffffffffffffffffffffffffffffff1673ffffffffffffffffffffffffffffffffffffffff1681526020019081526020015f205490505f6003828154811061083e5761083d611c62565b5b905f5260205f20906003020190508383825f01918261085e929190611e63565b5050505050565b8060065f8281526020019081526020015f205f9054906101000a900473ffffffffffffffffffffffffffffffffffffffff1673ffffffffffffffffffffffffffffffffffffffff163373ffffffffffffffffffffffffffffffffffffffff1614610904576040517f08c379a00000000000000000000000000000000000000000000000000000000081526004016108fb90611f7a565b60405180910390fd5b61090c6106f8565b60065f8481526020019081526020015f205f6101000a81548173ffffffffffffffffffffffffffffffffffffffff021916908373ffffffffffffffffffffffffffffffffffffffff1602179055503373ffffffffffffffffffffffffffffffffffffffff167f21a51e05aaba7d9dfc436f444cce7ae7c5080aec1a649777bb7f2561643aaad5600484815481106109a6576109a5611c62565b5b905f5260205f2090600502015f016040516109c19190612019565b60405180910390a25050565b600481815481106109dc575f80fd5b905f5260205f2090600502015f91509050805f0180546109fb90611bca565b80601f0160208091040260200160405190810160405280929190818152602001828054610a2790611bca565b8015610a725780601f10610a4957610100808354040283529160200191610a72565b820191905f5260205f20905b815481529060010190602001808311610a5557829003601f168201915b505050505090806001018054610a8790611bca565b80601f0160208091040260200160405190810160405280929190818152602001828054610ab390611bca565b8015610afe5780601f10610ad557610100808354040283529160200191610afe565b820191905f5260205f20905b815481529060010190602001808311610ae157829003601f168201915b505050505090806002015f9054906101000a900460ff16908060020160019054906101000a900460ff16908060020160029054906101000a900463ffffffff16908060030154908060040154905087565b5f60055f3373ffffffffffffffffffffffffffffffffffffffff1673ffffffffffffffffffffffffffffffffffffffff1681526020019081526020015f205403610bce576040517f08c379a0000000000000000000000000000000000000000000000000000000008152600401610bc590612083565b60405180910390fd5b5f6040518060400160405280600c81526020017f72616e646f6d537472696e67000000000000000000000000000000000000000081525090506003604051806080016040528085858080601f0160208091040260200160405190810160405280939291908181526020018383808284375f81840152601f19601f8201169050808301925050505050505081526020018381526020014267ffffffffffffffff1681526020014267ffffffffffffffff16815250908060018154018082558091505060019003905f5260205f2090600302015f909190919091505f820151815f019081610cba91906120a1565b506020820151816001019081610cd091906120a1565b506040820151816002015f6101000a81548167ffffffffffffffff021916908367ffffffffffffffff16021790555060608201518160020160086101000a81548167ffffffffffffffff021916908367ffffffffffffffff16021790555050505f6001600380549050610d43919061219d565b90508060055f3373ffffffffffffffffffffffffffffffffffffffff1673ffffffffffffffffffffffffffffffffffffffff1681526020019081526020015f20819055503373ffffffffffffffffffffffffffffffffffffffff167f0ba589754bdc7c1e308a8ce3362a7b42600571fdd695534edd1e0182e187149f82868686604051610dd3949392919061220a565b60405180910390a250505050565b5f600360055f3373ffffffffffffffffffffffffffffffffffffffff1673ffffffffffffffffffffffffffffffffffffffff1681526020019081526020015f205481548110610e3357610e32611c62565b5b905f5260205f209060030201905042816002015f9054906101000a900467ffffffffffffffff1667ffffffffffffffff161115610ea5576040517f08c379a0000000000000000000000000000000000000000000000000000000008152600401610e9c906122bf565b60405180910390fd5b610ead61123b565b60015442610ebb91906122dd565b816002015f6101000a81548167ffffffffffffffff021916908367ffffffffffffffff16021790555050565b60605f60075f3373ffffffffffffffffffffffffffffffffffffffff1673ffffffffffffffffffffffffffffffffffffffff1681526020019081526020015f205467ffffffffffffffff811115610f4157610f40611c99565b5b604051908082528060200260200182016040528015610f6f5781602001602082028036833780820191505090505b5090505f805b600480549050811015611027573373ffffffffffffffffffffffffffffffffffffffff1660065f8381526020019081526020015f205f9054906101000a900473ffffffffffffffffffffffffffffffffffffffff1673ffffffffffffffffffffffffffffffffffffffff16036110145780838381518110610ff957610ff8611c62565b5b602002602001018181525050818061101090612310565b9250505b808061101f90612310565b915050610f75565b50819250505090565b8260065f8281526020019081526020015f205f9054906101000a900473ffffffffffffffffffffffffffffffffffffffff1673ffffffffffffffffffffffffffffffffffffffff163373ffffffffffffffffffffffffffffffffffffffff16146110cf576040517f08c379a00000000000000000000000000000000000000000000000000000000081526004016110c690611f7a565b60405180910390fd5b6040516020016110de906123a1565b604051602081830303815290604052805190602001206004858154811061110857611107611c62565b5b905f5260205f2090600502015f016040516020016111269190612019565b6040516020818303038152906040528051906020012014611186576008543414611185576040517f08c379a000000000000000000000000000000000000000000000000000000000815260040161117c90611c44565b60405180910390fd5b5b60148383905011156111cd576040517f08c379a00000000000000000000000000000000000000000000000000000000081526004016111c49061242f565b60405180910390fd5b8282600486815481106111e3576111e2611c62565b5b905f5260205f2090600502015f0191826111fe929190611e63565b5050505050565b61120d61071f565b611215575f80fd5b8060088190555050565b61122761071f565b61122f575f80fd5b61123881611553565b50565b606460075f3373ffffffffffffffffffffffffffffffffffffffff1673ffffffffffffffffffffffffffffffffffffffff1681526020019081526020015f205411156112bc576040517f08c379a00000000000000000000000000000000000000000000000000000000081526004016112b390612497565b60405180910390fd5b5f6112c76002611645565b90505f6040518060400160405280600c81526020017f72616e646f6d537472696e670000000000000000000000000000000000000000815250905060046040518060e001604052806040518060400160405280600681526020017f6e6f4e616d65000000000000000000000000000000000000000000000000000081525081526020018381526020018460ff1681526020015f60ff1681526020015f63ffffffff1681526020015f81526020015f815250908060018154018082558091505060019003905f5260205f2090600502015f909190919091505f820151815f0190816113b191906120a1565b5060208201518160010190816113c791906120a1565b506040820151816002015f6101000a81548160ff021916908360ff16021790555060608201518160020160016101000a81548160ff021916908360ff16021790555060808201518160020160026101000a81548163ffffffff021916908363ffffffff16021790555060a0820151816003015560c0820151816004015550505f6001600480549050611459919061219d565b90503360065f8381526020019081526020015f205f6101000a81548173ffffffffffffffffffffffffffffffffffffffff021916908373ffffffffffffffffffffffffffffffffffffffff16021790555060075f3373ffffffffffffffffffffffffffffffffffffffff1673ffffffffffffffffffffffffffffffffffffffff1681526020019081526020015f205f8154809291906114f790612310565b91905055503373ffffffffffffffffffffffffffffffffffffffff167fe4bc06e69dd7a0f1bc9ef5db431d371f0cab41d8156a6012711823b90466715b828486604051611546939291906124e5565b60405180910390a2505050565b5f73ffffffffffffffffffffffffffffffffffffffff168173ffffffffffffffffffffffffffffffffffffffff160361158a575f80fd5b8073ffffffffffffffffffffffffffffffffffffffff165f8054906101000a900473ffffffffffffffffffffffffffffffffffffffff1673ffffffffffffffffffffffffffffffffffffffff167f8be0079c531659141344cd1fd0a4f28419497f9722a3daafe3b4186f6b6457e060405160405180910390a3805f806101000a81548173ffffffffffffffffffffffffffffffffffffffff021916908373ffffffffffffffffffffffffffffffffffffffff16021790555050565b5f60025f81548092919061165890612310565b919050555081423360025460405160200161167593929190612599565b604051602081830303815290604052805190602001205f1c6116979190612602565b9050919050565b5f80fd5b5f80fd5b5f819050919050565b6116b8816116a6565b81146116c2575f80fd5b50565b5f813590506116d3816116af565b92915050565b5f602082840312156116ee576116ed61169e565b5b5f6116fb848285016116c5565b91505092915050565b5f81519050919050565b5f82825260208201905092915050565b5f5b8381101561173b578082015181840152602081019050611720565b5f8484015250505050565b5f601f19601f8301169050919050565b5f61176082611704565b61176a818561170e565b935061177a81856020860161171e565b61178381611746565b840191505092915050565b5f67ffffffffffffffff82169050919050565b6117aa8161178e565b82525050565b5f6080820190508181035f8301526117c88187611756565b905081810360208301526117dc8186611756565b90506117eb60408301856117a1565b6117f860608301846117a1565b95945050505050565b5f73ffffffffffffffffffffffffffffffffffffffff82169050919050565b5f61182a82611801565b9050919050565b61183a81611820565b8114611844575f80fd5b50565b5f8135905061185581611831565b92915050565b5f602082840312156118705761186f61169e565b5b5f61187d84828501611847565b91505092915050565b61188f816116a6565b82525050565b5f6020820190506118a85f830184611886565b92915050565b5f80fd5b5f80fd5b5f80fd5b5f8083601f8401126118cf576118ce6118ae565b5b8235905067ffffffffffffffff8111156118ec576118eb6118b2565b5b602083019150836001820283011115611908576119076118b6565b5b9250929050565b5f80602083850312156119255761192461169e565b5b5f83013567ffffffffffffffff811115611942576119416116a2565b5b61194e858286016118ba565b92509250509250929050565b61196381611820565b82525050565b5f60208201905061197c5f83018461195a565b92915050565b5f8115159050919050565b61199681611982565b82525050565b5f6020820190506119af5f83018461198d565b92915050565b5f60ff82169050919050565b6119ca816119b5565b82525050565b5f63ffffffff82169050919050565b6119e8816119d0565b82525050565b5f60e0820190508181035f830152611a06818a611756565b90508181036020830152611a1a8189611756565b9050611a2960408301886119c1565b611a3660608301876119c1565b611a4360808301866119df565b611a5060a0830185611886565b611a5d60c0830184611886565b98975050505050505050565b5f81519050919050565b5f82825260208201905092915050565b5f819050602082019050919050565b611a9b816116a6565b82525050565b5f611aac8383611a92565b60208301905092915050565b5f602082019050919050565b5f611ace82611a69565b611ad88185611a73565b9350611ae383611a83565b805f5b83811015611b13578151611afa8882611aa1565b9750611b0583611ab8565b925050600181019050611ae6565b5085935050505092915050565b5f6020820190508181035f830152611b388184611ac4565b905092915050565b5f805f60408486031215611b5757611b5661169e565b5b5f611b64868287016116c5565b935050602084013567ffffffffffffffff811115611b8557611b846116a2565b5b611b91868287016118ba565b92509250509250925092565b7f4e487b71000000000000000000000000000000000000000000000000000000005f52602260045260245ffd5b5f6002820490506001821680611be157607f821691505b602082108103611bf457611bf3611b9d565b5b50919050565b7f506c656173652070617920656e6f7567682065746865722e00000000000000005f82015250565b5f611c2e60188361170e565b9150611c3982611bfa565b602082019050919050565b5f6020820190508181035f830152611c5b81611c22565b9050919050565b7f4e487b71000000000000000000000000000000000000000000000000000000005f52603260045260245ffd5b5f82905092915050565b7f4e487b71000000000000000000000000000000000000000000000000000000005f52604160045260245ffd5b5f819050815f5260205f209050919050565b5f6020601f8301049050919050565b5f82821b905092915050565b5f60088302611d227fffffffffffffffffffffffffffffffffffffffffffffffffffffffffffffffff82611ce7565b611d2c8683611ce7565b95508019841693508086168417925050509392505050565b5f819050919050565b5f611d67611d62611d5d846116a6565b611d44565b6116a6565b9050919050565b5f819050919050565b611d8083611d4d565b611d94611d8c82611d6e565b848454611cf3565b825550505050565b5f90565b611da8611d9c565b611db3818484611d77565b505050565b5b81811015611dd657611dcb5f82611da0565b600181019050611db9565b5050565b601f821115611e1b57611dec81611cc6565b611df584611cd8565b81016020851015611e04578190505b611e18611e1085611cd8565b830182611db8565b50505b505050565b5f82821c905092915050565b5f611e3b5f1984600802611e20565b1980831691505092915050565b5f611e538383611e2c565b9150826002028217905092915050565b611e6d8383611c8f565b67ffffffffffffffff811115611e8657611e85611c99565b5b611e908254611bca565b611e9b828285611dda565b5f601f831160018114611ec8575f8415611eb6578287013590505b611ec08582611e48565b865550611f27565b601f198416611ed686611cc6565b5f5b82811015611efd57848901358255600182019150602085019450602081019050611ed8565b86831015611f1a5784890135611f16601f891682611e2c565b8355505b6001600288020188555050505b50505050505050565b7f4e6f7420796f757220726f626f742e00000000000000000000000000000000005f82015250565b5f611f64600f8361170e565b9150611f6f82611f30565b602082019050919050565b5f6020820190508181035f830152611f9181611f58565b9050919050565b5f8154611fa481611bca565b611fae818661170e565b9450600182165f8114611fc85760018114611fde57612010565b60ff198316865281151560200286019350612010565b611fe785611cc6565b5f5b8381101561200857815481890152600182019150602081019050611fe9565b808801955050505b50505092915050565b5f6020820190508181035f8301526120318184611f98565b905092915050565b7f596f757220636f6d6d616e64657220616c726561647920657869737465642e005f82015250565b5f61206d601f8361170e565b915061207882612039565b602082019050919050565b5f6020820190508181035f83015261209a81612061565b9050919050565b6120aa82611704565b67ffffffffffffffff8111156120c3576120c2611c99565b5b6120cd8254611bca565b6120d8828285611dda565b5f60209050601f831160018114612109575f84156120f7578287015190505b6121018582611e48565b865550612168565b601f19841661211786611cc6565b5f5b8281101561213e57848901518255600182019150602085019450602081019050612119565b8683101561215b5784890151612157601f891682611e2c565b8355505b6001600288020188555050505b505050505050565b7f4e487b71000000000000000000000000000000000000000000000000000000005f52601160045260245ffd5b5f6121a7826116a6565b91506121b2836116a6565b92508282039050818111156121ca576121c9612170565b5b92915050565b828183375f83830152505050565b5f6121e9838561170e565b93506121f68385846121d0565b6121ff83611746565b840190509392505050565b5f60608201905061221d5f830187611886565b81810360208301526122308185876121de565b905081810360408301526122448184611756565b905095945050505050565b7f4c657373207468616e206f6e65206461792073696e6365206c6173742074696d5f8201527f6520796f75206765742061206672656520726f626f742e000000000000000000602082015250565b5f6122a960378361170e565b91506122b48261224f565b604082019050919050565b5f6020820190508181035f8301526122d68161229d565b9050919050565b5f6122e7826116a6565b91506122f2836116a6565b925082820190508082111561230a57612309612170565b5b92915050565b5f61231a826116a6565b91507fffffffffffffffffffffffffffffffffffffffffffffffffffffffffffffffff820361234c5761234b612170565b5b600182019050919050565b7f6e6f4e616d6500000000000000000000000000000000000000000000000000005f82015250565b5f61238b60068361170e565b915061239682612357565b602082019050919050565b5f6020820190508181035f8301526123b88161237f565b9050919050565b7f526f626f74206e616d652063616e6e6f742065786365656420323020636861725f8201527f6163746572732e00000000000000000000000000000000000000000000000000602082015250565b5f61241960278361170e565b9150612424826123bf565b604082019050919050565b5f6020820190508181035f8301526124468161240d565b9050919050565b7f596f7572207265706f2069732066756c6c2e00000000000000000000000000005f82015250565b5f61248160128361170e565b915061248c8261244d565b602082019050919050565b5f6020820190508181035f8301526124ae81612475565b9050919050565b5f6124cf6124ca6124c5846119b5565b611d44565b6116a6565b9050919050565b6124df816124b5565b82525050565b5f6080820190506124f85f830186611886565b81810360208301526125098161237f565b9050818103604083015261251d8185611756565b905061252c60608301846124d6565b949350505050565b5f819050919050565b61254e612549826116a6565b612534565b82525050565b5f8160601b9050919050565b5f61256a82612554565b9050919050565b5f61257b82612560565b9050919050565b61259361258e82611820565b612571565b82525050565b5f6125a4828661253d565b6020820191506125b48285612582565b6014820191506125c4828461253d565b602082019150819050949350505050565b7f4e487b71000000000000000000000000000000000000000000000000000000005f52601260045260245ffd5b5f61260c826116a6565b9150612617836116a6565b925082612627576126266125d5565b5b82820690509291505056fea264697066735822122001530643fb016ee87df9b26149ad84b3216c7dd2e0ba26a191710e25d987fa8b64736f6c63430008150033",
  "immutableReferences": {},
  "source": "// SPDX-License-Identifier: MIT \npragma solidity ^0.8.21;\n\nimport \"./Basic.sol\";\n\n//\ncontract RobotManage is Basic {\n\n    uint commonFee = 0.001 ether;\n\n    function setLevelupFee(uint fee) external onlyOwner {\n        commonFee = fee;\n    }\n\n    event DropRobot(string name, address indexed owner);\n\n    //commander\n    function modifyCommanderName(string calldata newName) public payable {\n\n        require(msg.value == commonFee, \"Please pay enough ether.\");\n\n        uint curCommanderIndex = ownerToCommander[msg.sender];\n        Commander storage curCommander = commanders[curCommanderIndex]; \n        curCommander.name = newName;\n    }\n\n    //commanderdna\n    function modifyCommanderDna(string calldata newDna) public payable {\n\n        require(msg.value == commonFee, \"Please pay enough ether.\");\n\n        uint curCommanderIndex = ownerToCommander[msg.sender];\n        Commander storage curCommander = commanders[curCommanderIndex]; \n        curCommander.dna = newDna;\n    }\n\n    //\n    function getRobotsByOwner() external view returns(uint[] memory) {\n        uint[] memory result = new uint[](ownerRobotCount[msg.sender]);\n        uint counter = 0;\n        for (uint i = 0; i < robots.length; i++) {\n            if (robotToOwner[i] == msg.sender) {\n                result[counter] = i;\n                counter++;\n            }\n        }\n        return result;\n    }\n\n    //\n    function setRobotName(uint robotId, string calldata newName) external payable ownerOfRobot(robotId) {\n        //\n        if (keccak256(abi.encode(robots[robotId].name)) != keccak256(abi.encode(\"noName\"))) {\n            require(msg.value == commonFee, \"Please pay enough ether.\");\n        }\n        require(bytes(newName).length <= 20, \"Robot name cannot exceed 20 characters.\");\n        robots[robotId].name = newName;\n    }\n\n    //\n    function dropRobot(uint robotId) public ownerOfRobot(robotId) {\n        robotToOwner[robotId] = owner();\n        emit DropRobot(robots[robotId].name, msg.sender);\n    }\n}",
  "sourcePath": "/Users/liqinghao/Desktop/RoboHashWeb3/contracts/robotgame/RobotManage.sol",
  "compiler": {
    "name": "solc",
    "version": "0.8.21+commit.d9974bed.Emscripten.clang"
  },
  "schemaVersion": "3.4.16",
  "updatedAt": "2023-11-06T02:21:21.319Z",
  "devdoc": {
    "kind": "dev",
    "methods": {
      "isOwner()": {
        "returns": {
          "_0": "true if `msg.sender` is the owner of the contract."
        }
      },
      "owner()": {
        "returns": {
          "_0": "the address of the owner."
        }
      },
      "renounceOwnership()": {
        "details": "Allows the current owner to relinquish control of the contract."
      },
      "transferOwnership(address)": {
        "details": "Allows the current owner to transfer control of the contract to a newOwner.",
        "params": {
          "newOwner": "The address to transfer ownership to."
        }
      }
    },
    "version": 1
  },
  "userdoc": {
    "kind": "user",
    "methods": {
      "renounceOwnership()": {
        "notice": "Renouncing to ownership will leave the contract without an owner. It will not be possible to call the functions with the `onlyOwner` modifier anymore."
      }
    },
    "version": 1
  }
}