{
  "contractName": "RobotManage",
  "abi": [
    {
      "anonymous": false,
      "inputs": [
        {
          "indexed": false,
          "internalType": "string",
          "name": "name",
          "type": "string"
        },
        {
          "indexed": true,
          "internalType": "address",
          "name": "owner",
          "type": "address"
        }
      ],
      "name": "DropRobot",
      "type": "event"
    },
    {
      "anonymous": false,
      "inputs": [
        {
          "indexed": false,
          "internalType": "uint256",
          "name": "id",
          "type": "uint256"
        },
        {
          "indexed": false,
          "internalType": "string",
          "name": "name",
          "type": "string"
        },
        {
          "indexed": false,
          "internalType": "string",
          "name": "dna",
          "type": "string"
        },
        {
          "indexed": true,
          "internalType": "address",
          "name": "owner",
          "type": "address"
        }
      ],
      "name": "NewCommander",
      "type": "event"
    },
    {
      "anonymous": false,
      "inputs": [
        {
          "indexed": false,
          "internalType": "uint256",
          "name": "id",
          "type": "uint256"
        },
        {
          "indexed": false,
          "internalType": "string",
          "name": "name",
          "type": "string"
        },
        {
          "indexed": false,
          "internalType": "string",
          "name": "dna",
          "type": "string"
        },
        {
          "indexed": false,
          "internalType": "uint256",
          "name": "spieces",
          "type": "uint256"
        },
        {
          "indexed": true,
          "internalType": "address",
          "name": "owner",
          "type": "address"
        }
      ],
      "name": "NewRobot",
      "type": "event"
    },
    {
      "anonymous": false,
      "inputs": [
        {
          "indexed": true,
          "internalType": "address",
          "name": "previousOwner",
          "type": "address"
        },
        {
          "indexed": true,
          "internalType": "address",
          "name": "newOwner",
          "type": "address"
        }
      ],
      "name": "OwnershipTransferred",
      "type": "event"
    },
    {
      "inputs": [
        {
          "internalType": "string",
          "name": "name",
          "type": "string"
        }
      ],
      "name": "CreateCommander",
      "outputs": [],
      "stateMutability": "nonpayable",
      "type": "function"
    },
    {
      "inputs": [
        {
          "internalType": "uint256",
          "name": "",
          "type": "uint256"
        }
      ],
      "name": "commanders",
      "outputs": [
        {
          "internalType": "string",
          "name": "name",
          "type": "string"
        },
        {
          "internalType": "string",
          "name": "dna",
          "type": "string"
        },
        {
          "internalType": "uint64",
          "name": "getFreeRobotReadyTime",
          "type": "uint64"
        },
        {
          "internalType": "uint64",
          "name": "giveStarReadyTime",
          "type": "uint64"
        }
      ],
      "stateMutability": "view",
      "type": "function"
    },
    {
      "inputs": [],
      "name": "getFreeRobot",
      "outputs": [],
      "stateMutability": "nonpayable",
      "type": "function"
    },
    {
      "inputs": [],
      "name": "isOwner",
      "outputs": [
        {
          "internalType": "bool",
          "name": "",
          "type": "bool"
        }
      ],
      "stateMutability": "view",
      "type": "function"
    },
    {
      "inputs": [],
      "name": "owner",
      "outputs": [
        {
          "internalType": "address",
          "name": "",
          "type": "address"
        }
      ],
      "stateMutability": "view",
      "type": "function"
    },
    {
      "inputs": [
        {
          "internalType": "address",
          "name": "",
          "type": "address"
        }
      ],
      "name": "ownerRobotCount",
      "outputs": [
        {
          "internalType": "uint256",
          "name": "",
          "type": "uint256"
        }
      ],
      "stateMutability": "view",
      "type": "function"
    },
    {
      "inputs": [
        {
          "internalType": "address",
          "name": "",
          "type": "address"
        }
      ],
      "name": "ownerToCommander",
      "outputs": [
        {
          "internalType": "uint256",
          "name": "",
          "type": "uint256"
        }
      ],
      "stateMutability": "view",
      "type": "function"
    },
    {
      "inputs": [],
      "name": "renounceOwnership",
      "outputs": [],
      "stateMutability": "nonpayable",
      "type": "function"
    },
    {
      "inputs": [
        {
          "internalType": "uint256",
          "name": "",
          "type": "uint256"
        }
      ],
      "name": "robotToOwner",
      "outputs": [
        {
          "internalType": "address",
          "name": "",
          "type": "address"
        }
      ],
      "stateMutability": "view",
      "type": "function"
    },
    {
      "inputs": [
        {
          "internalType": "uint256",
          "name": "",
          "type": "uint256"
        }
      ],
      "name": "robots",
      "outputs": [
        {
          "internalType": "string",
          "name": "name",
          "type": "string"
        },
        {
          "internalType": "string",
          "name": "dna",
          "type": "string"
        },
        {
          "internalType": "uint8",
          "name": "spieces",
          "type": "uint8"
        },
        {
          "internalType": "uint8",
          "name": "status",
          "type": "uint8"
        },
        {
          "internalType": "uint32",
          "name": "stars",
          "type": "uint32"
        },
        {
          "internalType": "uint256",
          "name": "price",
          "type": "uint256"
        },
        {
          "internalType": "uint256",
          "name": "idInMarket",
          "type": "uint256"
        }
      ],
      "stateMutability": "view",
      "type": "function"
    },
    {
      "inputs": [
        {
          "internalType": "address",
          "name": "newOwner",
          "type": "address"
        }
      ],
      "name": "transferOwnership",
      "outputs": [],
      "stateMutability": "nonpayable",
      "type": "function"
    },
    {
      "inputs": [
        {
          "internalType": "uint256",
          "name": "fee",
          "type": "uint256"
        }
      ],
      "name": "setLevelupFee",
      "outputs": [],
      "stateMutability": "nonpayable",
      "type": "function"
    },
    {
      "inputs": [
        {
          "internalType": "string",
          "name": "newName",
          "type": "string"
        }
      ],
      "name": "modifyCommanderName",
      "outputs": [],
      "stateMutability": "payable",
      "type": "function"
    },
    {
      "inputs": [
        {
          "internalType": "string",
          "name": "newDna",
          "type": "string"
        }
      ],
      "name": "modifyCommanderDna",
      "outputs": [],
      "stateMutability": "payable",
      "type": "function"
    },
    {
      "inputs": [],
      "name": "getRobotsByOwner",
      "outputs": [
        {
          "internalType": "uint256[]",
          "name": "",
          "type": "uint256[]"
        }
      ],
      "stateMutability": "view",
      "type": "function"
    },
    {
      "inputs": [
        {
          "internalType": "uint256",
          "name": "robotId",
          "type": "uint256"
        },
        {
          "internalType": "string",
          "name": "newName",
          "type": "string"
        }
      ],
      "name": "setRobotName",
      "outputs": [],
      "stateMutability": "payable",
      "type": "function"
    },
    {
      "inputs": [
        {
          "internalType": "uint256",
          "name": "robotId",
          "type": "uint256"
        }
      ],
      "name": "dropRobot",
      "outputs": [],
      "stateMutability": "nonpayable",
      "type": "function"
    }
  ],
  "bytecode": "0x608060405262015180600155600060025566038d7ea4c680006008553480156200002857600080fd5b50336000806101000a81548173ffffffffffffffffffffffffffffffffffffffff021916908373ffffffffffffffffffffffffffffffffffffffff16021790555060008054906101000a900473ffffffffffffffffffffffffffffffffffffffff1673ffffffffffffffffffffffffffffffffffffffff16600073ffffffffffffffffffffffffffffffffffffffff167f8be0079c531659141344cd1fd0a4f28419497f9722a3daafe3b4186f6b6457e060405160405180910390a3600360405180608001604052806040518060400160405280600481526020017f696e69740000000000000000000000000000000000000000000000000000000081525081526020016040518060400160405280600481526020017f696e6974000000000000000000000000000000000000000000000000000000008152508152602001600067ffffffffffffffff168152602001600067ffffffffffffffff1681525090806001815401808255809150506001900390600052602060002090600302016000909190919091506000820151816000019080519060200190620001ce92919062000254565b506020820151816001019080519060200190620001ed92919062000254565b5060408201518160020160006101000a81548167ffffffffffffffff021916908367ffffffffffffffff16021790555060608201518160020160086101000a81548167ffffffffffffffff021916908367ffffffffffffffff160217905550505062000368565b828054620002629062000333565b90600052602060002090601f016020900481019282620002865760008555620002d2565b82601f10620002a157805160ff1916838001178555620002d2565b82800160010185558215620002d2579182015b82811115620002d1578251825591602001919060010190620002b4565b5b509050620002e19190620002e5565b5090565b5b8082111562000300576000816000905550600101620002e6565b5090565b7f4e487b7100000000000000000000000000000000000000000000000000000000600052602260045260246000fd5b600060028204905060018216806200034c57607f821691505b60208210810362000362576200036162000304565b5b50919050565b6125ae80620003786000396000f3fe6080604052600436106100fe5760003560e01c80639949460c11610095578063b060ff1911610064578063b060ff1914610334578063d1763b3a1461034b578063e900574d14610376578063f242da1214610392578063f2fde38b146103bb576100fe565b80639949460c146102835780639b41bb691461029f578063a03937c5146102c8578063a1a4d91c1461030b576100fe565b80637c4213de116100d15780637c4213de146101d45780638da5cb5b146101f05780638f32d59b1461021b5780639403a0ce14610246576100fe565b8063492d8b3d1461010357806365ceceb1146101435780636aa438dc14610180578063715018a6146101bd575b600080fd5b34801561010f57600080fd5b5061012a600480360381019061012591906118b2565b6103e4565b60405161013a949392919061199b565b60405180910390f35b34801561014f57600080fd5b5061016a60048036038101906101659190611a4c565b61055c565b6040516101779190611a88565b60405180910390f35b34801561018c57600080fd5b506101a760048036038101906101a29190611a4c565b610574565b6040516101b49190611a88565b60405180910390f35b3480156101c957600080fd5b506101d261058c565b005b6101ee60048036038101906101e99190611b08565b61065b565b005b3480156101fc57600080fd5b50610205610723565b6040516102129190611b64565b60405180910390f35b34801561022757600080fd5b5061023061074c565b60405161023d9190611b9a565b60405180910390f35b34801561025257600080fd5b5061026d600480360381019061026891906118b2565b6107a3565b60405161027a9190611b64565b60405180910390f35b61029d60048036038101906102989190611b08565b6107d6565b005b3480156102ab57600080fd5b506102c660048036038101906102c191906118b2565b61089e565b005b3480156102d457600080fd5b506102ef60048036038101906102ea91906118b2565b610a0f565b6040516103029796959493929190611bf0565b60405180910390f35b34801561031757600080fd5b50610332600480360381019061032d9190611b08565b610b9b565b005b34801561034057600080fd5b50610349610e49565b005b34801561035757600080fd5b50610360610f56565b60405161036d9190611d2b565b60405180910390f35b610390600480360381019061038b9190611d4d565b6110a6565b005b34801561039e57600080fd5b506103b960048036038101906103b491906118b2565b611284565b005b3480156103c757600080fd5b506103e260048036038101906103dd9190611a4c565b61129f565b005b600381815481106103f457600080fd5b906000526020600020906003020160009150905080600001805461041790611ddc565b80601f016020809104026020016040519081016040528092919081815260200182805461044390611ddc565b80156104905780601f1061046557610100808354040283529160200191610490565b820191906000526020600020905b81548152906001019060200180831161047357829003601f168201915b5050505050908060010180546104a590611ddc565b80601f01602080910402602001604051908101604052809291908181526020018280546104d190611ddc565b801561051e5780601f106104f35761010080835404028352916020019161051e565b820191906000526020600020905b81548152906001019060200180831161050157829003601f168201915b5050505050908060020160009054906101000a900467ffffffffffffffff16908060020160089054906101000a900467ffffffffffffffff16905084565b60076020528060005260406000206000915090505481565b60056020528060005260406000206000915090505481565b61059461074c565b61059d57600080fd5b600073ffffffffffffffffffffffffffffffffffffffff1660008054906101000a900473ffffffffffffffffffffffffffffffffffffffff1673ffffffffffffffffffffffffffffffffffffffff167f8be0079c531659141344cd1fd0a4f28419497f9722a3daafe3b4186f6b6457e060405160405180910390a360008060006101000a81548173ffffffffffffffffffffffffffffffffffffffff021916908373ffffffffffffffffffffffffffffffffffffffff160217905550565b600854341461069f576040517f08c379a000000000000000000000000000000000000000000000000000000000815260040161069690611e59565b60405180910390fd5b6000600560003373ffffffffffffffffffffffffffffffffffffffff1673ffffffffffffffffffffffffffffffffffffffff1681526020019081526020016000205490506000600382815481106106f9576106f8611e79565b5b90600052602060002090600302019050838382600101919061071c929190611749565b5050505050565b60008060009054906101000a900473ffffffffffffffffffffffffffffffffffffffff16905090565b60008060009054906101000a900473ffffffffffffffffffffffffffffffffffffffff1673ffffffffffffffffffffffffffffffffffffffff163373ffffffffffffffffffffffffffffffffffffffff1614905090565b60066020528060005260406000206000915054906101000a900473ffffffffffffffffffffffffffffffffffffffff1681565b600854341461081a576040517f08c379a000000000000000000000000000000000000000000000000000000000815260040161081190611e59565b60405180910390fd5b6000600560003373ffffffffffffffffffffffffffffffffffffffff1673ffffffffffffffffffffffffffffffffffffffff16815260200190815260200160002054905060006003828154811061087457610873611e79565b5b906000526020600020906003020190508383826000019190610897929190611749565b5050505050565b806006600082815260200190815260200160002060009054906101000a900473ffffffffffffffffffffffffffffffffffffffff1673ffffffffffffffffffffffffffffffffffffffff163373ffffffffffffffffffffffffffffffffffffffff1614610940576040517f08c379a000000000000000000000000000000000000000000000000000000000815260040161093790611ef4565b60405180910390fd5b610948610723565b6006600084815260200190815260200160002060006101000a81548173ffffffffffffffffffffffffffffffffffffffff021916908373ffffffffffffffffffffffffffffffffffffffff1602179055503373ffffffffffffffffffffffffffffffffffffffff167f21a51e05aaba7d9dfc436f444cce7ae7c5080aec1a649777bb7f2561643aaad5600484815481106109e5576109e4611e79565b5b9060005260206000209060050201600001604051610a039190611fa9565b60405180910390a25050565b60048181548110610a1f57600080fd5b9060005260206000209060050201600091509050806000018054610a4290611ddc565b80601f0160208091040260200160405190810160405280929190818152602001828054610a6e90611ddc565b8015610abb5780601f10610a9057610100808354040283529160200191610abb565b820191906000526020600020905b815481529060010190602001808311610a9e57829003601f168201915b505050505090806001018054610ad090611ddc565b80601f0160208091040260200160405190810160405280929190818152602001828054610afc90611ddc565b8015610b495780601f10610b1e57610100808354040283529160200191610b49565b820191906000526020600020905b815481529060010190602001808311610b2c57829003601f168201915b5050505050908060020160009054906101000a900460ff16908060020160019054906101000a900460ff16908060020160029054906101000a900463ffffffff16908060030154908060040154905087565b6000600560003373ffffffffffffffffffffffffffffffffffffffff1673ffffffffffffffffffffffffffffffffffffffff1681526020019081526020016000205414610c1d576040517f08c379a0000000000000000000000000000000000000000000000000000000008152600401610c1490612017565b60405180910390fd5b60006040518060400160405280600c81526020017f72616e646f6d537472696e67000000000000000000000000000000000000000081525090506003604051806080016040528085858080601f016020809104026020016040519081016040528093929190818152602001838380828437600081840152601f19601f8201169050808301925050505050505081526020018381526020014267ffffffffffffffff1681526020014267ffffffffffffffff1681525090806001815401808255809150506001900390600052602060002090600302016000909190919091506000820151816000019080519060200190610d179291906117cf565b506020820151816001019080519060200190610d349291906117cf565b5060408201518160020160006101000a81548167ffffffffffffffff021916908367ffffffffffffffff16021790555060608201518160020160086101000a81548167ffffffffffffffff021916908367ffffffffffffffff160217905550505060006001600380549050610da99190612066565b905080600560003373ffffffffffffffffffffffffffffffffffffffff1673ffffffffffffffffffffffffffffffffffffffff168152602001908152602001600020819055503373ffffffffffffffffffffffffffffffffffffffff167f0ba589754bdc7c1e308a8ce3362a7b42600571fdd695534edd1e0182e187149f82868686604051610e3b94939291906120d6565b60405180910390a250505050565b60006003600560003373ffffffffffffffffffffffffffffffffffffffff1673ffffffffffffffffffffffffffffffffffffffff1681526020019081526020016000205481548110610e9e57610e9d611e79565b5b90600052602060002090600302019050428160020160009054906101000a900467ffffffffffffffff1667ffffffffffffffff161115610f13576040517f08c379a0000000000000000000000000000000000000000000000000000000008152600401610f0a9061218f565b60405180910390fd5b610f1b6112bc565b60015442610f2991906121af565b8160020160006101000a81548167ffffffffffffffff021916908367ffffffffffffffff16021790555050565b60606000600760003373ffffffffffffffffffffffffffffffffffffffff1673ffffffffffffffffffffffffffffffffffffffff1681526020019081526020016000205467ffffffffffffffff811115610fb357610fb2612205565b5b604051908082528060200260200182016040528015610fe15781602001602082028036833780820191505090505b5090506000805b60048054905081101561109d573373ffffffffffffffffffffffffffffffffffffffff166006600083815260200190815260200160002060009054906101000a900473ffffffffffffffffffffffffffffffffffffffff1673ffffffffffffffffffffffffffffffffffffffff160361108a578083838151811061106f5761106e611e79565b5b602002602001018181525050818061108690612234565b9250505b808061109590612234565b915050610fe8565b50819250505090565b826006600082815260200190815260200160002060009054906101000a900473ffffffffffffffffffffffffffffffffffffffff1673ffffffffffffffffffffffffffffffffffffffff163373ffffffffffffffffffffffffffffffffffffffff1614611148576040517f08c379a000000000000000000000000000000000000000000000000000000000815260040161113f90611ef4565b60405180910390fd5b604051602001611157906122c8565b604051602081830303815290604052805190602001206004858154811061118157611180611e79565b5b90600052602060002090600502016000016040516020016111a29190611fa9565b6040516020818303038152906040528051906020012014611202576008543414611201576040517f08c379a00000000000000000000000000000000000000000000000000000000081526004016111f890611e59565b60405180910390fd5b5b6014838390501115611249576040517f08c379a00000000000000000000000000000000000000000000000000000000081526004016112409061235a565b60405180910390fd5b82826004868154811061125f5761125e611e79565b5b9060005260206000209060050201600001919061127d929190611749565b5050505050565b61128c61074c565b61129557600080fd5b8060088190555050565b6112a761074c565b6112b057600080fd5b6112b9816115f7565b50565b6064600760003373ffffffffffffffffffffffffffffffffffffffff1673ffffffffffffffffffffffffffffffffffffffff16815260200190815260200160002054111561133f576040517f08c379a0000000000000000000000000000000000000000000000000000000008152600401611336906123c6565b60405180910390fd5b600061134b60026116ed565b905060006040518060400160405280600c81526020017f72616e646f6d537472696e670000000000000000000000000000000000000000815250905060046040518060e001604052806040518060400160405280600681526020017f6e6f4e616d65000000000000000000000000000000000000000000000000000081525081526020018381526020018460ff168152602001600060ff168152602001600063ffffffff168152602001600081526020016000815250908060018154018082558091505060019003906000526020600020906005020160009091909190915060008201518160000190805190602001906114469291906117cf565b5060208201518160010190805190602001906114639291906117cf565b5060408201518160020160006101000a81548160ff021916908360ff16021790555060608201518160020160016101000a81548160ff021916908360ff16021790555060808201518160020160026101000a81548163ffffffff021916908363ffffffff16021790555060a0820151816003015560c082015181600401555050600060016004805490506114f79190612066565b9050336006600083815260200190815260200160002060006101000a81548173ffffffffffffffffffffffffffffffffffffffff021916908373ffffffffffffffffffffffffffffffffffffffff160217905550600760003373ffffffffffffffffffffffffffffffffffffffff1673ffffffffffffffffffffffffffffffffffffffff168152602001908152602001600020600081548092919061159b90612234565b91905055503373ffffffffffffffffffffffffffffffffffffffff167fe4bc06e69dd7a0f1bc9ef5db431d371f0cab41d8156a6012711823b90466715b8284866040516115ea93929190612421565b60405180910390a2505050565b600073ffffffffffffffffffffffffffffffffffffffff168173ffffffffffffffffffffffffffffffffffffffff160361163057600080fd5b8073ffffffffffffffffffffffffffffffffffffffff1660008054906101000a900473ffffffffffffffffffffffffffffffffffffffff1673ffffffffffffffffffffffffffffffffffffffff167f8be0079c531659141344cd1fd0a4f28419497f9722a3daafe3b4186f6b6457e060405160405180910390a3806000806101000a81548173ffffffffffffffffffffffffffffffffffffffff021916908373ffffffffffffffffffffffffffffffffffffffff16021790555050565b60006002600081548092919061170290612234565b919050555081423360025460405160200161171f939291906124db565b6040516020818303038152906040528051906020012060001c6117429190612547565b9050919050565b82805461175590611ddc565b90600052602060002090601f01602090048101928261177757600085556117be565b82601f1061179057803560ff19168380011785556117be565b828001600101855582156117be579182015b828111156117bd5782358255916020019190600101906117a2565b5b5090506117cb9190611855565b5090565b8280546117db90611ddc565b90600052602060002090601f0160209004810192826117fd5760008555611844565b82601f1061181657805160ff1916838001178555611844565b82800160010185558215611844579182015b82811115611843578251825591602001919060010190611828565b5b5090506118519190611855565b5090565b5b8082111561186e576000816000905550600101611856565b5090565b600080fd5b600080fd5b6000819050919050565b61188f8161187c565b811461189a57600080fd5b50565b6000813590506118ac81611886565b92915050565b6000602082840312156118c8576118c7611872565b5b60006118d68482850161189d565b91505092915050565b600081519050919050565b600082825260208201905092915050565b60005b838110156119195780820151818401526020810190506118fe565b83811115611928576000848401525b50505050565b6000601f19601f8301169050919050565b600061194a826118df565b61195481856118ea565b93506119648185602086016118fb565b61196d8161192e565b840191505092915050565b600067ffffffffffffffff82169050919050565b61199581611978565b82525050565b600060808201905081810360008301526119b5818761193f565b905081810360208301526119c9818661193f565b90506119d8604083018561198c565b6119e5606083018461198c565b95945050505050565b600073ffffffffffffffffffffffffffffffffffffffff82169050919050565b6000611a19826119ee565b9050919050565b611a2981611a0e565b8114611a3457600080fd5b50565b600081359050611a4681611a20565b92915050565b600060208284031215611a6257611a61611872565b5b6000611a7084828501611a37565b91505092915050565b611a828161187c565b82525050565b6000602082019050611a9d6000830184611a79565b92915050565b600080fd5b600080fd5b600080fd5b60008083601f840112611ac857611ac7611aa3565b5b8235905067ffffffffffffffff811115611ae557611ae4611aa8565b5b602083019150836001820283011115611b0157611b00611aad565b5b9250929050565b60008060208385031215611b1f57611b1e611872565b5b600083013567ffffffffffffffff811115611b3d57611b3c611877565b5b611b4985828601611ab2565b92509250509250929050565b611b5e81611a0e565b82525050565b6000602082019050611b796000830184611b55565b92915050565b60008115159050919050565b611b9481611b7f565b82525050565b6000602082019050611baf6000830184611b8b565b92915050565b600060ff82169050919050565b611bcb81611bb5565b82525050565b600063ffffffff82169050919050565b611bea81611bd1565b82525050565b600060e0820190508181036000830152611c0a818a61193f565b90508181036020830152611c1e818961193f565b9050611c2d6040830188611bc2565b611c3a6060830187611bc2565b611c476080830186611be1565b611c5460a0830185611a79565b611c6160c0830184611a79565b98975050505050505050565b600081519050919050565b600082825260208201905092915050565b6000819050602082019050919050565b611ca28161187c565b82525050565b6000611cb48383611c99565b60208301905092915050565b6000602082019050919050565b6000611cd882611c6d565b611ce28185611c78565b9350611ced83611c89565b8060005b83811015611d1e578151611d058882611ca8565b9750611d1083611cc0565b925050600181019050611cf1565b5085935050505092915050565b60006020820190508181036000830152611d458184611ccd565b905092915050565b600080600060408486031215611d6657611d65611872565b5b6000611d748682870161189d565b935050602084013567ffffffffffffffff811115611d9557611d94611877565b5b611da186828701611ab2565b92509250509250925092565b7f4e487b7100000000000000000000000000000000000000000000000000000000600052602260045260246000fd5b60006002820490506001821680611df457607f821691505b602082108103611e0757611e06611dad565b5b50919050565b7f506c656173652070617920656e6f7567682065746865722e0000000000000000600082015250565b6000611e436018836118ea565b9150611e4e82611e0d565b602082019050919050565b60006020820190508181036000830152611e7281611e36565b9050919050565b7f4e487b7100000000000000000000000000000000000000000000000000000000600052603260045260246000fd5b7f4e6f7420796f757220726f626f742e0000000000000000000000000000000000600082015250565b6000611ede600f836118ea565b9150611ee982611ea8565b602082019050919050565b60006020820190508181036000830152611f0d81611ed1565b9050919050565b60008190508160005260206000209050919050565b60008154611f3681611ddc565b611f4081866118ea565b94506001821660008114611f5b5760018114611f6d57611fa0565b60ff1983168652602086019350611fa0565b611f7685611f14565b60005b83811015611f9857815481890152600182019150602081019050611f79565b808801955050505b50505092915050565b60006020820190508181036000830152611fc38184611f29565b905092915050565b7f596f757220636f6d6d616e64657220616c726561647920657869737465642e00600082015250565b6000612001601f836118ea565b915061200c82611fcb565b602082019050919050565b6000602082019050818103600083015261203081611ff4565b9050919050565b7f4e487b7100000000000000000000000000000000000000000000000000000000600052601160045260246000fd5b60006120718261187c565b915061207c8361187c565b92508282101561208f5761208e612037565b5b828203905092915050565b82818337600083830152505050565b60006120b583856118ea565b93506120c283858461209a565b6120cb8361192e565b840190509392505050565b60006060820190506120eb6000830187611a79565b81810360208301526120fe8185876120a9565b90508181036040830152612112818461193f565b905095945050505050565b7f4c657373207468616e206f6e65206461792073696e6365206c6173742074696d60008201527f6520796f75206765742061206672656520726f626f742e000000000000000000602082015250565b60006121796037836118ea565b91506121848261211d565b604082019050919050565b600060208201905081810360008301526121a88161216c565b9050919050565b60006121ba8261187c565b91506121c58361187c565b9250827fffffffffffffffffffffffffffffffffffffffffffffffffffffffffffffffff038211156121fa576121f9612037565b5b828201905092915050565b7f4e487b7100000000000000000000000000000000000000000000000000000000600052604160045260246000fd5b600061223f8261187c565b91507fffffffffffffffffffffffffffffffffffffffffffffffffffffffffffffffff820361227157612270612037565b5b600182019050919050565b7f6e6f4e616d650000000000000000000000000000000000000000000000000000600082015250565b60006122b26006836118ea565b91506122bd8261227c565b602082019050919050565b600060208201905081810360008301526122e1816122a5565b9050919050565b7f526f626f74206e616d652063616e6e6f7420657863656564203230206368617260008201527f6163746572732e00000000000000000000000000000000000000000000000000602082015250565b60006123446027836118ea565b915061234f826122e8565b604082019050919050565b6000602082019050818103600083015261237381612337565b9050919050565b7f596f7572207265706f2069732066756c6c2e0000000000000000000000000000600082015250565b60006123b06012836118ea565b91506123bb8261237a565b602082019050919050565b600060208201905081810360008301526123df816123a3565b9050919050565b6000819050919050565b600061240b61240661240184611bb5565b6123e6565b61187c565b9050919050565b61241b816123f0565b82525050565b60006080820190506124366000830186611a79565b8181036020830152612447816122a5565b9050818103604083015261245b818561193f565b905061246a6060830184612412565b949350505050565b6000819050919050565b61248d6124888261187c565b612472565b82525050565b60008160601b9050919050565b60006124ab82612493565b9050919050565b60006124bd826124a0565b9050919050565b6124d56124d082611a0e565b6124b2565b82525050565b60006124e7828661247c565b6020820191506124f782856124c4565b601482019150612507828461247c565b602082019150819050949350505050565b7f4e487b7100000000000000000000000000000000000000000000000000000000600052601260045260246000fd5b60006125528261187c565b915061255d8361187c565b92508261256d5761256c612518565b5b82820690509291505056fea26469706673582212206a4e783d0de8144d9f194b9a35b7222a30e7a8a3c195782d054080bce015c14e64736f6c634300080d0033",
  "immutableReferences": {},
  "source": "// SPDX-License-Identifier: MIT \npragma solidity ^0.8.13;\n\nimport \"./Basic.sol\";\n\n//\ncontract RobotManage is Basic {\n\n    uint commonFee = 0.001 ether;\n\n    function setLevelupFee(uint fee) external onlyOwner {\n        commonFee = fee;\n    }\n\n    event DropRobot(string name, address indexed owner);\n\n    //commander\n    function modifyCommanderName(string calldata newName) public payable {\n\n        require(msg.value == commonFee, \"Please pay enough ether.\");\n\n        uint curCommanderIndex = ownerToCommander[msg.sender];\n        Commander storage curCommander = commanders[curCommanderIndex]; \n        curCommander.name = newName;\n    }\n\n    //commanderdna\n    function modifyCommanderDna(string calldata newDna) public payable {\n\n        require(msg.value == commonFee, \"Please pay enough ether.\");\n\n        uint curCommanderIndex = ownerToCommander[msg.sender];\n        Commander storage curCommander = commanders[curCommanderIndex]; \n        curCommander.dna = newDna;\n    }\n\n    //\n    function getRobotsByOwner() external view returns(uint[] memory) {\n        uint[] memory result = new uint[](ownerRobotCount[msg.sender]);\n        uint counter = 0;\n        for (uint i = 0; i < robots.length; i++) {\n            if (robotToOwner[i] == msg.sender) {\n                result[counter] = i;\n                counter++;\n            }\n        }\n        return result;\n    }\n\n    //\n    function setRobotName(uint robotId, string calldata newName) external payable ownerOfRobot(robotId) {\n        //\n        if (keccak256(abi.encode(robots[robotId].name)) != keccak256(abi.encode(\"noName\"))) {\n            require(msg.value == commonFee, \"Please pay enough ether.\");\n        }\n        require(bytes(newName).length <= 20, \"Robot name cannot exceed 20 characters.\");\n        robots[robotId].name = newName;\n    }\n\n    //\n    function dropRobot(uint robotId) public ownerOfRobot(robotId) {\n        robotToOwner[robotId] = owner();\n        emit DropRobot(robots[robotId].name, msg.sender);\n    }\n}",
  "sourcePath": "/Users/liqinghao/Desktop/RoboHashWeb3/contracts/robotgame/RobotManage.sol",
  "compiler": {
    "name": "solc",
    "version": "0.8.13+commit.abaa5c0e.Emscripten.clang"
  },
  "schemaVersion": "3.4.16",
  "updatedAt": "2023-11-07T01:29:54.087Z",
  "devdoc": {
    "kind": "dev",
    "methods": {
      "isOwner()": {
        "returns": {
          "_0": "true if `msg.sender` is the owner of the contract."
        }
      },
      "owner()": {
        "returns": {
          "_0": "the address of the owner."
        }
      },
      "renounceOwnership()": {
        "details": "Allows the current owner to relinquish control of the contract."
      },
      "transferOwnership(address)": {
        "details": "Allows the current owner to transfer control of the contract to a newOwner.",
        "params": {
          "newOwner": "The address to transfer ownership to."
        }
      }
    },
    "version": 1
  },
  "userdoc": {
    "kind": "user",
    "methods": {
      "renounceOwnership()": {
        "notice": "Renouncing to ownership will leave the contract without an owner. It will not be possible to call the functions with the `onlyOwner` modifier anymore."
      }
    },
    "version": 1
  }
}