{
  "contractName": "RobotManage",
  "abi": [
    {
      "anonymous": false,
      "inputs": [
        {
          "indexed": false,
          "internalType": "string",
          "name": "name",
          "type": "string"
        },
        {
          "indexed": true,
          "internalType": "address",
          "name": "owner",
          "type": "address"
        }
      ],
      "name": "DropRobot",
      "type": "event"
    },
    {
      "anonymous": false,
      "inputs": [
        {
          "indexed": false,
          "internalType": "uint256",
          "name": "index",
          "type": "uint256"
        },
        {
          "indexed": false,
          "internalType": "string",
          "name": "name",
          "type": "string"
        },
        {
          "indexed": false,
          "internalType": "string",
          "name": "dna",
          "type": "string"
        },
        {
          "indexed": true,
          "internalType": "address",
          "name": "owner",
          "type": "address"
        }
      ],
      "name": "NewCommander",
      "type": "event"
    },
    {
      "anonymous": false,
      "inputs": [
        {
          "indexed": false,
          "internalType": "uint256",
          "name": "index",
          "type": "uint256"
        },
        {
          "indexed": false,
          "internalType": "string",
          "name": "name",
          "type": "string"
        },
        {
          "indexed": false,
          "internalType": "string",
          "name": "dna",
          "type": "string"
        },
        {
          "indexed": false,
          "internalType": "uint256",
          "name": "spieces",
          "type": "uint256"
        },
        {
          "indexed": true,
          "internalType": "address",
          "name": "owner",
          "type": "address"
        }
      ],
      "name": "NewRobot",
      "type": "event"
    },
    {
      "anonymous": false,
      "inputs": [
        {
          "indexed": true,
          "internalType": "address",
          "name": "previousOwner",
          "type": "address"
        },
        {
          "indexed": true,
          "internalType": "address",
          "name": "newOwner",
          "type": "address"
        }
      ],
      "name": "OwnershipTransferred",
      "type": "event"
    },
    {
      "inputs": [
        {
          "internalType": "string",
          "name": "name",
          "type": "string"
        }
      ],
      "name": "CreateCommander",
      "outputs": [],
      "stateMutability": "nonpayable",
      "type": "function"
    },
    {
      "inputs": [
        {
          "internalType": "uint256",
          "name": "",
          "type": "uint256"
        }
      ],
      "name": "commanders",
      "outputs": [
        {
          "internalType": "string",
          "name": "name",
          "type": "string"
        },
        {
          "internalType": "string",
          "name": "dna",
          "type": "string"
        },
        {
          "internalType": "uint64",
          "name": "getFreeRobotReadyTime",
          "type": "uint64"
        },
        {
          "internalType": "uint64",
          "name": "giveStarReadyTime",
          "type": "uint64"
        }
      ],
      "stateMutability": "view",
      "type": "function"
    },
    {
      "inputs": [],
      "name": "getFreeRobot",
      "outputs": [],
      "stateMutability": "nonpayable",
      "type": "function"
    },
    {
      "inputs": [],
      "name": "isOwner",
      "outputs": [
        {
          "internalType": "bool",
          "name": "",
          "type": "bool"
        }
      ],
      "stateMutability": "view",
      "type": "function"
    },
    {
      "inputs": [],
      "name": "owner",
      "outputs": [
        {
          "internalType": "address",
          "name": "",
          "type": "address"
        }
      ],
      "stateMutability": "view",
      "type": "function"
    },
    {
      "inputs": [
        {
          "internalType": "address",
          "name": "",
          "type": "address"
        }
      ],
      "name": "ownerCommanderCount",
      "outputs": [
        {
          "internalType": "uint256",
          "name": "",
          "type": "uint256"
        }
      ],
      "stateMutability": "view",
      "type": "function"
    },
    {
      "inputs": [
        {
          "internalType": "address",
          "name": "",
          "type": "address"
        }
      ],
      "name": "ownerRobotCount",
      "outputs": [
        {
          "internalType": "uint256",
          "name": "",
          "type": "uint256"
        }
      ],
      "stateMutability": "view",
      "type": "function"
    },
    {
      "inputs": [
        {
          "internalType": "address",
          "name": "",
          "type": "address"
        }
      ],
      "name": "ownerToCommander",
      "outputs": [
        {
          "internalType": "uint256",
          "name": "",
          "type": "uint256"
        }
      ],
      "stateMutability": "view",
      "type": "function"
    },
    {
      "inputs": [],
      "name": "renounceOwnership",
      "outputs": [],
      "stateMutability": "nonpayable",
      "type": "function"
    },
    {
      "inputs": [
        {
          "internalType": "uint256",
          "name": "",
          "type": "uint256"
        }
      ],
      "name": "robotToOwner",
      "outputs": [
        {
          "internalType": "address",
          "name": "",
          "type": "address"
        }
      ],
      "stateMutability": "view",
      "type": "function"
    },
    {
      "inputs": [
        {
          "internalType": "uint256",
          "name": "",
          "type": "uint256"
        }
      ],
      "name": "robots",
      "outputs": [
        {
          "internalType": "string",
          "name": "name",
          "type": "string"
        },
        {
          "internalType": "string",
          "name": "dna",
          "type": "string"
        },
        {
          "internalType": "uint8",
          "name": "spieces",
          "type": "uint8"
        },
        {
          "internalType": "uint8",
          "name": "status",
          "type": "uint8"
        },
        {
          "internalType": "uint32",
          "name": "stars",
          "type": "uint32"
        },
        {
          "internalType": "uint256",
          "name": "price",
          "type": "uint256"
        }
      ],
      "stateMutability": "view",
      "type": "function"
    },
    {
      "inputs": [
        {
          "internalType": "address",
          "name": "newOwner",
          "type": "address"
        }
      ],
      "name": "transferOwnership",
      "outputs": [],
      "stateMutability": "nonpayable",
      "type": "function"
    },
    {
      "inputs": [
        {
          "internalType": "uint256",
          "name": "fee",
          "type": "uint256"
        }
      ],
      "name": "setLevelupFee",
      "outputs": [],
      "stateMutability": "nonpayable",
      "type": "function"
    },
    {
      "inputs": [
        {
          "internalType": "string",
          "name": "newName",
          "type": "string"
        }
      ],
      "name": "modifyCommanderName",
      "outputs": [],
      "stateMutability": "payable",
      "type": "function"
    },
    {
      "inputs": [
        {
          "internalType": "string",
          "name": "newDna",
          "type": "string"
        }
      ],
      "name": "modifyCommanderDna",
      "outputs": [],
      "stateMutability": "payable",
      "type": "function"
    },
    {
      "inputs": [],
      "name": "getRobotsByOwner",
      "outputs": [
        {
          "internalType": "uint256[]",
          "name": "",
          "type": "uint256[]"
        }
      ],
      "stateMutability": "view",
      "type": "function"
    },
    {
      "inputs": [
        {
          "internalType": "uint256",
          "name": "robotId",
          "type": "uint256"
        },
        {
          "internalType": "string",
          "name": "newName",
          "type": "string"
        }
      ],
      "name": "setRobotName",
      "outputs": [],
      "stateMutability": "payable",
      "type": "function"
    },
    {
      "inputs": [
        {
          "internalType": "uint256",
          "name": "robotId",
          "type": "uint256"
        }
      ],
      "name": "dropRobot",
      "outputs": [],
      "stateMutability": "nonpayable",
      "type": "function"
    }
  ],
  "bytecode": "0x6080604052620151805f60146101000a81548167ffffffffffffffff021916908367ffffffffffffffff1602179055505f60015566038d7ea4c68000600855348015610049575f80fd5b50335f806101000a81548173ffffffffffffffffffffffffffffffffffffffff021916908373ffffffffffffffffffffffffffffffffffffffff1602179055505f8054906101000a900473ffffffffffffffffffffffffffffffffffffffff1673ffffffffffffffffffffffffffffffffffffffff165f73ffffffffffffffffffffffffffffffffffffffff167f8be0079c531659141344cd1fd0a4f28419497f9722a3daafe3b4186f6b6457e060405160405180910390a36126768061010f5f395ff3fe608060405260043610610108575f3560e01c80639949460c11610094578063b060ff1911610063578063b060ff191461036e578063d1763b3a14610384578063e900574d146103ae578063f242da12146103ca578063f2fde38b146103f257610108565b80639949460c146102c15780639b41bb69146102dd578063a03937c514610305578063a1a4d91c1461034657610108565b8063715018a6116100db578063715018a6146101ff5780637c4213de146102155780638da5cb5b146102315780638f32d59b1461025b5780639403a0ce1461028557610108565b80632ff1e2441461010c578063492d8b3d1461014857806365ceceb1146101875780636aa438dc146101c3575b5f80fd5b348015610117575f80fd5b50610132600480360381019061012d9190611732565b61041a565b60405161013f9190611775565b60405180910390f35b348015610153575f80fd5b5061016e600480360381019061016991906117b8565b61042f565b60405161017e949392919061188f565b60405180910390f35b348015610192575f80fd5b506101ad60048036038101906101a89190611732565b61059d565b6040516101ba9190611775565b60405180910390f35b3480156101ce575f80fd5b506101e960048036038101906101e49190611732565b6105b2565b6040516101f69190611775565b60405180910390f35b34801561020a575f80fd5b506102136105c7565b005b61022f600480360381019061022a9190611941565b610691565b005b34801561023c575f80fd5b50610245610758565b604051610252919061199b565b60405180910390f35b348015610266575f80fd5b5061026f61077f565b60405161027c91906119ce565b60405180910390f35b348015610290575f80fd5b506102ab60048036038101906102a691906117b8565b6107d4565b6040516102b8919061199b565b60405180910390f35b6102db60048036038101906102d69190611941565b610804565b005b3480156102e8575f80fd5b5061030360048036038101906102fe91906117b8565b6108ca565b005b348015610310575f80fd5b5061032b600480360381019061032691906117b8565b610a32565b60405161033d96959493929190611a20565b60405180910390f35b348015610351575f80fd5b5061036c60048036038101906103679190611941565b610bae565b005b348015610379575f80fd5b50610382610e83565b005b34801561038f575f80fd5b50610398610f9c565b6040516103a59190611b44565b60405180910390f35b6103c860048036038101906103c39190611b64565b6110e5565b005b3480156103d5575f80fd5b506103f060048036038101906103eb91906117b8565b611247565b005b3480156103fd575f80fd5b5061041860048036038101906104139190611732565b611261565b005b6005602052805f5260405f205f915090505481565b6002818154811061043e575f80fd5b905f5260205f2090600302015f91509050805f01805461045d90611bee565b80601f016020809104026020016040519081016040528092919081815260200182805461048990611bee565b80156104d45780601f106104ab576101008083540402835291602001916104d4565b820191905f5260205f20905b8154815290600101906020018083116104b757829003601f168201915b5050505050908060010180546104e990611bee565b80601f016020809104026020016040519081016040528092919081815260200182805461051590611bee565b80156105605780601f1061053757610100808354040283529160200191610560565b820191905f5260205f20905b81548152906001019060200180831161054357829003601f168201915b505050505090806002015f9054906101000a900467ffffffffffffffff16908060020160089054906101000a900467ffffffffffffffff16905084565b6007602052805f5260405f205f915090505481565b6004602052805f5260405f205f915090505481565b6105cf61077f565b6105d7575f80fd5b5f73ffffffffffffffffffffffffffffffffffffffff165f8054906101000a900473ffffffffffffffffffffffffffffffffffffffff1673ffffffffffffffffffffffffffffffffffffffff167f8be0079c531659141344cd1fd0a4f28419497f9722a3daafe3b4186f6b6457e060405160405180910390a35f805f6101000a81548173ffffffffffffffffffffffffffffffffffffffff021916908373ffffffffffffffffffffffffffffffffffffffff160217905550565b60085434146106d5576040517f08c379a00000000000000000000000000000000000000000000000000000000081526004016106cc90611c68565b60405180910390fd5b5f3390505f60045f8373ffffffffffffffffffffffffffffffffffffffff1673ffffffffffffffffffffffffffffffffffffffff1681526020019081526020015f205490505f6002828154811061072f5761072e611c86565b5b905f5260205f20906003020190508484826001019182610750929190611e87565b505050505050565b5f805f9054906101000a900473ffffffffffffffffffffffffffffffffffffffff16905090565b5f805f9054906101000a900473ffffffffffffffffffffffffffffffffffffffff1673ffffffffffffffffffffffffffffffffffffffff163373ffffffffffffffffffffffffffffffffffffffff1614905090565b6006602052805f5260405f205f915054906101000a900473ffffffffffffffffffffffffffffffffffffffff1681565b6008543414610848576040517f08c379a000000000000000000000000000000000000000000000000000000000815260040161083f90611c68565b60405180910390fd5b5f3390505f60045f8373ffffffffffffffffffffffffffffffffffffffff1673ffffffffffffffffffffffffffffffffffffffff1681526020019081526020015f205490505f600282815481106108a2576108a1611c86565b5b905f5260205f20906003020190508484825f0191826108c2929190611e87565b505050505050565b8060065f8281526020019081526020015f205f9054906101000a900473ffffffffffffffffffffffffffffffffffffffff1673ffffffffffffffffffffffffffffffffffffffff163373ffffffffffffffffffffffffffffffffffffffff1614610969576040517f08c379a000000000000000000000000000000000000000000000000000000000815260040161096090611f9e565b60405180910390fd5b610971610758565b60065f8481526020019081526020015f205f6101000a81548173ffffffffffffffffffffffffffffffffffffffff021916908373ffffffffffffffffffffffffffffffffffffffff1602179055503373ffffffffffffffffffffffffffffffffffffffff167f21a51e05aaba7d9dfc436f444cce7ae7c5080aec1a649777bb7f2561643aaad560038481548110610a0b57610a0a611c86565b5b905f5260205f2090600402015f01604051610a26919061203d565b60405180910390a25050565b60038181548110610a41575f80fd5b905f5260205f2090600402015f91509050805f018054610a6090611bee565b80601f0160208091040260200160405190810160405280929190818152602001828054610a8c90611bee565b8015610ad75780601f10610aae57610100808354040283529160200191610ad7565b820191905f5260205f20905b815481529060010190602001808311610aba57829003601f168201915b505050505090806001018054610aec90611bee565b80601f0160208091040260200160405190810160405280929190818152602001828054610b1890611bee565b8015610b635780601f10610b3a57610100808354040283529160200191610b63565b820191905f5260205f20905b815481529060010190602001808311610b4657829003601f168201915b505050505090806002015f9054906101000a900460ff16908060020160019054906101000a900460ff16908060020160029054906101000a900463ffffffff16908060030154905086565b5f60055f3373ffffffffffffffffffffffffffffffffffffffff1673ffffffffffffffffffffffffffffffffffffffff1681526020019081526020015f205414610c2d576040517f08c379a0000000000000000000000000000000000000000000000000000000008152600401610c24906120a7565b60405180910390fd5b5f6040518060400160405280600c81526020017f72616e646f6d537472696e67000000000000000000000000000000000000000081525090506002604051806080016040528085858080601f0160208091040260200160405190810160405280939291908181526020018383808284375f81840152601f19601f8201169050808301925050505050505081526020018381526020014267ffffffffffffffff1681526020014267ffffffffffffffff16815250908060018154018082558091505060019003905f5260205f2090600302015f909190919091505f820151815f019081610d1991906120c5565b506020820151816001019081610d2f91906120c5565b506040820151816002015f6101000a81548167ffffffffffffffff021916908367ffffffffffffffff16021790555060608201518160020160086101000a81548167ffffffffffffffff021916908367ffffffffffffffff16021790555050505f6001600280549050610da291906121c1565b90508060045f3373ffffffffffffffffffffffffffffffffffffffff1673ffffffffffffffffffffffffffffffffffffffff1681526020019081526020015f2081905550600160055f3373ffffffffffffffffffffffffffffffffffffffff1673ffffffffffffffffffffffffffffffffffffffff1681526020019081526020015f20819055503373ffffffffffffffffffffffffffffffffffffffff167f0ba589754bdc7c1e308a8ce3362a7b42600571fdd695534edd1e0182e187149f82868686604051610e75949392919061222e565b60405180910390a250505050565b5f600260045f3373ffffffffffffffffffffffffffffffffffffffff1673ffffffffffffffffffffffffffffffffffffffff1681526020019081526020015f205481548110610ed557610ed4611c86565b5b905f5260205f209060030201905042816002015f9054906101000a900467ffffffffffffffff1667ffffffffffffffff161115610f47576040517f08c379a0000000000000000000000000000000000000000000000000000000008152600401610f3e906122e3565b60405180910390fd5b610f4f61127d565b5f60149054906101000a900467ffffffffffffffff1642610f709190612301565b816002015f6101000a81548167ffffffffffffffff021916908367ffffffffffffffff16021790555050565b60605f60075f3373ffffffffffffffffffffffffffffffffffffffff1673ffffffffffffffffffffffffffffffffffffffff1681526020019081526020015f205467ffffffffffffffff811115610ff657610ff5611cbd565b5b6040519080825280602002602001820160405280156110245781602001602082028036833780820191505090505b5090505f805b6003805490508110156110dc573373ffffffffffffffffffffffffffffffffffffffff1660065f8381526020019081526020015f205f9054906101000a900473ffffffffffffffffffffffffffffffffffffffff1673ffffffffffffffffffffffffffffffffffffffff16036110c957808383815181106110ae576110ad611c86565b5b60200260200101818152505081806110c59061233c565b9250505b80806110d49061233c565b91505061102a565b50819250505090565b8260065f8281526020019081526020015f205f9054906101000a900473ffffffffffffffffffffffffffffffffffffffff1673ffffffffffffffffffffffffffffffffffffffff163373ffffffffffffffffffffffffffffffffffffffff1614611184576040517f08c379a000000000000000000000000000000000000000000000000000000000815260040161117b90611f9e565b60405180910390fd5b60085434146111c8576040517f08c379a00000000000000000000000000000000000000000000000000000000081526004016111bf90611c68565b60405180910390fd5b601483839050111561120f576040517f08c379a0000000000000000000000000000000000000000000000000000000008152600401611206906123f3565b60405180910390fd5b82826003868154811061122557611224611c86565b5b905f5260205f2090600402015f019182611240929190611e87565b5050505050565b61124f61077f565b611257575f80fd5b8060088190555050565b61126961077f565b611271575f80fd5b61127a81611585565b50565b606460075f3373ffffffffffffffffffffffffffffffffffffffff1673ffffffffffffffffffffffffffffffffffffffff1681526020019081526020015f205411156112fe576040517f08c379a00000000000000000000000000000000000000000000000000000000081526004016112f59061245b565b60405180910390fd5b5f6113096002611677565b90505f6040518060400160405280600c81526020017f72616e646f6d537472696e670000000000000000000000000000000000000000815250905060036040518060c001604052806040518060400160405280600681526020017f6e6f4e616d65000000000000000000000000000000000000000000000000000081525081526020018381526020018460ff1681526020015f60ff1681526020015f63ffffffff1681526020015f815250908060018154018082558091505060019003905f5260205f2090600402015f909190919091505f820151815f0190816113ed91906120c5565b50602082015181600101908161140391906120c5565b506040820151816002015f6101000a81548160ff021916908360ff16021790555060608201518160020160016101000a81548160ff021916908360ff16021790555060808201518160020160026101000a81548163ffffffff021916908363ffffffff16021790555060a0820151816003015550505f600160038054905061148b91906121c1565b90503360065f8381526020019081526020015f205f6101000a81548173ffffffffffffffffffffffffffffffffffffffff021916908373ffffffffffffffffffffffffffffffffffffffff16021790555060075f3373ffffffffffffffffffffffffffffffffffffffff1673ffffffffffffffffffffffffffffffffffffffff1681526020019081526020015f205f8154809291906115299061233c565b91905055503373ffffffffffffffffffffffffffffffffffffffff167fe4bc06e69dd7a0f1bc9ef5db431d371f0cab41d8156a6012711823b90466715b828486604051611578939291906124f3565b60405180910390a2505050565b5f73ffffffffffffffffffffffffffffffffffffffff168173ffffffffffffffffffffffffffffffffffffffff16036115bc575f80fd5b8073ffffffffffffffffffffffffffffffffffffffff165f8054906101000a900473ffffffffffffffffffffffffffffffffffffffff1673ffffffffffffffffffffffffffffffffffffffff167f8be0079c531659141344cd1fd0a4f28419497f9722a3daafe3b4186f6b6457e060405160405180910390a3805f806101000a81548173ffffffffffffffffffffffffffffffffffffffff021916908373ffffffffffffffffffffffffffffffffffffffff16021790555050565b5f60015f81548092919061168a9061233c565b91905055508142336001546040516020016116a7939291906125a7565b604051602081830303815290604052805190602001205f1c6116c99190612610565b9050919050565b5f80fd5b5f80fd5b5f73ffffffffffffffffffffffffffffffffffffffff82169050919050565b5f611701826116d8565b9050919050565b611711816116f7565b811461171b575f80fd5b50565b5f8135905061172c81611708565b92915050565b5f60208284031215611747576117466116d0565b5b5f6117548482850161171e565b91505092915050565b5f819050919050565b61176f8161175d565b82525050565b5f6020820190506117885f830184611766565b92915050565b6117978161175d565b81146117a1575f80fd5b50565b5f813590506117b28161178e565b92915050565b5f602082840312156117cd576117cc6116d0565b5b5f6117da848285016117a4565b91505092915050565b5f81519050919050565b5f82825260208201905092915050565b5f5b8381101561181a5780820151818401526020810190506117ff565b5f8484015250505050565b5f601f19601f8301169050919050565b5f61183f826117e3565b61184981856117ed565b93506118598185602086016117fd565b61186281611825565b840191505092915050565b5f67ffffffffffffffff82169050919050565b6118898161186d565b82525050565b5f6080820190508181035f8301526118a78187611835565b905081810360208301526118bb8186611835565b90506118ca6040830185611880565b6118d76060830184611880565b95945050505050565b5f80fd5b5f80fd5b5f80fd5b5f8083601f840112611901576119006118e0565b5b8235905067ffffffffffffffff81111561191e5761191d6118e4565b5b60208301915083600182028301111561193a576119396118e8565b5b9250929050565b5f8060208385031215611957576119566116d0565b5b5f83013567ffffffffffffffff811115611974576119736116d4565b5b611980858286016118ec565b92509250509250929050565b611995816116f7565b82525050565b5f6020820190506119ae5f83018461198c565b92915050565b5f8115159050919050565b6119c8816119b4565b82525050565b5f6020820190506119e15f8301846119bf565b92915050565b5f60ff82169050919050565b6119fc816119e7565b82525050565b5f63ffffffff82169050919050565b611a1a81611a02565b82525050565b5f60c0820190508181035f830152611a388189611835565b90508181036020830152611a4c8188611835565b9050611a5b60408301876119f3565b611a6860608301866119f3565b611a756080830185611a11565b611a8260a0830184611766565b979650505050505050565b5f81519050919050565b5f82825260208201905092915050565b5f819050602082019050919050565b611abf8161175d565b82525050565b5f611ad08383611ab6565b60208301905092915050565b5f602082019050919050565b5f611af282611a8d565b611afc8185611a97565b9350611b0783611aa7565b805f5b83811015611b37578151611b1e8882611ac5565b9750611b2983611adc565b925050600181019050611b0a565b5085935050505092915050565b5f6020820190508181035f830152611b5c8184611ae8565b905092915050565b5f805f60408486031215611b7b57611b7a6116d0565b5b5f611b88868287016117a4565b935050602084013567ffffffffffffffff811115611ba957611ba86116d4565b5b611bb5868287016118ec565b92509250509250925092565b7f4e487b71000000000000000000000000000000000000000000000000000000005f52602260045260245ffd5b5f6002820490506001821680611c0557607f821691505b602082108103611c1857611c17611bc1565b5b50919050565b7f506c656173652070617920656e6f7567682065746865722e00000000000000005f82015250565b5f611c526018836117ed565b9150611c5d82611c1e565b602082019050919050565b5f6020820190508181035f830152611c7f81611c46565b9050919050565b7f4e487b71000000000000000000000000000000000000000000000000000000005f52603260045260245ffd5b5f82905092915050565b7f4e487b71000000000000000000000000000000000000000000000000000000005f52604160045260245ffd5b5f819050815f5260205f209050919050565b5f6020601f8301049050919050565b5f82821b905092915050565b5f60088302611d467fffffffffffffffffffffffffffffffffffffffffffffffffffffffffffffffff82611d0b565b611d508683611d0b565b95508019841693508086168417925050509392505050565b5f819050919050565b5f611d8b611d86611d818461175d565b611d68565b61175d565b9050919050565b5f819050919050565b611da483611d71565b611db8611db082611d92565b848454611d17565b825550505050565b5f90565b611dcc611dc0565b611dd7818484611d9b565b505050565b5b81811015611dfa57611def5f82611dc4565b600181019050611ddd565b5050565b601f821115611e3f57611e1081611cea565b611e1984611cfc565b81016020851015611e28578190505b611e3c611e3485611cfc565b830182611ddc565b50505b505050565b5f82821c905092915050565b5f611e5f5f1984600802611e44565b1980831691505092915050565b5f611e778383611e50565b9150826002028217905092915050565b611e918383611cb3565b67ffffffffffffffff811115611eaa57611ea9611cbd565b5b611eb48254611bee565b611ebf828285611dfe565b5f601f831160018114611eec575f8415611eda578287013590505b611ee48582611e6c565b865550611f4b565b601f198416611efa86611cea565b5f5b82811015611f2157848901358255600182019150602085019450602081019050611efc565b86831015611f3e5784890135611f3a601f891682611e50565b8355505b6001600288020188555050505b50505050505050565b7f4e6f7420796f757220726f626f742e00000000000000000000000000000000005f82015250565b5f611f88600f836117ed565b9150611f9382611f54565b602082019050919050565b5f6020820190508181035f830152611fb581611f7c565b9050919050565b5f8154611fc881611bee565b611fd281866117ed565b9450600182165f8114611fec576001811461200257612034565b60ff198316865281151560200286019350612034565b61200b85611cea565b5f5b8381101561202c5781548189015260018201915060208101905061200d565b808801955050505b50505092915050565b5f6020820190508181035f8301526120558184611fbc565b905092915050565b7f596f757220636f6d6d616e64657220616c726561647920657869737465642e005f82015250565b5f612091601f836117ed565b915061209c8261205d565b602082019050919050565b5f6020820190508181035f8301526120be81612085565b9050919050565b6120ce826117e3565b67ffffffffffffffff8111156120e7576120e6611cbd565b5b6120f18254611bee565b6120fc828285611dfe565b5f60209050601f83116001811461212d575f841561211b578287015190505b6121258582611e6c565b86555061218c565b601f19841661213b86611cea565b5f5b828110156121625784890151825560018201915060208501945060208101905061213d565b8683101561217f578489015161217b601f891682611e50565b8355505b6001600288020188555050505b505050505050565b7f4e487b71000000000000000000000000000000000000000000000000000000005f52601160045260245ffd5b5f6121cb8261175d565b91506121d68361175d565b92508282039050818111156121ee576121ed612194565b5b92915050565b828183375f83830152505050565b5f61220d83856117ed565b935061221a8385846121f4565b61222383611825565b840190509392505050565b5f6060820190506122415f830187611766565b8181036020830152612254818587612202565b905081810360408301526122688184611835565b905095945050505050565b7f4c657373207468616e206f6e65206461792073696e6365206c6173742074696d5f8201527f6520796f75206765742061206672656520726f626f742e000000000000000000602082015250565b5f6122cd6037836117ed565b91506122d882612273565b604082019050919050565b5f6020820190508181035f8301526122fa816122c1565b9050919050565b5f61230b8261186d565b91506123168361186d565b9250828201905067ffffffffffffffff81111561233657612335612194565b5b92915050565b5f6123468261175d565b91507fffffffffffffffffffffffffffffffffffffffffffffffffffffffffffffffff820361237857612377612194565b5b600182019050919050565b7f526f626f74206e616d652063616e6e6f742065786365656420323020636861725f8201527f6163746572732e00000000000000000000000000000000000000000000000000602082015250565b5f6123dd6027836117ed565b91506123e882612383565b604082019050919050565b5f6020820190508181035f83015261240a816123d1565b9050919050565b7f596f7572207265706f2069732066756c6c2e00000000000000000000000000005f82015250565b5f6124456012836117ed565b915061245082612411565b602082019050919050565b5f6020820190508181035f83015261247281612439565b9050919050565b7f6e6f4e616d6500000000000000000000000000000000000000000000000000005f82015250565b5f6124ad6006836117ed565b91506124b882612479565b602082019050919050565b5f6124dd6124d86124d3846119e7565b611d68565b61175d565b9050919050565b6124ed816124c3565b82525050565b5f6080820190506125065f830186611766565b8181036020830152612517816124a1565b9050818103604083015261252b8185611835565b905061253a60608301846124e4565b949350505050565b5f819050919050565b61255c6125578261175d565b612542565b82525050565b5f8160601b9050919050565b5f61257882612562565b9050919050565b5f6125898261256e565b9050919050565b6125a161259c826116f7565b61257f565b82525050565b5f6125b2828661254b565b6020820191506125c28285612590565b6014820191506125d2828461254b565b602082019150819050949350505050565b7f4e487b71000000000000000000000000000000000000000000000000000000005f52601260045260245ffd5b5f61261a8261175d565b91506126258361175d565b925082612635576126346125e3565b5b82820690509291505056fea26469706673582212205aa46d6e6ea534874f89974f15956959ef05da5fe5894c487c19268eef40724c64736f6c63430008150033",
  "immutableReferences": {},
  "source": "// SPDX-License-Identifier: MIT \npragma solidity ^0.8.21;\n\nimport \"./Basic.sol\";\n\n//\ncontract RobotManage is Basic {\n\n    uint commonFee = 0.001 ether;\n\n    function setLevelupFee(uint fee) external onlyOwner {\n        commonFee = fee;\n    }\n\n    event DropRobot(string name, address indexed owner);\n\n    //commander\n    function modifyCommanderName(string calldata newName) public payable {\n\n        require(msg.value == commonFee, \"Please pay enough ether.\");\n\n        address curaddr = msg.sender;\n        uint curCommanderIndex = ownerToCommander[curaddr];\n        Commander storage curCommander = commanders[curCommanderIndex]; \n        curCommander.name = newName;\n    }\n\n    //commanderdna\n    function modifyCommanderDna(string calldata newDna) public payable {\n\n        require(msg.value == commonFee, \"Please pay enough ether.\");\n\n        address curaddr = msg.sender;\n        uint curCommanderIndex = ownerToCommander[curaddr];\n        Commander storage curCommander = commanders[curCommanderIndex]; \n        curCommander.dna = newDna;\n    }\n\n    //\n    function getRobotsByOwner() external view returns(uint[] memory) {\n        uint[] memory result = new uint[](ownerRobotCount[msg.sender]);\n        uint counter = 0;\n        for (uint i = 0; i < robots.length; i++) {\n            if (robotToOwner[i] == msg.sender) {\n                result[counter] = i;\n                counter++;\n            }\n        }\n        return result;\n    }\n\n    //\n    function setRobotName(uint robotId, string calldata newName) external payable ownerOfRobot(robotId) {\n        require(msg.value == commonFee, \"Please pay enough ether.\");\n        require(bytes(newName).length <= 20, \"Robot name cannot exceed 20 characters.\");\n        robots[robotId].name = newName;\n    }\n\n    //\n    function dropRobot(uint robotId) public ownerOfRobot(robotId) {\n        robotToOwner[robotId] = owner();\n        emit DropRobot(robots[robotId].name, msg.sender);\n    }\n}",
  "sourcePath": "/Users/liqinghao/Desktop/RoboHashWeb3/contracts/robotgame/RobotManage.sol",
  "compiler": {
    "name": "solc",
    "version": "0.8.21+commit.d9974bed.Emscripten.clang"
  },
  "schemaVersion": "3.4.16",
  "updatedAt": "2023-10-27T09:47:39.541Z",
  "devdoc": {
    "kind": "dev",
    "methods": {
      "isOwner()": {
        "returns": {
          "_0": "true if `msg.sender` is the owner of the contract."
        }
      },
      "owner()": {
        "returns": {
          "_0": "the address of the owner."
        }
      },
      "renounceOwnership()": {
        "details": "Allows the current owner to relinquish control of the contract."
      },
      "transferOwnership(address)": {
        "details": "Allows the current owner to transfer control of the contract to a newOwner.",
        "params": {
          "newOwner": "The address to transfer ownership to."
        }
      }
    },
    "version": 1
  },
  "userdoc": {
    "kind": "user",
    "methods": {
      "renounceOwnership()": {
        "notice": "Renouncing to ownership will leave the contract without an owner. It will not be possible to call the functions with the `onlyOwner` modifier anymore."
      }
    },
    "version": 1
  }
}