{
  "contractName": "RobotManage",
  "abi": [
    {
      "anonymous": false,
      "inputs": [
        {
          "indexed": false,
          "internalType": "string",
          "name": "name",
          "type": "string"
        },
        {
          "indexed": true,
          "internalType": "address",
          "name": "owner",
          "type": "address"
        }
      ],
      "name": "DropRobot",
      "type": "event"
    },
    {
      "anonymous": false,
      "inputs": [
        {
          "indexed": false,
          "internalType": "uint256",
          "name": "id",
          "type": "uint256"
        },
        {
          "indexed": false,
          "internalType": "string",
          "name": "name",
          "type": "string"
        },
        {
          "indexed": false,
          "internalType": "uint256",
          "name": "dna",
          "type": "uint256"
        },
        {
          "indexed": true,
          "internalType": "address",
          "name": "owner",
          "type": "address"
        }
      ],
      "name": "NewCommander",
      "type": "event"
    },
    {
      "anonymous": false,
      "inputs": [
        {
          "indexed": false,
          "internalType": "uint256",
          "name": "id",
          "type": "uint256"
        },
        {
          "indexed": false,
          "internalType": "string",
          "name": "name",
          "type": "string"
        },
        {
          "indexed": false,
          "internalType": "string",
          "name": "dna",
          "type": "string"
        },
        {
          "indexed": false,
          "internalType": "uint256",
          "name": "spieces",
          "type": "uint256"
        },
        {
          "indexed": true,
          "internalType": "address",
          "name": "owner",
          "type": "address"
        }
      ],
      "name": "NewRobot",
      "type": "event"
    },
    {
      "anonymous": false,
      "inputs": [
        {
          "indexed": true,
          "internalType": "address",
          "name": "previousOwner",
          "type": "address"
        },
        {
          "indexed": true,
          "internalType": "address",
          "name": "newOwner",
          "type": "address"
        }
      ],
      "name": "OwnershipTransferred",
      "type": "event"
    },
    {
      "inputs": [
        {
          "internalType": "string",
          "name": "name",
          "type": "string"
        }
      ],
      "name": "CreateCommander",
      "outputs": [],
      "stateMutability": "nonpayable",
      "type": "function"
    },
    {
      "inputs": [
        {
          "internalType": "address",
          "name": "",
          "type": "address"
        }
      ],
      "name": "addressToRandom",
      "outputs": [
        {
          "internalType": "uint256",
          "name": "result",
          "type": "uint256"
        },
        {
          "internalType": "uint8",
          "name": "status",
          "type": "uint8"
        }
      ],
      "stateMutability": "view",
      "type": "function"
    },
    {
      "inputs": [
        {
          "internalType": "uint256",
          "name": "",
          "type": "uint256"
        }
      ],
      "name": "commanders",
      "outputs": [
        {
          "internalType": "string",
          "name": "name",
          "type": "string"
        },
        {
          "internalType": "uint64",
          "name": "dna",
          "type": "uint64"
        },
        {
          "internalType": "uint64",
          "name": "getFreeRobotReadyTime",
          "type": "uint64"
        },
        {
          "internalType": "uint64",
          "name": "giveStarReadyTime",
          "type": "uint64"
        }
      ],
      "stateMutability": "view",
      "type": "function"
    },
    {
      "inputs": [],
      "name": "fee",
      "outputs": [
        {
          "internalType": "uint256",
          "name": "",
          "type": "uint256"
        }
      ],
      "stateMutability": "view",
      "type": "function"
    },
    {
      "inputs": [],
      "name": "getFreeRobot",
      "outputs": [],
      "stateMutability": "nonpayable",
      "type": "function"
    },
    {
      "inputs": [],
      "name": "getRandomNumber",
      "outputs": [
        {
          "internalType": "bytes32",
          "name": "requestId",
          "type": "bytes32"
        }
      ],
      "stateMutability": "nonpayable",
      "type": "function"
    },
    {
      "inputs": [],
      "name": "isOwner",
      "outputs": [
        {
          "internalType": "bool",
          "name": "",
          "type": "bool"
        }
      ],
      "stateMutability": "view",
      "type": "function"
    },
    {
      "inputs": [],
      "name": "keyHash",
      "outputs": [
        {
          "internalType": "bytes32",
          "name": "",
          "type": "bytes32"
        }
      ],
      "stateMutability": "view",
      "type": "function"
    },
    {
      "inputs": [],
      "name": "owner",
      "outputs": [
        {
          "internalType": "address",
          "name": "",
          "type": "address"
        }
      ],
      "stateMutability": "view",
      "type": "function"
    },
    {
      "inputs": [
        {
          "internalType": "address",
          "name": "",
          "type": "address"
        }
      ],
      "name": "ownerRobotCount",
      "outputs": [
        {
          "internalType": "uint256",
          "name": "",
          "type": "uint256"
        }
      ],
      "stateMutability": "view",
      "type": "function"
    },
    {
      "inputs": [
        {
          "internalType": "address",
          "name": "",
          "type": "address"
        }
      ],
      "name": "ownerToCommander",
      "outputs": [
        {
          "internalType": "uint256",
          "name": "",
          "type": "uint256"
        }
      ],
      "stateMutability": "view",
      "type": "function"
    },
    {
      "inputs": [
        {
          "internalType": "bytes32",
          "name": "requestId",
          "type": "bytes32"
        },
        {
          "internalType": "uint256",
          "name": "randomness",
          "type": "uint256"
        }
      ],
      "name": "rawFulfillRandomness",
      "outputs": [],
      "stateMutability": "nonpayable",
      "type": "function"
    },
    {
      "inputs": [],
      "name": "renounceOwnership",
      "outputs": [],
      "stateMutability": "nonpayable",
      "type": "function"
    },
    {
      "inputs": [
        {
          "internalType": "bytes32",
          "name": "",
          "type": "bytes32"
        }
      ],
      "name": "requestIdToAddress",
      "outputs": [
        {
          "internalType": "address",
          "name": "",
          "type": "address"
        }
      ],
      "stateMutability": "view",
      "type": "function"
    },
    {
      "inputs": [
        {
          "internalType": "uint256",
          "name": "",
          "type": "uint256"
        }
      ],
      "name": "robotToOwner",
      "outputs": [
        {
          "internalType": "address",
          "name": "",
          "type": "address"
        }
      ],
      "stateMutability": "view",
      "type": "function"
    },
    {
      "inputs": [
        {
          "internalType": "uint256",
          "name": "",
          "type": "uint256"
        }
      ],
      "name": "robots",
      "outputs": [
        {
          "internalType": "string",
          "name": "name",
          "type": "string"
        },
        {
          "internalType": "string",
          "name": "dna",
          "type": "string"
        },
        {
          "internalType": "uint8",
          "name": "spieces",
          "type": "uint8"
        },
        {
          "internalType": "uint8",
          "name": "status",
          "type": "uint8"
        },
        {
          "internalType": "uint32",
          "name": "stars",
          "type": "uint32"
        },
        {
          "internalType": "uint256",
          "name": "price",
          "type": "uint256"
        },
        {
          "internalType": "uint256",
          "name": "idInMarket",
          "type": "uint256"
        }
      ],
      "stateMutability": "view",
      "type": "function"
    },
    {
      "inputs": [
        {
          "internalType": "address",
          "name": "newOwner",
          "type": "address"
        }
      ],
      "name": "transferOwnership",
      "outputs": [],
      "stateMutability": "nonpayable",
      "type": "function"
    },
    {
      "inputs": [
        {
          "internalType": "uint256",
          "name": "fee",
          "type": "uint256"
        }
      ],
      "name": "setLevelupFee",
      "outputs": [],
      "stateMutability": "nonpayable",
      "type": "function"
    },
    {
      "inputs": [
        {
          "internalType": "string",
          "name": "newName",
          "type": "string"
        }
      ],
      "name": "modifyCommanderName",
      "outputs": [],
      "stateMutability": "payable",
      "type": "function"
    },
    {
      "inputs": [
        {
          "internalType": "uint256",
          "name": "newDna",
          "type": "uint256"
        }
      ],
      "name": "modifyCommanderDna",
      "outputs": [],
      "stateMutability": "payable",
      "type": "function"
    },
    {
      "inputs": [],
      "name": "getRobotsByOwner",
      "outputs": [
        {
          "internalType": "uint256[]",
          "name": "",
          "type": "uint256[]"
        }
      ],
      "stateMutability": "view",
      "type": "function"
    },
    {
      "inputs": [
        {
          "internalType": "uint256",
          "name": "robotId",
          "type": "uint256"
        },
        {
          "internalType": "string",
          "name": "newName",
          "type": "string"
        }
      ],
      "name": "setRobotName",
      "outputs": [],
      "stateMutability": "payable",
      "type": "function"
    },
    {
      "inputs": [
        {
          "internalType": "uint256",
          "name": "robotId",
          "type": "uint256"
        }
      ],
      "name": "dropRobot",
      "outputs": [],
      "stateMutability": "nonpayable",
      "type": "function"
    }
  ],
  "bytecode": "0x60c060405262015180600255600060035566038d7ea4c68000600d553480156200002857600080fd5b50732ca8e0c643bde4c2e08ab1fa0da3401adad7734d73326c977e6efc84e512bb9c30f76e30c160ed06fb336000806101000a81548173ffffffffffffffffffffffffffffffffffffffff021916908373ffffffffffffffffffffffffffffffffffffffff16021790555060008054906101000a900473ffffffffffffffffffffffffffffffffffffffff1673ffffffffffffffffffffffffffffffffffffffff16600073ffffffffffffffffffffffffffffffffffffffff167f8be0079c531659141344cd1fd0a4f28419497f9722a3daafe3b4186f6b6457e060405160405180910390a38173ffffffffffffffffffffffffffffffffffffffff1660a08173ffffffffffffffffffffffffffffffffffffffff16815250508073ffffffffffffffffffffffffffffffffffffffff1660808173ffffffffffffffffffffffffffffffffffffffff16815250505050600860405180608001604052806040518060400160405280600481526020017f696e6974000000000000000000000000000000000000000000000000000000008152508152602001600067ffffffffffffffff168152602001600067ffffffffffffffff168152602001600067ffffffffffffffff16815250908060018154018082558091505060019003906000526020600020906002020160009091909190915060008201518160000190805190602001906200023892919062000302565b5060208201518160010160006101000a81548167ffffffffffffffff021916908367ffffffffffffffff16021790555060408201518160010160086101000a81548167ffffffffffffffff021916908367ffffffffffffffff16021790555060608201518160010160106101000a81548167ffffffffffffffff021916908367ffffffffffffffff16021790555050507f79d3d8832d904592c0bf9818b621522c988bb8b0c05cdc3b15aea1b6e8db0c1560001b6004819055506203d09060058190555062000416565b8280546200031090620003e1565b90600052602060002090601f01602090048101928262000334576000855562000380565b82601f106200034f57805160ff191683800117855562000380565b8280016001018555821562000380579182015b828111156200037f57825182559160200191906001019062000362565b5b5090506200038f919062000393565b5090565b5b80821115620003ae57600081600090555060010162000394565b5090565b7f4e487b7100000000000000000000000000000000000000000000000000000000600052602260045260246000fd5b60006002820490506001821680620003fa57607f821691505b60208210810362000410576200040f620003b2565b5b50919050565b60805160a051612ff762000443600039600081816109180152611bb601526000611b7a0152612ff76000f3fe6080604052600436106101405760003560e01c80639949460c116100b6578063d1763b3a1161006f578063d1763b3a1461045c578063dbdff2c114610487578063ddca3f43146104b2578063e900574d146104dd578063f242da12146104f9578063f2fde38b1461052257610140565b80639949460c146103575780639b41bb6914610373578063a03937c51461039c578063a1a4d91c146103df578063b060ff1914610408578063bc64beee1461041f57610140565b80636aa438dc116101085780636aa438dc14610247578063715018a6146102845780638da5cb5b1461029b5780638f32d59b146102c65780639403a0ce146102f157806394985ddd1461032e57610140565b80630603243c14610145578063492d8b3d146101615780635add26ea146101a157806361728f39146101df57806365ceceb11461020a575b600080fd5b61015f600480360381019061015a9190611f96565b61054b565b005b34801561016d57600080fd5b5061018860048036038101906101839190611f96565b610629565b604051610198949392919061207f565b60405180910390f35b3480156101ad57600080fd5b506101c860048036038101906101c39190612129565b61072d565b6040516101d6929190612181565b60405180910390f35b3480156101eb57600080fd5b506101f461075e565b60405161020191906121c3565b60405180910390f35b34801561021657600080fd5b50610231600480360381019061022c9190612129565b610764565b60405161023e91906121de565b60405180910390f35b34801561025357600080fd5b5061026e60048036038101906102699190612129565b61077c565b60405161027b91906121de565b60405180910390f35b34801561029057600080fd5b50610299610794565b005b3480156102a757600080fd5b506102b0610863565b6040516102bd9190612208565b60405180910390f35b3480156102d257600080fd5b506102db61088c565b6040516102e8919061223e565b60405180910390f35b3480156102fd57600080fd5b5061031860048036038101906103139190611f96565b6108e3565b6040516103259190612208565b60405180910390f35b34801561033a57600080fd5b5061035560048036038101906103509190612285565b610916565b005b610371600480360381019061036c919061232a565b6109b2565b005b34801561037f57600080fd5b5061039a60048036038101906103959190611f96565b610a7a565b005b3480156103a857600080fd5b506103c360048036038101906103be9190611f96565b610beb565b6040516103d69796959493929190612396565b60405180910390f35b3480156103eb57600080fd5b506104066004803603810190610401919061232a565b610d77565b005b34801561041457600080fd5b5061041d611183565b005b34801561042b57600080fd5b5061044660048036038101906104419190612413565b611290565b6040516104539190612208565b60405180910390f35b34801561046857600080fd5b506104716112c3565b60405161047e91906124fe565b60405180910390f35b34801561049357600080fd5b5061049c611413565b6040516104a991906121c3565b60405180910390f35b3480156104be57600080fd5b506104c7611506565b6040516104d491906121de565b60405180910390f35b6104f760048036038101906104f29190612520565b61150c565b005b34801561050557600080fd5b50610520600480360381019061051b9190611f96565b6116ea565b005b34801561052e57600080fd5b5061054960048036038101906105449190612129565b611705565b005b600d54341461058f576040517f08c379a0000000000000000000000000000000000000000000000000000000008152600401610586906125cc565b60405180910390fd5b6000600a60003373ffffffffffffffffffffffffffffffffffffffff1673ffffffffffffffffffffffffffffffffffffffff1681526020019081526020016000205490506000600882815481106105e9576105e86125ec565b5b90600052602060002090600202019050828160010160006101000a81548167ffffffffffffffff021916908367ffffffffffffffff160217905550505050565b6008818154811061063957600080fd5b906000526020600020906002020160009150905080600001805461065c9061264a565b80601f01602080910402602001604051908101604052809291908181526020018280546106889061264a565b80156106d55780601f106106aa576101008083540402835291602001916106d5565b820191906000526020600020905b8154815290600101906020018083116106b857829003601f168201915b5050505050908060010160009054906101000a900467ffffffffffffffff16908060010160089054906101000a900467ffffffffffffffff16908060010160109054906101000a900467ffffffffffffffff16905084565b60076020528060005260406000206000915090508060000154908060010160009054906101000a900460ff16905082565b60045481565b600c6020528060005260406000206000915090505481565b600a6020528060005260406000206000915090505481565b61079c61088c565b6107a557600080fd5b600073ffffffffffffffffffffffffffffffffffffffff1660008054906101000a900473ffffffffffffffffffffffffffffffffffffffff1673ffffffffffffffffffffffffffffffffffffffff167f8be0079c531659141344cd1fd0a4f28419497f9722a3daafe3b4186f6b6457e060405160405180910390a360008060006101000a81548173ffffffffffffffffffffffffffffffffffffffff021916908373ffffffffffffffffffffffffffffffffffffffff160217905550565b60008060009054906101000a900473ffffffffffffffffffffffffffffffffffffffff16905090565b60008060009054906101000a900473ffffffffffffffffffffffffffffffffffffffff1673ffffffffffffffffffffffffffffffffffffffff163373ffffffffffffffffffffffffffffffffffffffff1614905090565b600b6020528060005260406000206000915054906101000a900473ffffffffffffffffffffffffffffffffffffffff1681565b7f000000000000000000000000000000000000000000000000000000000000000073ffffffffffffffffffffffffffffffffffffffff163373ffffffffffffffffffffffffffffffffffffffff16146109a4576040517f08c379a000000000000000000000000000000000000000000000000000000000815260040161099b906126c7565b60405180910390fd5b6109ae8282611722565b5050565b600d5434146109f6576040517f08c379a00000000000000000000000000000000000000000000000000000000081526004016109ed906125cc565b60405180910390fd5b6000600a60003373ffffffffffffffffffffffffffffffffffffffff1673ffffffffffffffffffffffffffffffffffffffff168152602001908152602001600020549050600060088281548110610a5057610a4f6125ec565b5b906000526020600020906002020190508383826000019190610a73929190611e2d565b5050505050565b80600b600082815260200190815260200160002060009054906101000a900473ffffffffffffffffffffffffffffffffffffffff1673ffffffffffffffffffffffffffffffffffffffff163373ffffffffffffffffffffffffffffffffffffffff1614610b1c576040517f08c379a0000000000000000000000000000000000000000000000000000000008152600401610b1390612733565b60405180910390fd5b610b24610863565b600b600084815260200190815260200160002060006101000a81548173ffffffffffffffffffffffffffffffffffffffff021916908373ffffffffffffffffffffffffffffffffffffffff1602179055503373ffffffffffffffffffffffffffffffffffffffff167f21a51e05aaba7d9dfc436f444cce7ae7c5080aec1a649777bb7f2561643aaad560098481548110610bc157610bc06125ec565b5b9060005260206000209060050201600001604051610bdf91906127e8565b60405180910390a25050565b60098181548110610bfb57600080fd5b9060005260206000209060050201600091509050806000018054610c1e9061264a565b80601f0160208091040260200160405190810160405280929190818152602001828054610c4a9061264a565b8015610c975780601f10610c6c57610100808354040283529160200191610c97565b820191906000526020600020905b815481529060010190602001808311610c7a57829003601f168201915b505050505090806001018054610cac9061264a565b80601f0160208091040260200160405190810160405280929190818152602001828054610cd89061264a565b8015610d255780601f10610cfa57610100808354040283529160200191610d25565b820191906000526020600020905b815481529060010190602001808311610d0857829003601f168201915b5050505050908060020160009054906101000a900460ff16908060020160019054906101000a900460ff16908060020160029054906101000a900463ffffffff16908060030154908060040154905087565b6000600a60003373ffffffffffffffffffffffffffffffffffffffff1673ffffffffffffffffffffffffffffffffffffffff1681526020019081526020016000205414610df9576040517f08c379a0000000000000000000000000000000000000000000000000000000008152600401610df090612856565b60405180910390fd5b610e01611413565b50600080600090505b612710811215610f27576001600760003373ffffffffffffffffffffffffffffffffffffffff1673ffffffffffffffffffffffffffffffffffffffff16815260200190815260200160002060010160009054906101000a900460ff1660ff1603610f1457600b600a600760003373ffffffffffffffffffffffffffffffffffffffff1673ffffffffffffffffffffffffffffffffffffffff16815260200190815260200160002060000154610ebf91906128a5565b1891506002600760003373ffffffffffffffffffffffffffffffffffffffff1673ffffffffffffffffffffffffffffffffffffffff16815260200190815260200160002060010160009054906101000a905050505b8080610f1f9061290f565b915050610e0a565b5060008167ffffffffffffffff1603610f75576040517f08c379a0000000000000000000000000000000000000000000000000000000008152600401610f6c906129a3565b60405180910390fd5b6008604051806080016040528085858080601f016020809104026020016040519081016040528093929190818152602001838380828437600081840152601f19601f8201169050808301925050505050505081526020018367ffffffffffffffff1681526020014267ffffffffffffffff1681526020014267ffffffffffffffff168152509080600181540180825580915050600190039060005260206000209060020201600090919091909150600082015181600001908051906020019061103f929190611eb3565b5060208201518160010160006101000a81548167ffffffffffffffff021916908367ffffffffffffffff16021790555060408201518160010160086101000a81548167ffffffffffffffff021916908367ffffffffffffffff16021790555060608201518160010160106101000a81548167ffffffffffffffff021916908367ffffffffffffffff1602179055505050600060016008805490506110e391906129c3565b905080600a60003373ffffffffffffffffffffffffffffffffffffffff1673ffffffffffffffffffffffffffffffffffffffff168152602001908152602001600020819055503373ffffffffffffffffffffffffffffffffffffffff167fb3bd84143f6e6d17498683c26fa5ba25766eb0340e890d8667d8d82b0ed03255828686866040516111759493929190612a6e565b60405180910390a250505050565b60006008600a60003373ffffffffffffffffffffffffffffffffffffffff1673ffffffffffffffffffffffffffffffffffffffff16815260200190815260200160002054815481106111d8576111d76125ec565b5b90600052602060002090600202019050428160010160089054906101000a900467ffffffffffffffff1667ffffffffffffffff16111561124d576040517f08c379a000000000000000000000000000000000000000000000000000000000815260040161124490612b20565b60405180910390fd5b611255611838565b600254426112639190612b40565b8160010160086101000a81548167ffffffffffffffff021916908367ffffffffffffffff16021790555050565b60066020528060005260406000206000915054906101000a900473ffffffffffffffffffffffffffffffffffffffff1681565b60606000600c60003373ffffffffffffffffffffffffffffffffffffffff1673ffffffffffffffffffffffffffffffffffffffff1681526020019081526020016000205467ffffffffffffffff8111156113205761131f612b96565b5b60405190808252806020026020018201604052801561134e5781602001602082028036833780820191505090505b5090506000805b60098054905081101561140a573373ffffffffffffffffffffffffffffffffffffffff16600b600083815260200190815260200160002060009054906101000a900473ffffffffffffffffffffffffffffffffffffffff1673ffffffffffffffffffffffffffffffffffffffff16036113f757808383815181106113dc576113db6125ec565b5b60200260200101818152505081806113f390612bc5565b9250505b808061140290612bc5565b915050611355565b50819250505090565b600080611424600454600554611b76565b9050336006600083815260200190815260200160002060006101000a81548173ffffffffffffffffffffffffffffffffffffffff021916908373ffffffffffffffffffffffffffffffffffffffff160217905550604051806040016040528060008152602001600060ff16815250600760003373ffffffffffffffffffffffffffffffffffffffff1673ffffffffffffffffffffffffffffffffffffffff1681526020019081526020016000206000820151816000015560208201518160010160006101000a81548160ff021916908360ff1602179055509050508091505090565b60055481565b82600b600082815260200190815260200160002060009054906101000a900473ffffffffffffffffffffffffffffffffffffffff1673ffffffffffffffffffffffffffffffffffffffff163373ffffffffffffffffffffffffffffffffffffffff16146115ae576040517f08c379a00000000000000000000000000000000000000000000000000000000081526004016115a590612733565b60405180910390fd5b6040516020016115bd90612c59565b60405160208183030381529060405280519060200120600985815481106115e7576115e66125ec565b5b906000526020600020906005020160000160405160200161160891906127e8565b604051602081830303815290604052805190602001201461166857600d543414611667576040517f08c379a000000000000000000000000000000000000000000000000000000000815260040161165e906125cc565b60405180910390fd5b5b60148383905011156116af576040517f08c379a00000000000000000000000000000000000000000000000000000000081526004016116a690612ceb565b60405180910390fd5b8282600986815481106116c5576116c46125ec565b5b906000526020600020906005020160000191906116e3929190611e2d565b5050505050565b6116f261088c565b6116fb57600080fd5b80600d8190555050565b61170d61088c565b61171657600080fd5b61171f81611cc8565b50565b60006006600084815260200190815260200160002060009054906101000a900473ffffffffffffffffffffffffffffffffffffffff1690506006600084815260200190815260200160002060006101000a81549073ffffffffffffffffffffffffffffffffffffffff021916905581600760008373ffffffffffffffffffffffffffffffffffffffff1673ffffffffffffffffffffffffffffffffffffffff168152602001908152602001600020600001819055506001600760008373ffffffffffffffffffffffffffffffffffffffff1673ffffffffffffffffffffffffffffffffffffffff16815260200190815260200160002060010160006101000a81548160ff021916908360ff160217905550505050565b6064600c60003373ffffffffffffffffffffffffffffffffffffffff1673ffffffffffffffffffffffffffffffffffffffff1681526020019081526020016000205411156118bb576040517f08c379a00000000000000000000000000000000000000000000000000000000081526004016118b290612d57565b60405180910390fd5b60006002426118ca91906128a5565b905060006040518060400160405280600c81526020017f72616e646f6d537472696e670000000000000000000000000000000000000000815250905060096040518060e001604052806040518060400160405280600681526020017f6e6f4e616d65000000000000000000000000000000000000000000000000000081525081526020018381526020018460ff168152602001600060ff168152602001600063ffffffff168152602001600081526020016000815250908060018154018082558091505060019003906000526020600020906005020160009091909190915060008201518160000190805190602001906119c5929190611eb3565b5060208201518160010190805190602001906119e2929190611eb3565b5060408201518160020160006101000a81548160ff021916908360ff16021790555060608201518160020160016101000a81548160ff021916908360ff16021790555060808201518160020160026101000a81548163ffffffff021916908363ffffffff16021790555060a0820151816003015560c08201518160040155505060006001600980549050611a7691906129c3565b905033600b600083815260200190815260200160002060006101000a81548173ffffffffffffffffffffffffffffffffffffffff021916908373ffffffffffffffffffffffffffffffffffffffff160217905550600c60003373ffffffffffffffffffffffffffffffffffffffff1673ffffffffffffffffffffffffffffffffffffffff1681526020019081526020016000206000815480929190611b1a90612bc5565b91905055503373ffffffffffffffffffffffffffffffffffffffff167fe4bc06e69dd7a0f1bc9ef5db431d371f0cab41d8156a6012711823b90466715b828486604051611b6993929190612da8565b60405180910390a2505050565b60007f000000000000000000000000000000000000000000000000000000000000000073ffffffffffffffffffffffffffffffffffffffff16634000aea07f000000000000000000000000000000000000000000000000000000000000000084866000604051602001611bea929190612df9565b6040516020818303038152906040526040518463ffffffff1660e01b8152600401611c1793929190612e77565b6020604051808303816000875af1158015611c36573d6000803e3d6000fd5b505050506040513d601f19601f82011682018060405250810190611c5a9190612ee1565b506000611c7d846000306001600089815260200190815260200160002054611dbe565b9050600180600086815260200190815260200160002054611c9e9190612b40565b6001600086815260200190815260200160002081905550611cbf8482611dfa565b91505092915050565b600073ffffffffffffffffffffffffffffffffffffffff168173ffffffffffffffffffffffffffffffffffffffff1603611d0157600080fd5b8073ffffffffffffffffffffffffffffffffffffffff1660008054906101000a900473ffffffffffffffffffffffffffffffffffffffff1673ffffffffffffffffffffffffffffffffffffffff167f8be0079c531659141344cd1fd0a4f28419497f9722a3daafe3b4186f6b6457e060405160405180910390a3806000806101000a81548173ffffffffffffffffffffffffffffffffffffffff021916908373ffffffffffffffffffffffffffffffffffffffff16021790555050565b600084848484604051602001611dd79493929190612f0e565b6040516020818303038152906040528051906020012060001c9050949350505050565b60008282604051602001611e0f929190612f95565b60405160208183030381529060405280519060200120905092915050565b828054611e399061264a565b90600052602060002090601f016020900481019282611e5b5760008555611ea2565b82601f10611e7457803560ff1916838001178555611ea2565b82800160010185558215611ea2579182015b82811115611ea1578235825591602001919060010190611e86565b5b509050611eaf9190611f39565b5090565b828054611ebf9061264a565b90600052602060002090601f016020900481019282611ee15760008555611f28565b82601f10611efa57805160ff1916838001178555611f28565b82800160010185558215611f28579182015b82811115611f27578251825591602001919060010190611f0c565b5b509050611f359190611f39565b5090565b5b80821115611f52576000816000905550600101611f3a565b5090565b600080fd5b600080fd5b6000819050919050565b611f7381611f60565b8114611f7e57600080fd5b50565b600081359050611f9081611f6a565b92915050565b600060208284031215611fac57611fab611f56565b5b6000611fba84828501611f81565b91505092915050565b600081519050919050565b600082825260208201905092915050565b60005b83811015611ffd578082015181840152602081019050611fe2565b8381111561200c576000848401525b50505050565b6000601f19601f8301169050919050565b600061202e82611fc3565b6120388185611fce565b9350612048818560208601611fdf565b61205181612012565b840191505092915050565b600067ffffffffffffffff82169050919050565b6120798161205c565b82525050565b600060808201905081810360008301526120998187612023565b90506120a86020830186612070565b6120b56040830185612070565b6120c26060830184612070565b95945050505050565b600073ffffffffffffffffffffffffffffffffffffffff82169050919050565b60006120f6826120cb565b9050919050565b612106816120eb565b811461211157600080fd5b50565b600081359050612123816120fd565b92915050565b60006020828403121561213f5761213e611f56565b5b600061214d84828501612114565b91505092915050565b61215f81611f60565b82525050565b600060ff82169050919050565b61217b81612165565b82525050565b60006040820190506121966000830185612156565b6121a36020830184612172565b9392505050565b6000819050919050565b6121bd816121aa565b82525050565b60006020820190506121d860008301846121b4565b92915050565b60006020820190506121f36000830184612156565b92915050565b612202816120eb565b82525050565b600060208201905061221d60008301846121f9565b92915050565b60008115159050919050565b61223881612223565b82525050565b6000602082019050612253600083018461222f565b92915050565b612262816121aa565b811461226d57600080fd5b50565b60008135905061227f81612259565b92915050565b6000806040838503121561229c5761229b611f56565b5b60006122aa85828601612270565b92505060206122bb85828601611f81565b9150509250929050565b600080fd5b600080fd5b600080fd5b60008083601f8401126122ea576122e96122c5565b5b8235905067ffffffffffffffff811115612307576123066122ca565b5b602083019150836001820283011115612323576123226122cf565b5b9250929050565b6000806020838503121561234157612340611f56565b5b600083013567ffffffffffffffff81111561235f5761235e611f5b565b5b61236b858286016122d4565b92509250509250929050565b600063ffffffff82169050919050565b61239081612377565b82525050565b600060e08201905081810360008301526123b0818a612023565b905081810360208301526123c48189612023565b90506123d36040830188612172565b6123e06060830187612172565b6123ed6080830186612387565b6123fa60a0830185612156565b61240760c0830184612156565b98975050505050505050565b60006020828403121561242957612428611f56565b5b600061243784828501612270565b91505092915050565b600081519050919050565b600082825260208201905092915050565b6000819050602082019050919050565b61247581611f60565b82525050565b6000612487838361246c565b60208301905092915050565b6000602082019050919050565b60006124ab82612440565b6124b5818561244b565b93506124c08361245c565b8060005b838110156124f15781516124d8888261247b565b97506124e383612493565b9250506001810190506124c4565b5085935050505092915050565b6000602082019050818103600083015261251881846124a0565b905092915050565b60008060006040848603121561253957612538611f56565b5b600061254786828701611f81565b935050602084013567ffffffffffffffff81111561256857612567611f5b565b5b612574868287016122d4565b92509250509250925092565b7f506c656173652070617920656e6f7567682065746865722e0000000000000000600082015250565b60006125b6601883611fce565b91506125c182612580565b602082019050919050565b600060208201905081810360008301526125e5816125a9565b9050919050565b7f4e487b7100000000000000000000000000000000000000000000000000000000600052603260045260246000fd5b7f4e487b7100000000000000000000000000000000000000000000000000000000600052602260045260246000fd5b6000600282049050600182168061266257607f821691505b6020821081036126755761267461261b565b5b50919050565b7f4f6e6c7920565246436f6f7264696e61746f722063616e2066756c66696c6c00600082015250565b60006126b1601f83611fce565b91506126bc8261267b565b602082019050919050565b600060208201905081810360008301526126e0816126a4565b9050919050565b7f4e6f7420796f757220726f626f742e0000000000000000000000000000000000600082015250565b600061271d600f83611fce565b9150612728826126e7565b602082019050919050565b6000602082019050818103600083015261274c81612710565b9050919050565b60008190508160005260206000209050919050565b600081546127758161264a565b61277f8186611fce565b9450600182166000811461279a57600181146127ac576127df565b60ff19831686526020860193506127df565b6127b585612753565b60005b838110156127d7578154818901526001820191506020810190506127b8565b808801955050505b50505092915050565b600060208201905081810360008301526128028184612768565b905092915050565b7f596f757220636f6d6d616e64657220616c726561647920657869737465642e00600082015250565b6000612840601f83611fce565b915061284b8261280a565b602082019050919050565b6000602082019050818103600083015261286f81612833565b9050919050565b7f4e487b7100000000000000000000000000000000000000000000000000000000600052601260045260246000fd5b60006128b082611f60565b91506128bb83611f60565b9250826128cb576128ca612876565b5b828206905092915050565b7f4e487b7100000000000000000000000000000000000000000000000000000000600052601160045260246000fd5b6000819050919050565b600061291a82612905565b91507f7fffffffffffffffffffffffffffffffffffffffffffffffffffffffffffffff820361294c5761294b6128d6565b5b600182019050919050565b7f4765742072616e646f6d20646e612066616c692e000000000000000000000000600082015250565b600061298d601483611fce565b915061299882612957565b602082019050919050565b600060208201905081810360008301526129bc81612980565b9050919050565b60006129ce82611f60565b91506129d983611f60565b9250828210156129ec576129eb6128d6565b5b828203905092915050565b82818337600083830152505050565b6000612a128385611fce565b9350612a1f8385846129f7565b612a2883612012565b840190509392505050565b6000819050919050565b6000612a58612a53612a4e8461205c565b612a33565b611f60565b9050919050565b612a6881612a3d565b82525050565b6000606082019050612a836000830187612156565b8181036020830152612a96818587612a06565b9050612aa56040830184612a5f565b95945050505050565b7f4c657373207468616e206f6e65206461792073696e6365206c6173742074696d60008201527f6520796f75206765742061206672656520726f626f742e000000000000000000602082015250565b6000612b0a603783611fce565b9150612b1582612aae565b604082019050919050565b60006020820190508181036000830152612b3981612afd565b9050919050565b6000612b4b82611f60565b9150612b5683611f60565b9250827fffffffffffffffffffffffffffffffffffffffffffffffffffffffffffffffff03821115612b8b57612b8a6128d6565b5b828201905092915050565b7f4e487b7100000000000000000000000000000000000000000000000000000000600052604160045260246000fd5b6000612bd082611f60565b91507fffffffffffffffffffffffffffffffffffffffffffffffffffffffffffffffff8203612c0257612c016128d6565b5b600182019050919050565b7f6e6f4e616d650000000000000000000000000000000000000000000000000000600082015250565b6000612c43600683611fce565b9150612c4e82612c0d565b602082019050919050565b60006020820190508181036000830152612c7281612c36565b9050919050565b7f526f626f74206e616d652063616e6e6f7420657863656564203230206368617260008201527f6163746572732e00000000000000000000000000000000000000000000000000602082015250565b6000612cd5602783611fce565b9150612ce082612c79565b604082019050919050565b60006020820190508181036000830152612d0481612cc8565b9050919050565b7f596f7572207265706f2069732066756c6c2e0000000000000000000000000000600082015250565b6000612d41601283611fce565b9150612d4c82612d0b565b602082019050919050565b60006020820190508181036000830152612d7081612d34565b9050919050565b6000612d92612d8d612d8884612165565b612a33565b611f60565b9050919050565b612da281612d77565b82525050565b6000608082019050612dbd6000830186612156565b8181036020830152612dce81612c36565b90508181036040830152612de28185612023565b9050612df16060830184612d99565b949350505050565b6000604082019050612e0e60008301856121b4565b612e1b6020830184612156565b9392505050565b600081519050919050565b600082825260208201905092915050565b6000612e4982612e22565b612e538185612e2d565b9350612e63818560208601611fdf565b612e6c81612012565b840191505092915050565b6000606082019050612e8c60008301866121f9565b612e996020830185612156565b8181036040830152612eab8184612e3e565b9050949350505050565b612ebe81612223565b8114612ec957600080fd5b50565b600081519050612edb81612eb5565b92915050565b600060208284031215612ef757612ef6611f56565b5b6000612f0584828501612ecc565b91505092915050565b6000608082019050612f2360008301876121b4565b612f306020830186612156565b612f3d60408301856121f9565b612f4a6060830184612156565b95945050505050565b6000819050919050565b612f6e612f69826121aa565b612f53565b82525050565b6000819050919050565b612f8f612f8a82611f60565b612f74565b82525050565b6000612fa18285612f5d565b602082019150612fb18284612f7e565b602082019150819050939250505056fea2646970667358221220885229a195daee4f3f0453eafb3e3d9d3c4f1de51c47fe9e5016484c766e622464736f6c634300080d0033",
  "immutableReferences": {
    "168": [
      {
        "length": 32,
        "start": 7034
      }
    ],
    "170": [
      {
        "length": 32,
        "start": 2328
      },
      {
        "length": 32,
        "start": 7094
      }
    ]
  },
  "source": "// SPDX-License-Identifier: MIT \npragma solidity ^0.8.13;\n\nimport \"./Basic.sol\";\n\n//\ncontract RobotManage is Basic {\n\n    uint commonFee = 0.001 ether;\n\n    function setLevelupFee(uint fee) external onlyOwner {\n        commonFee = fee;\n    }\n\n    event DropRobot(string name, address indexed owner);\n\n    //commander\n    function modifyCommanderName(string calldata newName) public payable {\n\n        require(msg.value == commonFee, \"Please pay enough ether.\");\n\n        uint curCommanderIndex = ownerToCommander[msg.sender];\n        Commander storage curCommander = commanders[curCommanderIndex]; \n        curCommander.name = newName;\n    }\n\n    //commanderdna\n    function modifyCommanderDna(uint newDna) public payable {\n\n        require(msg.value == commonFee, \"Please pay enough ether.\");\n\n        uint curCommanderIndex = ownerToCommander[msg.sender];\n        Commander storage curCommander = commanders[curCommanderIndex]; \n        curCommander.dna = uint64(newDna);\n    }\n\n    //\n    function getRobotsByOwner() external view returns(uint[] memory) {\n        uint[] memory result = new uint[](ownerRobotCount[msg.sender]);\n        uint counter = 0;\n        for (uint i = 0; i < robots.length; i++) {\n            if (robotToOwner[i] == msg.sender) {\n                result[counter] = i;\n                counter++;\n            }\n        }\n        return result;\n    }\n\n    //\n    function setRobotName(uint robotId, string calldata newName) external payable ownerOfRobot(robotId) {\n        //\n        if (keccak256(abi.encode(robots[robotId].name)) != keccak256(abi.encode(\"noName\"))) {\n            require(msg.value == commonFee, \"Please pay enough ether.\");\n        }\n        require(bytes(newName).length <= 20, \"Robot name cannot exceed 20 characters.\");\n        robots[robotId].name = newName;\n    }\n\n    //\n    function dropRobot(uint robotId) public ownerOfRobot(robotId) {\n        robotToOwner[robotId] = owner();\n        emit DropRobot(robots[robotId].name, msg.sender);\n    }\n}",
  "sourcePath": "/Users/liqinghao/Desktop/RoboHashWeb3/contracts/robotgame/RobotManage.sol",
  "compiler": {
    "name": "solc",
    "version": "0.8.13+commit.abaa5c0e.Emscripten.clang"
  },
  "schemaVersion": "3.4.16",
  "updatedAt": "2023-11-08T04:49:21.271Z",
  "devdoc": {
    "kind": "dev",
    "methods": {
      "isOwner()": {
        "returns": {
          "_0": "true if `msg.sender` is the owner of the contract."
        }
      },
      "owner()": {
        "returns": {
          "_0": "the address of the owner."
        }
      },
      "renounceOwnership()": {
        "details": "Allows the current owner to relinquish control of the contract."
      },
      "transferOwnership(address)": {
        "details": "Allows the current owner to transfer control of the contract to a newOwner.",
        "params": {
          "newOwner": "The address to transfer ownership to."
        }
      }
    },
    "version": 1
  },
  "userdoc": {
    "kind": "user",
    "methods": {
      "renounceOwnership()": {
        "notice": "Renouncing to ownership will leave the contract without an owner. It will not be possible to call the functions with the `onlyOwner` modifier anymore."
      }
    },
    "version": 1
  }
}