{
  "contractName": "Star",
  "abi": [
    {
      "anonymous": false,
      "inputs": [
        {
          "indexed": false,
          "internalType": "uint256",
          "name": "index",
          "type": "uint256"
        },
        {
          "indexed": false,
          "internalType": "string",
          "name": "name",
          "type": "string"
        },
        {
          "indexed": false,
          "internalType": "string",
          "name": "dna",
          "type": "string"
        },
        {
          "indexed": true,
          "internalType": "address",
          "name": "owner",
          "type": "address"
        }
      ],
      "name": "NewCommander",
      "type": "event"
    },
    {
      "anonymous": false,
      "inputs": [
        {
          "indexed": false,
          "internalType": "uint256",
          "name": "index",
          "type": "uint256"
        },
        {
          "indexed": false,
          "internalType": "string",
          "name": "name",
          "type": "string"
        },
        {
          "indexed": false,
          "internalType": "string",
          "name": "dna",
          "type": "string"
        },
        {
          "indexed": false,
          "internalType": "uint256",
          "name": "spieces",
          "type": "uint256"
        },
        {
          "indexed": true,
          "internalType": "address",
          "name": "owner",
          "type": "address"
        }
      ],
      "name": "NewRobot",
      "type": "event"
    },
    {
      "anonymous": false,
      "inputs": [
        {
          "indexed": true,
          "internalType": "address",
          "name": "previousOwner",
          "type": "address"
        },
        {
          "indexed": true,
          "internalType": "address",
          "name": "newOwner",
          "type": "address"
        }
      ],
      "name": "OwnershipTransferred",
      "type": "event"
    },
    {
      "inputs": [
        {
          "internalType": "string",
          "name": "name",
          "type": "string"
        }
      ],
      "name": "CreateCommander",
      "outputs": [],
      "stateMutability": "nonpayable",
      "type": "function"
    },
    {
      "inputs": [
        {
          "internalType": "uint256",
          "name": "",
          "type": "uint256"
        }
      ],
      "name": "commanders",
      "outputs": [
        {
          "internalType": "string",
          "name": "name",
          "type": "string"
        },
        {
          "internalType": "string",
          "name": "dna",
          "type": "string"
        },
        {
          "internalType": "uint64",
          "name": "getFreeRobotReadyTime",
          "type": "uint64"
        },
        {
          "internalType": "uint64",
          "name": "giveStarReadyTime",
          "type": "uint64"
        }
      ],
      "stateMutability": "view",
      "type": "function"
    },
    {
      "inputs": [],
      "name": "getFreeRobot",
      "outputs": [],
      "stateMutability": "nonpayable",
      "type": "function"
    },
    {
      "inputs": [],
      "name": "isOwner",
      "outputs": [
        {
          "internalType": "bool",
          "name": "",
          "type": "bool"
        }
      ],
      "stateMutability": "view",
      "type": "function"
    },
    {
      "inputs": [],
      "name": "owner",
      "outputs": [
        {
          "internalType": "address",
          "name": "",
          "type": "address"
        }
      ],
      "stateMutability": "view",
      "type": "function"
    },
    {
      "inputs": [
        {
          "internalType": "address",
          "name": "",
          "type": "address"
        }
      ],
      "name": "ownerCommanderCount",
      "outputs": [
        {
          "internalType": "uint256",
          "name": "",
          "type": "uint256"
        }
      ],
      "stateMutability": "view",
      "type": "function"
    },
    {
      "inputs": [
        {
          "internalType": "address",
          "name": "",
          "type": "address"
        }
      ],
      "name": "ownerRobotCount",
      "outputs": [
        {
          "internalType": "uint256",
          "name": "",
          "type": "uint256"
        }
      ],
      "stateMutability": "view",
      "type": "function"
    },
    {
      "inputs": [
        {
          "internalType": "address",
          "name": "",
          "type": "address"
        }
      ],
      "name": "ownerToCommander",
      "outputs": [
        {
          "internalType": "uint256",
          "name": "",
          "type": "uint256"
        }
      ],
      "stateMutability": "view",
      "type": "function"
    },
    {
      "inputs": [],
      "name": "renounceOwnership",
      "outputs": [],
      "stateMutability": "nonpayable",
      "type": "function"
    },
    {
      "inputs": [
        {
          "internalType": "uint256",
          "name": "",
          "type": "uint256"
        }
      ],
      "name": "robotToOwner",
      "outputs": [
        {
          "internalType": "address",
          "name": "",
          "type": "address"
        }
      ],
      "stateMutability": "view",
      "type": "function"
    },
    {
      "inputs": [
        {
          "internalType": "uint256",
          "name": "",
          "type": "uint256"
        }
      ],
      "name": "robots",
      "outputs": [
        {
          "internalType": "string",
          "name": "name",
          "type": "string"
        },
        {
          "internalType": "string",
          "name": "dna",
          "type": "string"
        },
        {
          "internalType": "uint8",
          "name": "spieces",
          "type": "uint8"
        },
        {
          "internalType": "uint8",
          "name": "status",
          "type": "uint8"
        },
        {
          "internalType": "uint32",
          "name": "stars",
          "type": "uint32"
        },
        {
          "internalType": "uint256",
          "name": "price",
          "type": "uint256"
        }
      ],
      "stateMutability": "view",
      "type": "function"
    },
    {
      "inputs": [
        {
          "internalType": "uint256",
          "name": "",
          "type": "uint256"
        }
      ],
      "name": "topRobots",
      "outputs": [
        {
          "internalType": "uint256",
          "name": "",
          "type": "uint256"
        }
      ],
      "stateMutability": "view",
      "type": "function"
    },
    {
      "inputs": [
        {
          "internalType": "address",
          "name": "newOwner",
          "type": "address"
        }
      ],
      "name": "transferOwnership",
      "outputs": [],
      "stateMutability": "nonpayable",
      "type": "function"
    },
    {
      "inputs": [
        {
          "internalType": "uint256",
          "name": "robotId",
          "type": "uint256"
        }
      ],
      "name": "giveStar",
      "outputs": [],
      "stateMutability": "nonpayable",
      "type": "function"
    }
  ],
  "bytecode": "0x6080604052620151805f60146101000a81548167ffffffffffffffff021916908367ffffffffffffffff1602179055505f60015534801561003e575f80fd5b50335f806101000a81548173ffffffffffffffffffffffffffffffffffffffff021916908373ffffffffffffffffffffffffffffffffffffffff1602179055505f8054906101000a900473ffffffffffffffffffffffffffffffffffffffff1673ffffffffffffffffffffffffffffffffffffffff165f73ffffffffffffffffffffffffffffffffffffffff167f8be0079c531659141344cd1fd0a4f28419497f9722a3daafe3b4186f6b6457e060405160405180910390a3612133806101045f395ff3fe608060405234801561000f575f80fd5b50600436106100e8575f3560e01c80639403a0ce1161008a578063a1a4d91c11610064578063a1a4d91c1461028a578063b060ff19146102a6578063e9ca0f2a146102b0578063f2fde38b146102cc576100e8565b80639403a0ce146101f55780639550596114610225578063a03937c514610255576100e8565b80636aa438dc116100c65780636aa438dc1461017f578063715018a6146101af5780638da5cb5b146101b95780638f32d59b146101d7576100e8565b80632ff1e244146100ec578063492d8b3d1461011c57806365ceceb11461014f575b5f80fd5b610106600480360381019061010191906114b2565b6102e8565b60405161011391906114f5565b60405180910390f35b61013660048036038101906101319190611538565b6102fd565b604051610146949392919061160f565b60405180910390f35b610169600480360381019061016491906114b2565b61046b565b60405161017691906114f5565b60405180910390f35b610199600480360381019061019491906114b2565b610480565b6040516101a691906114f5565b60405180910390f35b6101b7610495565b005b6101c161055f565b6040516101ce919061166f565b60405180910390f35b6101df610586565b6040516101ec91906116a2565b60405180910390f35b61020f600480360381019061020a9190611538565b6105db565b60405161021c919061166f565b60405180910390f35b61023f600480360381019061023a9190611538565b61060b565b60405161024c91906114f5565b60405180910390f35b61026f600480360381019061026a9190611538565b61062b565b604051610281969594939291906116f4565b60405180910390f35b6102a4600480360381019061029f91906117c2565b6107a7565b005b6102ae610a7c565b005b6102ca60048036038101906102c59190611538565b610b95565b005b6102e660048036038101906102e191906114b2565b610fe1565b005b6005602052805f5260405f205f915090505481565b6002818154811061030c575f80fd5b905f5260205f2090600302015f91509050805f01805461032b9061183a565b80601f01602080910402602001604051908101604052809291908181526020018280546103579061183a565b80156103a25780601f10610379576101008083540402835291602001916103a2565b820191905f5260205f20905b81548152906001019060200180831161038557829003601f168201915b5050505050908060010180546103b79061183a565b80601f01602080910402602001604051908101604052809291908181526020018280546103e39061183a565b801561042e5780601f106104055761010080835404028352916020019161042e565b820191905f5260205f20905b81548152906001019060200180831161041157829003601f168201915b505050505090806002015f9054906101000a900467ffffffffffffffff16908060020160089054906101000a900467ffffffffffffffff16905084565b6007602052805f5260405f205f915090505481565b6004602052805f5260405f205f915090505481565b61049d610586565b6104a5575f80fd5b5f73ffffffffffffffffffffffffffffffffffffffff165f8054906101000a900473ffffffffffffffffffffffffffffffffffffffff1673ffffffffffffffffffffffffffffffffffffffff167f8be0079c531659141344cd1fd0a4f28419497f9722a3daafe3b4186f6b6457e060405160405180910390a35f805f6101000a81548173ffffffffffffffffffffffffffffffffffffffff021916908373ffffffffffffffffffffffffffffffffffffffff160217905550565b5f805f9054906101000a900473ffffffffffffffffffffffffffffffffffffffff16905090565b5f805f9054906101000a900473ffffffffffffffffffffffffffffffffffffffff1673ffffffffffffffffffffffffffffffffffffffff163373ffffffffffffffffffffffffffffffffffffffff1614905090565b6006602052805f5260405f205f915054906101000a900473ffffffffffffffffffffffffffffffffffffffff1681565b6008818154811061061a575f80fd5b905f5260205f20015f915090505481565b6003818154811061063a575f80fd5b905f5260205f2090600402015f91509050805f0180546106599061183a565b80601f01602080910402602001604051908101604052809291908181526020018280546106859061183a565b80156106d05780601f106106a7576101008083540402835291602001916106d0565b820191905f5260205f20905b8154815290600101906020018083116106b357829003601f168201915b5050505050908060010180546106e59061183a565b80601f01602080910402602001604051908101604052809291908181526020018280546107119061183a565b801561075c5780601f106107335761010080835404028352916020019161075c565b820191905f5260205f20905b81548152906001019060200180831161073f57829003601f168201915b505050505090806002015f9054906101000a900460ff16908060020160019054906101000a900460ff16908060020160029054906101000a900463ffffffff16908060030154905086565b5f60055f3373ffffffffffffffffffffffffffffffffffffffff1673ffffffffffffffffffffffffffffffffffffffff1681526020019081526020015f205414610826576040517f08c379a000000000000000000000000000000000000000000000000000000000815260040161081d906118b4565b60405180910390fd5b5f6040518060400160405280600c81526020017f72616e646f6d537472696e67000000000000000000000000000000000000000081525090506002604051806080016040528085858080601f0160208091040260200160405190810160405280939291908181526020018383808284375f81840152601f19601f8201169050808301925050505050505081526020018381526020014267ffffffffffffffff1681526020014267ffffffffffffffff16815250908060018154018082558091505060019003905f5260205f2090600302015f909190919091505f820151815f0190816109129190611a9c565b5060208201518160010190816109289190611a9c565b506040820151816002015f6101000a81548167ffffffffffffffff021916908367ffffffffffffffff16021790555060608201518160020160086101000a81548167ffffffffffffffff021916908367ffffffffffffffff16021790555050505f600160028054905061099b9190611b98565b90508060045f3373ffffffffffffffffffffffffffffffffffffffff1673ffffffffffffffffffffffffffffffffffffffff1681526020019081526020015f2081905550600160055f3373ffffffffffffffffffffffffffffffffffffffff1673ffffffffffffffffffffffffffffffffffffffff1681526020019081526020015f20819055503373ffffffffffffffffffffffffffffffffffffffff167f0ba589754bdc7c1e308a8ce3362a7b42600571fdd695534edd1e0182e187149f82868686604051610a6e9493929190611c05565b60405180910390a250505050565b5f600260045f3373ffffffffffffffffffffffffffffffffffffffff1673ffffffffffffffffffffffffffffffffffffffff1681526020019081526020015f205481548110610ace57610acd611c4a565b5b905f5260205f209060030201905042816002015f9054906101000a900467ffffffffffffffff1667ffffffffffffffff161115610b40576040517f08c379a0000000000000000000000000000000000000000000000000000000008152600401610b3790611ce7565b60405180910390fd5b610b48610ffd565b5f60149054906101000a900467ffffffffffffffff1642610b699190611d05565b816002015f6101000a81548167ffffffffffffffff021916908367ffffffffffffffff16021790555050565b60065f8281526020019081526020015f205f9054906101000a900473ffffffffffffffffffffffffffffffffffffffff1673ffffffffffffffffffffffffffffffffffffffff163373ffffffffffffffffffffffffffffffffffffffff1603610c33576040517f08c379a0000000000000000000000000000000000000000000000000000000008152600401610c2a90611db0565b60405180910390fd5b5f600260045f3373ffffffffffffffffffffffffffffffffffffffff1673ffffffffffffffffffffffffffffffffffffffff1681526020019081526020015f205481548110610c8557610c84611c4a565b5b905f5260205f2090600302019050428160020160089054906101000a900467ffffffffffffffff1667ffffffffffffffff161115610cf8576040517f08c379a0000000000000000000000000000000000000000000000000000000008152600401610cef90611e3e565b60405180910390fd5b60038281548110610d0c57610d0b611c4a565b5b905f5260205f209060040201600201600281819054906101000a900463ffffffff1680929190610d3b90611e5c565b91906101000a81548163ffffffff021916908363ffffffff160217905550505f60149054906101000a900467ffffffffffffffff168160020160088282829054906101000a900467ffffffffffffffff16610d969190611d05565b92506101000a81548167ffffffffffffffff021916908367ffffffffffffffff16021790555060646008805490501015610df557600882908060018154018082558091505060019003905f5260205f20015f9091909190915055610e75565b60085f81548110610e0957610e08611c4a565b5b905f5260205f20015460038381548110610e2657610e25611c4a565b5b905f5260205f20906004020160020160029054906101000a900463ffffffff1663ffffffff161115610e74578160085f81548110610e6757610e66611c4a565b5b905f5260205f2001819055505b5b606460088054905003610fdd575f80600190505b6064811015610f5b57600360085f81548110610ea857610ea7611c4a565b5b905f5260205f20015481548110610ec257610ec1611c4a565b5b905f5260205f20906004020160020160029054906101000a900463ffffffff1663ffffffff16600360088381548110610efe57610efd611c4a565b5b905f5260205f20015481548110610f1857610f17611c4a565b5b905f5260205f20906004020160020160029054906101000a900463ffffffff1663ffffffff161015610f48578091505b8080610f5390611e87565b915050610e89565b505f60085f81548110610f7157610f70611c4a565b5b905f5260205f200154905060088281548110610f9057610f8f611c4a565b5b905f5260205f20015460085f81548110610fad57610fac611c4a565b5b905f5260205f2001819055508060088381548110610fce57610fcd611c4a565b5b905f5260205f20018190555050505b5050565b610fe9610586565b610ff1575f80fd5b610ffa81611305565b50565b606460075f3373ffffffffffffffffffffffffffffffffffffffff1673ffffffffffffffffffffffffffffffffffffffff1681526020019081526020015f2054111561107e576040517f08c379a000000000000000000000000000000000000000000000000000000000815260040161107590611f18565b60405180910390fd5b5f61108960026113f7565b90505f6040518060400160405280600c81526020017f72616e646f6d537472696e670000000000000000000000000000000000000000815250905060036040518060c001604052806040518060400160405280600681526020017f6e6f4e616d65000000000000000000000000000000000000000000000000000081525081526020018381526020018460ff1681526020015f60ff1681526020015f63ffffffff1681526020015f815250908060018154018082558091505060019003905f5260205f2090600402015f909190919091505f820151815f01908161116d9190611a9c565b5060208201518160010190816111839190611a9c565b506040820151816002015f6101000a81548160ff021916908360ff16021790555060608201518160020160016101000a81548160ff021916908360ff16021790555060808201518160020160026101000a81548163ffffffff021916908363ffffffff16021790555060a0820151816003015550505f600160038054905061120b9190611b98565b90503360065f8381526020019081526020015f205f6101000a81548173ffffffffffffffffffffffffffffffffffffffff021916908373ffffffffffffffffffffffffffffffffffffffff16021790555060075f3373ffffffffffffffffffffffffffffffffffffffff1673ffffffffffffffffffffffffffffffffffffffff1681526020019081526020015f205f8154809291906112a990611e87565b91905055503373ffffffffffffffffffffffffffffffffffffffff167fe4bc06e69dd7a0f1bc9ef5db431d371f0cab41d8156a6012711823b90466715b8284866040516112f893929190611fb0565b60405180910390a2505050565b5f73ffffffffffffffffffffffffffffffffffffffff168173ffffffffffffffffffffffffffffffffffffffff160361133c575f80fd5b8073ffffffffffffffffffffffffffffffffffffffff165f8054906101000a900473ffffffffffffffffffffffffffffffffffffffff1673ffffffffffffffffffffffffffffffffffffffff167f8be0079c531659141344cd1fd0a4f28419497f9722a3daafe3b4186f6b6457e060405160405180910390a3805f806101000a81548173ffffffffffffffffffffffffffffffffffffffff021916908373ffffffffffffffffffffffffffffffffffffffff16021790555050565b5f60015f81548092919061140a90611e87565b919050555081423360015460405160200161142793929190612064565b604051602081830303815290604052805190602001205f1c61144991906120cd565b9050919050565b5f80fd5b5f80fd5b5f73ffffffffffffffffffffffffffffffffffffffff82169050919050565b5f61148182611458565b9050919050565b61149181611477565b811461149b575f80fd5b50565b5f813590506114ac81611488565b92915050565b5f602082840312156114c7576114c6611450565b5b5f6114d48482850161149e565b91505092915050565b5f819050919050565b6114ef816114dd565b82525050565b5f6020820190506115085f8301846114e6565b92915050565b611517816114dd565b8114611521575f80fd5b50565b5f813590506115328161150e565b92915050565b5f6020828403121561154d5761154c611450565b5b5f61155a84828501611524565b91505092915050565b5f81519050919050565b5f82825260208201905092915050565b5f5b8381101561159a57808201518184015260208101905061157f565b5f8484015250505050565b5f601f19601f8301169050919050565b5f6115bf82611563565b6115c9818561156d565b93506115d981856020860161157d565b6115e2816115a5565b840191505092915050565b5f67ffffffffffffffff82169050919050565b611609816115ed565b82525050565b5f6080820190508181035f83015261162781876115b5565b9050818103602083015261163b81866115b5565b905061164a6040830185611600565b6116576060830184611600565b95945050505050565b61166981611477565b82525050565b5f6020820190506116825f830184611660565b92915050565b5f8115159050919050565b61169c81611688565b82525050565b5f6020820190506116b55f830184611693565b92915050565b5f60ff82169050919050565b6116d0816116bb565b82525050565b5f63ffffffff82169050919050565b6116ee816116d6565b82525050565b5f60c0820190508181035f83015261170c81896115b5565b9050818103602083015261172081886115b5565b905061172f60408301876116c7565b61173c60608301866116c7565b61174960808301856116e5565b61175660a08301846114e6565b979650505050505050565b5f80fd5b5f80fd5b5f80fd5b5f8083601f84011261178257611781611761565b5b8235905067ffffffffffffffff81111561179f5761179e611765565b5b6020830191508360018202830111156117bb576117ba611769565b5b9250929050565b5f80602083850312156117d8576117d7611450565b5b5f83013567ffffffffffffffff8111156117f5576117f4611454565b5b6118018582860161176d565b92509250509250929050565b7f4e487b71000000000000000000000000000000000000000000000000000000005f52602260045260245ffd5b5f600282049050600182168061185157607f821691505b6020821081036118645761186361180d565b5b50919050565b7f596f757220636f6d6d616e64657220616c726561647920657869737465642e005f82015250565b5f61189e601f8361156d565b91506118a98261186a565b602082019050919050565b5f6020820190508181035f8301526118cb81611892565b9050919050565b7f4e487b71000000000000000000000000000000000000000000000000000000005f52604160045260245ffd5b5f819050815f5260205f209050919050565b5f6020601f8301049050919050565b5f82821b905092915050565b5f6008830261195b7fffffffffffffffffffffffffffffffffffffffffffffffffffffffffffffffff82611920565b6119658683611920565b95508019841693508086168417925050509392505050565b5f819050919050565b5f6119a061199b611996846114dd565b61197d565b6114dd565b9050919050565b5f819050919050565b6119b983611986565b6119cd6119c5826119a7565b84845461192c565b825550505050565b5f90565b6119e16119d5565b6119ec8184846119b0565b505050565b5b81811015611a0f57611a045f826119d9565b6001810190506119f2565b5050565b601f821115611a5457611a25816118ff565b611a2e84611911565b81016020851015611a3d578190505b611a51611a4985611911565b8301826119f1565b50505b505050565b5f82821c905092915050565b5f611a745f1984600802611a59565b1980831691505092915050565b5f611a8c8383611a65565b9150826002028217905092915050565b611aa582611563565b67ffffffffffffffff811115611abe57611abd6118d2565b5b611ac8825461183a565b611ad3828285611a13565b5f60209050601f831160018114611b04575f8415611af2578287015190505b611afc8582611a81565b865550611b63565b601f198416611b12866118ff565b5f5b82811015611b3957848901518255600182019150602085019450602081019050611b14565b86831015611b565784890151611b52601f891682611a65565b8355505b6001600288020188555050505b505050505050565b7f4e487b71000000000000000000000000000000000000000000000000000000005f52601160045260245ffd5b5f611ba2826114dd565b9150611bad836114dd565b9250828203905081811115611bc557611bc4611b6b565b5b92915050565b828183375f83830152505050565b5f611be4838561156d565b9350611bf1838584611bcb565b611bfa836115a5565b840190509392505050565b5f606082019050611c185f8301876114e6565b8181036020830152611c2b818587611bd9565b90508181036040830152611c3f81846115b5565b905095945050505050565b7f4e487b71000000000000000000000000000000000000000000000000000000005f52603260045260245ffd5b7f4c657373207468616e206f6e65206461792073696e6365206c6173742074696d5f8201527f6520796f75206765742061206672656520726f626f742e000000000000000000602082015250565b5f611cd160378361156d565b9150611cdc82611c77565b604082019050919050565b5f6020820190508181035f830152611cfe81611cc5565b9050919050565b5f611d0f826115ed565b9150611d1a836115ed565b9250828201905067ffffffffffffffff811115611d3a57611d39611b6b565b5b92915050565b7f596f752063616e6e6f7420676976652061207374617220746f20796f7572206f5f8201527f776e20726f626f742e0000000000000000000000000000000000000000000000602082015250565b5f611d9a60298361156d565b9150611da582611d40565b604082019050919050565b5f6020820190508181035f830152611dc781611d8e565b9050919050565b7f4c657373207468616e206f6e65206461792073696e6365206c6173742074696d5f8201527f6520796f752067697665206120737461722e0000000000000000000000000000602082015250565b5f611e2860328361156d565b9150611e3382611dce565b604082019050919050565b5f6020820190508181035f830152611e5581611e1c565b9050919050565b5f611e66826116d6565b915063ffffffff8203611e7c57611e7b611b6b565b5b600182019050919050565b5f611e91826114dd565b91507fffffffffffffffffffffffffffffffffffffffffffffffffffffffffffffffff8203611ec357611ec2611b6b565b5b600182019050919050565b7f596f7572207265706f2069732066756c6c2e00000000000000000000000000005f82015250565b5f611f0260128361156d565b9150611f0d82611ece565b602082019050919050565b5f6020820190508181035f830152611f2f81611ef6565b9050919050565b7f6e6f4e616d6500000000000000000000000000000000000000000000000000005f82015250565b5f611f6a60068361156d565b9150611f7582611f36565b602082019050919050565b5f611f9a611f95611f90846116bb565b61197d565b6114dd565b9050919050565b611faa81611f80565b82525050565b5f608082019050611fc35f8301866114e6565b8181036020830152611fd481611f5e565b90508181036040830152611fe881856115b5565b9050611ff76060830184611fa1565b949350505050565b5f819050919050565b612019612014826114dd565b611fff565b82525050565b5f8160601b9050919050565b5f6120358261201f565b9050919050565b5f6120468261202b565b9050919050565b61205e61205982611477565b61203c565b82525050565b5f61206f8286612008565b60208201915061207f828561204d565b60148201915061208f8284612008565b602082019150819050949350505050565b7f4e487b71000000000000000000000000000000000000000000000000000000005f52601260045260245ffd5b5f6120d7826114dd565b91506120e2836114dd565b9250826120f2576120f16120a0565b5b82820690509291505056fea264697066735822122084d783b6f3c543b2d656894f3524c79df6c95007fa2fa351953c65f907e3c77764736f6c63430008150033",
  "immutableReferences": {},
  "source": "// SPDX-License-Identifier: MIT \npragma solidity ^0.8.21;\n\nimport \"./Basic.sol\";\n\n//\ncontract Star is Basic {\n\n    //\n    function giveStar(uint robotId) external {\n        require(msg.sender != robotToOwner[robotId], \"You cannot give a star to your own robot.\");\n\n        Commander storage myCommander = commanders[ownerToCommander[msg.sender]];\n        require(myCommander.giveStarReadyTime <= block.timestamp, \"Less than one day since last time you give a star.\");\n        robots[robotId].stars++;\n        myCommander.giveStarReadyTime += readyTime;\n\n        //\n        if (topRobots.length < 100) {\n            topRobots.push(robotId);\n        } else {\n            if (robots[robotId].stars > topRobots[0]) {\n                topRobots[0] = robotId;\n            }            \n        }\n\n\n        //star\n        if (topRobots.length == 100) {\n            uint minmumStarsIndex;\n            for (uint i = 1; i <100; i++) {\n                if (robots[topRobots[i]].stars < robots[topRobots[0]].stars) {\n                    minmumStarsIndex = i;\n                }\n            }\n            uint temp = topRobots[0];\n            topRobots[0] = topRobots[minmumStarsIndex];\n            topRobots[minmumStarsIndex] = temp;            \n        }\n\n    }  \n\n    // \n    uint[] public topRobots;\n}",
  "sourcePath": "/Users/liqinghao/Desktop/RoboHashWeb3/contracts/robotgame/Star.sol",
  "compiler": {
    "name": "solc",
    "version": "0.8.21+commit.d9974bed.Emscripten.clang"
  },
  "schemaVersion": "3.4.16",
  "updatedAt": "2023-10-27T09:47:39.565Z",
  "devdoc": {
    "kind": "dev",
    "methods": {
      "isOwner()": {
        "returns": {
          "_0": "true if `msg.sender` is the owner of the contract."
        }
      },
      "owner()": {
        "returns": {
          "_0": "the address of the owner."
        }
      },
      "renounceOwnership()": {
        "details": "Allows the current owner to relinquish control of the contract."
      },
      "transferOwnership(address)": {
        "details": "Allows the current owner to transfer control of the contract to a newOwner.",
        "params": {
          "newOwner": "The address to transfer ownership to."
        }
      }
    },
    "version": 1
  },
  "userdoc": {
    "kind": "user",
    "methods": {
      "renounceOwnership()": {
        "notice": "Renouncing to ownership will leave the contract without an owner. It will not be possible to call the functions with the `onlyOwner` modifier anymore."
      }
    },
    "version": 1
  }
}