{
  "contractName": "Start",
  "abi": [
    {
      "inputs": [],
      "stateMutability": "nonpayable",
      "type": "constructor"
    },
    {
      "anonymous": false,
      "inputs": [
        {
          "indexed": false,
          "internalType": "string",
          "name": "name",
          "type": "string"
        },
        {
          "indexed": true,
          "internalType": "address",
          "name": "owner",
          "type": "address"
        }
      ],
      "name": "DropRobot",
      "type": "event"
    },
    {
      "anonymous": false,
      "inputs": [
        {
          "indexed": false,
          "internalType": "uint256",
          "name": "id",
          "type": "uint256"
        },
        {
          "indexed": false,
          "internalType": "string",
          "name": "name",
          "type": "string"
        },
        {
          "indexed": false,
          "internalType": "string",
          "name": "dna",
          "type": "string"
        },
        {
          "indexed": true,
          "internalType": "address",
          "name": "owner",
          "type": "address"
        }
      ],
      "name": "NewCommander",
      "type": "event"
    },
    {
      "anonymous": false,
      "inputs": [
        {
          "indexed": false,
          "internalType": "uint256",
          "name": "id",
          "type": "uint256"
        },
        {
          "indexed": false,
          "internalType": "string",
          "name": "name",
          "type": "string"
        },
        {
          "indexed": false,
          "internalType": "string",
          "name": "dna",
          "type": "string"
        },
        {
          "indexed": false,
          "internalType": "uint256",
          "name": "spieces",
          "type": "uint256"
        },
        {
          "indexed": true,
          "internalType": "address",
          "name": "owner",
          "type": "address"
        }
      ],
      "name": "NewRobot",
      "type": "event"
    },
    {
      "anonymous": false,
      "inputs": [
        {
          "indexed": true,
          "internalType": "address",
          "name": "previousOwner",
          "type": "address"
        },
        {
          "indexed": true,
          "internalType": "address",
          "name": "newOwner",
          "type": "address"
        }
      ],
      "name": "OwnershipTransferred",
      "type": "event"
    },
    {
      "inputs": [
        {
          "internalType": "string",
          "name": "name",
          "type": "string"
        }
      ],
      "name": "CreateCommander",
      "outputs": [],
      "stateMutability": "nonpayable",
      "type": "function"
    },
    {
      "inputs": [
        {
          "internalType": "uint256",
          "name": "robotId",
          "type": "uint256"
        }
      ],
      "name": "buyRobot",
      "outputs": [],
      "stateMutability": "payable",
      "type": "function"
    },
    {
      "inputs": [
        {
          "internalType": "uint256",
          "name": "",
          "type": "uint256"
        }
      ],
      "name": "commanders",
      "outputs": [
        {
          "internalType": "string",
          "name": "name",
          "type": "string"
        },
        {
          "internalType": "string",
          "name": "dna",
          "type": "string"
        },
        {
          "internalType": "uint64",
          "name": "getFreeRobotReadyTime",
          "type": "uint64"
        },
        {
          "internalType": "uint64",
          "name": "giveStarReadyTime",
          "type": "uint64"
        }
      ],
      "stateMutability": "view",
      "type": "function"
    },
    {
      "inputs": [
        {
          "internalType": "uint256",
          "name": "robotId",
          "type": "uint256"
        }
      ],
      "name": "dropRobot",
      "outputs": [],
      "stateMutability": "nonpayable",
      "type": "function"
    },
    {
      "inputs": [
        {
          "internalType": "uint256",
          "name": "choice",
          "type": "uint256"
        },
        {
          "internalType": "uint256",
          "name": "robotId",
          "type": "uint256"
        }
      ],
      "name": "gamble",
      "outputs": [],
      "stateMutability": "nonpayable",
      "type": "function"
    },
    {
      "inputs": [],
      "name": "getFreeRobot",
      "outputs": [],
      "stateMutability": "nonpayable",
      "type": "function"
    },
    {
      "inputs": [],
      "name": "getRobotsByOwner",
      "outputs": [
        {
          "internalType": "uint256[]",
          "name": "",
          "type": "uint256[]"
        }
      ],
      "stateMutability": "view",
      "type": "function"
    },
    {
      "inputs": [
        {
          "internalType": "uint256",
          "name": "robotId",
          "type": "uint256"
        }
      ],
      "name": "giveStar",
      "outputs": [],
      "stateMutability": "nonpayable",
      "type": "function"
    },
    {
      "inputs": [],
      "name": "isOwner",
      "outputs": [
        {
          "internalType": "bool",
          "name": "",
          "type": "bool"
        }
      ],
      "stateMutability": "view",
      "type": "function"
    },
    {
      "inputs": [
        {
          "internalType": "uint256",
          "name": "",
          "type": "uint256"
        }
      ],
      "name": "markets",
      "outputs": [
        {
          "internalType": "uint256",
          "name": "",
          "type": "uint256"
        }
      ],
      "stateMutability": "view",
      "type": "function"
    },
    {
      "inputs": [
        {
          "internalType": "string",
          "name": "newDna",
          "type": "string"
        }
      ],
      "name": "modifyCommanderDna",
      "outputs": [],
      "stateMutability": "payable",
      "type": "function"
    },
    {
      "inputs": [
        {
          "internalType": "string",
          "name": "newName",
          "type": "string"
        }
      ],
      "name": "modifyCommanderName",
      "outputs": [],
      "stateMutability": "payable",
      "type": "function"
    },
    {
      "inputs": [],
      "name": "owner",
      "outputs": [
        {
          "internalType": "address",
          "name": "",
          "type": "address"
        }
      ],
      "stateMutability": "view",
      "type": "function"
    },
    {
      "inputs": [
        {
          "internalType": "address",
          "name": "",
          "type": "address"
        }
      ],
      "name": "ownerRobotCount",
      "outputs": [
        {
          "internalType": "uint256",
          "name": "",
          "type": "uint256"
        }
      ],
      "stateMutability": "view",
      "type": "function"
    },
    {
      "inputs": [
        {
          "internalType": "address",
          "name": "",
          "type": "address"
        }
      ],
      "name": "ownerToCommander",
      "outputs": [
        {
          "internalType": "uint256",
          "name": "",
          "type": "uint256"
        }
      ],
      "stateMutability": "view",
      "type": "function"
    },
    {
      "inputs": [],
      "name": "renounceOwnership",
      "outputs": [],
      "stateMutability": "nonpayable",
      "type": "function"
    },
    {
      "inputs": [
        {
          "internalType": "uint256",
          "name": "",
          "type": "uint256"
        }
      ],
      "name": "robotToOwner",
      "outputs": [
        {
          "internalType": "address",
          "name": "",
          "type": "address"
        }
      ],
      "stateMutability": "view",
      "type": "function"
    },
    {
      "inputs": [
        {
          "internalType": "uint256",
          "name": "",
          "type": "uint256"
        }
      ],
      "name": "robots",
      "outputs": [
        {
          "internalType": "string",
          "name": "name",
          "type": "string"
        },
        {
          "internalType": "string",
          "name": "dna",
          "type": "string"
        },
        {
          "internalType": "uint8",
          "name": "spieces",
          "type": "uint8"
        },
        {
          "internalType": "uint8",
          "name": "status",
          "type": "uint8"
        },
        {
          "internalType": "uint32",
          "name": "stars",
          "type": "uint32"
        },
        {
          "internalType": "uint256",
          "name": "price",
          "type": "uint256"
        },
        {
          "internalType": "uint256",
          "name": "idInMarket",
          "type": "uint256"
        }
      ],
      "stateMutability": "view",
      "type": "function"
    },
    {
      "inputs": [
        {
          "internalType": "uint256",
          "name": "robotId",
          "type": "uint256"
        },
        {
          "internalType": "uint256",
          "name": "price",
          "type": "uint256"
        }
      ],
      "name": "saleRobot",
      "outputs": [],
      "stateMutability": "nonpayable",
      "type": "function"
    },
    {
      "inputs": [
        {
          "internalType": "uint256",
          "name": "fee",
          "type": "uint256"
        }
      ],
      "name": "setLevelupFee",
      "outputs": [],
      "stateMutability": "nonpayable",
      "type": "function"
    },
    {
      "inputs": [
        {
          "internalType": "uint256",
          "name": "robotId",
          "type": "uint256"
        },
        {
          "internalType": "string",
          "name": "newName",
          "type": "string"
        }
      ],
      "name": "setRobotName",
      "outputs": [],
      "stateMutability": "payable",
      "type": "function"
    },
    {
      "inputs": [
        {
          "internalType": "uint256",
          "name": "robotId",
          "type": "uint256"
        },
        {
          "internalType": "uint256",
          "name": "price",
          "type": "uint256"
        }
      ],
      "name": "setRobotPrice",
      "outputs": [],
      "stateMutability": "nonpayable",
      "type": "function"
    },
    {
      "inputs": [
        {
          "internalType": "uint256",
          "name": "",
          "type": "uint256"
        }
      ],
      "name": "topRobots",
      "outputs": [
        {
          "internalType": "uint256",
          "name": "",
          "type": "uint256"
        }
      ],
      "stateMutability": "view",
      "type": "function"
    },
    {
      "inputs": [
        {
          "internalType": "address",
          "name": "newOwner",
          "type": "address"
        }
      ],
      "name": "transferOwnership",
      "outputs": [],
      "stateMutability": "nonpayable",
      "type": "function"
    },
    {
      "inputs": [
        {
          "internalType": "uint256",
          "name": "robotId",
          "type": "uint256"
        }
      ],
      "name": "unSaleRobot",
      "outputs": [],
      "stateMutability": "nonpayable",
      "type": "function"
    }
  ],
  "bytecode": "0x6080604052620151806001555f60025566038d7ea4c6800060085534801562000026575f80fd5b50335f806101000a81548173ffffffffffffffffffffffffffffffffffffffff021916908373ffffffffffffffffffffffffffffffffffffffff1602179055505f8054906101000a900473ffffffffffffffffffffffffffffffffffffffff1673ffffffffffffffffffffffffffffffffffffffff165f73ffffffffffffffffffffffffffffffffffffffff167f8be0079c531659141344cd1fd0a4f28419497f9722a3daafe3b4186f6b6457e060405160405180910390a3600360405180608001604052806040518060400160405280600481526020017f696e69740000000000000000000000000000000000000000000000000000000081525081526020016040518060400160405280600481526020017f696e69740000000000000000000000000000000000000000000000000000000081525081526020015f67ffffffffffffffff1681526020015f67ffffffffffffffff16815250908060018154018082558091505060019003905f5260205f2090600302015f909190919091505f820151815f019081620001bb91906200049d565b506020820151816001019081620001d391906200049d565b506040820151816002015f6101000a81548167ffffffffffffffff021916908367ffffffffffffffff16021790555060608201518160020160086101000a81548167ffffffffffffffff021916908367ffffffffffffffff160217905550505062000581565b5f81519050919050565b7f4e487b71000000000000000000000000000000000000000000000000000000005f52604160045260245ffd5b7f4e487b71000000000000000000000000000000000000000000000000000000005f52602260045260245ffd5b5f6002820490506001821680620002b557607f821691505b602082108103620002cb57620002ca62000270565b5b50919050565b5f819050815f5260205f209050919050565b5f6020601f8301049050919050565b5f82821b905092915050565b5f600883026200032f7fffffffffffffffffffffffffffffffffffffffffffffffffffffffffffffffff82620002f2565b6200033b8683620002f2565b95508019841693508086168417925050509392505050565b5f819050919050565b5f819050919050565b5f620003856200037f620003798462000353565b6200035c565b62000353565b9050919050565b5f819050919050565b620003a08362000365565b620003b8620003af826200038c565b848454620002fe565b825550505050565b5f90565b620003ce620003c0565b620003db81848462000395565b505050565b5b818110156200040257620003f65f82620003c4565b600181019050620003e1565b5050565b601f82111562000451576200041b81620002d1565b6200042684620002e3565b8101602085101562000436578190505b6200044e6200044585620002e3565b830182620003e0565b50505b505050565b5f82821c905092915050565b5f620004735f198460080262000456565b1980831691505092915050565b5f6200048d838362000462565b9150826002028217905092915050565b620004a88262000239565b67ffffffffffffffff811115620004c457620004c362000243565b5b620004d082546200029d565b620004dd82828562000406565b5f60209050601f83116001811462000513575f8415620004fe578287015190505b6200050a858262000480565b86555062000579565b601f1984166200052386620002d1565b5f5b828110156200054c5784890151825560018201915060208501945060208101905062000525565b868310156200056c578489015162000568601f89168262000462565b8355505b6001600288020188555050505b505050505050565b6138cd806200058f5f395ff3fe608060405260043610610165575f3560e01c80639b41bb69116100d0578063b331ae5711610089578063e900574d11610063578063e900574d14610504578063e9ca0f2a14610520578063f242da1214610548578063f2fde38b1461057057610165565b8063b331ae5714610496578063d06bd9e7146104b2578063d1763b3a146104da57610165565b80639b41bb691461038a578063a03937c5146103b2578063a1a4d91c146103f4578063a7d9e53e1461041c578063b060ff1914610444578063b1283e771461045a57610165565b80637c4213de116101225780637c4213de146102865780638da5cb5b146102a25780638f32d59b146102cc5780639403a0ce146102f657806395505961146103325780639949460c1461036e57610165565b806308bdadf81461016957806322e8c8fc14610191578063492d8b3d146101b957806365ceceb1146101f85780636aa438dc14610234578063715018a614610270575b5f80fd5b348015610174575f80fd5b5061018f600480360381019061018a91906125bd565b610598565b005b34801561019c575f80fd5b506101b760048036038101906101b291906125bd565b610700565b005b3480156101c4575f80fd5b506101df60048036038101906101da91906125fb565b610840565b6040516101ef94939291906126d2565b60405180910390f35b348015610203575f80fd5b5061021e6004803603810190610219919061277d565b6109ae565b60405161022b91906127b7565b60405180910390f35b34801561023f575f80fd5b5061025a6004803603810190610255919061277d565b6109c3565b60405161026791906127b7565b60405180910390f35b34801561027b575f80fd5b506102846109d8565b005b6102a0600480360381019061029b9190612831565b610aa2565b005b3480156102ad575f80fd5b506102b6610b64565b6040516102c3919061288b565b60405180910390f35b3480156102d7575f80fd5b506102e0610b8b565b6040516102ed91906128be565b60405180910390f35b348015610301575f80fd5b5061031c600480360381019061031791906125fb565b610be0565b604051610329919061288b565b60405180910390f35b34801561033d575f80fd5b50610358600480360381019061035391906125fb565b610c10565b60405161036591906127b7565b60405180910390f35b61038860048036038101906103839190612831565b610c30565b005b348015610395575f80fd5b506103b060048036038101906103ab91906125fb565b610cf1565b005b3480156103bd575f80fd5b506103d860048036038101906103d391906125fb565b610e59565b6040516103eb9796959493929190612910565b60405180910390f35b3480156103ff575f80fd5b5061041a60048036038101906104159190612831565b610fdb565b005b348015610427575f80fd5b50610442600480360381019061043d91906125bd565b61126d565b005b34801561044f575f80fd5b50610458611339565b005b348015610465575f80fd5b50610480600480360381019061047b91906125fb565b61143f565b60405161048d91906127b7565b60405180910390f35b6104b060048036038101906104ab91906125fb565b61145f565b005b3480156104bd575f80fd5b506104d860048036038101906104d391906125fb565b61178c565b005b3480156104e5575f80fd5b506104ee611929565b6040516104fb9190612a42565b60405180910390f35b61051e60048036038101906105199190612a62565b611a72565b005b34801561052b575f80fd5b50610546600480360381019061054191906125fb565b611c47565b005b348015610553575f80fd5b5061056e600480360381019061056991906125fb565b612080565b005b34801561057b575f80fd5b506105966004803603810190610591919061277d565b61209a565b005b8160065f8281526020019081526020015f205f9054906101000a900473ffffffffffffffffffffffffffffffffffffffff1673ffffffffffffffffffffffffffffffffffffffff163373ffffffffffffffffffffffffffffffffffffffff1614610637576040517f08c379a000000000000000000000000000000000000000000000000000000000815260040161062e90612b09565b60405180910390fd5b600a83908060018154018082558091505060019003905f5260205f20015f909190919091505560016004848154811061067357610672612b27565b5b905f5260205f20906005020160020160016101000a81548160ff021916908360ff16021790555081600484815481106106af576106ae612b27565b5b905f5260205f209060050201600301819055506001600a805490506106d49190612b81565b600484815481106106e8576106e7612b27565b5b905f5260205f20906005020160040181905550505050565b8060065f8281526020019081526020015f205f9054906101000a900473ffffffffffffffffffffffffffffffffffffffff1673ffffffffffffffffffffffffffffffffffffffff163373ffffffffffffffffffffffffffffffffffffffff161461079f576040517f08c379a000000000000000000000000000000000000000000000000000000000815260040161079690612b09565b60405180910390fd5b5f60016107ac60066120b6565b6107b69190612bb4565b90505f600382116107c9575f90506107ce565b600190505b8085036107e2576107dd61210f565b610839565b6107ea610b64565b60065f8681526020019081526020015f205f6101000a81548173ffffffffffffffffffffffffffffffffffffffff021916908373ffffffffffffffffffffffffffffffffffffffff1602179055505b5050505050565b6003818154811061084f575f80fd5b905f5260205f2090600302015f91509050805f01805461086e90612c14565b80601f016020809104026020016040519081016040528092919081815260200182805461089a90612c14565b80156108e55780601f106108bc576101008083540402835291602001916108e5565b820191905f5260205f20905b8154815290600101906020018083116108c857829003601f168201915b5050505050908060010180546108fa90612c14565b80601f016020809104026020016040519081016040528092919081815260200182805461092690612c14565b80156109715780601f1061094857610100808354040283529160200191610971565b820191905f5260205f20905b81548152906001019060200180831161095457829003601f168201915b505050505090806002015f9054906101000a900467ffffffffffffffff16908060020160089054906101000a900467ffffffffffffffff16905084565b6007602052805f5260405f205f915090505481565b6005602052805f5260405f205f915090505481565b6109e0610b8b565b6109e8575f80fd5b5f73ffffffffffffffffffffffffffffffffffffffff165f8054906101000a900473ffffffffffffffffffffffffffffffffffffffff1673ffffffffffffffffffffffffffffffffffffffff167f8be0079c531659141344cd1fd0a4f28419497f9722a3daafe3b4186f6b6457e060405160405180910390a35f805f6101000a81548173ffffffffffffffffffffffffffffffffffffffff021916908373ffffffffffffffffffffffffffffffffffffffff160217905550565b6008543414610ae6576040517f08c379a0000000000000000000000000000000000000000000000000000000008152600401610add90612c8e565b60405180910390fd5b5f60055f3373ffffffffffffffffffffffffffffffffffffffff1673ffffffffffffffffffffffffffffffffffffffff1681526020019081526020015f205490505f60038281548110610b3c57610b3b612b27565b5b905f5260205f20906003020190508383826001019182610b5d929190612e80565b5050505050565b5f805f9054906101000a900473ffffffffffffffffffffffffffffffffffffffff16905090565b5f805f9054906101000a900473ffffffffffffffffffffffffffffffffffffffff1673ffffffffffffffffffffffffffffffffffffffff163373ffffffffffffffffffffffffffffffffffffffff1614905090565b6006602052805f5260405f205f915054906101000a900473ffffffffffffffffffffffffffffffffffffffff1681565b60098181548110610c1f575f80fd5b905f5260205f20015f915090505481565b6008543414610c74576040517f08c379a0000000000000000000000000000000000000000000000000000000008152600401610c6b90612c8e565b60405180910390fd5b5f60055f3373ffffffffffffffffffffffffffffffffffffffff1673ffffffffffffffffffffffffffffffffffffffff1681526020019081526020015f205490505f60038281548110610cca57610cc9612b27565b5b905f5260205f20906003020190508383825f019182610cea929190612e80565b5050505050565b8060065f8281526020019081526020015f205f9054906101000a900473ffffffffffffffffffffffffffffffffffffffff1673ffffffffffffffffffffffffffffffffffffffff163373ffffffffffffffffffffffffffffffffffffffff1614610d90576040517f08c379a0000000000000000000000000000000000000000000000000000000008152600401610d8790612b09565b60405180910390fd5b610d98610b64565b60065f8481526020019081526020015f205f6101000a81548173ffffffffffffffffffffffffffffffffffffffff021916908373ffffffffffffffffffffffffffffffffffffffff1602179055503373ffffffffffffffffffffffffffffffffffffffff167f21a51e05aaba7d9dfc436f444cce7ae7c5080aec1a649777bb7f2561643aaad560048481548110610e3257610e31612b27565b5b905f5260205f2090600502015f01604051610e4d9190612fce565b60405180910390a25050565b60048181548110610e68575f80fd5b905f5260205f2090600502015f91509050805f018054610e8790612c14565b80601f0160208091040260200160405190810160405280929190818152602001828054610eb390612c14565b8015610efe5780601f10610ed557610100808354040283529160200191610efe565b820191905f5260205f20905b815481529060010190602001808311610ee157829003601f168201915b505050505090806001018054610f1390612c14565b80601f0160208091040260200160405190810160405280929190818152602001828054610f3f90612c14565b8015610f8a5780601f10610f6157610100808354040283529160200191610f8a565b820191905f5260205f20905b815481529060010190602001808311610f6d57829003601f168201915b505050505090806002015f9054906101000a900460ff16908060020160019054906101000a900460ff16908060020160029054906101000a900463ffffffff16908060030154908060040154905087565b5f60055f3373ffffffffffffffffffffffffffffffffffffffff1673ffffffffffffffffffffffffffffffffffffffff1681526020019081526020015f20540361105a576040517f08c379a000000000000000000000000000000000000000000000000000000000815260040161105190613038565b60405180910390fd5b5f6040518060400160405280600c81526020017f72616e646f6d537472696e67000000000000000000000000000000000000000081525090506003604051806080016040528085858080601f0160208091040260200160405190810160405280939291908181526020018383808284375f81840152601f19601f8201169050808301925050505050505081526020018381526020014267ffffffffffffffff1681526020014267ffffffffffffffff16815250908060018154018082558091505060019003905f5260205f2090600302015f909190919091505f820151815f0190816111469190613056565b50602082015181600101908161115c9190613056565b506040820151816002015f6101000a81548167ffffffffffffffff021916908367ffffffffffffffff16021790555060608201518160020160086101000a81548167ffffffffffffffff021916908367ffffffffffffffff16021790555050505f60016003805490506111cf9190612b81565b90508060055f3373ffffffffffffffffffffffffffffffffffffffff1673ffffffffffffffffffffffffffffffffffffffff1681526020019081526020015f20819055503373ffffffffffffffffffffffffffffffffffffffff167f0ba589754bdc7c1e308a8ce3362a7b42600571fdd695534edd1e0182e187149f8286868660405161125f949392919061315f565b60405180910390a250505050565b8160065f8281526020019081526020015f205f9054906101000a900473ffffffffffffffffffffffffffffffffffffffff1673ffffffffffffffffffffffffffffffffffffffff163373ffffffffffffffffffffffffffffffffffffffff161461130c576040517f08c379a000000000000000000000000000000000000000000000000000000000815260040161130390612b09565b60405180910390fd5b816004848154811061132157611320612b27565b5b905f5260205f20906005020160030181905550505050565b5f600360055f3373ffffffffffffffffffffffffffffffffffffffff1673ffffffffffffffffffffffffffffffffffffffff1681526020019081526020015f20548154811061138b5761138a612b27565b5b905f5260205f209060030201905042816002015f9054906101000a900467ffffffffffffffff1667ffffffffffffffff1611156113fd576040517f08c379a00000000000000000000000000000000000000000000000000000000081526004016113f490613214565b60405180910390fd5b611405612119565b600154426114139190612bb4565b816002015f6101000a81548167ffffffffffffffff021916908367ffffffffffffffff16021790555050565b600a818154811061144e575f80fd5b905f5260205f20015f915090505481565b60065f8281526020019081526020015f205f9054906101000a900473ffffffffffffffffffffffffffffffffffffffff1673ffffffffffffffffffffffffffffffffffffffff163373ffffffffffffffffffffffffffffffffffffffff16036114fd576040517f08c379a00000000000000000000000000000000000000000000000000000000081526004016114f4906132a2565b60405180910390fd5b60016004828154811061151357611512612b27565b5b905f5260205f20906005020160020160019054906101000a900460ff1660ff1614611573576040517f08c379a000000000000000000000000000000000000000000000000000000000815260040161156a9061330a565b60405180910390fd5b6004818154811061158757611586612b27565b5b905f5260205f2090600502016003015434146115a1575f80fd5b600a6001600a805490506115b59190612b81565b815481106115c6576115c5612b27565b5b905f5260205f200154600a600483815481106115e5576115e4612b27565b5b905f5260205f209060050201600401548154811061160657611605612b27565b5b905f5260205f200181905550600a80548061162457611623613328565b5b600190038181905f5260205f20015f905590555f6004828154811061164c5761164b612b27565b5b905f5260205f20906005020160020160016101000a81548160ff021916908360ff1602179055505f6004828154811061168857611687612b27565b5b905f5260205f209060050201600301819055505f60065f8381526020019081526020015f205f9054906101000a900473ffffffffffffffffffffffffffffffffffffffff1690503360065f8481526020019081526020015f205f6101000a81548173ffffffffffffffffffffffffffffffffffffffff021916908373ffffffffffffffffffffffffffffffffffffffff1602179055508073ffffffffffffffffffffffffffffffffffffffff166108fc61175f605f61175160643461243190919063ffffffff16565b61244b90919063ffffffff16565b90811502906040515f60405180830381858888f19350505050158015611787573d5f803e3d5ffd5b505050565b8060065f8281526020019081526020015f205f9054906101000a900473ffffffffffffffffffffffffffffffffffffffff1673ffffffffffffffffffffffffffffffffffffffff163373ffffffffffffffffffffffffffffffffffffffff161461182b576040517f08c379a000000000000000000000000000000000000000000000000000000000815260040161182290612b09565b60405180910390fd5b600a6001600a8054905061183f9190612b81565b815481106118505761184f612b27565b5b905f5260205f200154600a6004848154811061186f5761186e612b27565b5b905f5260205f20906005020160040154815481106118905761188f612b27565b5b905f5260205f200181905550600a8054806118ae576118ad613328565b5b600190038181905f5260205f20015f905590555f600483815481106118d6576118d5612b27565b5b905f5260205f20906005020160020160016101000a81548160ff021916908360ff1602179055505f6004838154811061191257611911612b27565b5b905f5260205f209060050201600301819055505050565b60605f60075f3373ffffffffffffffffffffffffffffffffffffffff1673ffffffffffffffffffffffffffffffffffffffff1681526020019081526020015f205467ffffffffffffffff81111561198357611982612cb6565b5b6040519080825280602002602001820160405280156119b15781602001602082028036833780820191505090505b5090505f805b600480549050811015611a69573373ffffffffffffffffffffffffffffffffffffffff1660065f8381526020019081526020015f205f9054906101000a900473ffffffffffffffffffffffffffffffffffffffff1673ffffffffffffffffffffffffffffffffffffffff1603611a565780838381518110611a3b57611a3a612b27565b5b6020026020010181815250508180611a5290613355565b9250505b8080611a6190613355565b9150506119b7565b50819250505090565b8260065f8281526020019081526020015f205f9054906101000a900473ffffffffffffffffffffffffffffffffffffffff1673ffffffffffffffffffffffffffffffffffffffff163373ffffffffffffffffffffffffffffffffffffffff1614611b11576040517f08c379a0000000000000000000000000000000000000000000000000000000008152600401611b0890612b09565b60405180910390fd5b604051602001611b20906133e6565b6040516020818303038152906040528051906020012060048581548110611b4a57611b49612b27565b5b905f5260205f2090600502015f01604051602001611b689190612fce565b6040516020818303038152906040528051906020012014611bc8576008543414611bc7576040517f08c379a0000000000000000000000000000000000000000000000000000000008152600401611bbe90612c8e565b60405180910390fd5b5b6014838390501115611c0f576040517f08c379a0000000000000000000000000000000000000000000000000000000008152600401611c0690613474565b60405180910390fd5b828260048681548110611c2557611c24612b27565b5b905f5260205f2090600502015f019182611c40929190612e80565b5050505050565b60065f8281526020019081526020015f205f9054906101000a900473ffffffffffffffffffffffffffffffffffffffff1673ffffffffffffffffffffffffffffffffffffffff163373ffffffffffffffffffffffffffffffffffffffff1603611ce5576040517f08c379a0000000000000000000000000000000000000000000000000000000008152600401611cdc90613502565b60405180910390fd5b5f600360055f3373ffffffffffffffffffffffffffffffffffffffff1673ffffffffffffffffffffffffffffffffffffffff1681526020019081526020015f205481548110611d3757611d36612b27565b5b905f5260205f2090600302019050428160020160089054906101000a900467ffffffffffffffff1667ffffffffffffffff161115611daa576040517f08c379a0000000000000000000000000000000000000000000000000000000008152600401611da190613590565b60405180910390fd5b60048281548110611dbe57611dbd612b27565b5b905f5260205f209060050201600201600281819054906101000a900463ffffffff1680929190611ded906135ae565b91906101000a81548163ffffffff021916908363ffffffff160217905550506001548160020160088282829054906101000a900467ffffffffffffffff16611e3591906135d9565b92506101000a81548167ffffffffffffffff021916908367ffffffffffffffff16021790555060646009805490501015611e9457600982908060018154018082558091505060019003905f5260205f20015f9091909190915055611f14565b60095f81548110611ea857611ea7612b27565b5b905f5260205f20015460048381548110611ec557611ec4612b27565b5b905f5260205f20906005020160020160029054906101000a900463ffffffff1663ffffffff161115611f13578160095f81548110611f0657611f05612b27565b5b905f5260205f2001819055505b5b60646009805490500361207c575f80600190505b6064811015611ffa57600460098381548110611f4757611f46612b27565b5b905f5260205f20015481548110611f6157611f60612b27565b5b905f5260205f20906005020160020160029054906101000a900463ffffffff1663ffffffff16600460098381548110611f9d57611f9c612b27565b5b905f5260205f20015481548110611fb757611fb6612b27565b5b905f5260205f20906005020160020160029054906101000a900463ffffffff1663ffffffff161015611fe7578091505b8080611ff290613355565b915050611f28565b505f60095f815481106120105761200f612b27565b5b905f5260205f20015490506009828154811061202f5761202e612b27565b5b905f5260205f20015460095f8154811061204c5761204b612b27565b5b905f5260205f200181905550806009838154811061206d5761206c612b27565b5b905f5260205f20018190555050505b5050565b612088610b8b565b612090575f80fd5b8060088190555050565b6120a2610b8b565b6120aa575f80fd5b6120b381612490565b50565b5f60025f8154809291906120c990613355565b91905055508142336002546040516020016120e693929190613679565b604051602081830303815290604052805190602001205f1c61210891906136e2565b9050919050565b612117612119565b565b606460075f3373ffffffffffffffffffffffffffffffffffffffff1673ffffffffffffffffffffffffffffffffffffffff1681526020019081526020015f2054111561219a576040517f08c379a00000000000000000000000000000000000000000000000000000000081526004016121919061375c565b60405180910390fd5b5f6121a560026120b6565b90505f6040518060400160405280600c81526020017f72616e646f6d537472696e670000000000000000000000000000000000000000815250905060046040518060e001604052806040518060400160405280600681526020017f6e6f4e616d65000000000000000000000000000000000000000000000000000081525081526020018381526020018460ff1681526020015f60ff1681526020015f63ffffffff1681526020015f81526020015f815250908060018154018082558091505060019003905f5260205f2090600502015f909190919091505f820151815f01908161228f9190613056565b5060208201518160010190816122a59190613056565b506040820151816002015f6101000a81548160ff021916908360ff16021790555060608201518160020160016101000a81548160ff021916908360ff16021790555060808201518160020160026101000a81548163ffffffff021916908363ffffffff16021790555060a0820151816003015560c0820151816004015550505f60016004805490506123379190612b81565b90503360065f8381526020019081526020015f205f6101000a81548173ffffffffffffffffffffffffffffffffffffffff021916908373ffffffffffffffffffffffffffffffffffffffff16021790555060075f3373ffffffffffffffffffffffffffffffffffffffff1673ffffffffffffffffffffffffffffffffffffffff1681526020019081526020015f205f8154809291906123d590613355565b91905055503373ffffffffffffffffffffffffffffffffffffffff167fe4bc06e69dd7a0f1bc9ef5db431d371f0cab41d8156a6012711823b90466715b828486604051612424939291906137aa565b60405180910390a2505050565b5f80828461243f91906137f9565b90508091505092915050565b5f80830361245b575f905061248a565b5f82846124689190613829565b905082848261247791906137f9565b146124855761248461386a565b5b809150505b92915050565b5f73ffffffffffffffffffffffffffffffffffffffff168173ffffffffffffffffffffffffffffffffffffffff16036124c7575f80fd5b8073ffffffffffffffffffffffffffffffffffffffff165f8054906101000a900473ffffffffffffffffffffffffffffffffffffffff1673ffffffffffffffffffffffffffffffffffffffff167f8be0079c531659141344cd1fd0a4f28419497f9722a3daafe3b4186f6b6457e060405160405180910390a3805f806101000a81548173ffffffffffffffffffffffffffffffffffffffff021916908373ffffffffffffffffffffffffffffffffffffffff16021790555050565b5f80fd5b5f80fd5b5f819050919050565b61259c8161258a565b81146125a6575f80fd5b50565b5f813590506125b781612593565b92915050565b5f80604083850312156125d3576125d2612582565b5b5f6125e0858286016125a9565b92505060206125f1858286016125a9565b9150509250929050565b5f602082840312156126105761260f612582565b5b5f61261d848285016125a9565b91505092915050565b5f81519050919050565b5f82825260208201905092915050565b5f5b8381101561265d578082015181840152602081019050612642565b5f8484015250505050565b5f601f19601f8301169050919050565b5f61268282612626565b61268c8185612630565b935061269c818560208601612640565b6126a581612668565b840191505092915050565b5f67ffffffffffffffff82169050919050565b6126cc816126b0565b82525050565b5f6080820190508181035f8301526126ea8187612678565b905081810360208301526126fe8186612678565b905061270d60408301856126c3565b61271a60608301846126c3565b95945050505050565b5f73ffffffffffffffffffffffffffffffffffffffff82169050919050565b5f61274c82612723565b9050919050565b61275c81612742565b8114612766575f80fd5b50565b5f8135905061277781612753565b92915050565b5f6020828403121561279257612791612582565b5b5f61279f84828501612769565b91505092915050565b6127b18161258a565b82525050565b5f6020820190506127ca5f8301846127a8565b92915050565b5f80fd5b5f80fd5b5f80fd5b5f8083601f8401126127f1576127f06127d0565b5b8235905067ffffffffffffffff81111561280e5761280d6127d4565b5b60208301915083600182028301111561282a576128296127d8565b5b9250929050565b5f806020838503121561284757612846612582565b5b5f83013567ffffffffffffffff81111561286457612863612586565b5b612870858286016127dc565b92509250509250929050565b61288581612742565b82525050565b5f60208201905061289e5f83018461287c565b92915050565b5f8115159050919050565b6128b8816128a4565b82525050565b5f6020820190506128d15f8301846128af565b92915050565b5f60ff82169050919050565b6128ec816128d7565b82525050565b5f63ffffffff82169050919050565b61290a816128f2565b82525050565b5f60e0820190508181035f830152612928818a612678565b9050818103602083015261293c8189612678565b905061294b60408301886128e3565b61295860608301876128e3565b6129656080830186612901565b61297260a08301856127a8565b61297f60c08301846127a8565b98975050505050505050565b5f81519050919050565b5f82825260208201905092915050565b5f819050602082019050919050565b6129bd8161258a565b82525050565b5f6129ce83836129b4565b60208301905092915050565b5f602082019050919050565b5f6129f08261298b565b6129fa8185612995565b9350612a05836129a5565b805f5b83811015612a35578151612a1c88826129c3565b9750612a27836129da565b925050600181019050612a08565b5085935050505092915050565b5f6020820190508181035f830152612a5a81846129e6565b905092915050565b5f805f60408486031215612a7957612a78612582565b5b5f612a86868287016125a9565b935050602084013567ffffffffffffffff811115612aa757612aa6612586565b5b612ab3868287016127dc565b92509250509250925092565b7f4e6f7420796f757220726f626f742e00000000000000000000000000000000005f82015250565b5f612af3600f83612630565b9150612afe82612abf565b602082019050919050565b5f6020820190508181035f830152612b2081612ae7565b9050919050565b7f4e487b71000000000000000000000000000000000000000000000000000000005f52603260045260245ffd5b7f4e487b71000000000000000000000000000000000000000000000000000000005f52601160045260245ffd5b5f612b8b8261258a565b9150612b968361258a565b9250828203905081811115612bae57612bad612b54565b5b92915050565b5f612bbe8261258a565b9150612bc98361258a565b9250828201905080821115612be157612be0612b54565b5b92915050565b7f4e487b71000000000000000000000000000000000000000000000000000000005f52602260045260245ffd5b5f6002820490506001821680612c2b57607f821691505b602082108103612c3e57612c3d612be7565b5b50919050565b7f506c656173652070617920656e6f7567682065746865722e00000000000000005f82015250565b5f612c78601883612630565b9150612c8382612c44565b602082019050919050565b5f6020820190508181035f830152612ca581612c6c565b9050919050565b5f82905092915050565b7f4e487b71000000000000000000000000000000000000000000000000000000005f52604160045260245ffd5b5f819050815f5260205f209050919050565b5f6020601f8301049050919050565b5f82821b905092915050565b5f60088302612d3f7fffffffffffffffffffffffffffffffffffffffffffffffffffffffffffffffff82612d04565b612d498683612d04565b95508019841693508086168417925050509392505050565b5f819050919050565b5f612d84612d7f612d7a8461258a565b612d61565b61258a565b9050919050565b5f819050919050565b612d9d83612d6a565b612db1612da982612d8b565b848454612d10565b825550505050565b5f90565b612dc5612db9565b612dd0818484612d94565b505050565b5b81811015612df357612de85f82612dbd565b600181019050612dd6565b5050565b601f821115612e3857612e0981612ce3565b612e1284612cf5565b81016020851015612e21578190505b612e35612e2d85612cf5565b830182612dd5565b50505b505050565b5f82821c905092915050565b5f612e585f1984600802612e3d565b1980831691505092915050565b5f612e708383612e49565b9150826002028217905092915050565b612e8a8383612cac565b67ffffffffffffffff811115612ea357612ea2612cb6565b5b612ead8254612c14565b612eb8828285612df7565b5f601f831160018114612ee5575f8415612ed3578287013590505b612edd8582612e65565b865550612f44565b601f198416612ef386612ce3565b5f5b82811015612f1a57848901358255600182019150602085019450602081019050612ef5565b86831015612f375784890135612f33601f891682612e49565b8355505b6001600288020188555050505b50505050505050565b5f8154612f5981612c14565b612f638186612630565b9450600182165f8114612f7d5760018114612f9357612fc5565b60ff198316865281151560200286019350612fc5565b612f9c85612ce3565b5f5b83811015612fbd57815481890152600182019150602081019050612f9e565b808801955050505b50505092915050565b5f6020820190508181035f830152612fe68184612f4d565b905092915050565b7f596f757220636f6d6d616e64657220616c726561647920657869737465642e005f82015250565b5f613022601f83612630565b915061302d82612fee565b602082019050919050565b5f6020820190508181035f83015261304f81613016565b9050919050565b61305f82612626565b67ffffffffffffffff81111561307857613077612cb6565b5b6130828254612c14565b61308d828285612df7565b5f60209050601f8311600181146130be575f84156130ac578287015190505b6130b68582612e65565b86555061311d565b601f1984166130cc86612ce3565b5f5b828110156130f3578489015182556001820191506020850194506020810190506130ce565b86831015613110578489015161310c601f891682612e49565b8355505b6001600288020188555050505b505050505050565b828183375f83830152505050565b5f61313e8385612630565b935061314b838584613125565b61315483612668565b840190509392505050565b5f6060820190506131725f8301876127a8565b8181036020830152613185818587613133565b905081810360408301526131998184612678565b905095945050505050565b7f4c657373207468616e206f6e65206461792073696e6365206c6173742074696d5f8201527f6520796f75206765742061206672656520726f626f742e000000000000000000602082015250565b5f6131fe603783612630565b9150613209826131a4565b604082019050919050565b5f6020820190508181035f83015261322b816131f2565b9050919050565b7f4974277320796f757220726f626f742c20796f752063616e27742062757920695f8201527f742e000000000000000000000000000000000000000000000000000000000000602082015250565b5f61328c602283612630565b915061329782613232565b604082019050919050565b5f6020820190508181035f8301526132b981613280565b9050919050565b7f5468697320726f626f74206e6f74206f6e2073616c652e0000000000000000005f82015250565b5f6132f4601783612630565b91506132ff826132c0565b602082019050919050565b5f6020820190508181035f830152613321816132e8565b9050919050565b7f4e487b71000000000000000000000000000000000000000000000000000000005f52603160045260245ffd5b5f61335f8261258a565b91507fffffffffffffffffffffffffffffffffffffffffffffffffffffffffffffffff820361339157613390612b54565b5b600182019050919050565b7f6e6f4e616d6500000000000000000000000000000000000000000000000000005f82015250565b5f6133d0600683612630565b91506133db8261339c565b602082019050919050565b5f6020820190508181035f8301526133fd816133c4565b9050919050565b7f526f626f74206e616d652063616e6e6f742065786365656420323020636861725f8201527f6163746572732e00000000000000000000000000000000000000000000000000602082015250565b5f61345e602783612630565b915061346982613404565b604082019050919050565b5f6020820190508181035f83015261348b81613452565b9050919050565b7f596f752063616e6e6f7420676976652061207374617220746f20796f7572206f5f8201527f776e20726f626f742e0000000000000000000000000000000000000000000000602082015250565b5f6134ec602983612630565b91506134f782613492565b604082019050919050565b5f6020820190508181035f830152613519816134e0565b9050919050565b7f4c657373207468616e206f6e65206461792073696e6365206c6173742074696d5f8201527f6520796f752067697665206120737461722e0000000000000000000000000000602082015250565b5f61357a603283612630565b915061358582613520565b604082019050919050565b5f6020820190508181035f8301526135a78161356e565b9050919050565b5f6135b8826128f2565b915063ffffffff82036135ce576135cd612b54565b5b600182019050919050565b5f6135e3826126b0565b91506135ee836126b0565b9250828201905067ffffffffffffffff81111561360e5761360d612b54565b5b92915050565b5f819050919050565b61362e6136298261258a565b613614565b82525050565b5f8160601b9050919050565b5f61364a82613634565b9050919050565b5f61365b82613640565b9050919050565b61367361366e82612742565b613651565b82525050565b5f613684828661361d565b6020820191506136948285613662565b6014820191506136a4828461361d565b602082019150819050949350505050565b7f4e487b71000000000000000000000000000000000000000000000000000000005f52601260045260245ffd5b5f6136ec8261258a565b91506136f78361258a565b925082613707576137066136b5565b5b828206905092915050565b7f596f7572207265706f2069732066756c6c2e00000000000000000000000000005f82015250565b5f613746601283612630565b915061375182613712565b602082019050919050565b5f6020820190508181035f8301526137738161373a565b9050919050565b5f61379461378f61378a846128d7565b612d61565b61258a565b9050919050565b6137a48161377a565b82525050565b5f6080820190506137bd5f8301866127a8565b81810360208301526137ce816133c4565b905081810360408301526137e28185612678565b90506137f1606083018461379b565b949350505050565b5f6138038261258a565b915061380e8361258a565b92508261381e5761381d6136b5565b5b828204905092915050565b5f6138338261258a565b915061383e8361258a565b925082820261384c8161258a565b9150828204841483151761386357613862612b54565b5b5092915050565b7f4e487b71000000000000000000000000000000000000000000000000000000005f52600160045260245ffdfea264697066735822122056691c2831169a3c925574dec3c2b67538838e2ad8ad169df3ec4f6296b05fa564736f6c63430008150033",
  "immutableReferences": {},
  "source": "// SPDX-License-Identifier: GPL-3.0\npragma solidity ^0.8.21;\n\nimport \"./RobotManage.sol\";\nimport \"./Gamble.sol\";\nimport \"./Star.sol\";\nimport \"./Trade.sol\";\n//\ncontract Start is RobotManage, Gamble, Star, Trade {\n    constructor() {\n        commanders.push(Commander(\"init\", \"init\", 0, 0));\n    }\n}",
  "sourcePath": "/Users/liqinghao/Desktop/RoboHashWeb3/contracts/robotgame/Start.sol",
  "compiler": {
    "name": "solc",
    "version": "0.8.21+commit.d9974bed.Emscripten.clang"
  },
  "schemaVersion": "3.4.16",
  "updatedAt": "2023-11-06T02:21:21.353Z",
  "devdoc": {
    "kind": "dev",
    "methods": {
      "isOwner()": {
        "returns": {
          "_0": "true if `msg.sender` is the owner of the contract."
        }
      },
      "owner()": {
        "returns": {
          "_0": "the address of the owner."
        }
      },
      "renounceOwnership()": {
        "details": "Allows the current owner to relinquish control of the contract."
      },
      "transferOwnership(address)": {
        "details": "Allows the current owner to transfer control of the contract to a newOwner.",
        "params": {
          "newOwner": "The address to transfer ownership to."
        }
      }
    },
    "version": 1
  },
  "userdoc": {
    "kind": "user",
    "methods": {
      "renounceOwnership()": {
        "notice": "Renouncing to ownership will leave the contract without an owner. It will not be possible to call the functions with the `onlyOwner` modifier anymore."
      }
    },
    "version": 1
  }
}