{
  "contractName": "Star",
  "abi": [
    {
      "anonymous": false,
      "inputs": [
        {
          "indexed": false,
          "internalType": "uint256",
          "name": "id",
          "type": "uint256"
        },
        {
          "indexed": false,
          "internalType": "string",
          "name": "name",
          "type": "string"
        },
        {
          "indexed": false,
          "internalType": "string",
          "name": "dna",
          "type": "string"
        },
        {
          "indexed": true,
          "internalType": "address",
          "name": "owner",
          "type": "address"
        }
      ],
      "name": "NewCommander",
      "type": "event"
    },
    {
      "anonymous": false,
      "inputs": [
        {
          "indexed": false,
          "internalType": "uint256",
          "name": "id",
          "type": "uint256"
        },
        {
          "indexed": false,
          "internalType": "string",
          "name": "name",
          "type": "string"
        },
        {
          "indexed": false,
          "internalType": "string",
          "name": "dna",
          "type": "string"
        },
        {
          "indexed": false,
          "internalType": "uint256",
          "name": "spieces",
          "type": "uint256"
        },
        {
          "indexed": true,
          "internalType": "address",
          "name": "owner",
          "type": "address"
        }
      ],
      "name": "NewRobot",
      "type": "event"
    },
    {
      "anonymous": false,
      "inputs": [
        {
          "indexed": true,
          "internalType": "address",
          "name": "previousOwner",
          "type": "address"
        },
        {
          "indexed": true,
          "internalType": "address",
          "name": "newOwner",
          "type": "address"
        }
      ],
      "name": "OwnershipTransferred",
      "type": "event"
    },
    {
      "inputs": [
        {
          "internalType": "string",
          "name": "name",
          "type": "string"
        }
      ],
      "name": "CreateCommander",
      "outputs": [],
      "stateMutability": "nonpayable",
      "type": "function"
    },
    {
      "inputs": [
        {
          "internalType": "uint256",
          "name": "",
          "type": "uint256"
        }
      ],
      "name": "commanders",
      "outputs": [
        {
          "internalType": "string",
          "name": "name",
          "type": "string"
        },
        {
          "internalType": "string",
          "name": "dna",
          "type": "string"
        },
        {
          "internalType": "uint64",
          "name": "getFreeRobotReadyTime",
          "type": "uint64"
        },
        {
          "internalType": "uint64",
          "name": "giveStarReadyTime",
          "type": "uint64"
        }
      ],
      "stateMutability": "view",
      "type": "function"
    },
    {
      "inputs": [],
      "name": "getFreeRobot",
      "outputs": [],
      "stateMutability": "nonpayable",
      "type": "function"
    },
    {
      "inputs": [],
      "name": "isOwner",
      "outputs": [
        {
          "internalType": "bool",
          "name": "",
          "type": "bool"
        }
      ],
      "stateMutability": "view",
      "type": "function"
    },
    {
      "inputs": [],
      "name": "owner",
      "outputs": [
        {
          "internalType": "address",
          "name": "",
          "type": "address"
        }
      ],
      "stateMutability": "view",
      "type": "function"
    },
    {
      "inputs": [
        {
          "internalType": "address",
          "name": "",
          "type": "address"
        }
      ],
      "name": "ownerRobotCount",
      "outputs": [
        {
          "internalType": "uint256",
          "name": "",
          "type": "uint256"
        }
      ],
      "stateMutability": "view",
      "type": "function"
    },
    {
      "inputs": [
        {
          "internalType": "address",
          "name": "",
          "type": "address"
        }
      ],
      "name": "ownerToCommander",
      "outputs": [
        {
          "internalType": "uint256",
          "name": "",
          "type": "uint256"
        }
      ],
      "stateMutability": "view",
      "type": "function"
    },
    {
      "inputs": [],
      "name": "renounceOwnership",
      "outputs": [],
      "stateMutability": "nonpayable",
      "type": "function"
    },
    {
      "inputs": [
        {
          "internalType": "uint256",
          "name": "",
          "type": "uint256"
        }
      ],
      "name": "robotToOwner",
      "outputs": [
        {
          "internalType": "address",
          "name": "",
          "type": "address"
        }
      ],
      "stateMutability": "view",
      "type": "function"
    },
    {
      "inputs": [
        {
          "internalType": "uint256",
          "name": "",
          "type": "uint256"
        }
      ],
      "name": "robots",
      "outputs": [
        {
          "internalType": "string",
          "name": "name",
          "type": "string"
        },
        {
          "internalType": "string",
          "name": "dna",
          "type": "string"
        },
        {
          "internalType": "uint8",
          "name": "spieces",
          "type": "uint8"
        },
        {
          "internalType": "uint8",
          "name": "status",
          "type": "uint8"
        },
        {
          "internalType": "uint32",
          "name": "stars",
          "type": "uint32"
        },
        {
          "internalType": "uint256",
          "name": "price",
          "type": "uint256"
        },
        {
          "internalType": "uint256",
          "name": "idInMarket",
          "type": "uint256"
        }
      ],
      "stateMutability": "view",
      "type": "function"
    },
    {
      "inputs": [
        {
          "internalType": "uint256",
          "name": "",
          "type": "uint256"
        }
      ],
      "name": "topRobots",
      "outputs": [
        {
          "internalType": "uint256",
          "name": "",
          "type": "uint256"
        }
      ],
      "stateMutability": "view",
      "type": "function"
    },
    {
      "inputs": [
        {
          "internalType": "address",
          "name": "newOwner",
          "type": "address"
        }
      ],
      "name": "transferOwnership",
      "outputs": [],
      "stateMutability": "nonpayable",
      "type": "function"
    },
    {
      "inputs": [
        {
          "internalType": "uint256",
          "name": "robotId",
          "type": "uint256"
        }
      ],
      "name": "giveStar",
      "outputs": [],
      "stateMutability": "nonpayable",
      "type": "function"
    }
  ],
  "bytecode": "0x60806040526201518060015560006002553480156200001d57600080fd5b50336000806101000a81548173ffffffffffffffffffffffffffffffffffffffff021916908373ffffffffffffffffffffffffffffffffffffffff16021790555060008054906101000a900473ffffffffffffffffffffffffffffffffffffffff1673ffffffffffffffffffffffffffffffffffffffff16600073ffffffffffffffffffffffffffffffffffffffff167f8be0079c531659141344cd1fd0a4f28419497f9722a3daafe3b4186f6b6457e060405160405180910390a3600360405180608001604052806040518060400160405280600481526020017f696e69740000000000000000000000000000000000000000000000000000000081525081526020016040518060400160405280600481526020017f696e6974000000000000000000000000000000000000000000000000000000008152508152602001600067ffffffffffffffff168152602001600067ffffffffffffffff1681525090806001815401808255809150506001900390600052602060002090600302016000909190919091506000820151816000019080519060200190620001c392919062000249565b506020820151816001019080519060200190620001e292919062000249565b5060408201518160020160006101000a81548167ffffffffffffffff021916908367ffffffffffffffff16021790555060608201518160020160086101000a81548167ffffffffffffffff021916908367ffffffffffffffff16021790555050506200035d565b828054620002579062000328565b90600052602060002090601f0160209004810192826200027b5760008555620002c7565b82601f106200029657805160ff1916838001178555620002c7565b82800160010185558215620002c7579182015b82811115620002c6578251825591602001919060010190620002a9565b5b509050620002d69190620002da565b5090565b5b80821115620002f5576000816000905550600101620002db565b5090565b7f4e487b7100000000000000000000000000000000000000000000000000000000600052602260045260246000fd5b600060028204905060018216806200034157607f821691505b602082108103620003575762000356620002f9565b5b50919050565b611fff806200036d6000396000f3fe608060405234801561001057600080fd5b50600436106100cf5760003560e01c80639403a0ce1161008c578063a1a4d91c11610066578063a1a4d91c14610243578063b060ff191461025f578063e9ca0f2a14610269578063f2fde38b14610285576100cf565b80639403a0ce146101ad57806395505961146101dd578063a03937c51461020d576100cf565b8063492d8b3d146100d457806365ceceb1146101075780636aa438dc14610137578063715018a6146101675780638da5cb5b146101715780638f32d59b1461018f575b600080fd5b6100ee60048036038101906100e99190611525565b6102a1565b6040516100fe949392919061160e565b60405180910390f35b610121600480360381019061011c91906116bf565b610419565b60405161012e91906116fb565b60405180910390f35b610151600480360381019061014c91906116bf565b610431565b60405161015e91906116fb565b60405180910390f35b61016f610449565b005b610179610518565b6040516101869190611725565b60405180910390f35b610197610541565b6040516101a4919061175b565b60405180910390f35b6101c760048036038101906101c29190611525565b610598565b6040516101d49190611725565b60405180910390f35b6101f760048036038101906101f29190611525565b6105cb565b60405161020491906116fb565b60405180910390f35b61022760048036038101906102229190611525565b6105ef565b60405161023a97969594939291906117b1565b60405180910390f35b61025d60048036038101906102589190611893565b61077b565b005b610267610a29565b005b610283600480360381019061027e9190611525565b610b36565b005b61029f600480360381019061029a91906116bf565b610f98565b005b600381815481106102b157600080fd5b90600052602060002090600302016000915090508060000180546102d49061190f565b80601f01602080910402602001604051908101604052809291908181526020018280546103009061190f565b801561034d5780601f106103225761010080835404028352916020019161034d565b820191906000526020600020905b81548152906001019060200180831161033057829003601f168201915b5050505050908060010180546103629061190f565b80601f016020809104026020016040519081016040528092919081815260200182805461038e9061190f565b80156103db5780601f106103b0576101008083540402835291602001916103db565b820191906000526020600020905b8154815290600101906020018083116103be57829003601f168201915b5050505050908060020160009054906101000a900467ffffffffffffffff16908060020160089054906101000a900467ffffffffffffffff16905084565b60076020528060005260406000206000915090505481565b60056020528060005260406000206000915090505481565b610451610541565b61045a57600080fd5b600073ffffffffffffffffffffffffffffffffffffffff1660008054906101000a900473ffffffffffffffffffffffffffffffffffffffff1673ffffffffffffffffffffffffffffffffffffffff167f8be0079c531659141344cd1fd0a4f28419497f9722a3daafe3b4186f6b6457e060405160405180910390a360008060006101000a81548173ffffffffffffffffffffffffffffffffffffffff021916908373ffffffffffffffffffffffffffffffffffffffff160217905550565b60008060009054906101000a900473ffffffffffffffffffffffffffffffffffffffff16905090565b60008060009054906101000a900473ffffffffffffffffffffffffffffffffffffffff1673ffffffffffffffffffffffffffffffffffffffff163373ffffffffffffffffffffffffffffffffffffffff1614905090565b60066020528060005260406000206000915054906101000a900473ffffffffffffffffffffffffffffffffffffffff1681565b600881815481106105db57600080fd5b906000526020600020016000915090505481565b600481815481106105ff57600080fd5b90600052602060002090600502016000915090508060000180546106229061190f565b80601f016020809104026020016040519081016040528092919081815260200182805461064e9061190f565b801561069b5780601f106106705761010080835404028352916020019161069b565b820191906000526020600020905b81548152906001019060200180831161067e57829003601f168201915b5050505050908060010180546106b09061190f565b80601f01602080910402602001604051908101604052809291908181526020018280546106dc9061190f565b80156107295780601f106106fe57610100808354040283529160200191610729565b820191906000526020600020905b81548152906001019060200180831161070c57829003601f168201915b5050505050908060020160009054906101000a900460ff16908060020160019054906101000a900460ff16908060020160029054906101000a900463ffffffff16908060030154908060040154905087565b6000600560003373ffffffffffffffffffffffffffffffffffffffff1673ffffffffffffffffffffffffffffffffffffffff16815260200190815260200160002054146107fd576040517f08c379a00000000000000000000000000000000000000000000000000000000081526004016107f49061198c565b60405180910390fd5b60006040518060400160405280600c81526020017f72616e646f6d537472696e67000000000000000000000000000000000000000081525090506003604051806080016040528085858080601f016020809104026020016040519081016040528093929190818152602001838380828437600081840152601f19601f8201169050808301925050505050505081526020018381526020014267ffffffffffffffff1681526020014267ffffffffffffffff16815250908060018154018082558091505060019003906000526020600020906003020160009091909190915060008201518160000190805190602001906108f7929190611442565b506020820151816001019080519060200190610914929190611442565b5060408201518160020160006101000a81548167ffffffffffffffff021916908367ffffffffffffffff16021790555060608201518160020160086101000a81548167ffffffffffffffff021916908367ffffffffffffffff16021790555050506000600160038054905061098991906119db565b905080600560003373ffffffffffffffffffffffffffffffffffffffff1673ffffffffffffffffffffffffffffffffffffffff168152602001908152602001600020819055503373ffffffffffffffffffffffffffffffffffffffff167f0ba589754bdc7c1e308a8ce3362a7b42600571fdd695534edd1e0182e187149f82868686604051610a1b9493929190611a4b565b60405180910390a250505050565b60006003600560003373ffffffffffffffffffffffffffffffffffffffff1673ffffffffffffffffffffffffffffffffffffffff1681526020019081526020016000205481548110610a7e57610a7d611a92565b5b90600052602060002090600302019050428160020160009054906101000a900467ffffffffffffffff1667ffffffffffffffff161115610af3576040517f08c379a0000000000000000000000000000000000000000000000000000000008152600401610aea90611b33565b60405180910390fd5b610afb610fb5565b60015442610b099190611b53565b8160020160006101000a81548167ffffffffffffffff021916908367ffffffffffffffff16021790555050565b6006600082815260200190815260200160002060009054906101000a900473ffffffffffffffffffffffffffffffffffffffff1673ffffffffffffffffffffffffffffffffffffffff163373ffffffffffffffffffffffffffffffffffffffff1603610bd7576040517f08c379a0000000000000000000000000000000000000000000000000000000008152600401610bce90611c1b565b60405180910390fd5b60006003600560003373ffffffffffffffffffffffffffffffffffffffff1673ffffffffffffffffffffffffffffffffffffffff1681526020019081526020016000205481548110610c2c57610c2b611a92565b5b90600052602060002090600302019050428160020160089054906101000a900467ffffffffffffffff1667ffffffffffffffff161115610ca1576040517f08c379a0000000000000000000000000000000000000000000000000000000008152600401610c9890611cad565b60405180910390fd5b60048281548110610cb557610cb4611a92565b5b9060005260206000209060050201600201600281819054906101000a900463ffffffff1680929190610ce690611ccd565b91906101000a81548163ffffffff021916908363ffffffff160217905550506001548160020160088282829054906101000a900467ffffffffffffffff16610d2e9190611cf9565b92506101000a81548167ffffffffffffffff021916908367ffffffffffffffff16021790555060646008805490501015610d90576008829080600181540180825580915050600190039060005260206000200160009091909190915055610e18565b6008600081548110610da557610da4611a92565b5b906000526020600020015460048381548110610dc457610dc3611a92565b5b906000526020600020906005020160020160029054906101000a900463ffffffff1663ffffffff161115610e1757816008600081548110610e0857610e07611a92565b5b90600052602060002001819055505b5b606460088054905003610f9457600080600190505b6064811015610f0757600460088381548110610e4c57610e4b611a92565b5b906000526020600020015481548110610e6857610e67611a92565b5b906000526020600020906005020160020160029054906101000a900463ffffffff1663ffffffff16600460088381548110610ea657610ea5611a92565b5b906000526020600020015481548110610ec257610ec1611a92565b5b906000526020600020906005020160020160029054906101000a900463ffffffff1663ffffffff161015610ef4578091505b8080610eff90611d37565b915050610e2d565b5060006008600081548110610f1f57610f1e611a92565b5b9060005260206000200154905060088281548110610f4057610f3f611a92565b5b90600052602060002001546008600081548110610f6057610f5f611a92565b5b90600052602060002001819055508060088381548110610f8357610f82611a92565b5b906000526020600020018190555050505b5050565b610fa0610541565b610fa957600080fd5b610fb2816112f0565b50565b6064600760003373ffffffffffffffffffffffffffffffffffffffff1673ffffffffffffffffffffffffffffffffffffffff168152602001908152602001600020541115611038576040517f08c379a000000000000000000000000000000000000000000000000000000000815260040161102f90611dcb565b60405180910390fd5b600061104460026113e6565b905060006040518060400160405280600c81526020017f72616e646f6d537472696e670000000000000000000000000000000000000000815250905060046040518060e001604052806040518060400160405280600681526020017f6e6f4e616d65000000000000000000000000000000000000000000000000000081525081526020018381526020018460ff168152602001600060ff168152602001600063ffffffff1681526020016000815260200160008152509080600181540180825580915050600190039060005260206000209060050201600090919091909150600082015181600001908051906020019061113f929190611442565b50602082015181600101908051906020019061115c929190611442565b5060408201518160020160006101000a81548160ff021916908360ff16021790555060608201518160020160016101000a81548160ff021916908360ff16021790555060808201518160020160026101000a81548163ffffffff021916908363ffffffff16021790555060a0820151816003015560c082015181600401555050600060016004805490506111f091906119db565b9050336006600083815260200190815260200160002060006101000a81548173ffffffffffffffffffffffffffffffffffffffff021916908373ffffffffffffffffffffffffffffffffffffffff160217905550600760003373ffffffffffffffffffffffffffffffffffffffff1673ffffffffffffffffffffffffffffffffffffffff168152602001908152602001600020600081548092919061129490611d37565b91905055503373ffffffffffffffffffffffffffffffffffffffff167fe4bc06e69dd7a0f1bc9ef5db431d371f0cab41d8156a6012711823b90466715b8284866040516112e393929190611e72565b60405180910390a2505050565b600073ffffffffffffffffffffffffffffffffffffffff168173ffffffffffffffffffffffffffffffffffffffff160361132957600080fd5b8073ffffffffffffffffffffffffffffffffffffffff1660008054906101000a900473ffffffffffffffffffffffffffffffffffffffff1673ffffffffffffffffffffffffffffffffffffffff167f8be0079c531659141344cd1fd0a4f28419497f9722a3daafe3b4186f6b6457e060405160405180910390a3806000806101000a81548173ffffffffffffffffffffffffffffffffffffffff021916908373ffffffffffffffffffffffffffffffffffffffff16021790555050565b6000600260008154809291906113fb90611d37565b919050555081423360025460405160200161141893929190611f2c565b6040516020818303038152906040528051906020012060001c61143b9190611f98565b9050919050565b82805461144e9061190f565b90600052602060002090601f01602090048101928261147057600085556114b7565b82601f1061148957805160ff19168380011785556114b7565b828001600101855582156114b7579182015b828111156114b657825182559160200191906001019061149b565b5b5090506114c491906114c8565b5090565b5b808211156114e15760008160009055506001016114c9565b5090565b600080fd5b600080fd5b6000819050919050565b611502816114ef565b811461150d57600080fd5b50565b60008135905061151f816114f9565b92915050565b60006020828403121561153b5761153a6114e5565b5b600061154984828501611510565b91505092915050565b600081519050919050565b600082825260208201905092915050565b60005b8381101561158c578082015181840152602081019050611571565b8381111561159b576000848401525b50505050565b6000601f19601f8301169050919050565b60006115bd82611552565b6115c7818561155d565b93506115d781856020860161156e565b6115e0816115a1565b840191505092915050565b600067ffffffffffffffff82169050919050565b611608816115eb565b82525050565b6000608082019050818103600083015261162881876115b2565b9050818103602083015261163c81866115b2565b905061164b60408301856115ff565b61165860608301846115ff565b95945050505050565b600073ffffffffffffffffffffffffffffffffffffffff82169050919050565b600061168c82611661565b9050919050565b61169c81611681565b81146116a757600080fd5b50565b6000813590506116b981611693565b92915050565b6000602082840312156116d5576116d46114e5565b5b60006116e3848285016116aa565b91505092915050565b6116f5816114ef565b82525050565b600060208201905061171060008301846116ec565b92915050565b61171f81611681565b82525050565b600060208201905061173a6000830184611716565b92915050565b60008115159050919050565b61175581611740565b82525050565b6000602082019050611770600083018461174c565b92915050565b600060ff82169050919050565b61178c81611776565b82525050565b600063ffffffff82169050919050565b6117ab81611792565b82525050565b600060e08201905081810360008301526117cb818a6115b2565b905081810360208301526117df81896115b2565b90506117ee6040830188611783565b6117fb6060830187611783565b61180860808301866117a2565b61181560a08301856116ec565b61182260c08301846116ec565b98975050505050505050565b600080fd5b600080fd5b600080fd5b60008083601f8401126118535761185261182e565b5b8235905067ffffffffffffffff8111156118705761186f611833565b5b60208301915083600182028301111561188c5761188b611838565b5b9250929050565b600080602083850312156118aa576118a96114e5565b5b600083013567ffffffffffffffff8111156118c8576118c76114ea565b5b6118d48582860161183d565b92509250509250929050565b7f4e487b7100000000000000000000000000000000000000000000000000000000600052602260045260246000fd5b6000600282049050600182168061192757607f821691505b60208210810361193a576119396118e0565b5b50919050565b7f596f757220636f6d6d616e64657220616c726561647920657869737465642e00600082015250565b6000611976601f8361155d565b915061198182611940565b602082019050919050565b600060208201905081810360008301526119a581611969565b9050919050565b7f4e487b7100000000000000000000000000000000000000000000000000000000600052601160045260246000fd5b60006119e6826114ef565b91506119f1836114ef565b925082821015611a0457611a036119ac565b5b828203905092915050565b82818337600083830152505050565b6000611a2a838561155d565b9350611a37838584611a0f565b611a40836115a1565b840190509392505050565b6000606082019050611a6060008301876116ec565b8181036020830152611a73818587611a1e565b90508181036040830152611a8781846115b2565b905095945050505050565b7f4e487b7100000000000000000000000000000000000000000000000000000000600052603260045260246000fd5b7f4c657373207468616e206f6e65206461792073696e6365206c6173742074696d60008201527f6520796f75206765742061206672656520726f626f742e000000000000000000602082015250565b6000611b1d60378361155d565b9150611b2882611ac1565b604082019050919050565b60006020820190508181036000830152611b4c81611b10565b9050919050565b6000611b5e826114ef565b9150611b69836114ef565b9250827fffffffffffffffffffffffffffffffffffffffffffffffffffffffffffffffff03821115611b9e57611b9d6119ac565b5b828201905092915050565b7f596f752063616e6e6f7420676976652061207374617220746f20796f7572206f60008201527f776e20726f626f742e0000000000000000000000000000000000000000000000602082015250565b6000611c0560298361155d565b9150611c1082611ba9565b604082019050919050565b60006020820190508181036000830152611c3481611bf8565b9050919050565b7f4c657373207468616e206f6e65206461792073696e6365206c6173742074696d60008201527f6520796f752067697665206120737461722e0000000000000000000000000000602082015250565b6000611c9760328361155d565b9150611ca282611c3b565b604082019050919050565b60006020820190508181036000830152611cc681611c8a565b9050919050565b6000611cd882611792565b915063ffffffff8203611cee57611ced6119ac565b5b600182019050919050565b6000611d04826115eb565b9150611d0f836115eb565b92508267ffffffffffffffff03821115611d2c57611d2b6119ac565b5b828201905092915050565b6000611d42826114ef565b91507fffffffffffffffffffffffffffffffffffffffffffffffffffffffffffffffff8203611d7457611d736119ac565b5b600182019050919050565b7f596f7572207265706f2069732066756c6c2e0000000000000000000000000000600082015250565b6000611db560128361155d565b9150611dc082611d7f565b602082019050919050565b60006020820190508181036000830152611de481611da8565b9050919050565b7f6e6f4e616d650000000000000000000000000000000000000000000000000000600082015250565b6000611e2160068361155d565b9150611e2c82611deb565b602082019050919050565b6000819050919050565b6000611e5c611e57611e5284611776565b611e37565b6114ef565b9050919050565b611e6c81611e41565b82525050565b6000608082019050611e8760008301866116ec565b8181036020830152611e9881611e14565b90508181036040830152611eac81856115b2565b9050611ebb6060830184611e63565b949350505050565b6000819050919050565b611ede611ed9826114ef565b611ec3565b82525050565b60008160601b9050919050565b6000611efc82611ee4565b9050919050565b6000611f0e82611ef1565b9050919050565b611f26611f2182611681565b611f03565b82525050565b6000611f388286611ecd565b602082019150611f488285611f15565b601482019150611f588284611ecd565b602082019150819050949350505050565b7f4e487b7100000000000000000000000000000000000000000000000000000000600052601260045260246000fd5b6000611fa3826114ef565b9150611fae836114ef565b925082611fbe57611fbd611f69565b5b82820690509291505056fea2646970667358221220c593820f97a049c3101b98da4340ada9b268e4135816a3ca279886182f9602d064736f6c634300080d0033",
  "immutableReferences": {},
  "source": "// SPDX-License-Identifier: MIT \npragma solidity ^0.8.13;\n\nimport \"./Basic.sol\";\n\n//\ncontract Star is Basic {\n\n    //\n    function giveStar(uint robotId) external {\n        require(msg.sender != robotToOwner[robotId], \"You cannot give a star to your own robot.\");\n\n        Commander storage myCommander = commanders[ownerToCommander[msg.sender]];\n        require(myCommander.giveStarReadyTime <= block.timestamp, \"Less than one day since last time you give a star.\");\n        robots[robotId].stars++;\n        myCommander.giveStarReadyTime += uint64(readyTime);\n\n        //\n        if (topRobots.length < 100) {\n            topRobots.push(robotId);\n        } else {\n            if (robots[robotId].stars > topRobots[0]) {\n                topRobots[0] = robotId;\n            }            \n        }\n\n\n        //star\n        if (topRobots.length == 100) {\n            uint minmumStarsIndex = 0;\n            for (uint i = 1; i <100; i++) {\n                if (robots[topRobots[i]].stars < robots[topRobots[minmumStarsIndex]].stars) {\n                    minmumStarsIndex = i;\n                }\n            }\n            uint temp = topRobots[0];\n            topRobots[0] = topRobots[minmumStarsIndex];\n            topRobots[minmumStarsIndex] = temp;            \n        }\n\n    }  \n\n    // \n    uint[] public topRobots;\n}",
  "sourcePath": "/Users/liqinghao/Desktop/RoboHashWeb3/contracts/robotgame/Star.sol",
  "compiler": {
    "name": "solc",
    "version": "0.8.13+commit.abaa5c0e.Emscripten.clang"
  },
  "schemaVersion": "3.4.16",
  "updatedAt": "2023-11-07T01:29:54.110Z",
  "devdoc": {
    "kind": "dev",
    "methods": {
      "isOwner()": {
        "returns": {
          "_0": "true if `msg.sender` is the owner of the contract."
        }
      },
      "owner()": {
        "returns": {
          "_0": "the address of the owner."
        }
      },
      "renounceOwnership()": {
        "details": "Allows the current owner to relinquish control of the contract."
      },
      "transferOwnership(address)": {
        "details": "Allows the current owner to transfer control of the contract to a newOwner.",
        "params": {
          "newOwner": "The address to transfer ownership to."
        }
      }
    },
    "version": 1
  },
  "userdoc": {
    "kind": "user",
    "methods": {
      "renounceOwnership()": {
        "notice": "Renouncing to ownership will leave the contract without an owner. It will not be possible to call the functions with the `onlyOwner` modifier anymore."
      }
    },
    "version": 1
  }
}