{
  "contractName": "Star",
  "abi": [
    {
      "anonymous": false,
      "inputs": [
        {
          "indexed": false,
          "internalType": "uint256",
          "name": "id",
          "type": "uint256"
        },
        {
          "indexed": false,
          "internalType": "string",
          "name": "name",
          "type": "string"
        },
        {
          "indexed": false,
          "internalType": "string",
          "name": "dna",
          "type": "string"
        },
        {
          "indexed": true,
          "internalType": "address",
          "name": "owner",
          "type": "address"
        }
      ],
      "name": "NewCommander",
      "type": "event"
    },
    {
      "anonymous": false,
      "inputs": [
        {
          "indexed": false,
          "internalType": "uint256",
          "name": "id",
          "type": "uint256"
        },
        {
          "indexed": false,
          "internalType": "string",
          "name": "name",
          "type": "string"
        },
        {
          "indexed": false,
          "internalType": "string",
          "name": "dna",
          "type": "string"
        },
        {
          "indexed": false,
          "internalType": "uint256",
          "name": "spieces",
          "type": "uint256"
        },
        {
          "indexed": true,
          "internalType": "address",
          "name": "owner",
          "type": "address"
        }
      ],
      "name": "NewRobot",
      "type": "event"
    },
    {
      "anonymous": false,
      "inputs": [
        {
          "indexed": true,
          "internalType": "address",
          "name": "previousOwner",
          "type": "address"
        },
        {
          "indexed": true,
          "internalType": "address",
          "name": "newOwner",
          "type": "address"
        }
      ],
      "name": "OwnershipTransferred",
      "type": "event"
    },
    {
      "inputs": [
        {
          "internalType": "string",
          "name": "name",
          "type": "string"
        }
      ],
      "name": "CreateCommander",
      "outputs": [],
      "stateMutability": "nonpayable",
      "type": "function"
    },
    {
      "inputs": [
        {
          "internalType": "uint256",
          "name": "",
          "type": "uint256"
        }
      ],
      "name": "commanders",
      "outputs": [
        {
          "internalType": "string",
          "name": "name",
          "type": "string"
        },
        {
          "internalType": "string",
          "name": "dna",
          "type": "string"
        },
        {
          "internalType": "uint64",
          "name": "getFreeRobotReadyTime",
          "type": "uint64"
        },
        {
          "internalType": "uint64",
          "name": "giveStarReadyTime",
          "type": "uint64"
        }
      ],
      "stateMutability": "view",
      "type": "function"
    },
    {
      "inputs": [],
      "name": "getFreeRobot",
      "outputs": [],
      "stateMutability": "nonpayable",
      "type": "function"
    },
    {
      "inputs": [],
      "name": "isOwner",
      "outputs": [
        {
          "internalType": "bool",
          "name": "",
          "type": "bool"
        }
      ],
      "stateMutability": "view",
      "type": "function"
    },
    {
      "inputs": [],
      "name": "owner",
      "outputs": [
        {
          "internalType": "address",
          "name": "",
          "type": "address"
        }
      ],
      "stateMutability": "view",
      "type": "function"
    },
    {
      "inputs": [
        {
          "internalType": "address",
          "name": "",
          "type": "address"
        }
      ],
      "name": "ownerRobotCount",
      "outputs": [
        {
          "internalType": "uint256",
          "name": "",
          "type": "uint256"
        }
      ],
      "stateMutability": "view",
      "type": "function"
    },
    {
      "inputs": [
        {
          "internalType": "address",
          "name": "",
          "type": "address"
        }
      ],
      "name": "ownerToCommander",
      "outputs": [
        {
          "internalType": "uint256",
          "name": "",
          "type": "uint256"
        }
      ],
      "stateMutability": "view",
      "type": "function"
    },
    {
      "inputs": [],
      "name": "renounceOwnership",
      "outputs": [],
      "stateMutability": "nonpayable",
      "type": "function"
    },
    {
      "inputs": [
        {
          "internalType": "uint256",
          "name": "",
          "type": "uint256"
        }
      ],
      "name": "robotToOwner",
      "outputs": [
        {
          "internalType": "address",
          "name": "",
          "type": "address"
        }
      ],
      "stateMutability": "view",
      "type": "function"
    },
    {
      "inputs": [
        {
          "internalType": "uint256",
          "name": "",
          "type": "uint256"
        }
      ],
      "name": "robots",
      "outputs": [
        {
          "internalType": "string",
          "name": "name",
          "type": "string"
        },
        {
          "internalType": "string",
          "name": "dna",
          "type": "string"
        },
        {
          "internalType": "uint8",
          "name": "spieces",
          "type": "uint8"
        },
        {
          "internalType": "uint8",
          "name": "status",
          "type": "uint8"
        },
        {
          "internalType": "uint32",
          "name": "stars",
          "type": "uint32"
        },
        {
          "internalType": "uint256",
          "name": "price",
          "type": "uint256"
        },
        {
          "internalType": "uint256",
          "name": "idInMarket",
          "type": "uint256"
        }
      ],
      "stateMutability": "view",
      "type": "function"
    },
    {
      "inputs": [
        {
          "internalType": "uint256",
          "name": "",
          "type": "uint256"
        }
      ],
      "name": "topRobots",
      "outputs": [
        {
          "internalType": "uint256",
          "name": "",
          "type": "uint256"
        }
      ],
      "stateMutability": "view",
      "type": "function"
    },
    {
      "inputs": [
        {
          "internalType": "address",
          "name": "newOwner",
          "type": "address"
        }
      ],
      "name": "transferOwnership",
      "outputs": [],
      "stateMutability": "nonpayable",
      "type": "function"
    },
    {
      "inputs": [
        {
          "internalType": "uint256",
          "name": "robotId",
          "type": "uint256"
        }
      ],
      "name": "giveStar",
      "outputs": [],
      "stateMutability": "nonpayable",
      "type": "function"
    }
  ],
  "bytecode": "0x6080604052620151806001555f60025534801561001a575f80fd5b50335f806101000a81548173ffffffffffffffffffffffffffffffffffffffff021916908373ffffffffffffffffffffffffffffffffffffffff1602179055505f8054906101000a900473ffffffffffffffffffffffffffffffffffffffff1673ffffffffffffffffffffffffffffffffffffffff165f73ffffffffffffffffffffffffffffffffffffffff167f8be0079c531659141344cd1fd0a4f28419497f9722a3daafe3b4186f6b6457e060405160405180910390a36120c2806100e05f395ff3fe608060405234801561000f575f80fd5b50600436106100cd575f3560e01c80639403a0ce1161008a578063a1a4d91c11610064578063a1a4d91c14610240578063b060ff191461025c578063e9ca0f2a14610266578063f2fde38b14610282576100cd565b80639403a0ce146101aa57806395505961146101da578063a03937c51461020a576100cd565b8063492d8b3d146100d157806365ceceb1146101045780636aa438dc14610134578063715018a6146101645780638da5cb5b1461016e5780638f32d59b1461018c575b5f80fd5b6100eb60048036038101906100e691906113d9565b61029e565b6040516100fb94939291906114b0565b60405180910390f35b61011e6004803603810190610119919061155b565b61040c565b60405161012b9190611595565b60405180910390f35b61014e6004803603810190610149919061155b565b610421565b60405161015b9190611595565b60405180910390f35b61016c610436565b005b610176610500565b60405161018391906115bd565b60405180910390f35b610194610527565b6040516101a191906115f0565b60405180910390f35b6101c460048036038101906101bf91906113d9565b61057c565b6040516101d191906115bd565b60405180910390f35b6101f460048036038101906101ef91906113d9565b6105ac565b6040516102019190611595565b60405180910390f35b610224600480360381019061021f91906113d9565b6105cc565b6040516102379796959493929190611642565b60405180910390f35b61025a6004803603810190610255919061171e565b61074e565b005b6102646109e0565b005b610280600480360381019061027b91906113d9565b610ae6565b005b61029c6004803603810190610297919061155b565b610f1f565b005b600381815481106102ad575f80fd5b905f5260205f2090600302015f91509050805f0180546102cc90611796565b80601f01602080910402602001604051908101604052809291908181526020018280546102f890611796565b80156103435780601f1061031a57610100808354040283529160200191610343565b820191905f5260205f20905b81548152906001019060200180831161032657829003601f168201915b50505050509080600101805461035890611796565b80601f016020809104026020016040519081016040528092919081815260200182805461038490611796565b80156103cf5780601f106103a6576101008083540402835291602001916103cf565b820191905f5260205f20905b8154815290600101906020018083116103b257829003601f168201915b505050505090806002015f9054906101000a900467ffffffffffffffff16908060020160089054906101000a900467ffffffffffffffff16905084565b6007602052805f5260405f205f915090505481565b6005602052805f5260405f205f915090505481565b61043e610527565b610446575f80fd5b5f73ffffffffffffffffffffffffffffffffffffffff165f8054906101000a900473ffffffffffffffffffffffffffffffffffffffff1673ffffffffffffffffffffffffffffffffffffffff167f8be0079c531659141344cd1fd0a4f28419497f9722a3daafe3b4186f6b6457e060405160405180910390a35f805f6101000a81548173ffffffffffffffffffffffffffffffffffffffff021916908373ffffffffffffffffffffffffffffffffffffffff160217905550565b5f805f9054906101000a900473ffffffffffffffffffffffffffffffffffffffff16905090565b5f805f9054906101000a900473ffffffffffffffffffffffffffffffffffffffff1673ffffffffffffffffffffffffffffffffffffffff163373ffffffffffffffffffffffffffffffffffffffff1614905090565b6006602052805f5260405f205f915054906101000a900473ffffffffffffffffffffffffffffffffffffffff1681565b600881815481106105bb575f80fd5b905f5260205f20015f915090505481565b600481815481106105db575f80fd5b905f5260205f2090600502015f91509050805f0180546105fa90611796565b80601f016020809104026020016040519081016040528092919081815260200182805461062690611796565b80156106715780601f1061064857610100808354040283529160200191610671565b820191905f5260205f20905b81548152906001019060200180831161065457829003601f168201915b50505050509080600101805461068690611796565b80601f01602080910402602001604051908101604052809291908181526020018280546106b290611796565b80156106fd5780601f106106d4576101008083540402835291602001916106fd565b820191905f5260205f20905b8154815290600101906020018083116106e057829003601f168201915b505050505090806002015f9054906101000a900460ff16908060020160019054906101000a900460ff16908060020160029054906101000a900463ffffffff16908060030154908060040154905087565b5f60055f3373ffffffffffffffffffffffffffffffffffffffff1673ffffffffffffffffffffffffffffffffffffffff1681526020019081526020015f2054036107cd576040517f08c379a00000000000000000000000000000000000000000000000000000000081526004016107c490611810565b60405180910390fd5b5f6040518060400160405280600c81526020017f72616e646f6d537472696e67000000000000000000000000000000000000000081525090506003604051806080016040528085858080601f0160208091040260200160405190810160405280939291908181526020018383808284375f81840152601f19601f8201169050808301925050505050505081526020018381526020014267ffffffffffffffff1681526020014267ffffffffffffffff16815250908060018154018082558091505060019003905f5260205f2090600302015f909190919091505f820151815f0190816108b991906119f8565b5060208201518160010190816108cf91906119f8565b506040820151816002015f6101000a81548167ffffffffffffffff021916908367ffffffffffffffff16021790555060608201518160020160086101000a81548167ffffffffffffffff021916908367ffffffffffffffff16021790555050505f60016003805490506109429190611af4565b90508060055f3373ffffffffffffffffffffffffffffffffffffffff1673ffffffffffffffffffffffffffffffffffffffff1681526020019081526020015f20819055503373ffffffffffffffffffffffffffffffffffffffff167f0ba589754bdc7c1e308a8ce3362a7b42600571fdd695534edd1e0182e187149f828686866040516109d29493929190611b61565b60405180910390a250505050565b5f600360055f3373ffffffffffffffffffffffffffffffffffffffff1673ffffffffffffffffffffffffffffffffffffffff1681526020019081526020015f205481548110610a3257610a31611ba6565b5b905f5260205f209060030201905042816002015f9054906101000a900467ffffffffffffffff1667ffffffffffffffff161115610aa4576040517f08c379a0000000000000000000000000000000000000000000000000000000008152600401610a9b90611c43565b60405180910390fd5b610aac610f3b565b60015442610aba9190611c61565b816002015f6101000a81548167ffffffffffffffff021916908367ffffffffffffffff16021790555050565b60065f8281526020019081526020015f205f9054906101000a900473ffffffffffffffffffffffffffffffffffffffff1673ffffffffffffffffffffffffffffffffffffffff163373ffffffffffffffffffffffffffffffffffffffff1603610b84576040517f08c379a0000000000000000000000000000000000000000000000000000000008152600401610b7b90611d04565b60405180910390fd5b5f600360055f3373ffffffffffffffffffffffffffffffffffffffff1673ffffffffffffffffffffffffffffffffffffffff1681526020019081526020015f205481548110610bd657610bd5611ba6565b5b905f5260205f2090600302019050428160020160089054906101000a900467ffffffffffffffff1667ffffffffffffffff161115610c49576040517f08c379a0000000000000000000000000000000000000000000000000000000008152600401610c4090611d92565b60405180910390fd5b60048281548110610c5d57610c5c611ba6565b5b905f5260205f209060050201600201600281819054906101000a900463ffffffff1680929190610c8c90611db0565b91906101000a81548163ffffffff021916908363ffffffff160217905550506001548160020160088282829054906101000a900467ffffffffffffffff16610cd49190611ddb565b92506101000a81548167ffffffffffffffff021916908367ffffffffffffffff16021790555060646008805490501015610d3357600882908060018154018082558091505060019003905f5260205f20015f9091909190915055610db3565b60085f81548110610d4757610d46611ba6565b5b905f5260205f20015460048381548110610d6457610d63611ba6565b5b905f5260205f20906005020160020160029054906101000a900463ffffffff1663ffffffff161115610db2578160085f81548110610da557610da4611ba6565b5b905f5260205f2001819055505b5b606460088054905003610f1b575f80600190505b6064811015610e9957600460088381548110610de657610de5611ba6565b5b905f5260205f20015481548110610e0057610dff611ba6565b5b905f5260205f20906005020160020160029054906101000a900463ffffffff1663ffffffff16600460088381548110610e3c57610e3b611ba6565b5b905f5260205f20015481548110610e5657610e55611ba6565b5b905f5260205f20906005020160020160029054906101000a900463ffffffff1663ffffffff161015610e86578091505b8080610e9190611e16565b915050610dc7565b505f60085f81548110610eaf57610eae611ba6565b5b905f5260205f200154905060088281548110610ece57610ecd611ba6565b5b905f5260205f20015460085f81548110610eeb57610eea611ba6565b5b905f5260205f2001819055508060088381548110610f0c57610f0b611ba6565b5b905f5260205f20018190555050505b5050565b610f27610527565b610f2f575f80fd5b610f3881611253565b50565b606460075f3373ffffffffffffffffffffffffffffffffffffffff1673ffffffffffffffffffffffffffffffffffffffff1681526020019081526020015f20541115610fbc576040517f08c379a0000000000000000000000000000000000000000000000000000000008152600401610fb390611ea7565b60405180910390fd5b5f610fc76002611345565b90505f6040518060400160405280600c81526020017f72616e646f6d537472696e670000000000000000000000000000000000000000815250905060046040518060e001604052806040518060400160405280600681526020017f6e6f4e616d65000000000000000000000000000000000000000000000000000081525081526020018381526020018460ff1681526020015f60ff1681526020015f63ffffffff1681526020015f81526020015f815250908060018154018082558091505060019003905f5260205f2090600502015f909190919091505f820151815f0190816110b191906119f8565b5060208201518160010190816110c791906119f8565b506040820151816002015f6101000a81548160ff021916908360ff16021790555060608201518160020160016101000a81548160ff021916908360ff16021790555060808201518160020160026101000a81548163ffffffff021916908363ffffffff16021790555060a0820151816003015560c0820151816004015550505f60016004805490506111599190611af4565b90503360065f8381526020019081526020015f205f6101000a81548173ffffffffffffffffffffffffffffffffffffffff021916908373ffffffffffffffffffffffffffffffffffffffff16021790555060075f3373ffffffffffffffffffffffffffffffffffffffff1673ffffffffffffffffffffffffffffffffffffffff1681526020019081526020015f205f8154809291906111f790611e16565b91905055503373ffffffffffffffffffffffffffffffffffffffff167fe4bc06e69dd7a0f1bc9ef5db431d371f0cab41d8156a6012711823b90466715b82848660405161124693929190611f3f565b60405180910390a2505050565b5f73ffffffffffffffffffffffffffffffffffffffff168173ffffffffffffffffffffffffffffffffffffffff160361128a575f80fd5b8073ffffffffffffffffffffffffffffffffffffffff165f8054906101000a900473ffffffffffffffffffffffffffffffffffffffff1673ffffffffffffffffffffffffffffffffffffffff167f8be0079c531659141344cd1fd0a4f28419497f9722a3daafe3b4186f6b6457e060405160405180910390a3805f806101000a81548173ffffffffffffffffffffffffffffffffffffffff021916908373ffffffffffffffffffffffffffffffffffffffff16021790555050565b5f60025f81548092919061135890611e16565b919050555081423360025460405160200161137593929190611ff3565b604051602081830303815290604052805190602001205f1c611397919061205c565b9050919050565b5f80fd5b5f80fd5b5f819050919050565b6113b8816113a6565b81146113c2575f80fd5b50565b5f813590506113d3816113af565b92915050565b5f602082840312156113ee576113ed61139e565b5b5f6113fb848285016113c5565b91505092915050565b5f81519050919050565b5f82825260208201905092915050565b5f5b8381101561143b578082015181840152602081019050611420565b5f8484015250505050565b5f601f19601f8301169050919050565b5f61146082611404565b61146a818561140e565b935061147a81856020860161141e565b61148381611446565b840191505092915050565b5f67ffffffffffffffff82169050919050565b6114aa8161148e565b82525050565b5f6080820190508181035f8301526114c88187611456565b905081810360208301526114dc8186611456565b90506114eb60408301856114a1565b6114f860608301846114a1565b95945050505050565b5f73ffffffffffffffffffffffffffffffffffffffff82169050919050565b5f61152a82611501565b9050919050565b61153a81611520565b8114611544575f80fd5b50565b5f8135905061155581611531565b92915050565b5f602082840312156115705761156f61139e565b5b5f61157d84828501611547565b91505092915050565b61158f816113a6565b82525050565b5f6020820190506115a85f830184611586565b92915050565b6115b781611520565b82525050565b5f6020820190506115d05f8301846115ae565b92915050565b5f8115159050919050565b6115ea816115d6565b82525050565b5f6020820190506116035f8301846115e1565b92915050565b5f60ff82169050919050565b61161e81611609565b82525050565b5f63ffffffff82169050919050565b61163c81611624565b82525050565b5f60e0820190508181035f83015261165a818a611456565b9050818103602083015261166e8189611456565b905061167d6040830188611615565b61168a6060830187611615565b6116976080830186611633565b6116a460a0830185611586565b6116b160c0830184611586565b98975050505050505050565b5f80fd5b5f80fd5b5f80fd5b5f8083601f8401126116de576116dd6116bd565b5b8235905067ffffffffffffffff8111156116fb576116fa6116c1565b5b602083019150836001820283011115611717576117166116c5565b5b9250929050565b5f80602083850312156117345761173361139e565b5b5f83013567ffffffffffffffff811115611751576117506113a2565b5b61175d858286016116c9565b92509250509250929050565b7f4e487b71000000000000000000000000000000000000000000000000000000005f52602260045260245ffd5b5f60028204905060018216806117ad57607f821691505b6020821081036117c0576117bf611769565b5b50919050565b7f596f757220636f6d6d616e64657220616c726561647920657869737465642e005f82015250565b5f6117fa601f8361140e565b9150611805826117c6565b602082019050919050565b5f6020820190508181035f830152611827816117ee565b9050919050565b7f4e487b71000000000000000000000000000000000000000000000000000000005f52604160045260245ffd5b5f819050815f5260205f209050919050565b5f6020601f8301049050919050565b5f82821b905092915050565b5f600883026118b77fffffffffffffffffffffffffffffffffffffffffffffffffffffffffffffffff8261187c565b6118c1868361187c565b95508019841693508086168417925050509392505050565b5f819050919050565b5f6118fc6118f76118f2846113a6565b6118d9565b6113a6565b9050919050565b5f819050919050565b611915836118e2565b61192961192182611903565b848454611888565b825550505050565b5f90565b61193d611931565b61194881848461190c565b505050565b5b8181101561196b576119605f82611935565b60018101905061194e565b5050565b601f8211156119b0576119818161185b565b61198a8461186d565b81016020851015611999578190505b6119ad6119a58561186d565b83018261194d565b50505b505050565b5f82821c905092915050565b5f6119d05f19846008026119b5565b1980831691505092915050565b5f6119e883836119c1565b9150826002028217905092915050565b611a0182611404565b67ffffffffffffffff811115611a1a57611a1961182e565b5b611a248254611796565b611a2f82828561196f565b5f60209050601f831160018114611a60575f8415611a4e578287015190505b611a5885826119dd565b865550611abf565b601f198416611a6e8661185b565b5f5b82811015611a9557848901518255600182019150602085019450602081019050611a70565b86831015611ab25784890151611aae601f8916826119c1565b8355505b6001600288020188555050505b505050505050565b7f4e487b71000000000000000000000000000000000000000000000000000000005f52601160045260245ffd5b5f611afe826113a6565b9150611b09836113a6565b9250828203905081811115611b2157611b20611ac7565b5b92915050565b828183375f83830152505050565b5f611b40838561140e565b9350611b4d838584611b27565b611b5683611446565b840190509392505050565b5f606082019050611b745f830187611586565b8181036020830152611b87818587611b35565b90508181036040830152611b9b8184611456565b905095945050505050565b7f4e487b71000000000000000000000000000000000000000000000000000000005f52603260045260245ffd5b7f4c657373207468616e206f6e65206461792073696e6365206c6173742074696d5f8201527f6520796f75206765742061206672656520726f626f742e000000000000000000602082015250565b5f611c2d60378361140e565b9150611c3882611bd3565b604082019050919050565b5f6020820190508181035f830152611c5a81611c21565b9050919050565b5f611c6b826113a6565b9150611c76836113a6565b9250828201905080821115611c8e57611c8d611ac7565b5b92915050565b7f596f752063616e6e6f7420676976652061207374617220746f20796f7572206f5f8201527f776e20726f626f742e0000000000000000000000000000000000000000000000602082015250565b5f611cee60298361140e565b9150611cf982611c94565b604082019050919050565b5f6020820190508181035f830152611d1b81611ce2565b9050919050565b7f4c657373207468616e206f6e65206461792073696e6365206c6173742074696d5f8201527f6520796f752067697665206120737461722e0000000000000000000000000000602082015250565b5f611d7c60328361140e565b9150611d8782611d22565b604082019050919050565b5f6020820190508181035f830152611da981611d70565b9050919050565b5f611dba82611624565b915063ffffffff8203611dd057611dcf611ac7565b5b600182019050919050565b5f611de58261148e565b9150611df08361148e565b9250828201905067ffffffffffffffff811115611e1057611e0f611ac7565b5b92915050565b5f611e20826113a6565b91507fffffffffffffffffffffffffffffffffffffffffffffffffffffffffffffffff8203611e5257611e51611ac7565b5b600182019050919050565b7f596f7572207265706f2069732066756c6c2e00000000000000000000000000005f82015250565b5f611e9160128361140e565b9150611e9c82611e5d565b602082019050919050565b5f6020820190508181035f830152611ebe81611e85565b9050919050565b7f6e6f4e616d6500000000000000000000000000000000000000000000000000005f82015250565b5f611ef960068361140e565b9150611f0482611ec5565b602082019050919050565b5f611f29611f24611f1f84611609565b6118d9565b6113a6565b9050919050565b611f3981611f0f565b82525050565b5f608082019050611f525f830186611586565b8181036020830152611f6381611eed565b90508181036040830152611f778185611456565b9050611f866060830184611f30565b949350505050565b5f819050919050565b611fa8611fa3826113a6565b611f8e565b82525050565b5f8160601b9050919050565b5f611fc482611fae565b9050919050565b5f611fd582611fba565b9050919050565b611fed611fe882611520565b611fcb565b82525050565b5f611ffe8286611f97565b60208201915061200e8285611fdc565b60148201915061201e8284611f97565b602082019150819050949350505050565b7f4e487b71000000000000000000000000000000000000000000000000000000005f52601260045260245ffd5b5f612066826113a6565b9150612071836113a6565b9250826120815761208061202f565b5b82820690509291505056fea264697066735822122079218821d4c10912327a9296b4cd03bf34c7ebf0c30e802f459dc2ab49609b9f64736f6c63430008150033",
  "immutableReferences": {},
  "source": "// SPDX-License-Identifier: MIT \npragma solidity ^0.8.21;\n\nimport \"./Basic.sol\";\n\n//\ncontract Star is Basic {\n\n    //\n    function giveStar(uint robotId) external {\n        require(msg.sender != robotToOwner[robotId], \"You cannot give a star to your own robot.\");\n\n        Commander storage myCommander = commanders[ownerToCommander[msg.sender]];\n        require(myCommander.giveStarReadyTime <= block.timestamp, \"Less than one day since last time you give a star.\");\n        robots[robotId].stars++;\n        myCommander.giveStarReadyTime += uint64(readyTime);\n\n        //\n        if (topRobots.length < 100) {\n            topRobots.push(robotId);\n        } else {\n            if (robots[robotId].stars > topRobots[0]) {\n                topRobots[0] = robotId;\n            }            \n        }\n\n\n        //star\n        if (topRobots.length == 100) {\n            uint minmumStarsIndex = 0;\n            for (uint i = 1; i <100; i++) {\n                if (robots[topRobots[i]].stars < robots[topRobots[minmumStarsIndex]].stars) {\n                    minmumStarsIndex = i;\n                }\n            }\n            uint temp = topRobots[0];\n            topRobots[0] = topRobots[minmumStarsIndex];\n            topRobots[minmumStarsIndex] = temp;            \n        }\n\n    }  \n\n    // \n    uint[] public topRobots;\n}",
  "sourcePath": "/Users/liqinghao/Desktop/RoboHashWeb3/contracts/robotgame/Star.sol",
  "compiler": {
    "name": "solc",
    "version": "0.8.21+commit.d9974bed.Emscripten.clang"
  },
  "schemaVersion": "3.4.16",
  "updatedAt": "2023-11-06T02:21:21.340Z",
  "devdoc": {
    "kind": "dev",
    "methods": {
      "isOwner()": {
        "returns": {
          "_0": "true if `msg.sender` is the owner of the contract."
        }
      },
      "owner()": {
        "returns": {
          "_0": "the address of the owner."
        }
      },
      "renounceOwnership()": {
        "details": "Allows the current owner to relinquish control of the contract."
      },
      "transferOwnership(address)": {
        "details": "Allows the current owner to transfer control of the contract to a newOwner.",
        "params": {
          "newOwner": "The address to transfer ownership to."
        }
      }
    },
    "version": 1
  },
  "userdoc": {
    "kind": "user",
    "methods": {
      "renounceOwnership()": {
        "notice": "Renouncing to ownership will leave the contract without an owner. It will not be possible to call the functions with the `onlyOwner` modifier anymore."
      }
    },
    "version": 1
  }
}