{
  "contractName": "Start",
  "abi": [
    {
      "inputs": [],
      "stateMutability": "nonpayable",
      "type": "constructor"
    },
    {
      "anonymous": false,
      "inputs": [
        {
          "indexed": false,
          "internalType": "string",
          "name": "name",
          "type": "string"
        },
        {
          "indexed": true,
          "internalType": "address",
          "name": "owner",
          "type": "address"
        }
      ],
      "name": "DropRobot",
      "type": "event"
    },
    {
      "anonymous": false,
      "inputs": [
        {
          "indexed": false,
          "internalType": "uint256",
          "name": "index",
          "type": "uint256"
        },
        {
          "indexed": false,
          "internalType": "string",
          "name": "name",
          "type": "string"
        },
        {
          "indexed": false,
          "internalType": "string",
          "name": "dna",
          "type": "string"
        },
        {
          "indexed": true,
          "internalType": "address",
          "name": "owner",
          "type": "address"
        }
      ],
      "name": "NewCommander",
      "type": "event"
    },
    {
      "anonymous": false,
      "inputs": [
        {
          "indexed": false,
          "internalType": "uint256",
          "name": "index",
          "type": "uint256"
        },
        {
          "indexed": false,
          "internalType": "string",
          "name": "name",
          "type": "string"
        },
        {
          "indexed": false,
          "internalType": "string",
          "name": "dna",
          "type": "string"
        },
        {
          "indexed": false,
          "internalType": "uint256",
          "name": "spieces",
          "type": "uint256"
        },
        {
          "indexed": true,
          "internalType": "address",
          "name": "owner",
          "type": "address"
        }
      ],
      "name": "NewRobot",
      "type": "event"
    },
    {
      "anonymous": false,
      "inputs": [
        {
          "indexed": true,
          "internalType": "address",
          "name": "previousOwner",
          "type": "address"
        },
        {
          "indexed": true,
          "internalType": "address",
          "name": "newOwner",
          "type": "address"
        }
      ],
      "name": "OwnershipTransferred",
      "type": "event"
    },
    {
      "inputs": [
        {
          "internalType": "string",
          "name": "name",
          "type": "string"
        }
      ],
      "name": "CreateCommander",
      "outputs": [],
      "stateMutability": "nonpayable",
      "type": "function"
    },
    {
      "inputs": [
        {
          "internalType": "uint256",
          "name": "idInMarket",
          "type": "uint256"
        },
        {
          "internalType": "uint256",
          "name": "robotId",
          "type": "uint256"
        }
      ],
      "name": "buyRobot",
      "outputs": [],
      "stateMutability": "payable",
      "type": "function"
    },
    {
      "inputs": [
        {
          "internalType": "uint256",
          "name": "",
          "type": "uint256"
        }
      ],
      "name": "commanders",
      "outputs": [
        {
          "internalType": "string",
          "name": "name",
          "type": "string"
        },
        {
          "internalType": "string",
          "name": "dna",
          "type": "string"
        },
        {
          "internalType": "uint64",
          "name": "getFreeRobotReadyTime",
          "type": "uint64"
        },
        {
          "internalType": "uint64",
          "name": "giveStarReadyTime",
          "type": "uint64"
        }
      ],
      "stateMutability": "view",
      "type": "function"
    },
    {
      "inputs": [
        {
          "internalType": "uint256",
          "name": "robotId",
          "type": "uint256"
        }
      ],
      "name": "dropRobot",
      "outputs": [],
      "stateMutability": "nonpayable",
      "type": "function"
    },
    {
      "inputs": [
        {
          "internalType": "uint256",
          "name": "choice",
          "type": "uint256"
        },
        {
          "internalType": "uint256",
          "name": "robotId",
          "type": "uint256"
        }
      ],
      "name": "gamble",
      "outputs": [],
      "stateMutability": "nonpayable",
      "type": "function"
    },
    {
      "inputs": [],
      "name": "getFreeRobot",
      "outputs": [],
      "stateMutability": "nonpayable",
      "type": "function"
    },
    {
      "inputs": [],
      "name": "getRobotsByOwner",
      "outputs": [
        {
          "internalType": "uint256[]",
          "name": "",
          "type": "uint256[]"
        }
      ],
      "stateMutability": "view",
      "type": "function"
    },
    {
      "inputs": [
        {
          "internalType": "uint256",
          "name": "robotId",
          "type": "uint256"
        }
      ],
      "name": "giveStar",
      "outputs": [],
      "stateMutability": "nonpayable",
      "type": "function"
    },
    {
      "inputs": [],
      "name": "isOwner",
      "outputs": [
        {
          "internalType": "bool",
          "name": "",
          "type": "bool"
        }
      ],
      "stateMutability": "view",
      "type": "function"
    },
    {
      "inputs": [
        {
          "internalType": "uint256",
          "name": "",
          "type": "uint256"
        }
      ],
      "name": "markets",
      "outputs": [
        {
          "internalType": "uint256",
          "name": "",
          "type": "uint256"
        }
      ],
      "stateMutability": "view",
      "type": "function"
    },
    {
      "inputs": [
        {
          "internalType": "string",
          "name": "newDna",
          "type": "string"
        }
      ],
      "name": "modifyCommanderDna",
      "outputs": [],
      "stateMutability": "payable",
      "type": "function"
    },
    {
      "inputs": [
        {
          "internalType": "string",
          "name": "newName",
          "type": "string"
        }
      ],
      "name": "modifyCommanderName",
      "outputs": [],
      "stateMutability": "payable",
      "type": "function"
    },
    {
      "inputs": [],
      "name": "owner",
      "outputs": [
        {
          "internalType": "address",
          "name": "",
          "type": "address"
        }
      ],
      "stateMutability": "view",
      "type": "function"
    },
    {
      "inputs": [
        {
          "internalType": "address",
          "name": "",
          "type": "address"
        }
      ],
      "name": "ownerCommanderCount",
      "outputs": [
        {
          "internalType": "uint256",
          "name": "",
          "type": "uint256"
        }
      ],
      "stateMutability": "view",
      "type": "function"
    },
    {
      "inputs": [
        {
          "internalType": "address",
          "name": "",
          "type": "address"
        }
      ],
      "name": "ownerRobotCount",
      "outputs": [
        {
          "internalType": "uint256",
          "name": "",
          "type": "uint256"
        }
      ],
      "stateMutability": "view",
      "type": "function"
    },
    {
      "inputs": [
        {
          "internalType": "address",
          "name": "",
          "type": "address"
        }
      ],
      "name": "ownerToCommander",
      "outputs": [
        {
          "internalType": "uint256",
          "name": "",
          "type": "uint256"
        }
      ],
      "stateMutability": "view",
      "type": "function"
    },
    {
      "inputs": [],
      "name": "renounceOwnership",
      "outputs": [],
      "stateMutability": "nonpayable",
      "type": "function"
    },
    {
      "inputs": [
        {
          "internalType": "uint256",
          "name": "",
          "type": "uint256"
        }
      ],
      "name": "robotToOwner",
      "outputs": [
        {
          "internalType": "address",
          "name": "",
          "type": "address"
        }
      ],
      "stateMutability": "view",
      "type": "function"
    },
    {
      "inputs": [
        {
          "internalType": "uint256",
          "name": "",
          "type": "uint256"
        }
      ],
      "name": "robots",
      "outputs": [
        {
          "internalType": "string",
          "name": "name",
          "type": "string"
        },
        {
          "internalType": "string",
          "name": "dna",
          "type": "string"
        },
        {
          "internalType": "uint8",
          "name": "spieces",
          "type": "uint8"
        },
        {
          "internalType": "uint8",
          "name": "status",
          "type": "uint8"
        },
        {
          "internalType": "uint32",
          "name": "stars",
          "type": "uint32"
        },
        {
          "internalType": "uint256",
          "name": "price",
          "type": "uint256"
        }
      ],
      "stateMutability": "view",
      "type": "function"
    },
    {
      "inputs": [
        {
          "internalType": "uint256",
          "name": "robotId",
          "type": "uint256"
        },
        {
          "internalType": "uint256",
          "name": "price",
          "type": "uint256"
        }
      ],
      "name": "saleRobot",
      "outputs": [],
      "stateMutability": "nonpayable",
      "type": "function"
    },
    {
      "inputs": [
        {
          "internalType": "uint256",
          "name": "fee",
          "type": "uint256"
        }
      ],
      "name": "setLevelupFee",
      "outputs": [],
      "stateMutability": "nonpayable",
      "type": "function"
    },
    {
      "inputs": [
        {
          "internalType": "uint256",
          "name": "robotId",
          "type": "uint256"
        },
        {
          "internalType": "string",
          "name": "newName",
          "type": "string"
        }
      ],
      "name": "setRobotName",
      "outputs": [],
      "stateMutability": "payable",
      "type": "function"
    },
    {
      "inputs": [
        {
          "internalType": "uint256",
          "name": "robotId",
          "type": "uint256"
        },
        {
          "internalType": "uint256",
          "name": "price",
          "type": "uint256"
        }
      ],
      "name": "setRobotPrice",
      "outputs": [],
      "stateMutability": "nonpayable",
      "type": "function"
    },
    {
      "inputs": [
        {
          "internalType": "uint256",
          "name": "",
          "type": "uint256"
        }
      ],
      "name": "topRobots",
      "outputs": [
        {
          "internalType": "uint256",
          "name": "",
          "type": "uint256"
        }
      ],
      "stateMutability": "view",
      "type": "function"
    },
    {
      "inputs": [
        {
          "internalType": "address",
          "name": "newOwner",
          "type": "address"
        }
      ],
      "name": "transferOwnership",
      "outputs": [],
      "stateMutability": "nonpayable",
      "type": "function"
    },
    {
      "inputs": [
        {
          "internalType": "uint256",
          "name": "idInMarket",
          "type": "uint256"
        },
        {
          "internalType": "uint256",
          "name": "robotId",
          "type": "uint256"
        }
      ],
      "name": "unSaleRobot",
      "outputs": [],
      "stateMutability": "nonpayable",
      "type": "function"
    }
  ],
  "bytecode": "0x6080604052620151805f60146101000a81548167ffffffffffffffff021916908367ffffffffffffffff1602179055505f60015566038d7ea4c68000600855348015610049575f80fd5b50335f806101000a81548173ffffffffffffffffffffffffffffffffffffffff021916908373ffffffffffffffffffffffffffffffffffffffff1602179055505f8054906101000a900473ffffffffffffffffffffffffffffffffffffffff1673ffffffffffffffffffffffffffffffffffffffff165f73ffffffffffffffffffffffffffffffffffffffff167f8be0079c531659141344cd1fd0a4f28419497f9722a3daafe3b4186f6b6457e060405160405180910390a36138298061010f5f395ff3fe608060405260043610610180575f3560e01c806395505961116100d0578063b060ff1911610089578063e900574d11610063578063e900574d1461055a578063e9ca0f2a14610576578063f242da121461059e578063f2fde38b146105c657610180565b8063b060ff19146104de578063b1283e77146104f4578063d1763b3a1461053057610180565b806395505961146103cd5780639949460c146104095780639b41bb6914610425578063a03937c51461044d578063a1a4d91c1461048e578063a7d9e53e146104b657610180565b80636aa438dc1161013d5780637c4213de116101175780637c4213de146103215780638da5cb5b1461033d5780638f32d59b146103675780639403a0ce1461039157610180565b80636aa438dc146102b35780636c087ed0146102ef578063715018a61461030b57610180565b806308bdadf81461018457806322e8c8fc146101ac5780632ff1e244146101d45780633413e37214610210578063492d8b3d1461023857806365ceceb114610277575b5f80fd5b34801561018f575f80fd5b506101aa60048036038101906101a59190612545565b6105ee565b005b3480156101b7575f80fd5b506101d260048036038101906101cd9190612545565b61071d565b005b3480156101df575f80fd5b506101fa60048036038101906101f591906125dd565b61085d565b6040516102079190612617565b60405180910390f35b34801561021b575f80fd5b5061023660048036038101906102319190612545565b610872565b005b348015610243575f80fd5b5061025e60048036038101906102599190612630565b6109c5565b60405161026e9493929190612707565b60405180910390f35b348015610282575f80fd5b5061029d600480360381019061029891906125dd565b610b33565b6040516102aa9190612617565b60405180910390f35b3480156102be575f80fd5b506102d960048036038101906102d491906125dd565b610b48565b6040516102e69190612617565b60405180910390f35b61030960048036038101906103049190612545565b610b5d565b005b348015610316575f80fd5b5061031f610e40565b005b61033b600480360381019061033691906127b9565b610f0a565b005b348015610348575f80fd5b50610351610fd1565b60405161035e9190612813565b60405180910390f35b348015610372575f80fd5b5061037b610ff8565b6040516103889190612846565b60405180910390f35b34801561039c575f80fd5b506103b760048036038101906103b29190612630565b61104d565b6040516103c49190612813565b60405180910390f35b3480156103d8575f80fd5b506103f360048036038101906103ee9190612630565b61107d565b6040516104009190612617565b60405180910390f35b610423600480360381019061041e91906127b9565b61109d565b005b348015610430575f80fd5b5061044b60048036038101906104469190612630565b611163565b005b348015610458575f80fd5b50610473600480360381019061046e9190612630565b6112cb565b60405161048596959493929190612898565b60405180910390f35b348015610499575f80fd5b506104b460048036038101906104af91906127b9565b611447565b005b3480156104c1575f80fd5b506104dc60048036038101906104d79190612545565b61171c565b005b3480156104e9575f80fd5b506104f26117e8565b005b3480156104ff575f80fd5b5061051a60048036038101906105159190612630565b611901565b6040516105279190612617565b60405180910390f35b34801561053b575f80fd5b50610544611921565b60405161055191906129bc565b60405180910390f35b610574600480360381019061056f91906129dc565b611a6a565b005b348015610581575f80fd5b5061059c60048036038101906105979190612630565b611bcc565b005b3480156105a9575f80fd5b506105c460048036038101906105bf9190612630565b612018565b005b3480156105d1575f80fd5b506105ec60048036038101906105e791906125dd565b612032565b005b8160065f8281526020019081526020015f205f9054906101000a900473ffffffffffffffffffffffffffffffffffffffff1673ffffffffffffffffffffffffffffffffffffffff163373ffffffffffffffffffffffffffffffffffffffff161461068d576040517f08c379a000000000000000000000000000000000000000000000000000000000815260040161068490612a83565b60405180910390fd5b600a83908060018154018082558091505060019003905f5260205f20015f90919091909150556001600384815481106106c9576106c8612aa1565b5b905f5260205f20906004020160020160016101000a81548160ff021916908360ff160217905550816003848154811061070557610704612aa1565b5b905f5260205f20906004020160030181905550505050565b8060065f8281526020019081526020015f205f9054906101000a900473ffffffffffffffffffffffffffffffffffffffff1673ffffffffffffffffffffffffffffffffffffffff163373ffffffffffffffffffffffffffffffffffffffff16146107bc576040517f08c379a00000000000000000000000000000000000000000000000000000000081526004016107b390612a83565b60405180910390fd5b5f60016107c9600661204e565b6107d39190612afb565b90505f600382116107e6575f90506107eb565b600190505b8085036107ff576107fa6120a7565b610856565b610807610fd1565b60065f8681526020019081526020015f205f6101000a81548173ffffffffffffffffffffffffffffffffffffffff021916908373ffffffffffffffffffffffffffffffffffffffff1602179055505b5050505050565b6005602052805f5260405f205f915090505481565b8060065f8281526020019081526020015f205f9054906101000a900473ffffffffffffffffffffffffffffffffffffffff1673ffffffffffffffffffffffffffffffffffffffff163373ffffffffffffffffffffffffffffffffffffffff1614610911576040517f08c379a000000000000000000000000000000000000000000000000000000000815260040161090890612a83565b60405180910390fd5b600a6001600a805490506109259190612b2e565b8154811061093657610935612aa1565b5b905f5260205f200154600a848154811061095357610952612aa1565b5b905f5260205f200181905550600a80548061097157610970612b61565b5b600190038181905f5260205f20015f905590555f6003838154811061099957610998612aa1565b5b905f5260205f20906004020160020160016101000a81548160ff021916908360ff160217905550505050565b600281815481106109d4575f80fd5b905f5260205f2090600302015f91509050805f0180546109f390612bbb565b80601f0160208091040260200160405190810160405280929190818152602001828054610a1f90612bbb565b8015610a6a5780601f10610a4157610100808354040283529160200191610a6a565b820191905f5260205f20905b815481529060010190602001808311610a4d57829003601f168201915b505050505090806001018054610a7f90612bbb565b80601f0160208091040260200160405190810160405280929190818152602001828054610aab90612bbb565b8015610af65780601f10610acd57610100808354040283529160200191610af6565b820191905f5260205f20905b815481529060010190602001808311610ad957829003601f168201915b505050505090806002015f9054906101000a900467ffffffffffffffff16908060020160089054906101000a900467ffffffffffffffff16905084565b6007602052805f5260405f205f915090505481565b6004602052805f5260405f205f915090505481565b60065f8281526020019081526020015f205f9054906101000a900473ffffffffffffffffffffffffffffffffffffffff1673ffffffffffffffffffffffffffffffffffffffff163373ffffffffffffffffffffffffffffffffffffffff1603610bfb576040517f08c379a0000000000000000000000000000000000000000000000000000000008152600401610bf290612c5b565b60405180910390fd5b600160038281548110610c1157610c10612aa1565b5b905f5260205f20906004020160020160019054906101000a900460ff1660ff1614610c71576040517f08c379a0000000000000000000000000000000000000000000000000000000008152600401610c6890612cc3565b60405180910390fd5b60038181548110610c8557610c84612aa1565b5b905f5260205f209060040201600301543414610c9f575f80fd5b600a6001600a80549050610cb39190612b2e565b81548110610cc457610cc3612aa1565b5b905f5260205f200154600a8381548110610ce157610ce0612aa1565b5b905f5260205f200181905550600a805480610cff57610cfe612b61565b5b600190038181905f5260205f20015f905590555f60038281548110610d2757610d26612aa1565b5b905f5260205f20906004020160020160016101000a81548160ff021916908360ff1602179055503360065f8381526020019081526020015f205f6101000a81548173ffffffffffffffffffffffffffffffffffffffff021916908373ffffffffffffffffffffffffffffffffffffffff1602179055505f60065f8381526020019081526020015f205f9054906101000a900473ffffffffffffffffffffffffffffffffffffffff1690508073ffffffffffffffffffffffffffffffffffffffff166108fc610e12605f610e046064346120b190919063ffffffff16565b6120cb90919063ffffffff16565b90811502906040515f60405180830381858888f19350505050158015610e3a573d5f803e3d5ffd5b50505050565b610e48610ff8565b610e50575f80fd5b5f73ffffffffffffffffffffffffffffffffffffffff165f8054906101000a900473ffffffffffffffffffffffffffffffffffffffff1673ffffffffffffffffffffffffffffffffffffffff167f8be0079c531659141344cd1fd0a4f28419497f9722a3daafe3b4186f6b6457e060405160405180910390a35f805f6101000a81548173ffffffffffffffffffffffffffffffffffffffff021916908373ffffffffffffffffffffffffffffffffffffffff160217905550565b6008543414610f4e576040517f08c379a0000000000000000000000000000000000000000000000000000000008152600401610f4590612d2b565b60405180910390fd5b5f3390505f60045f8373ffffffffffffffffffffffffffffffffffffffff1673ffffffffffffffffffffffffffffffffffffffff1681526020019081526020015f205490505f60028281548110610fa857610fa7612aa1565b5b905f5260205f20906003020190508484826001019182610fc9929190612f1d565b505050505050565b5f805f9054906101000a900473ffffffffffffffffffffffffffffffffffffffff16905090565b5f805f9054906101000a900473ffffffffffffffffffffffffffffffffffffffff1673ffffffffffffffffffffffffffffffffffffffff163373ffffffffffffffffffffffffffffffffffffffff1614905090565b6006602052805f5260405f205f915054906101000a900473ffffffffffffffffffffffffffffffffffffffff1681565b6009818154811061108c575f80fd5b905f5260205f20015f915090505481565b60085434146110e1576040517f08c379a00000000000000000000000000000000000000000000000000000000081526004016110d890612d2b565b60405180910390fd5b5f3390505f60045f8373ffffffffffffffffffffffffffffffffffffffff1673ffffffffffffffffffffffffffffffffffffffff1681526020019081526020015f205490505f6002828154811061113b5761113a612aa1565b5b905f5260205f20906003020190508484825f01918261115b929190612f1d565b505050505050565b8060065f8281526020019081526020015f205f9054906101000a900473ffffffffffffffffffffffffffffffffffffffff1673ffffffffffffffffffffffffffffffffffffffff163373ffffffffffffffffffffffffffffffffffffffff1614611202576040517f08c379a00000000000000000000000000000000000000000000000000000000081526004016111f990612a83565b60405180910390fd5b61120a610fd1565b60065f8481526020019081526020015f205f6101000a81548173ffffffffffffffffffffffffffffffffffffffff021916908373ffffffffffffffffffffffffffffffffffffffff1602179055503373ffffffffffffffffffffffffffffffffffffffff167f21a51e05aaba7d9dfc436f444cce7ae7c5080aec1a649777bb7f2561643aaad5600384815481106112a4576112a3612aa1565b5b905f5260205f2090600402015f016040516112bf919061306b565b60405180910390a25050565b600381815481106112da575f80fd5b905f5260205f2090600402015f91509050805f0180546112f990612bbb565b80601f016020809104026020016040519081016040528092919081815260200182805461132590612bbb565b80156113705780601f1061134757610100808354040283529160200191611370565b820191905f5260205f20905b81548152906001019060200180831161135357829003601f168201915b50505050509080600101805461138590612bbb565b80601f01602080910402602001604051908101604052809291908181526020018280546113b190612bbb565b80156113fc5780601f106113d3576101008083540402835291602001916113fc565b820191905f5260205f20905b8154815290600101906020018083116113df57829003601f168201915b505050505090806002015f9054906101000a900460ff16908060020160019054906101000a900460ff16908060020160029054906101000a900463ffffffff16908060030154905086565b5f60055f3373ffffffffffffffffffffffffffffffffffffffff1673ffffffffffffffffffffffffffffffffffffffff1681526020019081526020015f2054146114c6576040517f08c379a00000000000000000000000000000000000000000000000000000000081526004016114bd906130d5565b60405180910390fd5b5f6040518060400160405280600c81526020017f72616e646f6d537472696e67000000000000000000000000000000000000000081525090506002604051806080016040528085858080601f0160208091040260200160405190810160405280939291908181526020018383808284375f81840152601f19601f8201169050808301925050505050505081526020018381526020014267ffffffffffffffff1681526020014267ffffffffffffffff16815250908060018154018082558091505060019003905f5260205f2090600302015f909190919091505f820151815f0190816115b291906130f3565b5060208201518160010190816115c891906130f3565b506040820151816002015f6101000a81548167ffffffffffffffff021916908367ffffffffffffffff16021790555060608201518160020160086101000a81548167ffffffffffffffff021916908367ffffffffffffffff16021790555050505f600160028054905061163b9190612b2e565b90508060045f3373ffffffffffffffffffffffffffffffffffffffff1673ffffffffffffffffffffffffffffffffffffffff1681526020019081526020015f2081905550600160055f3373ffffffffffffffffffffffffffffffffffffffff1673ffffffffffffffffffffffffffffffffffffffff1681526020019081526020015f20819055503373ffffffffffffffffffffffffffffffffffffffff167f0ba589754bdc7c1e308a8ce3362a7b42600571fdd695534edd1e0182e187149f8286868660405161170e94939291906131fc565b60405180910390a250505050565b8160065f8281526020019081526020015f205f9054906101000a900473ffffffffffffffffffffffffffffffffffffffff1673ffffffffffffffffffffffffffffffffffffffff163373ffffffffffffffffffffffffffffffffffffffff16146117bb576040517f08c379a00000000000000000000000000000000000000000000000000000000081526004016117b290612a83565b60405180910390fd5b81600384815481106117d0576117cf612aa1565b5b905f5260205f20906004020160030181905550505050565b5f600260045f3373ffffffffffffffffffffffffffffffffffffffff1673ffffffffffffffffffffffffffffffffffffffff1681526020019081526020015f20548154811061183a57611839612aa1565b5b905f5260205f209060030201905042816002015f9054906101000a900467ffffffffffffffff1667ffffffffffffffff1611156118ac576040517f08c379a00000000000000000000000000000000000000000000000000000000081526004016118a3906132b1565b60405180910390fd5b6118b4612110565b5f60149054906101000a900467ffffffffffffffff16426118d591906132cf565b816002015f6101000a81548167ffffffffffffffff021916908367ffffffffffffffff16021790555050565b600a8181548110611910575f80fd5b905f5260205f20015f915090505481565b60605f60075f3373ffffffffffffffffffffffffffffffffffffffff1673ffffffffffffffffffffffffffffffffffffffff1681526020019081526020015f205467ffffffffffffffff81111561197b5761197a612d53565b5b6040519080825280602002602001820160405280156119a95781602001602082028036833780820191505090505b5090505f805b600380549050811015611a61573373ffffffffffffffffffffffffffffffffffffffff1660065f8381526020019081526020015f205f9054906101000a900473ffffffffffffffffffffffffffffffffffffffff1673ffffffffffffffffffffffffffffffffffffffff1603611a4e5780838381518110611a3357611a32612aa1565b5b6020026020010181815250508180611a4a9061330a565b9250505b8080611a599061330a565b9150506119af565b50819250505090565b8260065f8281526020019081526020015f205f9054906101000a900473ffffffffffffffffffffffffffffffffffffffff1673ffffffffffffffffffffffffffffffffffffffff163373ffffffffffffffffffffffffffffffffffffffff1614611b09576040517f08c379a0000000000000000000000000000000000000000000000000000000008152600401611b0090612a83565b60405180910390fd5b6008543414611b4d576040517f08c379a0000000000000000000000000000000000000000000000000000000008152600401611b4490612d2b565b60405180910390fd5b6014838390501115611b94576040517f08c379a0000000000000000000000000000000000000000000000000000000008152600401611b8b906133c1565b60405180910390fd5b828260038681548110611baa57611ba9612aa1565b5b905f5260205f2090600402015f019182611bc5929190612f1d565b5050505050565b60065f8281526020019081526020015f205f9054906101000a900473ffffffffffffffffffffffffffffffffffffffff1673ffffffffffffffffffffffffffffffffffffffff163373ffffffffffffffffffffffffffffffffffffffff1603611c6a576040517f08c379a0000000000000000000000000000000000000000000000000000000008152600401611c619061344f565b60405180910390fd5b5f600260045f3373ffffffffffffffffffffffffffffffffffffffff1673ffffffffffffffffffffffffffffffffffffffff1681526020019081526020015f205481548110611cbc57611cbb612aa1565b5b905f5260205f2090600302019050428160020160089054906101000a900467ffffffffffffffff1667ffffffffffffffff161115611d2f576040517f08c379a0000000000000000000000000000000000000000000000000000000008152600401611d26906134dd565b60405180910390fd5b60038281548110611d4357611d42612aa1565b5b905f5260205f209060040201600201600281819054906101000a900463ffffffff1680929190611d72906134fb565b91906101000a81548163ffffffff021916908363ffffffff160217905550505f60149054906101000a900467ffffffffffffffff168160020160088282829054906101000a900467ffffffffffffffff16611dcd91906132cf565b92506101000a81548167ffffffffffffffff021916908367ffffffffffffffff16021790555060646009805490501015611e2c57600982908060018154018082558091505060019003905f5260205f20015f9091909190915055611eac565b60095f81548110611e4057611e3f612aa1565b5b905f5260205f20015460038381548110611e5d57611e5c612aa1565b5b905f5260205f20906004020160020160029054906101000a900463ffffffff1663ffffffff161115611eab578160095f81548110611e9e57611e9d612aa1565b5b905f5260205f2001819055505b5b606460098054905003612014575f80600190505b6064811015611f9257600360095f81548110611edf57611ede612aa1565b5b905f5260205f20015481548110611ef957611ef8612aa1565b5b905f5260205f20906004020160020160029054906101000a900463ffffffff1663ffffffff16600360098381548110611f3557611f34612aa1565b5b905f5260205f20015481548110611f4f57611f4e612aa1565b5b905f5260205f20906004020160020160029054906101000a900463ffffffff1663ffffffff161015611f7f578091505b8080611f8a9061330a565b915050611ec0565b505f60095f81548110611fa857611fa7612aa1565b5b905f5260205f200154905060098281548110611fc757611fc6612aa1565b5b905f5260205f20015460095f81548110611fe457611fe3612aa1565b5b905f5260205f200181905550806009838154811061200557612004612aa1565b5b905f5260205f20018190555050505b5050565b612020610ff8565b612028575f80fd5b8060088190555050565b61203a610ff8565b612042575f80fd5b61204b81612418565b50565b5f60015f8154809291906120619061330a565b919050555081423360015460405160200161207e9392919061358b565b604051602081830303815290604052805190602001205f1c6120a091906135f4565b9050919050565b6120af612110565b565b5f8082846120bf9190613624565b90508091505092915050565b5f8083036120db575f905061210a565b5f82846120e89190613654565b90508284826120f79190613624565b1461210557612104613695565b5b809150505b92915050565b606460075f3373ffffffffffffffffffffffffffffffffffffffff1673ffffffffffffffffffffffffffffffffffffffff1681526020019081526020015f20541115612191576040517f08c379a00000000000000000000000000000000000000000000000000000000081526004016121889061370c565b60405180910390fd5b5f61219c600261204e565b90505f6040518060400160405280600c81526020017f72616e646f6d537472696e670000000000000000000000000000000000000000815250905060036040518060c001604052806040518060400160405280600681526020017f6e6f4e616d65000000000000000000000000000000000000000000000000000081525081526020018381526020018460ff1681526020015f60ff1681526020015f63ffffffff1681526020015f815250908060018154018082558091505060019003905f5260205f2090600402015f909190919091505f820151815f01908161228091906130f3565b50602082015181600101908161229691906130f3565b506040820151816002015f6101000a81548160ff021916908360ff16021790555060608201518160020160016101000a81548160ff021916908360ff16021790555060808201518160020160026101000a81548163ffffffff021916908363ffffffff16021790555060a0820151816003015550505f600160038054905061231e9190612b2e565b90503360065f8381526020019081526020015f205f6101000a81548173ffffffffffffffffffffffffffffffffffffffff021916908373ffffffffffffffffffffffffffffffffffffffff16021790555060075f3373ffffffffffffffffffffffffffffffffffffffff1673ffffffffffffffffffffffffffffffffffffffff1681526020019081526020015f205f8154809291906123bc9061330a565b91905055503373ffffffffffffffffffffffffffffffffffffffff167fe4bc06e69dd7a0f1bc9ef5db431d371f0cab41d8156a6012711823b90466715b82848660405161240b939291906137a4565b60405180910390a2505050565b5f73ffffffffffffffffffffffffffffffffffffffff168173ffffffffffffffffffffffffffffffffffffffff160361244f575f80fd5b8073ffffffffffffffffffffffffffffffffffffffff165f8054906101000a900473ffffffffffffffffffffffffffffffffffffffff1673ffffffffffffffffffffffffffffffffffffffff167f8be0079c531659141344cd1fd0a4f28419497f9722a3daafe3b4186f6b6457e060405160405180910390a3805f806101000a81548173ffffffffffffffffffffffffffffffffffffffff021916908373ffffffffffffffffffffffffffffffffffffffff16021790555050565b5f80fd5b5f80fd5b5f819050919050565b61252481612512565b811461252e575f80fd5b50565b5f8135905061253f8161251b565b92915050565b5f806040838503121561255b5761255a61250a565b5b5f61256885828601612531565b925050602061257985828601612531565b9150509250929050565b5f73ffffffffffffffffffffffffffffffffffffffff82169050919050565b5f6125ac82612583565b9050919050565b6125bc816125a2565b81146125c6575f80fd5b50565b5f813590506125d7816125b3565b92915050565b5f602082840312156125f2576125f161250a565b5b5f6125ff848285016125c9565b91505092915050565b61261181612512565b82525050565b5f60208201905061262a5f830184612608565b92915050565b5f602082840312156126455761264461250a565b5b5f61265284828501612531565b91505092915050565b5f81519050919050565b5f82825260208201905092915050565b5f5b83811015612692578082015181840152602081019050612677565b5f8484015250505050565b5f601f19601f8301169050919050565b5f6126b78261265b565b6126c18185612665565b93506126d1818560208601612675565b6126da8161269d565b840191505092915050565b5f67ffffffffffffffff82169050919050565b612701816126e5565b82525050565b5f6080820190508181035f83015261271f81876126ad565b9050818103602083015261273381866126ad565b905061274260408301856126f8565b61274f60608301846126f8565b95945050505050565b5f80fd5b5f80fd5b5f80fd5b5f8083601f84011261277957612778612758565b5b8235905067ffffffffffffffff8111156127965761279561275c565b5b6020830191508360018202830111156127b2576127b1612760565b5b9250929050565b5f80602083850312156127cf576127ce61250a565b5b5f83013567ffffffffffffffff8111156127ec576127eb61250e565b5b6127f885828601612764565b92509250509250929050565b61280d816125a2565b82525050565b5f6020820190506128265f830184612804565b92915050565b5f8115159050919050565b6128408161282c565b82525050565b5f6020820190506128595f830184612837565b92915050565b5f60ff82169050919050565b6128748161285f565b82525050565b5f63ffffffff82169050919050565b6128928161287a565b82525050565b5f60c0820190508181035f8301526128b081896126ad565b905081810360208301526128c481886126ad565b90506128d3604083018761286b565b6128e0606083018661286b565b6128ed6080830185612889565b6128fa60a0830184612608565b979650505050505050565b5f81519050919050565b5f82825260208201905092915050565b5f819050602082019050919050565b61293781612512565b82525050565b5f612948838361292e565b60208301905092915050565b5f602082019050919050565b5f61296a82612905565b612974818561290f565b935061297f8361291f565b805f5b838110156129af578151612996888261293d565b97506129a183612954565b925050600181019050612982565b5085935050505092915050565b5f6020820190508181035f8301526129d48184612960565b905092915050565b5f805f604084860312156129f3576129f261250a565b5b5f612a0086828701612531565b935050602084013567ffffffffffffffff811115612a2157612a2061250e565b5b612a2d86828701612764565b92509250509250925092565b7f4e6f7420796f757220726f626f742e00000000000000000000000000000000005f82015250565b5f612a6d600f83612665565b9150612a7882612a39565b602082019050919050565b5f6020820190508181035f830152612a9a81612a61565b9050919050565b7f4e487b71000000000000000000000000000000000000000000000000000000005f52603260045260245ffd5b7f4e487b71000000000000000000000000000000000000000000000000000000005f52601160045260245ffd5b5f612b0582612512565b9150612b1083612512565b9250828201905080821115612b2857612b27612ace565b5b92915050565b5f612b3882612512565b9150612b4383612512565b9250828203905081811115612b5b57612b5a612ace565b5b92915050565b7f4e487b71000000000000000000000000000000000000000000000000000000005f52603160045260245ffd5b7f4e487b71000000000000000000000000000000000000000000000000000000005f52602260045260245ffd5b5f6002820490506001821680612bd257607f821691505b602082108103612be557612be4612b8e565b5b50919050565b7f4974277320796f757220726f626f742c20796f752063616e27742062757920695f8201527f742e000000000000000000000000000000000000000000000000000000000000602082015250565b5f612c45602283612665565b9150612c5082612beb565b604082019050919050565b5f6020820190508181035f830152612c7281612c39565b9050919050565b7f5468697320726f626f74206e6f74206f6e2073616c652e0000000000000000005f82015250565b5f612cad601783612665565b9150612cb882612c79565b602082019050919050565b5f6020820190508181035f830152612cda81612ca1565b9050919050565b7f506c656173652070617920656e6f7567682065746865722e00000000000000005f82015250565b5f612d15601883612665565b9150612d2082612ce1565b602082019050919050565b5f6020820190508181035f830152612d4281612d09565b9050919050565b5f82905092915050565b7f4e487b71000000000000000000000000000000000000000000000000000000005f52604160045260245ffd5b5f819050815f5260205f209050919050565b5f6020601f8301049050919050565b5f82821b905092915050565b5f60088302612ddc7fffffffffffffffffffffffffffffffffffffffffffffffffffffffffffffffff82612da1565b612de68683612da1565b95508019841693508086168417925050509392505050565b5f819050919050565b5f612e21612e1c612e1784612512565b612dfe565b612512565b9050919050565b5f819050919050565b612e3a83612e07565b612e4e612e4682612e28565b848454612dad565b825550505050565b5f90565b612e62612e56565b612e6d818484612e31565b505050565b5b81811015612e9057612e855f82612e5a565b600181019050612e73565b5050565b601f821115612ed557612ea681612d80565b612eaf84612d92565b81016020851015612ebe578190505b612ed2612eca85612d92565b830182612e72565b50505b505050565b5f82821c905092915050565b5f612ef55f1984600802612eda565b1980831691505092915050565b5f612f0d8383612ee6565b9150826002028217905092915050565b612f278383612d49565b67ffffffffffffffff811115612f4057612f3f612d53565b5b612f4a8254612bbb565b612f55828285612e94565b5f601f831160018114612f82575f8415612f70578287013590505b612f7a8582612f02565b865550612fe1565b601f198416612f9086612d80565b5f5b82811015612fb757848901358255600182019150602085019450602081019050612f92565b86831015612fd45784890135612fd0601f891682612ee6565b8355505b6001600288020188555050505b50505050505050565b5f8154612ff681612bbb565b6130008186612665565b9450600182165f811461301a576001811461303057613062565b60ff198316865281151560200286019350613062565b61303985612d80565b5f5b8381101561305a5781548189015260018201915060208101905061303b565b808801955050505b50505092915050565b5f6020820190508181035f8301526130838184612fea565b905092915050565b7f596f757220636f6d6d616e64657220616c726561647920657869737465642e005f82015250565b5f6130bf601f83612665565b91506130ca8261308b565b602082019050919050565b5f6020820190508181035f8301526130ec816130b3565b9050919050565b6130fc8261265b565b67ffffffffffffffff81111561311557613114612d53565b5b61311f8254612bbb565b61312a828285612e94565b5f60209050601f83116001811461315b575f8415613149578287015190505b6131538582612f02565b8655506131ba565b601f19841661316986612d80565b5f5b828110156131905784890151825560018201915060208501945060208101905061316b565b868310156131ad57848901516131a9601f891682612ee6565b8355505b6001600288020188555050505b505050505050565b828183375f83830152505050565b5f6131db8385612665565b93506131e88385846131c2565b6131f18361269d565b840190509392505050565b5f60608201905061320f5f830187612608565b81810360208301526132228185876131d0565b9050818103604083015261323681846126ad565b905095945050505050565b7f4c657373207468616e206f6e65206461792073696e6365206c6173742074696d5f8201527f6520796f75206765742061206672656520726f626f742e000000000000000000602082015250565b5f61329b603783612665565b91506132a682613241565b604082019050919050565b5f6020820190508181035f8301526132c88161328f565b9050919050565b5f6132d9826126e5565b91506132e4836126e5565b9250828201905067ffffffffffffffff81111561330457613303612ace565b5b92915050565b5f61331482612512565b91507fffffffffffffffffffffffffffffffffffffffffffffffffffffffffffffffff820361334657613345612ace565b5b600182019050919050565b7f526f626f74206e616d652063616e6e6f742065786365656420323020636861725f8201527f6163746572732e00000000000000000000000000000000000000000000000000602082015250565b5f6133ab602783612665565b91506133b682613351565b604082019050919050565b5f6020820190508181035f8301526133d88161339f565b9050919050565b7f596f752063616e6e6f7420676976652061207374617220746f20796f7572206f5f8201527f776e20726f626f742e0000000000000000000000000000000000000000000000602082015250565b5f613439602983612665565b9150613444826133df565b604082019050919050565b5f6020820190508181035f8301526134668161342d565b9050919050565b7f4c657373207468616e206f6e65206461792073696e6365206c6173742074696d5f8201527f6520796f752067697665206120737461722e0000000000000000000000000000602082015250565b5f6134c7603283612665565b91506134d28261346d565b604082019050919050565b5f6020820190508181035f8301526134f4816134bb565b9050919050565b5f6135058261287a565b915063ffffffff820361351b5761351a612ace565b5b600182019050919050565b5f819050919050565b61354061353b82612512565b613526565b82525050565b5f8160601b9050919050565b5f61355c82613546565b9050919050565b5f61356d82613552565b9050919050565b613585613580826125a2565b613563565b82525050565b5f613596828661352f565b6020820191506135a68285613574565b6014820191506135b6828461352f565b602082019150819050949350505050565b7f4e487b71000000000000000000000000000000000000000000000000000000005f52601260045260245ffd5b5f6135fe82612512565b915061360983612512565b925082613619576136186135c7565b5b828206905092915050565b5f61362e82612512565b915061363983612512565b925082613649576136486135c7565b5b828204905092915050565b5f61365e82612512565b915061366983612512565b925082820261367781612512565b9150828204841483151761368e5761368d612ace565b5b5092915050565b7f4e487b71000000000000000000000000000000000000000000000000000000005f52600160045260245ffd5b7f596f7572207265706f2069732066756c6c2e00000000000000000000000000005f82015250565b5f6136f6601283612665565b9150613701826136c2565b602082019050919050565b5f6020820190508181035f830152613723816136ea565b9050919050565b7f6e6f4e616d6500000000000000000000000000000000000000000000000000005f82015250565b5f61375e600683612665565b91506137698261372a565b602082019050919050565b5f61378e6137896137848461285f565b612dfe565b612512565b9050919050565b61379e81613774565b82525050565b5f6080820190506137b75f830186612608565b81810360208301526137c881613752565b905081810360408301526137dc81856126ad565b90506137eb6060830184613795565b94935050505056fea26469706673582212205cae3605c950886fdb1776703b898f7330881a1be3dfcb1934f8492f3862fa1564736f6c63430008150033",
  "immutableReferences": {},
  "source": "// SPDX-License-Identifier: GPL-3.0\npragma solidity ^0.8.21;\n\nimport \"./RobotManage.sol\";\nimport \"./Gamble.sol\";\nimport \"./Star.sol\";\nimport \"./Trade.sol\";\nimport \"./Erc721Impl.sol\";\n\n//\ncontract Start is RobotManage, Gamble, Star, Trade, Erc721Impl {\n    constructor() {\n        \n    }\n}",
  "sourcePath": "/Users/liqinghao/Desktop/RoboHashWeb3/contracts/robotgame/Start.sol",
  "compiler": {
    "name": "solc",
    "version": "0.8.21+commit.d9974bed.Emscripten.clang"
  },
  "schemaVersion": "3.4.16",
  "updatedAt": "2023-10-27T09:47:39.573Z",
  "devdoc": {
    "kind": "dev",
    "methods": {
      "isOwner()": {
        "returns": {
          "_0": "true if `msg.sender` is the owner of the contract."
        }
      },
      "owner()": {
        "returns": {
          "_0": "the address of the owner."
        }
      },
      "renounceOwnership()": {
        "details": "Allows the current owner to relinquish control of the contract."
      },
      "transferOwnership(address)": {
        "details": "Allows the current owner to transfer control of the contract to a newOwner.",
        "params": {
          "newOwner": "The address to transfer ownership to."
        }
      }
    },
    "version": 1
  },
  "userdoc": {
    "kind": "user",
    "methods": {
      "renounceOwnership()": {
        "notice": "Renouncing to ownership will leave the contract without an owner. It will not be possible to call the functions with the `onlyOwner` modifier anymore."
      }
    },
    "version": 1
  }
}