{
  "contractName": "Star",
  "abi": [
    {
      "anonymous": false,
      "inputs": [
        {
          "indexed": false,
          "internalType": "uint256",
          "name": "id",
          "type": "uint256"
        },
        {
          "indexed": false,
          "internalType": "string",
          "name": "name",
          "type": "string"
        },
        {
          "indexed": false,
          "internalType": "uint256",
          "name": "dna",
          "type": "uint256"
        },
        {
          "indexed": true,
          "internalType": "address",
          "name": "owner",
          "type": "address"
        }
      ],
      "name": "NewCommander",
      "type": "event"
    },
    {
      "anonymous": false,
      "inputs": [
        {
          "indexed": false,
          "internalType": "uint256",
          "name": "id",
          "type": "uint256"
        },
        {
          "indexed": false,
          "internalType": "string",
          "name": "name",
          "type": "string"
        },
        {
          "indexed": false,
          "internalType": "string",
          "name": "dna",
          "type": "string"
        },
        {
          "indexed": false,
          "internalType": "uint256",
          "name": "spieces",
          "type": "uint256"
        },
        {
          "indexed": true,
          "internalType": "address",
          "name": "owner",
          "type": "address"
        }
      ],
      "name": "NewRobot",
      "type": "event"
    },
    {
      "anonymous": false,
      "inputs": [
        {
          "indexed": true,
          "internalType": "address",
          "name": "previousOwner",
          "type": "address"
        },
        {
          "indexed": true,
          "internalType": "address",
          "name": "newOwner",
          "type": "address"
        }
      ],
      "name": "OwnershipTransferred",
      "type": "event"
    },
    {
      "inputs": [
        {
          "internalType": "string",
          "name": "name",
          "type": "string"
        }
      ],
      "name": "CreateCommander",
      "outputs": [],
      "stateMutability": "nonpayable",
      "type": "function"
    },
    {
      "inputs": [
        {
          "internalType": "address",
          "name": "",
          "type": "address"
        }
      ],
      "name": "addressToRandom",
      "outputs": [
        {
          "internalType": "uint256",
          "name": "result",
          "type": "uint256"
        },
        {
          "internalType": "uint8",
          "name": "status",
          "type": "uint8"
        }
      ],
      "stateMutability": "view",
      "type": "function"
    },
    {
      "inputs": [
        {
          "internalType": "uint256",
          "name": "",
          "type": "uint256"
        }
      ],
      "name": "commanders",
      "outputs": [
        {
          "internalType": "string",
          "name": "name",
          "type": "string"
        },
        {
          "internalType": "uint64",
          "name": "dna",
          "type": "uint64"
        },
        {
          "internalType": "uint64",
          "name": "getFreeRobotReadyTime",
          "type": "uint64"
        },
        {
          "internalType": "uint64",
          "name": "giveStarReadyTime",
          "type": "uint64"
        }
      ],
      "stateMutability": "view",
      "type": "function"
    },
    {
      "inputs": [],
      "name": "fee",
      "outputs": [
        {
          "internalType": "uint256",
          "name": "",
          "type": "uint256"
        }
      ],
      "stateMutability": "view",
      "type": "function"
    },
    {
      "inputs": [],
      "name": "getFreeRobot",
      "outputs": [],
      "stateMutability": "nonpayable",
      "type": "function"
    },
    {
      "inputs": [],
      "name": "getRandomNumber",
      "outputs": [
        {
          "internalType": "bytes32",
          "name": "requestId",
          "type": "bytes32"
        }
      ],
      "stateMutability": "nonpayable",
      "type": "function"
    },
    {
      "inputs": [],
      "name": "isOwner",
      "outputs": [
        {
          "internalType": "bool",
          "name": "",
          "type": "bool"
        }
      ],
      "stateMutability": "view",
      "type": "function"
    },
    {
      "inputs": [],
      "name": "keyHash",
      "outputs": [
        {
          "internalType": "bytes32",
          "name": "",
          "type": "bytes32"
        }
      ],
      "stateMutability": "view",
      "type": "function"
    },
    {
      "inputs": [],
      "name": "owner",
      "outputs": [
        {
          "internalType": "address",
          "name": "",
          "type": "address"
        }
      ],
      "stateMutability": "view",
      "type": "function"
    },
    {
      "inputs": [
        {
          "internalType": "address",
          "name": "",
          "type": "address"
        }
      ],
      "name": "ownerRobotCount",
      "outputs": [
        {
          "internalType": "uint256",
          "name": "",
          "type": "uint256"
        }
      ],
      "stateMutability": "view",
      "type": "function"
    },
    {
      "inputs": [
        {
          "internalType": "address",
          "name": "",
          "type": "address"
        }
      ],
      "name": "ownerToCommander",
      "outputs": [
        {
          "internalType": "uint256",
          "name": "",
          "type": "uint256"
        }
      ],
      "stateMutability": "view",
      "type": "function"
    },
    {
      "inputs": [
        {
          "internalType": "bytes32",
          "name": "requestId",
          "type": "bytes32"
        },
        {
          "internalType": "uint256",
          "name": "randomness",
          "type": "uint256"
        }
      ],
      "name": "rawFulfillRandomness",
      "outputs": [],
      "stateMutability": "nonpayable",
      "type": "function"
    },
    {
      "inputs": [],
      "name": "renounceOwnership",
      "outputs": [],
      "stateMutability": "nonpayable",
      "type": "function"
    },
    {
      "inputs": [
        {
          "internalType": "bytes32",
          "name": "",
          "type": "bytes32"
        }
      ],
      "name": "requestIdToAddress",
      "outputs": [
        {
          "internalType": "address",
          "name": "",
          "type": "address"
        }
      ],
      "stateMutability": "view",
      "type": "function"
    },
    {
      "inputs": [
        {
          "internalType": "uint256",
          "name": "",
          "type": "uint256"
        }
      ],
      "name": "robotToOwner",
      "outputs": [
        {
          "internalType": "address",
          "name": "",
          "type": "address"
        }
      ],
      "stateMutability": "view",
      "type": "function"
    },
    {
      "inputs": [
        {
          "internalType": "uint256",
          "name": "",
          "type": "uint256"
        }
      ],
      "name": "robots",
      "outputs": [
        {
          "internalType": "string",
          "name": "name",
          "type": "string"
        },
        {
          "internalType": "string",
          "name": "dna",
          "type": "string"
        },
        {
          "internalType": "uint8",
          "name": "spieces",
          "type": "uint8"
        },
        {
          "internalType": "uint8",
          "name": "status",
          "type": "uint8"
        },
        {
          "internalType": "uint32",
          "name": "stars",
          "type": "uint32"
        },
        {
          "internalType": "uint256",
          "name": "price",
          "type": "uint256"
        },
        {
          "internalType": "uint256",
          "name": "idInMarket",
          "type": "uint256"
        }
      ],
      "stateMutability": "view",
      "type": "function"
    },
    {
      "inputs": [
        {
          "internalType": "uint256",
          "name": "",
          "type": "uint256"
        }
      ],
      "name": "topRobots",
      "outputs": [
        {
          "internalType": "uint256",
          "name": "",
          "type": "uint256"
        }
      ],
      "stateMutability": "view",
      "type": "function"
    },
    {
      "inputs": [
        {
          "internalType": "address",
          "name": "newOwner",
          "type": "address"
        }
      ],
      "name": "transferOwnership",
      "outputs": [],
      "stateMutability": "nonpayable",
      "type": "function"
    },
    {
      "inputs": [
        {
          "internalType": "uint256",
          "name": "robotId",
          "type": "uint256"
        }
      ],
      "name": "giveStar",
      "outputs": [],
      "stateMutability": "nonpayable",
      "type": "function"
    }
  ],
  "bytecode": "0x60c06040526201518060025560006003553480156200001d57600080fd5b50732ca8e0c643bde4c2e08ab1fa0da3401adad7734d73326c977e6efc84e512bb9c30f76e30c160ed06fb336000806101000a81548173ffffffffffffffffffffffffffffffffffffffff021916908373ffffffffffffffffffffffffffffffffffffffff16021790555060008054906101000a900473ffffffffffffffffffffffffffffffffffffffff1673ffffffffffffffffffffffffffffffffffffffff16600073ffffffffffffffffffffffffffffffffffffffff167f8be0079c531659141344cd1fd0a4f28419497f9722a3daafe3b4186f6b6457e060405160405180910390a38173ffffffffffffffffffffffffffffffffffffffff1660a08173ffffffffffffffffffffffffffffffffffffffff16815250508073ffffffffffffffffffffffffffffffffffffffff1660808173ffffffffffffffffffffffffffffffffffffffff16815250505050600860405180608001604052806040518060400160405280600481526020017f696e6974000000000000000000000000000000000000000000000000000000008152508152602001600067ffffffffffffffff168152602001600067ffffffffffffffff168152602001600067ffffffffffffffff16815250908060018154018082558091505060019003906000526020600020906002020160009091909190915060008201518160000190805190602001906200022d929190620002f7565b5060208201518160010160006101000a81548167ffffffffffffffff021916908367ffffffffffffffff16021790555060408201518160010160086101000a81548167ffffffffffffffff021916908367ffffffffffffffff16021790555060608201518160010160106101000a81548167ffffffffffffffff021916908367ffffffffffffffff16021790555050507f79d3d8832d904592c0bf9818b621522c988bb8b0c05cdc3b15aea1b6e8db0c1560001b6004819055506203d0906005819055506200040b565b8280546200030590620003d6565b90600052602060002090601f01602090048101928262000329576000855562000375565b82601f106200034457805160ff191683800117855562000375565b8280016001018555821562000375579182015b828111156200037457825182559160200191906001019062000357565b5b50905062000384919062000388565b5090565b5b80821115620003a357600081600090555060010162000389565b5090565b7f4e487b7100000000000000000000000000000000000000000000000000000000600052602260045260246000fd5b60006002820490506001821680620003ef57607f821691505b602082108103620004055762000404620003a7565b5b50919050565b60805160a0516129f462000438600039600081816106b9015261185b0152600061181f01526129f46000f3fe608060405234801561001057600080fd5b50600436106101215760003560e01c806394985ddd116100ad578063bc64beee11610071578063bc64beee14610326578063dbdff2c114610356578063ddca3f4314610374578063e9ca0f2a14610392578063f2fde38b146103ae57610121565b806394985ddd1461027e578063955059611461029a578063a03937c5146102ca578063a1a4d91c14610300578063b060ff191461031c57610121565b80636aa438dc116100f45780636aa438dc146101d8578063715018a6146102085780638da5cb5b146102125780638f32d59b146102305780639403a0ce1461024e57610121565b8063492d8b3d146101265780635add26ea1461015957806361728f391461018a57806365ceceb1146101a8575b600080fd5b610140600480360381019061013b9190611bb5565b6103ca565b6040516101509493929190611c9e565b60405180910390f35b610173600480360381019061016e9190611d48565b6104ce565b604051610181929190611da0565b60405180910390f35b6101926104ff565b60405161019f9190611de2565b60405180910390f35b6101c260048036038101906101bd9190611d48565b610505565b6040516101cf9190611dfd565b60405180910390f35b6101f260048036038101906101ed9190611d48565b61051d565b6040516101ff9190611dfd565b60405180910390f35b610210610535565b005b61021a610604565b6040516102279190611e27565b60405180910390f35b61023861062d565b6040516102459190611e5d565b60405180910390f35b61026860048036038101906102639190611bb5565b610684565b6040516102759190611e27565b60405180910390f35b61029860048036038101906102939190611ea4565b6106b7565b005b6102b460048036038101906102af9190611bb5565b610753565b6040516102c19190611dfd565b60405180910390f35b6102e460048036038101906102df9190611bb5565b610777565b6040516102f79796959493929190611f03565b60405180910390f35b61031a60048036038101906103159190611fe5565b610903565b005b610324610d0f565b005b610340600480360381019061033b9190612032565b610e1c565b60405161034d9190611e27565b60405180910390f35b61035e610e4f565b60405161036b9190611de2565b60405180910390f35b61037c610f42565b6040516103899190611dfd565b60405180910390f35b6103ac60048036038101906103a79190611bb5565b610f48565b005b6103c860048036038101906103c39190611d48565b6113aa565b005b600881815481106103da57600080fd5b90600052602060002090600202016000915090508060000180546103fd9061208e565b80601f01602080910402602001604051908101604052809291908181526020018280546104299061208e565b80156104765780601f1061044b57610100808354040283529160200191610476565b820191906000526020600020905b81548152906001019060200180831161045957829003601f168201915b5050505050908060010160009054906101000a900467ffffffffffffffff16908060010160089054906101000a900467ffffffffffffffff16908060010160109054906101000a900467ffffffffffffffff16905084565b60076020528060005260406000206000915090508060000154908060010160009054906101000a900460ff16905082565b60045481565b600c6020528060005260406000206000915090505481565b600a6020528060005260406000206000915090505481565b61053d61062d565b61054657600080fd5b600073ffffffffffffffffffffffffffffffffffffffff1660008054906101000a900473ffffffffffffffffffffffffffffffffffffffff1673ffffffffffffffffffffffffffffffffffffffff167f8be0079c531659141344cd1fd0a4f28419497f9722a3daafe3b4186f6b6457e060405160405180910390a360008060006101000a81548173ffffffffffffffffffffffffffffffffffffffff021916908373ffffffffffffffffffffffffffffffffffffffff160217905550565b60008060009054906101000a900473ffffffffffffffffffffffffffffffffffffffff16905090565b60008060009054906101000a900473ffffffffffffffffffffffffffffffffffffffff1673ffffffffffffffffffffffffffffffffffffffff163373ffffffffffffffffffffffffffffffffffffffff1614905090565b600b6020528060005260406000206000915054906101000a900473ffffffffffffffffffffffffffffffffffffffff1681565b7f000000000000000000000000000000000000000000000000000000000000000073ffffffffffffffffffffffffffffffffffffffff163373ffffffffffffffffffffffffffffffffffffffff1614610745576040517f08c379a000000000000000000000000000000000000000000000000000000000815260040161073c9061210b565b60405180910390fd5b61074f82826113c7565b5050565b600d818154811061076357600080fd5b906000526020600020016000915090505481565b6009818154811061078757600080fd5b90600052602060002090600502016000915090508060000180546107aa9061208e565b80601f01602080910402602001604051908101604052809291908181526020018280546107d69061208e565b80156108235780601f106107f857610100808354040283529160200191610823565b820191906000526020600020905b81548152906001019060200180831161080657829003601f168201915b5050505050908060010180546108389061208e565b80601f01602080910402602001604051908101604052809291908181526020018280546108649061208e565b80156108b15780601f10610886576101008083540402835291602001916108b1565b820191906000526020600020905b81548152906001019060200180831161089457829003601f168201915b5050505050908060020160009054906101000a900460ff16908060020160019054906101000a900460ff16908060020160029054906101000a900463ffffffff16908060030154908060040154905087565b6000600a60003373ffffffffffffffffffffffffffffffffffffffff1673ffffffffffffffffffffffffffffffffffffffff1681526020019081526020016000205414610985576040517f08c379a000000000000000000000000000000000000000000000000000000000815260040161097c90612177565b60405180910390fd5b61098d610e4f565b50600080600090505b612710811215610ab3576001600760003373ffffffffffffffffffffffffffffffffffffffff1673ffffffffffffffffffffffffffffffffffffffff16815260200190815260200160002060010160009054906101000a900460ff1660ff1603610aa057600b600a600760003373ffffffffffffffffffffffffffffffffffffffff1673ffffffffffffffffffffffffffffffffffffffff16815260200190815260200160002060000154610a4b91906121c6565b1891506002600760003373ffffffffffffffffffffffffffffffffffffffff1673ffffffffffffffffffffffffffffffffffffffff16815260200190815260200160002060010160009054906101000a905050505b8080610aab90612230565b915050610996565b5060008167ffffffffffffffff1603610b01576040517f08c379a0000000000000000000000000000000000000000000000000000000008152600401610af8906122c4565b60405180910390fd5b6008604051806080016040528085858080601f016020809104026020016040519081016040528093929190818152602001838380828437600081840152601f19601f8201169050808301925050505050505081526020018367ffffffffffffffff1681526020014267ffffffffffffffff1681526020014267ffffffffffffffff1681525090806001815401808255809150506001900390600052602060002090600202016000909190919091506000820151816000019080519060200190610bcb929190611ad2565b5060208201518160010160006101000a81548167ffffffffffffffff021916908367ffffffffffffffff16021790555060408201518160010160086101000a81548167ffffffffffffffff021916908367ffffffffffffffff16021790555060608201518160010160106101000a81548167ffffffffffffffff021916908367ffffffffffffffff160217905550505060006001600880549050610c6f91906122e4565b905080600a60003373ffffffffffffffffffffffffffffffffffffffff1673ffffffffffffffffffffffffffffffffffffffff168152602001908152602001600020819055503373ffffffffffffffffffffffffffffffffffffffff167fb3bd84143f6e6d17498683c26fa5ba25766eb0340e890d8667d8d82b0ed0325582868686604051610d01949392919061238f565b60405180910390a250505050565b60006008600a60003373ffffffffffffffffffffffffffffffffffffffff1673ffffffffffffffffffffffffffffffffffffffff1681526020019081526020016000205481548110610d6457610d636123cf565b5b90600052602060002090600202019050428160010160089054906101000a900467ffffffffffffffff1667ffffffffffffffff161115610dd9576040517f08c379a0000000000000000000000000000000000000000000000000000000008152600401610dd090612470565b60405180910390fd5b610de16114dd565b60025442610def9190612490565b8160010160086101000a81548167ffffffffffffffff021916908367ffffffffffffffff16021790555050565b60066020528060005260406000206000915054906101000a900473ffffffffffffffffffffffffffffffffffffffff1681565b600080610e6060045460055461181b565b9050336006600083815260200190815260200160002060006101000a81548173ffffffffffffffffffffffffffffffffffffffff021916908373ffffffffffffffffffffffffffffffffffffffff160217905550604051806040016040528060008152602001600060ff16815250600760003373ffffffffffffffffffffffffffffffffffffffff1673ffffffffffffffffffffffffffffffffffffffff1681526020019081526020016000206000820151816000015560208201518160010160006101000a81548160ff021916908360ff1602179055509050508091505090565b60055481565b600b600082815260200190815260200160002060009054906101000a900473ffffffffffffffffffffffffffffffffffffffff1673ffffffffffffffffffffffffffffffffffffffff163373ffffffffffffffffffffffffffffffffffffffff1603610fe9576040517f08c379a0000000000000000000000000000000000000000000000000000000008152600401610fe090612558565b60405180910390fd5b60006008600a60003373ffffffffffffffffffffffffffffffffffffffff1673ffffffffffffffffffffffffffffffffffffffff168152602001908152602001600020548154811061103e5761103d6123cf565b5b90600052602060002090600202019050428160010160109054906101000a900467ffffffffffffffff1667ffffffffffffffff1611156110b3576040517f08c379a00000000000000000000000000000000000000000000000000000000081526004016110aa906125ea565b60405180910390fd5b600982815481106110c7576110c66123cf565b5b9060005260206000209060050201600201600281819054906101000a900463ffffffff16809291906110f89061260a565b91906101000a81548163ffffffff021916908363ffffffff160217905550506002548160010160108282829054906101000a900467ffffffffffffffff166111409190612636565b92506101000a81548167ffffffffffffffff021916908367ffffffffffffffff1602179055506064600d8054905010156111a257600d82908060018154018082558091505060019003906000526020600020016000909190919091505561122a565b600d6000815481106111b7576111b66123cf565b5b9060005260206000200154600983815481106111d6576111d56123cf565b5b906000526020600020906005020160020160029054906101000a900463ffffffff1663ffffffff1611156112295781600d60008154811061121a576112196123cf565b5b90600052602060002001819055505b5b6064600d80549050036113a657600080600190505b6064811015611319576009600d838154811061125e5761125d6123cf565b5b90600052602060002001548154811061127a576112796123cf565b5b906000526020600020906005020160020160029054906101000a900463ffffffff1663ffffffff166009600d83815481106112b8576112b76123cf565b5b9060005260206000200154815481106112d4576112d36123cf565b5b906000526020600020906005020160020160029054906101000a900463ffffffff1663ffffffff161015611306578091505b808061131190612674565b91505061123f565b506000600d600081548110611331576113306123cf565b5b90600052602060002001549050600d8281548110611352576113516123cf565b5b9060005260206000200154600d600081548110611372576113716123cf565b5b906000526020600020018190555080600d8381548110611395576113946123cf565b5b906000526020600020018190555050505b5050565b6113b261062d565b6113bb57600080fd5b6113c48161196d565b50565b60006006600084815260200190815260200160002060009054906101000a900473ffffffffffffffffffffffffffffffffffffffff1690506006600084815260200190815260200160002060006101000a81549073ffffffffffffffffffffffffffffffffffffffff021916905581600760008373ffffffffffffffffffffffffffffffffffffffff1673ffffffffffffffffffffffffffffffffffffffff168152602001908152602001600020600001819055506001600760008373ffffffffffffffffffffffffffffffffffffffff1673ffffffffffffffffffffffffffffffffffffffff16815260200190815260200160002060010160006101000a81548160ff021916908360ff160217905550505050565b6064600c60003373ffffffffffffffffffffffffffffffffffffffff1673ffffffffffffffffffffffffffffffffffffffff168152602001908152602001600020541115611560576040517f08c379a000000000000000000000000000000000000000000000000000000000815260040161155790612708565b60405180910390fd5b600060024261156f91906121c6565b905060006040518060400160405280600c81526020017f72616e646f6d537472696e670000000000000000000000000000000000000000815250905060096040518060e001604052806040518060400160405280600681526020017f6e6f4e616d65000000000000000000000000000000000000000000000000000081525081526020018381526020018460ff168152602001600060ff168152602001600063ffffffff1681526020016000815260200160008152509080600181540180825580915050600190039060005260206000209060050201600090919091909150600082015181600001908051906020019061166a929190611ad2565b506020820151816001019080519060200190611687929190611ad2565b5060408201518160020160006101000a81548160ff021916908360ff16021790555060608201518160020160016101000a81548160ff021916908360ff16021790555060808201518160020160026101000a81548163ffffffff021916908363ffffffff16021790555060a0820151816003015560c0820151816004015550506000600160098054905061171b91906122e4565b905033600b600083815260200190815260200160002060006101000a81548173ffffffffffffffffffffffffffffffffffffffff021916908373ffffffffffffffffffffffffffffffffffffffff160217905550600c60003373ffffffffffffffffffffffffffffffffffffffff1673ffffffffffffffffffffffffffffffffffffffff16815260200190815260200160002060008154809291906117bf90612674565b91905055503373ffffffffffffffffffffffffffffffffffffffff167fe4bc06e69dd7a0f1bc9ef5db431d371f0cab41d8156a6012711823b90466715b82848660405161180e939291906127a5565b60405180910390a2505050565b60007f000000000000000000000000000000000000000000000000000000000000000073ffffffffffffffffffffffffffffffffffffffff16634000aea07f00000000000000000000000000000000000000000000000000000000000000008486600060405160200161188f9291906127f6565b6040516020818303038152906040526040518463ffffffff1660e01b81526004016118bc93929190612874565b6020604051808303816000875af11580156118db573d6000803e3d6000fd5b505050506040513d601f19601f820116820180604052508101906118ff91906128de565b506000611922846000306001600089815260200190815260200160002054611a63565b90506001806000868152602001908152602001600020546119439190612490565b60016000868152602001908152602001600020819055506119648482611a9f565b91505092915050565b600073ffffffffffffffffffffffffffffffffffffffff168173ffffffffffffffffffffffffffffffffffffffff16036119a657600080fd5b8073ffffffffffffffffffffffffffffffffffffffff1660008054906101000a900473ffffffffffffffffffffffffffffffffffffffff1673ffffffffffffffffffffffffffffffffffffffff167f8be0079c531659141344cd1fd0a4f28419497f9722a3daafe3b4186f6b6457e060405160405180910390a3806000806101000a81548173ffffffffffffffffffffffffffffffffffffffff021916908373ffffffffffffffffffffffffffffffffffffffff16021790555050565b600084848484604051602001611a7c949392919061290b565b6040516020818303038152906040528051906020012060001c9050949350505050565b60008282604051602001611ab4929190612992565b60405160208183030381529060405280519060200120905092915050565b828054611ade9061208e565b90600052602060002090601f016020900481019282611b005760008555611b47565b82601f10611b1957805160ff1916838001178555611b47565b82800160010185558215611b47579182015b82811115611b46578251825591602001919060010190611b2b565b5b509050611b549190611b58565b5090565b5b80821115611b71576000816000905550600101611b59565b5090565b600080fd5b600080fd5b6000819050919050565b611b9281611b7f565b8114611b9d57600080fd5b50565b600081359050611baf81611b89565b92915050565b600060208284031215611bcb57611bca611b75565b5b6000611bd984828501611ba0565b91505092915050565b600081519050919050565b600082825260208201905092915050565b60005b83811015611c1c578082015181840152602081019050611c01565b83811115611c2b576000848401525b50505050565b6000601f19601f8301169050919050565b6000611c4d82611be2565b611c578185611bed565b9350611c67818560208601611bfe565b611c7081611c31565b840191505092915050565b600067ffffffffffffffff82169050919050565b611c9881611c7b565b82525050565b60006080820190508181036000830152611cb88187611c42565b9050611cc76020830186611c8f565b611cd46040830185611c8f565b611ce16060830184611c8f565b95945050505050565b600073ffffffffffffffffffffffffffffffffffffffff82169050919050565b6000611d1582611cea565b9050919050565b611d2581611d0a565b8114611d3057600080fd5b50565b600081359050611d4281611d1c565b92915050565b600060208284031215611d5e57611d5d611b75565b5b6000611d6c84828501611d33565b91505092915050565b611d7e81611b7f565b82525050565b600060ff82169050919050565b611d9a81611d84565b82525050565b6000604082019050611db56000830185611d75565b611dc26020830184611d91565b9392505050565b6000819050919050565b611ddc81611dc9565b82525050565b6000602082019050611df76000830184611dd3565b92915050565b6000602082019050611e126000830184611d75565b92915050565b611e2181611d0a565b82525050565b6000602082019050611e3c6000830184611e18565b92915050565b60008115159050919050565b611e5781611e42565b82525050565b6000602082019050611e726000830184611e4e565b92915050565b611e8181611dc9565b8114611e8c57600080fd5b50565b600081359050611e9e81611e78565b92915050565b60008060408385031215611ebb57611eba611b75565b5b6000611ec985828601611e8f565b9250506020611eda85828601611ba0565b9150509250929050565b600063ffffffff82169050919050565b611efd81611ee4565b82525050565b600060e0820190508181036000830152611f1d818a611c42565b90508181036020830152611f318189611c42565b9050611f406040830188611d91565b611f4d6060830187611d91565b611f5a6080830186611ef4565b611f6760a0830185611d75565b611f7460c0830184611d75565b98975050505050505050565b600080fd5b600080fd5b600080fd5b60008083601f840112611fa557611fa4611f80565b5b8235905067ffffffffffffffff811115611fc257611fc1611f85565b5b602083019150836001820283011115611fde57611fdd611f8a565b5b9250929050565b60008060208385031215611ffc57611ffb611b75565b5b600083013567ffffffffffffffff81111561201a57612019611b7a565b5b61202685828601611f8f565b92509250509250929050565b60006020828403121561204857612047611b75565b5b600061205684828501611e8f565b91505092915050565b7f4e487b7100000000000000000000000000000000000000000000000000000000600052602260045260246000fd5b600060028204905060018216806120a657607f821691505b6020821081036120b9576120b861205f565b5b50919050565b7f4f6e6c7920565246436f6f7264696e61746f722063616e2066756c66696c6c00600082015250565b60006120f5601f83611bed565b9150612100826120bf565b602082019050919050565b60006020820190508181036000830152612124816120e8565b9050919050565b7f596f757220636f6d6d616e64657220616c726561647920657869737465642e00600082015250565b6000612161601f83611bed565b915061216c8261212b565b602082019050919050565b6000602082019050818103600083015261219081612154565b9050919050565b7f4e487b7100000000000000000000000000000000000000000000000000000000600052601260045260246000fd5b60006121d182611b7f565b91506121dc83611b7f565b9250826121ec576121eb612197565b5b828206905092915050565b7f4e487b7100000000000000000000000000000000000000000000000000000000600052601160045260246000fd5b6000819050919050565b600061223b82612226565b91507f7fffffffffffffffffffffffffffffffffffffffffffffffffffffffffffffff820361226d5761226c6121f7565b5b600182019050919050565b7f4765742072616e646f6d20646e612066616c692e000000000000000000000000600082015250565b60006122ae601483611bed565b91506122b982612278565b602082019050919050565b600060208201905081810360008301526122dd816122a1565b9050919050565b60006122ef82611b7f565b91506122fa83611b7f565b92508282101561230d5761230c6121f7565b5b828203905092915050565b82818337600083830152505050565b60006123338385611bed565b9350612340838584612318565b61234983611c31565b840190509392505050565b6000819050919050565b600061237961237461236f84611c7b565b612354565b611b7f565b9050919050565b6123898161235e565b82525050565b60006060820190506123a46000830187611d75565b81810360208301526123b7818587612327565b90506123c66040830184612380565b95945050505050565b7f4e487b7100000000000000000000000000000000000000000000000000000000600052603260045260246000fd5b7f4c657373207468616e206f6e65206461792073696e6365206c6173742074696d60008201527f6520796f75206765742061206672656520726f626f742e000000000000000000602082015250565b600061245a603783611bed565b9150612465826123fe565b604082019050919050565b600060208201905081810360008301526124898161244d565b9050919050565b600061249b82611b7f565b91506124a683611b7f565b9250827fffffffffffffffffffffffffffffffffffffffffffffffffffffffffffffffff038211156124db576124da6121f7565b5b828201905092915050565b7f596f752063616e6e6f7420676976652061207374617220746f20796f7572206f60008201527f776e20726f626f742e0000000000000000000000000000000000000000000000602082015250565b6000612542602983611bed565b915061254d826124e6565b604082019050919050565b6000602082019050818103600083015261257181612535565b9050919050565b7f4c657373207468616e206f6e65206461792073696e6365206c6173742074696d60008201527f6520796f752067697665206120737461722e0000000000000000000000000000602082015250565b60006125d4603283611bed565b91506125df82612578565b604082019050919050565b60006020820190508181036000830152612603816125c7565b9050919050565b600061261582611ee4565b915063ffffffff820361262b5761262a6121f7565b5b600182019050919050565b600061264182611c7b565b915061264c83611c7b565b92508267ffffffffffffffff03821115612669576126686121f7565b5b828201905092915050565b600061267f82611b7f565b91507fffffffffffffffffffffffffffffffffffffffffffffffffffffffffffffffff82036126b1576126b06121f7565b5b600182019050919050565b7f596f7572207265706f2069732066756c6c2e0000000000000000000000000000600082015250565b60006126f2601283611bed565b91506126fd826126bc565b602082019050919050565b60006020820190508181036000830152612721816126e5565b9050919050565b7f6e6f4e616d650000000000000000000000000000000000000000000000000000600082015250565b600061275e600683611bed565b915061276982612728565b602082019050919050565b600061278f61278a61278584611d84565b612354565b611b7f565b9050919050565b61279f81612774565b82525050565b60006080820190506127ba6000830186611d75565b81810360208301526127cb81612751565b905081810360408301526127df8185611c42565b90506127ee6060830184612796565b949350505050565b600060408201905061280b6000830185611dd3565b6128186020830184611d75565b9392505050565b600081519050919050565b600082825260208201905092915050565b60006128468261281f565b612850818561282a565b9350612860818560208601611bfe565b61286981611c31565b840191505092915050565b60006060820190506128896000830186611e18565b6128966020830185611d75565b81810360408301526128a8818461283b565b9050949350505050565b6128bb81611e42565b81146128c657600080fd5b50565b6000815190506128d8816128b2565b92915050565b6000602082840312156128f4576128f3611b75565b5b6000612902848285016128c9565b91505092915050565b60006080820190506129206000830187611dd3565b61292d6020830186611d75565b61293a6040830185611e18565b6129476060830184611d75565b95945050505050565b6000819050919050565b61296b61296682611dc9565b612950565b82525050565b6000819050919050565b61298c61298782611b7f565b612971565b82525050565b600061299e828561295a565b6020820191506129ae828461297b565b602082019150819050939250505056fea2646970667358221220afbbaaaca4ff697c0fcbd1758e271d09d0b6627d99f05d119b01487fed36322f64736f6c634300080d0033",
  "immutableReferences": {
    "168": [
      {
        "length": 32,
        "start": 6175
      }
    ],
    "170": [
      {
        "length": 32,
        "start": 1721
      },
      {
        "length": 32,
        "start": 6235
      }
    ]
  },
  "source": "// SPDX-License-Identifier: MIT \npragma solidity ^0.8.13;\n\nimport \"./Basic.sol\";\n\n//\ncontract Star is Basic {\n\n    //\n    function giveStar(uint robotId) external {\n        require(msg.sender != robotToOwner[robotId], \"You cannot give a star to your own robot.\");\n\n        Commander storage myCommander = commanders[ownerToCommander[msg.sender]];\n        require(myCommander.giveStarReadyTime <= block.timestamp, \"Less than one day since last time you give a star.\");\n        robots[robotId].stars++;\n        myCommander.giveStarReadyTime += uint64(readyTime);\n\n        //\n        if (topRobots.length < 100) {\n            topRobots.push(robotId);\n        } else {\n            if (robots[robotId].stars > topRobots[0]) {\n                topRobots[0] = robotId;\n            }            \n        }\n\n\n        //star\n        if (topRobots.length == 100) {\n            uint minmumStarsIndex = 0;\n            for (uint i = 1; i <100; i++) {\n                if (robots[topRobots[i]].stars < robots[topRobots[minmumStarsIndex]].stars) {\n                    minmumStarsIndex = i;\n                }\n            }\n            uint temp = topRobots[0];\n            topRobots[0] = topRobots[minmumStarsIndex];\n            topRobots[minmumStarsIndex] = temp;            \n        }\n\n    }  \n\n    // \n    uint[] public topRobots;\n}",
  "sourcePath": "/Users/liqinghao/Desktop/RoboHashWeb3/contracts/robotgame/Star.sol",
  "compiler": {
    "name": "solc",
    "version": "0.8.13+commit.abaa5c0e.Emscripten.clang"
  },
  "schemaVersion": "3.4.16",
  "updatedAt": "2023-11-08T04:49:21.286Z",
  "devdoc": {
    "kind": "dev",
    "methods": {
      "isOwner()": {
        "returns": {
          "_0": "true if `msg.sender` is the owner of the contract."
        }
      },
      "owner()": {
        "returns": {
          "_0": "the address of the owner."
        }
      },
      "renounceOwnership()": {
        "details": "Allows the current owner to relinquish control of the contract."
      },
      "transferOwnership(address)": {
        "details": "Allows the current owner to transfer control of the contract to a newOwner.",
        "params": {
          "newOwner": "The address to transfer ownership to."
        }
      }
    },
    "version": 1
  },
  "userdoc": {
    "kind": "user",
    "methods": {
      "renounceOwnership()": {
        "notice": "Renouncing to ownership will leave the contract without an owner. It will not be possible to call the functions with the `onlyOwner` modifier anymore."
      }
    },
    "version": 1
  }
}