{
  "contractName": "Trade",
  "abi": [
    {
      "anonymous": false,
      "inputs": [
        {
          "indexed": false,
          "internalType": "uint256",
          "name": "index",
          "type": "uint256"
        },
        {
          "indexed": false,
          "internalType": "string",
          "name": "name",
          "type": "string"
        },
        {
          "indexed": false,
          "internalType": "string",
          "name": "dna",
          "type": "string"
        },
        {
          "indexed": true,
          "internalType": "address",
          "name": "owner",
          "type": "address"
        }
      ],
      "name": "NewCommander",
      "type": "event"
    },
    {
      "anonymous": false,
      "inputs": [
        {
          "indexed": false,
          "internalType": "uint256",
          "name": "index",
          "type": "uint256"
        },
        {
          "indexed": false,
          "internalType": "string",
          "name": "name",
          "type": "string"
        },
        {
          "indexed": false,
          "internalType": "string",
          "name": "dna",
          "type": "string"
        },
        {
          "indexed": false,
          "internalType": "uint256",
          "name": "spieces",
          "type": "uint256"
        },
        {
          "indexed": true,
          "internalType": "address",
          "name": "owner",
          "type": "address"
        }
      ],
      "name": "NewRobot",
      "type": "event"
    },
    {
      "anonymous": false,
      "inputs": [
        {
          "indexed": true,
          "internalType": "address",
          "name": "previousOwner",
          "type": "address"
        },
        {
          "indexed": true,
          "internalType": "address",
          "name": "newOwner",
          "type": "address"
        }
      ],
      "name": "OwnershipTransferred",
      "type": "event"
    },
    {
      "inputs": [
        {
          "internalType": "string",
          "name": "name",
          "type": "string"
        }
      ],
      "name": "CreateCommander",
      "outputs": [],
      "stateMutability": "nonpayable",
      "type": "function"
    },
    {
      "inputs": [
        {
          "internalType": "uint256",
          "name": "",
          "type": "uint256"
        }
      ],
      "name": "commanders",
      "outputs": [
        {
          "internalType": "string",
          "name": "name",
          "type": "string"
        },
        {
          "internalType": "string",
          "name": "dna",
          "type": "string"
        },
        {
          "internalType": "uint64",
          "name": "getFreeRobotReadyTime",
          "type": "uint64"
        },
        {
          "internalType": "uint64",
          "name": "giveStarReadyTime",
          "type": "uint64"
        }
      ],
      "stateMutability": "view",
      "type": "function"
    },
    {
      "inputs": [],
      "name": "getFreeRobot",
      "outputs": [],
      "stateMutability": "nonpayable",
      "type": "function"
    },
    {
      "inputs": [],
      "name": "isOwner",
      "outputs": [
        {
          "internalType": "bool",
          "name": "",
          "type": "bool"
        }
      ],
      "stateMutability": "view",
      "type": "function"
    },
    {
      "inputs": [
        {
          "internalType": "uint256",
          "name": "",
          "type": "uint256"
        }
      ],
      "name": "markets",
      "outputs": [
        {
          "internalType": "uint256",
          "name": "",
          "type": "uint256"
        }
      ],
      "stateMutability": "view",
      "type": "function"
    },
    {
      "inputs": [],
      "name": "owner",
      "outputs": [
        {
          "internalType": "address",
          "name": "",
          "type": "address"
        }
      ],
      "stateMutability": "view",
      "type": "function"
    },
    {
      "inputs": [
        {
          "internalType": "address",
          "name": "",
          "type": "address"
        }
      ],
      "name": "ownerCommanderCount",
      "outputs": [
        {
          "internalType": "uint256",
          "name": "",
          "type": "uint256"
        }
      ],
      "stateMutability": "view",
      "type": "function"
    },
    {
      "inputs": [
        {
          "internalType": "address",
          "name": "",
          "type": "address"
        }
      ],
      "name": "ownerRobotCount",
      "outputs": [
        {
          "internalType": "uint256",
          "name": "",
          "type": "uint256"
        }
      ],
      "stateMutability": "view",
      "type": "function"
    },
    {
      "inputs": [
        {
          "internalType": "address",
          "name": "",
          "type": "address"
        }
      ],
      "name": "ownerToCommander",
      "outputs": [
        {
          "internalType": "uint256",
          "name": "",
          "type": "uint256"
        }
      ],
      "stateMutability": "view",
      "type": "function"
    },
    {
      "inputs": [],
      "name": "renounceOwnership",
      "outputs": [],
      "stateMutability": "nonpayable",
      "type": "function"
    },
    {
      "inputs": [
        {
          "internalType": "uint256",
          "name": "",
          "type": "uint256"
        }
      ],
      "name": "robotToOwner",
      "outputs": [
        {
          "internalType": "address",
          "name": "",
          "type": "address"
        }
      ],
      "stateMutability": "view",
      "type": "function"
    },
    {
      "inputs": [
        {
          "internalType": "uint256",
          "name": "",
          "type": "uint256"
        }
      ],
      "name": "robots",
      "outputs": [
        {
          "internalType": "string",
          "name": "name",
          "type": "string"
        },
        {
          "internalType": "string",
          "name": "dna",
          "type": "string"
        },
        {
          "internalType": "uint8",
          "name": "spieces",
          "type": "uint8"
        },
        {
          "internalType": "uint8",
          "name": "status",
          "type": "uint8"
        },
        {
          "internalType": "uint32",
          "name": "stars",
          "type": "uint32"
        },
        {
          "internalType": "uint256",
          "name": "price",
          "type": "uint256"
        }
      ],
      "stateMutability": "view",
      "type": "function"
    },
    {
      "inputs": [
        {
          "internalType": "address",
          "name": "newOwner",
          "type": "address"
        }
      ],
      "name": "transferOwnership",
      "outputs": [],
      "stateMutability": "nonpayable",
      "type": "function"
    },
    {
      "inputs": [
        {
          "internalType": "uint256",
          "name": "robotId",
          "type": "uint256"
        },
        {
          "internalType": "uint256",
          "name": "price",
          "type": "uint256"
        }
      ],
      "name": "saleRobot",
      "outputs": [],
      "stateMutability": "nonpayable",
      "type": "function"
    },
    {
      "inputs": [
        {
          "internalType": "uint256",
          "name": "robotId",
          "type": "uint256"
        },
        {
          "internalType": "uint256",
          "name": "price",
          "type": "uint256"
        }
      ],
      "name": "setRobotPrice",
      "outputs": [],
      "stateMutability": "nonpayable",
      "type": "function"
    },
    {
      "inputs": [
        {
          "internalType": "uint256",
          "name": "idInMarket",
          "type": "uint256"
        },
        {
          "internalType": "uint256",
          "name": "robotId",
          "type": "uint256"
        }
      ],
      "name": "unSaleRobot",
      "outputs": [],
      "stateMutability": "nonpayable",
      "type": "function"
    },
    {
      "inputs": [
        {
          "internalType": "uint256",
          "name": "idInMarket",
          "type": "uint256"
        },
        {
          "internalType": "uint256",
          "name": "robotId",
          "type": "uint256"
        }
      ],
      "name": "buyRobot",
      "outputs": [],
      "stateMutability": "payable",
      "type": "function"
    }
  ],
  "bytecode": "0x6080604052620151805f60146101000a81548167ffffffffffffffff021916908367ffffffffffffffff1602179055505f60015534801561003e575f80fd5b50335f806101000a81548173ffffffffffffffffffffffffffffffffffffffff021916908373ffffffffffffffffffffffffffffffffffffffff1602179055505f8054906101000a900473ffffffffffffffffffffffffffffffffffffffff1673ffffffffffffffffffffffffffffffffffffffff165f73ffffffffffffffffffffffffffffffffffffffff167f8be0079c531659141344cd1fd0a4f28419497f9722a3daafe3b4186f6b6457e060405160405180910390a36125c0806101045f395ff3fe6080604052600436106100fd575f3560e01c80638da5cb5b11610094578063a1a4d91c11610063578063a1a4d91c14610347578063a7d9e53e1461036f578063b060ff1914610397578063b1283e77146103ad578063f2fde38b146103e9576100fd565b80638da5cb5b146102765780638f32d59b146102a05780639403a0ce146102ca578063a03937c514610306576100fd565b806365ceceb1116100d057806365ceceb1146101cc5780636aa438dc146102085780636c087ed014610244578063715018a614610260576100fd565b806308bdadf8146101015780632ff1e244146101295780633413e37214610165578063492d8b3d1461018d575b5f80fd5b34801561010c575f80fd5b50610127600480360381019061012291906117f8565b610411565b005b348015610134575f80fd5b5061014f600480360381019061014a9190611890565b610540565b60405161015c91906118ca565b60405180910390f35b348015610170575f80fd5b5061018b600480360381019061018691906117f8565b610555565b005b348015610198575f80fd5b506101b360048036038101906101ae91906118e3565b6106a8565b6040516101c394939291906119ba565b60405180910390f35b3480156101d7575f80fd5b506101f260048036038101906101ed9190611890565b610816565b6040516101ff91906118ca565b60405180910390f35b348015610213575f80fd5b5061022e60048036038101906102299190611890565b61082b565b60405161023b91906118ca565b60405180910390f35b61025e600480360381019061025991906117f8565b610840565b005b34801561026b575f80fd5b50610274610b23565b005b348015610281575f80fd5b5061028a610bed565b6040516102979190611a1a565b60405180910390f35b3480156102ab575f80fd5b506102b4610c14565b6040516102c19190611a4d565b60405180910390f35b3480156102d5575f80fd5b506102f060048036038101906102eb91906118e3565b610c69565b6040516102fd9190611a1a565b60405180910390f35b348015610311575f80fd5b5061032c600480360381019061032791906118e3565b610c99565b60405161033e96959493929190611a9f565b60405180910390f35b348015610352575f80fd5b5061036d60048036038101906103689190611b6d565b610e15565b005b34801561037a575f80fd5b50610395600480360381019061039091906117f8565b6110ea565b005b3480156103a2575f80fd5b506103ab6111b6565b005b3480156103b8575f80fd5b506103d360048036038101906103ce91906118e3565b6112cf565b6040516103e091906118ca565b60405180910390f35b3480156103f4575f80fd5b5061040f600480360381019061040a9190611890565b6112ef565b005b8160065f8281526020019081526020015f205f9054906101000a900473ffffffffffffffffffffffffffffffffffffffff1673ffffffffffffffffffffffffffffffffffffffff163373ffffffffffffffffffffffffffffffffffffffff16146104b0576040517f08c379a00000000000000000000000000000000000000000000000000000000081526004016104a790611c02565b60405180910390fd5b600883908060018154018082558091505060019003905f5260205f20015f90919091909150556001600384815481106104ec576104eb611c20565b5b905f5260205f20906004020160020160016101000a81548160ff021916908360ff160217905550816003848154811061052857610527611c20565b5b905f5260205f20906004020160030181905550505050565b6005602052805f5260405f205f915090505481565b8060065f8281526020019081526020015f205f9054906101000a900473ffffffffffffffffffffffffffffffffffffffff1673ffffffffffffffffffffffffffffffffffffffff163373ffffffffffffffffffffffffffffffffffffffff16146105f4576040517f08c379a00000000000000000000000000000000000000000000000000000000081526004016105eb90611c02565b60405180910390fd5b600860016008805490506106089190611c7a565b8154811061061957610618611c20565b5b905f5260205f2001546008848154811061063657610635611c20565b5b905f5260205f200181905550600880548061065457610653611cad565b5b600190038181905f5260205f20015f905590555f6003838154811061067c5761067b611c20565b5b905f5260205f20906004020160020160016101000a81548160ff021916908360ff160217905550505050565b600281815481106106b7575f80fd5b905f5260205f2090600302015f91509050805f0180546106d690611d07565b80601f016020809104026020016040519081016040528092919081815260200182805461070290611d07565b801561074d5780601f106107245761010080835404028352916020019161074d565b820191905f5260205f20905b81548152906001019060200180831161073057829003601f168201915b50505050509080600101805461076290611d07565b80601f016020809104026020016040519081016040528092919081815260200182805461078e90611d07565b80156107d95780601f106107b0576101008083540402835291602001916107d9565b820191905f5260205f20905b8154815290600101906020018083116107bc57829003601f168201915b505050505090806002015f9054906101000a900467ffffffffffffffff16908060020160089054906101000a900467ffffffffffffffff16905084565b6007602052805f5260405f205f915090505481565b6004602052805f5260405f205f915090505481565b60065f8281526020019081526020015f205f9054906101000a900473ffffffffffffffffffffffffffffffffffffffff1673ffffffffffffffffffffffffffffffffffffffff163373ffffffffffffffffffffffffffffffffffffffff16036108de576040517f08c379a00000000000000000000000000000000000000000000000000000000081526004016108d590611da7565b60405180910390fd5b6001600382815481106108f4576108f3611c20565b5b905f5260205f20906004020160020160019054906101000a900460ff1660ff1614610954576040517f08c379a000000000000000000000000000000000000000000000000000000000815260040161094b90611e0f565b60405180910390fd5b6003818154811061096857610967611c20565b5b905f5260205f209060040201600301543414610982575f80fd5b600860016008805490506109969190611c7a565b815481106109a7576109a6611c20565b5b905f5260205f200154600883815481106109c4576109c3611c20565b5b905f5260205f20018190555060088054806109e2576109e1611cad565b5b600190038181905f5260205f20015f905590555f60038281548110610a0a57610a09611c20565b5b905f5260205f20906004020160020160016101000a81548160ff021916908360ff1602179055503360065f8381526020019081526020015f205f6101000a81548173ffffffffffffffffffffffffffffffffffffffff021916908373ffffffffffffffffffffffffffffffffffffffff1602179055505f60065f8381526020019081526020015f205f9054906101000a900473ffffffffffffffffffffffffffffffffffffffff1690508073ffffffffffffffffffffffffffffffffffffffff166108fc610af5605f610ae760643461130b90919063ffffffff16565b61132590919063ffffffff16565b90811502906040515f60405180830381858888f19350505050158015610b1d573d5f803e3d5ffd5b50505050565b610b2b610c14565b610b33575f80fd5b5f73ffffffffffffffffffffffffffffffffffffffff165f8054906101000a900473ffffffffffffffffffffffffffffffffffffffff1673ffffffffffffffffffffffffffffffffffffffff167f8be0079c531659141344cd1fd0a4f28419497f9722a3daafe3b4186f6b6457e060405160405180910390a35f805f6101000a81548173ffffffffffffffffffffffffffffffffffffffff021916908373ffffffffffffffffffffffffffffffffffffffff160217905550565b5f805f9054906101000a900473ffffffffffffffffffffffffffffffffffffffff16905090565b5f805f9054906101000a900473ffffffffffffffffffffffffffffffffffffffff1673ffffffffffffffffffffffffffffffffffffffff163373ffffffffffffffffffffffffffffffffffffffff1614905090565b6006602052805f5260405f205f915054906101000a900473ffffffffffffffffffffffffffffffffffffffff1681565b60038181548110610ca8575f80fd5b905f5260205f2090600402015f91509050805f018054610cc790611d07565b80601f0160208091040260200160405190810160405280929190818152602001828054610cf390611d07565b8015610d3e5780601f10610d1557610100808354040283529160200191610d3e565b820191905f5260205f20905b815481529060010190602001808311610d2157829003601f168201915b505050505090806001018054610d5390611d07565b80601f0160208091040260200160405190810160405280929190818152602001828054610d7f90611d07565b8015610dca5780601f10610da157610100808354040283529160200191610dca565b820191905f5260205f20905b815481529060010190602001808311610dad57829003601f168201915b505050505090806002015f9054906101000a900460ff16908060020160019054906101000a900460ff16908060020160029054906101000a900463ffffffff16908060030154905086565b5f60055f3373ffffffffffffffffffffffffffffffffffffffff1673ffffffffffffffffffffffffffffffffffffffff1681526020019081526020015f205414610e94576040517f08c379a0000000000000000000000000000000000000000000000000000000008152600401610e8b90611e77565b60405180910390fd5b5f6040518060400160405280600c81526020017f72616e646f6d537472696e67000000000000000000000000000000000000000081525090506002604051806080016040528085858080601f0160208091040260200160405190810160405280939291908181526020018383808284375f81840152601f19601f8201169050808301925050505050505081526020018381526020014267ffffffffffffffff1681526020014267ffffffffffffffff16815250908060018154018082558091505060019003905f5260205f2090600302015f909190919091505f820151815f019081610f80919061205f565b506020820151816001019081610f96919061205f565b506040820151816002015f6101000a81548167ffffffffffffffff021916908367ffffffffffffffff16021790555060608201518160020160086101000a81548167ffffffffffffffff021916908367ffffffffffffffff16021790555050505f60016002805490506110099190611c7a565b90508060045f3373ffffffffffffffffffffffffffffffffffffffff1673ffffffffffffffffffffffffffffffffffffffff1681526020019081526020015f2081905550600160055f3373ffffffffffffffffffffffffffffffffffffffff1673ffffffffffffffffffffffffffffffffffffffff1681526020019081526020015f20819055503373ffffffffffffffffffffffffffffffffffffffff167f0ba589754bdc7c1e308a8ce3362a7b42600571fdd695534edd1e0182e187149f828686866040516110dc9493929190612168565b60405180910390a250505050565b8160065f8281526020019081526020015f205f9054906101000a900473ffffffffffffffffffffffffffffffffffffffff1673ffffffffffffffffffffffffffffffffffffffff163373ffffffffffffffffffffffffffffffffffffffff1614611189576040517f08c379a000000000000000000000000000000000000000000000000000000000815260040161118090611c02565b60405180910390fd5b816003848154811061119e5761119d611c20565b5b905f5260205f20906004020160030181905550505050565b5f600260045f3373ffffffffffffffffffffffffffffffffffffffff1673ffffffffffffffffffffffffffffffffffffffff1681526020019081526020015f20548154811061120857611207611c20565b5b905f5260205f209060030201905042816002015f9054906101000a900467ffffffffffffffff1667ffffffffffffffff16111561127a576040517f08c379a00000000000000000000000000000000000000000000000000000000081526004016112719061221d565b60405180910390fd5b61128261136a565b5f60149054906101000a900467ffffffffffffffff16426112a3919061223b565b816002015f6101000a81548167ffffffffffffffff021916908367ffffffffffffffff16021790555050565b600881815481106112de575f80fd5b905f5260205f20015f915090505481565b6112f7610c14565b6112ff575f80fd5b61130881611672565b50565b5f80828461131991906122a3565b90508091505092915050565b5f808303611335575f9050611364565b5f828461134291906122d3565b905082848261135191906122a3565b1461135f5761135e612314565b5b809150505b92915050565b606460075f3373ffffffffffffffffffffffffffffffffffffffff1673ffffffffffffffffffffffffffffffffffffffff1681526020019081526020015f205411156113eb576040517f08c379a00000000000000000000000000000000000000000000000000000000081526004016113e29061238b565b60405180910390fd5b5f6113f66002611764565b90505f6040518060400160405280600c81526020017f72616e646f6d537472696e670000000000000000000000000000000000000000815250905060036040518060c001604052806040518060400160405280600681526020017f6e6f4e616d65000000000000000000000000000000000000000000000000000081525081526020018381526020018460ff1681526020015f60ff1681526020015f63ffffffff1681526020015f815250908060018154018082558091505060019003905f5260205f2090600402015f909190919091505f820151815f0190816114da919061205f565b5060208201518160010190816114f0919061205f565b506040820151816002015f6101000a81548160ff021916908360ff16021790555060608201518160020160016101000a81548160ff021916908360ff16021790555060808201518160020160026101000a81548163ffffffff021916908363ffffffff16021790555060a0820151816003015550505f60016003805490506115789190611c7a565b90503360065f8381526020019081526020015f205f6101000a81548173ffffffffffffffffffffffffffffffffffffffff021916908373ffffffffffffffffffffffffffffffffffffffff16021790555060075f3373ffffffffffffffffffffffffffffffffffffffff1673ffffffffffffffffffffffffffffffffffffffff1681526020019081526020015f205f815480929190611616906123a9565b91905055503373ffffffffffffffffffffffffffffffffffffffff167fe4bc06e69dd7a0f1bc9ef5db431d371f0cab41d8156a6012711823b90466715b8284866040516116659392919061246a565b60405180910390a2505050565b5f73ffffffffffffffffffffffffffffffffffffffff168173ffffffffffffffffffffffffffffffffffffffff16036116a9575f80fd5b8073ffffffffffffffffffffffffffffffffffffffff165f8054906101000a900473ffffffffffffffffffffffffffffffffffffffff1673ffffffffffffffffffffffffffffffffffffffff167f8be0079c531659141344cd1fd0a4f28419497f9722a3daafe3b4186f6b6457e060405160405180910390a3805f806101000a81548173ffffffffffffffffffffffffffffffffffffffff021916908373ffffffffffffffffffffffffffffffffffffffff16021790555050565b5f60015f815480929190611777906123a9565b91905055508142336001546040516020016117949392919061251e565b604051602081830303815290604052805190602001205f1c6117b6919061255a565b9050919050565b5f80fd5b5f80fd5b5f819050919050565b6117d7816117c5565b81146117e1575f80fd5b50565b5f813590506117f2816117ce565b92915050565b5f806040838503121561180e5761180d6117bd565b5b5f61181b858286016117e4565b925050602061182c858286016117e4565b9150509250929050565b5f73ffffffffffffffffffffffffffffffffffffffff82169050919050565b5f61185f82611836565b9050919050565b61186f81611855565b8114611879575f80fd5b50565b5f8135905061188a81611866565b92915050565b5f602082840312156118a5576118a46117bd565b5b5f6118b28482850161187c565b91505092915050565b6118c4816117c5565b82525050565b5f6020820190506118dd5f8301846118bb565b92915050565b5f602082840312156118f8576118f76117bd565b5b5f611905848285016117e4565b91505092915050565b5f81519050919050565b5f82825260208201905092915050565b5f5b8381101561194557808201518184015260208101905061192a565b5f8484015250505050565b5f601f19601f8301169050919050565b5f61196a8261190e565b6119748185611918565b9350611984818560208601611928565b61198d81611950565b840191505092915050565b5f67ffffffffffffffff82169050919050565b6119b481611998565b82525050565b5f6080820190508181035f8301526119d28187611960565b905081810360208301526119e68186611960565b90506119f560408301856119ab565b611a0260608301846119ab565b95945050505050565b611a1481611855565b82525050565b5f602082019050611a2d5f830184611a0b565b92915050565b5f8115159050919050565b611a4781611a33565b82525050565b5f602082019050611a605f830184611a3e565b92915050565b5f60ff82169050919050565b611a7b81611a66565b82525050565b5f63ffffffff82169050919050565b611a9981611a81565b82525050565b5f60c0820190508181035f830152611ab78189611960565b90508181036020830152611acb8188611960565b9050611ada6040830187611a72565b611ae76060830186611a72565b611af46080830185611a90565b611b0160a08301846118bb565b979650505050505050565b5f80fd5b5f80fd5b5f80fd5b5f8083601f840112611b2d57611b2c611b0c565b5b8235905067ffffffffffffffff811115611b4a57611b49611b10565b5b602083019150836001820283011115611b6657611b65611b14565b5b9250929050565b5f8060208385031215611b8357611b826117bd565b5b5f83013567ffffffffffffffff811115611ba057611b9f6117c1565b5b611bac85828601611b18565b92509250509250929050565b7f4e6f7420796f757220726f626f742e00000000000000000000000000000000005f82015250565b5f611bec600f83611918565b9150611bf782611bb8565b602082019050919050565b5f6020820190508181035f830152611c1981611be0565b9050919050565b7f4e487b71000000000000000000000000000000000000000000000000000000005f52603260045260245ffd5b7f4e487b71000000000000000000000000000000000000000000000000000000005f52601160045260245ffd5b5f611c84826117c5565b9150611c8f836117c5565b9250828203905081811115611ca757611ca6611c4d565b5b92915050565b7f4e487b71000000000000000000000000000000000000000000000000000000005f52603160045260245ffd5b7f4e487b71000000000000000000000000000000000000000000000000000000005f52602260045260245ffd5b5f6002820490506001821680611d1e57607f821691505b602082108103611d3157611d30611cda565b5b50919050565b7f4974277320796f757220726f626f742c20796f752063616e27742062757920695f8201527f742e000000000000000000000000000000000000000000000000000000000000602082015250565b5f611d91602283611918565b9150611d9c82611d37565b604082019050919050565b5f6020820190508181035f830152611dbe81611d85565b9050919050565b7f5468697320726f626f74206e6f74206f6e2073616c652e0000000000000000005f82015250565b5f611df9601783611918565b9150611e0482611dc5565b602082019050919050565b5f6020820190508181035f830152611e2681611ded565b9050919050565b7f596f757220636f6d6d616e64657220616c726561647920657869737465642e005f82015250565b5f611e61601f83611918565b9150611e6c82611e2d565b602082019050919050565b5f6020820190508181035f830152611e8e81611e55565b9050919050565b7f4e487b71000000000000000000000000000000000000000000000000000000005f52604160045260245ffd5b5f819050815f5260205f209050919050565b5f6020601f8301049050919050565b5f82821b905092915050565b5f60088302611f1e7fffffffffffffffffffffffffffffffffffffffffffffffffffffffffffffffff82611ee3565b611f288683611ee3565b95508019841693508086168417925050509392505050565b5f819050919050565b5f611f63611f5e611f59846117c5565b611f40565b6117c5565b9050919050565b5f819050919050565b611f7c83611f49565b611f90611f8882611f6a565b848454611eef565b825550505050565b5f90565b611fa4611f98565b611faf818484611f73565b505050565b5b81811015611fd257611fc75f82611f9c565b600181019050611fb5565b5050565b601f82111561201757611fe881611ec2565b611ff184611ed4565b81016020851015612000578190505b61201461200c85611ed4565b830182611fb4565b50505b505050565b5f82821c905092915050565b5f6120375f198460080261201c565b1980831691505092915050565b5f61204f8383612028565b9150826002028217905092915050565b6120688261190e565b67ffffffffffffffff81111561208157612080611e95565b5b61208b8254611d07565b612096828285611fd6565b5f60209050601f8311600181146120c7575f84156120b5578287015190505b6120bf8582612044565b865550612126565b601f1984166120d586611ec2565b5f5b828110156120fc578489015182556001820191506020850194506020810190506120d7565b868310156121195784890151612115601f891682612028565b8355505b6001600288020188555050505b505050505050565b828183375f83830152505050565b5f6121478385611918565b935061215483858461212e565b61215d83611950565b840190509392505050565b5f60608201905061217b5f8301876118bb565b818103602083015261218e81858761213c565b905081810360408301526121a28184611960565b905095945050505050565b7f4c657373207468616e206f6e65206461792073696e6365206c6173742074696d5f8201527f6520796f75206765742061206672656520726f626f742e000000000000000000602082015250565b5f612207603783611918565b9150612212826121ad565b604082019050919050565b5f6020820190508181035f830152612234816121fb565b9050919050565b5f61224582611998565b915061225083611998565b9250828201905067ffffffffffffffff8111156122705761226f611c4d565b5b92915050565b7f4e487b71000000000000000000000000000000000000000000000000000000005f52601260045260245ffd5b5f6122ad826117c5565b91506122b8836117c5565b9250826122c8576122c7612276565b5b828204905092915050565b5f6122dd826117c5565b91506122e8836117c5565b92508282026122f6816117c5565b9150828204841483151761230d5761230c611c4d565b5b5092915050565b7f4e487b71000000000000000000000000000000000000000000000000000000005f52600160045260245ffd5b7f596f7572207265706f2069732066756c6c2e00000000000000000000000000005f82015250565b5f612375601283611918565b915061238082612341565b602082019050919050565b5f6020820190508181035f8301526123a281612369565b9050919050565b5f6123b3826117c5565b91507fffffffffffffffffffffffffffffffffffffffffffffffffffffffffffffffff82036123e5576123e4611c4d565b5b600182019050919050565b7f6e6f4e616d6500000000000000000000000000000000000000000000000000005f82015250565b5f612424600683611918565b915061242f826123f0565b602082019050919050565b5f61245461244f61244a84611a66565b611f40565b6117c5565b9050919050565b6124648161243a565b82525050565b5f60808201905061247d5f8301866118bb565b818103602083015261248e81612418565b905081810360408301526124a28185611960565b90506124b1606083018461245b565b949350505050565b5f819050919050565b6124d36124ce826117c5565b6124b9565b82525050565b5f8160601b9050919050565b5f6124ef826124d9565b9050919050565b5f612500826124e5565b9050919050565b61251861251382611855565b6124f6565b82525050565b5f61252982866124c2565b6020820191506125398285612507565b60148201915061254982846124c2565b602082019150819050949350505050565b5f612564826117c5565b915061256f836117c5565b92508261257f5761257e612276565b5b82820690509291505056fea26469706673582212201e6f3c3137e614468bd9410243bcb2af7a5cdc739fb0ea8cba8e5635d52b664b64736f6c63430008150033",
  "immutableReferences": {},
  "source": "// SPDX-License-Identifier: MIT \npragma solidity ^0.8.21;\n\nimport \"./Basic.sol\";\nimport \"./SafeMath.sol\";\n\n//,wei\ncontract Trade is Basic {\n\n    using SafeMath for uint256;\n    uint[] public markets;\n\n    //\n    function saleRobot(uint robotId, uint price) external ownerOfRobot(robotId) {\n        markets.push(robotId);\n        robots[robotId].status = 1;\n        robots[robotId].price = price;\n    }\n\n    //\n    function setRobotPrice(uint robotId, uint price) external ownerOfRobot(robotId) {\n        robots[robotId].price = price;\n    }\n\n    //\n    function unSaleRobot(uint idInMarket, uint robotId) external ownerOfRobot(robotId) {\n        //remove from market\n        markets[idInMarket] = markets[markets.length - 1];\n        markets.pop();\n        robots[robotId].status = 0;\n    }\n\n    //\n    function buyRobot(uint idInMarket, uint robotId) external payable {\n        require(msg.sender != robotToOwner[robotId], \"It's your robot, you can't buy it.\");\n        require(robots[robotId].status == 1, \"This robot not on sale.\");\n        require(msg.value == robots[robotId].price);\n\n        //\n        markets[idInMarket] = markets[markets.length - 1];\n        markets.pop();\n        robots[robotId].status = 0;\n        //\n        robotToOwner[robotId] = msg.sender;\n        //\n        address payable salerAddr = payable(robotToOwner[robotId]);\n        //5%\n        salerAddr.transfer(msg.value.div(100).mul(95));\n\n    }\n}",
  "sourcePath": "/Users/liqinghao/Desktop/RoboHashWeb3/contracts/robotgame/Trade.sol",
  "compiler": {
    "name": "solc",
    "version": "0.8.21+commit.d9974bed.Emscripten.clang"
  },
  "schemaVersion": "3.4.16",
  "updatedAt": "2023-10-27T09:47:39.584Z",
  "devdoc": {
    "kind": "dev",
    "methods": {
      "isOwner()": {
        "returns": {
          "_0": "true if `msg.sender` is the owner of the contract."
        }
      },
      "owner()": {
        "returns": {
          "_0": "the address of the owner."
        }
      },
      "renounceOwnership()": {
        "details": "Allows the current owner to relinquish control of the contract."
      },
      "transferOwnership(address)": {
        "details": "Allows the current owner to transfer control of the contract to a newOwner.",
        "params": {
          "newOwner": "The address to transfer ownership to."
        }
      }
    },
    "version": 1
  },
  "userdoc": {
    "kind": "user",
    "methods": {
      "renounceOwnership()": {
        "notice": "Renouncing to ownership will leave the contract without an owner. It will not be possible to call the functions with the `onlyOwner` modifier anymore."
      }
    },
    "version": 1
  }
}