{
  "contractName": "Trade",
  "abi": [
    {
      "anonymous": false,
      "inputs": [
        {
          "indexed": false,
          "internalType": "uint256",
          "name": "id",
          "type": "uint256"
        },
        {
          "indexed": false,
          "internalType": "string",
          "name": "name",
          "type": "string"
        },
        {
          "indexed": false,
          "internalType": "uint256",
          "name": "dna",
          "type": "uint256"
        },
        {
          "indexed": true,
          "internalType": "address",
          "name": "owner",
          "type": "address"
        }
      ],
      "name": "NewCommander",
      "type": "event"
    },
    {
      "anonymous": false,
      "inputs": [
        {
          "indexed": false,
          "internalType": "uint256",
          "name": "id",
          "type": "uint256"
        },
        {
          "indexed": false,
          "internalType": "string",
          "name": "name",
          "type": "string"
        },
        {
          "indexed": false,
          "internalType": "string",
          "name": "dna",
          "type": "string"
        },
        {
          "indexed": false,
          "internalType": "uint256",
          "name": "spieces",
          "type": "uint256"
        },
        {
          "indexed": true,
          "internalType": "address",
          "name": "owner",
          "type": "address"
        }
      ],
      "name": "NewRobot",
      "type": "event"
    },
    {
      "anonymous": false,
      "inputs": [
        {
          "indexed": true,
          "internalType": "address",
          "name": "previousOwner",
          "type": "address"
        },
        {
          "indexed": true,
          "internalType": "address",
          "name": "newOwner",
          "type": "address"
        }
      ],
      "name": "OwnershipTransferred",
      "type": "event"
    },
    {
      "inputs": [
        {
          "internalType": "string",
          "name": "name",
          "type": "string"
        }
      ],
      "name": "CreateCommander",
      "outputs": [],
      "stateMutability": "nonpayable",
      "type": "function"
    },
    {
      "inputs": [
        {
          "internalType": "address",
          "name": "",
          "type": "address"
        }
      ],
      "name": "addressToRandom",
      "outputs": [
        {
          "internalType": "uint256",
          "name": "result",
          "type": "uint256"
        },
        {
          "internalType": "uint8",
          "name": "status",
          "type": "uint8"
        }
      ],
      "stateMutability": "view",
      "type": "function"
    },
    {
      "inputs": [
        {
          "internalType": "uint256",
          "name": "",
          "type": "uint256"
        }
      ],
      "name": "commanders",
      "outputs": [
        {
          "internalType": "string",
          "name": "name",
          "type": "string"
        },
        {
          "internalType": "uint64",
          "name": "dna",
          "type": "uint64"
        },
        {
          "internalType": "uint64",
          "name": "getFreeRobotReadyTime",
          "type": "uint64"
        },
        {
          "internalType": "uint64",
          "name": "giveStarReadyTime",
          "type": "uint64"
        }
      ],
      "stateMutability": "view",
      "type": "function"
    },
    {
      "inputs": [],
      "name": "fee",
      "outputs": [
        {
          "internalType": "uint256",
          "name": "",
          "type": "uint256"
        }
      ],
      "stateMutability": "view",
      "type": "function"
    },
    {
      "inputs": [],
      "name": "getFreeRobot",
      "outputs": [],
      "stateMutability": "nonpayable",
      "type": "function"
    },
    {
      "inputs": [],
      "name": "getRandomNumber",
      "outputs": [
        {
          "internalType": "bytes32",
          "name": "requestId",
          "type": "bytes32"
        }
      ],
      "stateMutability": "nonpayable",
      "type": "function"
    },
    {
      "inputs": [],
      "name": "isOwner",
      "outputs": [
        {
          "internalType": "bool",
          "name": "",
          "type": "bool"
        }
      ],
      "stateMutability": "view",
      "type": "function"
    },
    {
      "inputs": [],
      "name": "keyHash",
      "outputs": [
        {
          "internalType": "bytes32",
          "name": "",
          "type": "bytes32"
        }
      ],
      "stateMutability": "view",
      "type": "function"
    },
    {
      "inputs": [
        {
          "internalType": "uint256",
          "name": "",
          "type": "uint256"
        }
      ],
      "name": "markets",
      "outputs": [
        {
          "internalType": "uint256",
          "name": "",
          "type": "uint256"
        }
      ],
      "stateMutability": "view",
      "type": "function"
    },
    {
      "inputs": [],
      "name": "owner",
      "outputs": [
        {
          "internalType": "address",
          "name": "",
          "type": "address"
        }
      ],
      "stateMutability": "view",
      "type": "function"
    },
    {
      "inputs": [
        {
          "internalType": "address",
          "name": "",
          "type": "address"
        }
      ],
      "name": "ownerRobotCount",
      "outputs": [
        {
          "internalType": "uint256",
          "name": "",
          "type": "uint256"
        }
      ],
      "stateMutability": "view",
      "type": "function"
    },
    {
      "inputs": [
        {
          "internalType": "address",
          "name": "",
          "type": "address"
        }
      ],
      "name": "ownerToCommander",
      "outputs": [
        {
          "internalType": "uint256",
          "name": "",
          "type": "uint256"
        }
      ],
      "stateMutability": "view",
      "type": "function"
    },
    {
      "inputs": [
        {
          "internalType": "bytes32",
          "name": "requestId",
          "type": "bytes32"
        },
        {
          "internalType": "uint256",
          "name": "randomness",
          "type": "uint256"
        }
      ],
      "name": "rawFulfillRandomness",
      "outputs": [],
      "stateMutability": "nonpayable",
      "type": "function"
    },
    {
      "inputs": [],
      "name": "renounceOwnership",
      "outputs": [],
      "stateMutability": "nonpayable",
      "type": "function"
    },
    {
      "inputs": [
        {
          "internalType": "bytes32",
          "name": "",
          "type": "bytes32"
        }
      ],
      "name": "requestIdToAddress",
      "outputs": [
        {
          "internalType": "address",
          "name": "",
          "type": "address"
        }
      ],
      "stateMutability": "view",
      "type": "function"
    },
    {
      "inputs": [
        {
          "internalType": "uint256",
          "name": "",
          "type": "uint256"
        }
      ],
      "name": "robotToOwner",
      "outputs": [
        {
          "internalType": "address",
          "name": "",
          "type": "address"
        }
      ],
      "stateMutability": "view",
      "type": "function"
    },
    {
      "inputs": [
        {
          "internalType": "uint256",
          "name": "",
          "type": "uint256"
        }
      ],
      "name": "robots",
      "outputs": [
        {
          "internalType": "string",
          "name": "name",
          "type": "string"
        },
        {
          "internalType": "string",
          "name": "dna",
          "type": "string"
        },
        {
          "internalType": "uint8",
          "name": "spieces",
          "type": "uint8"
        },
        {
          "internalType": "uint8",
          "name": "status",
          "type": "uint8"
        },
        {
          "internalType": "uint32",
          "name": "stars",
          "type": "uint32"
        },
        {
          "internalType": "uint256",
          "name": "price",
          "type": "uint256"
        },
        {
          "internalType": "uint256",
          "name": "idInMarket",
          "type": "uint256"
        }
      ],
      "stateMutability": "view",
      "type": "function"
    },
    {
      "inputs": [
        {
          "internalType": "address",
          "name": "newOwner",
          "type": "address"
        }
      ],
      "name": "transferOwnership",
      "outputs": [],
      "stateMutability": "nonpayable",
      "type": "function"
    },
    {
      "inputs": [
        {
          "internalType": "uint256",
          "name": "robotId",
          "type": "uint256"
        },
        {
          "internalType": "uint256",
          "name": "price",
          "type": "uint256"
        }
      ],
      "name": "saleRobot",
      "outputs": [],
      "stateMutability": "nonpayable",
      "type": "function"
    },
    {
      "inputs": [
        {
          "internalType": "uint256",
          "name": "robotId",
          "type": "uint256"
        },
        {
          "internalType": "uint256",
          "name": "price",
          "type": "uint256"
        }
      ],
      "name": "setRobotPrice",
      "outputs": [],
      "stateMutability": "nonpayable",
      "type": "function"
    },
    {
      "inputs": [
        {
          "internalType": "uint256",
          "name": "robotId",
          "type": "uint256"
        }
      ],
      "name": "unSaleRobot",
      "outputs": [],
      "stateMutability": "nonpayable",
      "type": "function"
    },
    {
      "inputs": [
        {
          "internalType": "uint256",
          "name": "robotId",
          "type": "uint256"
        }
      ],
      "name": "buyRobot",
      "outputs": [],
      "stateMutability": "payable",
      "type": "function"
    }
  ],
  "bytecode": "0x60c06040526201518060025560006003553480156200001d57600080fd5b50732ca8e0c643bde4c2e08ab1fa0da3401adad7734d73326c977e6efc84e512bb9c30f76e30c160ed06fb336000806101000a81548173ffffffffffffffffffffffffffffffffffffffff021916908373ffffffffffffffffffffffffffffffffffffffff16021790555060008054906101000a900473ffffffffffffffffffffffffffffffffffffffff1673ffffffffffffffffffffffffffffffffffffffff16600073ffffffffffffffffffffffffffffffffffffffff167f8be0079c531659141344cd1fd0a4f28419497f9722a3daafe3b4186f6b6457e060405160405180910390a38173ffffffffffffffffffffffffffffffffffffffff1660a08173ffffffffffffffffffffffffffffffffffffffff16815250508073ffffffffffffffffffffffffffffffffffffffff1660808173ffffffffffffffffffffffffffffffffffffffff16815250505050600860405180608001604052806040518060400160405280600481526020017f696e6974000000000000000000000000000000000000000000000000000000008152508152602001600067ffffffffffffffff168152602001600067ffffffffffffffff168152602001600067ffffffffffffffff16815250908060018154018082558091505060019003906000526020600020906002020160009091909190915060008201518160000190805190602001906200022d929190620002f7565b5060208201518160010160006101000a81548167ffffffffffffffff021916908367ffffffffffffffff16021790555060408201518160010160086101000a81548167ffffffffffffffff021916908367ffffffffffffffff16021790555060608201518160010160106101000a81548167ffffffffffffffff021916908367ffffffffffffffff16021790555050507f79d3d8832d904592c0bf9818b621522c988bb8b0c05cdc3b15aea1b6e8db0c1560001b6004819055506203d0906005819055506200040b565b8280546200030590620003d6565b90600052602060002090601f01602090048101928262000329576000855562000375565b82601f106200034457805160ff191683800117855562000375565b8280016001018555821562000375579182015b828111156200037457825182559160200191906001019062000357565b5b50905062000384919062000388565b5090565b5b80821115620003a357600081600090555060010162000389565b5090565b7f4e487b7100000000000000000000000000000000000000000000000000000000600052602260045260246000fd5b60006002820490506001821680620003ef57607f821691505b602082108103620004055762000404620003a7565b5b50919050565b60805160a051612fb562000438600039600081816109a60152611d1701526000611cdb0152612fb56000f3fe6080604052600436106101355760003560e01c8063a03937c5116100ab578063b331ae571161006f578063b331ae5714610442578063bc64beee1461045e578063d06bd9e71461049b578063dbdff2c1146104c4578063ddca3f43146104ef578063f2fde38b1461051a57610135565b8063a03937c514610359578063a1a4d91c1461039c578063a7d9e53e146103c5578063b060ff19146103ee578063b1283e771461040557610135565b80636aa438dc116100fd5780636aa438dc14610249578063715018a6146102865780638da5cb5b1461029d5780638f32d59b146102c85780639403a0ce146102f357806394985ddd1461033057610135565b806308bdadf81461013a578063492d8b3d146101635780635add26ea146101a357806361728f39146101e157806365ceceb11461020c575b600080fd5b34801561014657600080fd5b50610161600480360381019061015c9190612071565b610543565b005b34801561016f57600080fd5b5061018a600480360381019061018591906120b1565b6106b7565b60405161019a949392919061219a565b60405180910390f35b3480156101af57600080fd5b506101ca60048036038101906101c59190612244565b6107bb565b6040516101d892919061229c565b60405180910390f35b3480156101ed57600080fd5b506101f66107ec565b60405161020391906122de565b60405180910390f35b34801561021857600080fd5b50610233600480360381019061022e9190612244565b6107f2565b60405161024091906122f9565b60405180910390f35b34801561025557600080fd5b50610270600480360381019061026b9190612244565b61080a565b60405161027d91906122f9565b60405180910390f35b34801561029257600080fd5b5061029b610822565b005b3480156102a957600080fd5b506102b26108f1565b6040516102bf9190612323565b60405180910390f35b3480156102d457600080fd5b506102dd61091a565b6040516102ea9190612359565b60405180910390f35b3480156102ff57600080fd5b5061031a600480360381019061031591906120b1565b610971565b6040516103279190612323565b60405180910390f35b34801561033c57600080fd5b50610357600480360381019061035291906123a0565b6109a4565b005b34801561036557600080fd5b50610380600480360381019061037b91906120b1565b610a40565b60405161039397969594939291906123ff565b60405180910390f35b3480156103a857600080fd5b506103c360048036038101906103be91906124e1565b610bcc565b005b3480156103d157600080fd5b506103ec60048036038101906103e79190612071565b610fd8565b005b3480156103fa57600080fd5b506104036110a9565b005b34801561041157600080fd5b5061042c600480360381019061042791906120b1565b6111b6565b60405161043991906122f9565b60405180910390f35b61045c600480360381019061045791906120b1565b6111da565b005b34801561046a57600080fd5b506104856004803603810190610480919061252e565b611528565b6040516104929190612323565b60405180910390f35b3480156104a757600080fd5b506104c260048036038101906104bd91906120b1565b61155b565b005b3480156104d057600080fd5b506104d961170a565b6040516104e691906122de565b60405180910390f35b3480156104fb57600080fd5b506105046117fd565b60405161051191906122f9565b60405180910390f35b34801561052657600080fd5b50610541600480360381019061053c9190612244565b611803565b005b81600b600082815260200190815260200160002060009054906101000a900473ffffffffffffffffffffffffffffffffffffffff1673ffffffffffffffffffffffffffffffffffffffff163373ffffffffffffffffffffffffffffffffffffffff16146105e5576040517f08c379a00000000000000000000000000000000000000000000000000000000081526004016105dc906125a7565b60405180910390fd5b600d839080600181540180825580915050600190039060005260206000200160009091909190915055600160098481548110610624576106236125c7565b5b906000526020600020906005020160020160016101000a81548160ff021916908360ff1602179055508160098481548110610662576106616125c7565b5b9060005260206000209060050201600301819055506001600d805490506106899190612625565b6009848154811061069d5761069c6125c7565b5b906000526020600020906005020160040181905550505050565b600881815481106106c757600080fd5b90600052602060002090600202016000915090508060000180546106ea90612688565b80601f016020809104026020016040519081016040528092919081815260200182805461071690612688565b80156107635780601f1061073857610100808354040283529160200191610763565b820191906000526020600020905b81548152906001019060200180831161074657829003601f168201915b5050505050908060010160009054906101000a900467ffffffffffffffff16908060010160089054906101000a900467ffffffffffffffff16908060010160109054906101000a900467ffffffffffffffff16905084565b60076020528060005260406000206000915090508060000154908060010160009054906101000a900460ff16905082565b60045481565b600c6020528060005260406000206000915090505481565b600a6020528060005260406000206000915090505481565b61082a61091a565b61083357600080fd5b600073ffffffffffffffffffffffffffffffffffffffff1660008054906101000a900473ffffffffffffffffffffffffffffffffffffffff1673ffffffffffffffffffffffffffffffffffffffff167f8be0079c531659141344cd1fd0a4f28419497f9722a3daafe3b4186f6b6457e060405160405180910390a360008060006101000a81548173ffffffffffffffffffffffffffffffffffffffff021916908373ffffffffffffffffffffffffffffffffffffffff160217905550565b60008060009054906101000a900473ffffffffffffffffffffffffffffffffffffffff16905090565b60008060009054906101000a900473ffffffffffffffffffffffffffffffffffffffff1673ffffffffffffffffffffffffffffffffffffffff163373ffffffffffffffffffffffffffffffffffffffff1614905090565b600b6020528060005260406000206000915054906101000a900473ffffffffffffffffffffffffffffffffffffffff1681565b7f000000000000000000000000000000000000000000000000000000000000000073ffffffffffffffffffffffffffffffffffffffff163373ffffffffffffffffffffffffffffffffffffffff1614610a32576040517f08c379a0000000000000000000000000000000000000000000000000000000008152600401610a2990612705565b60405180910390fd5b610a3c8282611820565b5050565b60098181548110610a5057600080fd5b9060005260206000209060050201600091509050806000018054610a7390612688565b80601f0160208091040260200160405190810160405280929190818152602001828054610a9f90612688565b8015610aec5780601f10610ac157610100808354040283529160200191610aec565b820191906000526020600020905b815481529060010190602001808311610acf57829003601f168201915b505050505090806001018054610b0190612688565b80601f0160208091040260200160405190810160405280929190818152602001828054610b2d90612688565b8015610b7a5780601f10610b4f57610100808354040283529160200191610b7a565b820191906000526020600020905b815481529060010190602001808311610b5d57829003601f168201915b5050505050908060020160009054906101000a900460ff16908060020160019054906101000a900460ff16908060020160029054906101000a900463ffffffff16908060030154908060040154905087565b6000600a60003373ffffffffffffffffffffffffffffffffffffffff1673ffffffffffffffffffffffffffffffffffffffff1681526020019081526020016000205414610c4e576040517f08c379a0000000000000000000000000000000000000000000000000000000008152600401610c4590612771565b60405180910390fd5b610c5661170a565b50600080600090505b612710811215610d7c576001600760003373ffffffffffffffffffffffffffffffffffffffff1673ffffffffffffffffffffffffffffffffffffffff16815260200190815260200160002060010160009054906101000a900460ff1660ff1603610d6957600b600a600760003373ffffffffffffffffffffffffffffffffffffffff1673ffffffffffffffffffffffffffffffffffffffff16815260200190815260200160002060000154610d1491906127c0565b1891506002600760003373ffffffffffffffffffffffffffffffffffffffff1673ffffffffffffffffffffffffffffffffffffffff16815260200190815260200160002060010160009054906101000a905050505b8080610d74906127fb565b915050610c5f565b5060008167ffffffffffffffff1603610dca576040517f08c379a0000000000000000000000000000000000000000000000000000000008152600401610dc19061288f565b60405180910390fd5b6008604051806080016040528085858080601f016020809104026020016040519081016040528093929190818152602001838380828437600081840152601f19601f8201169050808301925050505050505081526020018367ffffffffffffffff1681526020014267ffffffffffffffff1681526020014267ffffffffffffffff1681525090806001815401808255809150506001900390600052602060002090600202016000909190919091506000820151816000019080519060200190610e94929190611f8e565b5060208201518160010160006101000a81548167ffffffffffffffff021916908367ffffffffffffffff16021790555060408201518160010160086101000a81548167ffffffffffffffff021916908367ffffffffffffffff16021790555060608201518160010160106101000a81548167ffffffffffffffff021916908367ffffffffffffffff160217905550505060006001600880549050610f389190612625565b905080600a60003373ffffffffffffffffffffffffffffffffffffffff1673ffffffffffffffffffffffffffffffffffffffff168152602001908152602001600020819055503373ffffffffffffffffffffffffffffffffffffffff167fb3bd84143f6e6d17498683c26fa5ba25766eb0340e890d8667d8d82b0ed0325582868686604051610fca9493929190612926565b60405180910390a250505050565b81600b600082815260200190815260200160002060009054906101000a900473ffffffffffffffffffffffffffffffffffffffff1673ffffffffffffffffffffffffffffffffffffffff163373ffffffffffffffffffffffffffffffffffffffff161461107a576040517f08c379a0000000000000000000000000000000000000000000000000000000008152600401611071906125a7565b60405180910390fd5b816009848154811061108f5761108e6125c7565b5b906000526020600020906005020160030181905550505050565b60006008600a60003373ffffffffffffffffffffffffffffffffffffffff1673ffffffffffffffffffffffffffffffffffffffff16815260200190815260200160002054815481106110fe576110fd6125c7565b5b90600052602060002090600202019050428160010160089054906101000a900467ffffffffffffffff1667ffffffffffffffff161115611173576040517f08c379a000000000000000000000000000000000000000000000000000000000815260040161116a906129d8565b60405180910390fd5b61117b611936565b6002544261118991906129f8565b8160010160086101000a81548167ffffffffffffffff021916908367ffffffffffffffff16021790555050565b600d81815481106111c657600080fd5b906000526020600020016000915090505481565b600b600082815260200190815260200160002060009054906101000a900473ffffffffffffffffffffffffffffffffffffffff1673ffffffffffffffffffffffffffffffffffffffff163373ffffffffffffffffffffffffffffffffffffffff160361127b576040517f08c379a000000000000000000000000000000000000000000000000000000000815260040161127290612ac0565b60405180910390fd5b600160098281548110611291576112906125c7565b5b906000526020600020906005020160020160019054906101000a900460ff1660ff16146112f3576040517f08c379a00000000000000000000000000000000000000000000000000000000081526004016112ea90612b2c565b60405180910390fd5b60098181548110611307576113066125c7565b5b906000526020600020906005020160030154341461132457600080fd5b600d6001600d805490506113389190612625565b81548110611349576113486125c7565b5b9060005260206000200154600d6009838154811061136a576113696125c7565b5b9060005260206000209060050201600401548154811061138d5761138c6125c7565b5b9060005260206000200181905550600d8054806113ad576113ac612b4c565b5b600190038181906000526020600020016000905590556000600982815481106113d9576113d86125c7565b5b906000526020600020906005020160020160016101000a81548160ff021916908360ff160217905550600060098281548110611418576114176125c7565b5b9060005260206000209060050201600301819055506000600b600083815260200190815260200160002060009054906101000a900473ffffffffffffffffffffffffffffffffffffffff16905033600b600084815260200190815260200160002060006101000a81548173ffffffffffffffffffffffffffffffffffffffff021916908373ffffffffffffffffffffffffffffffffffffffff1602179055508073ffffffffffffffffffffffffffffffffffffffff166108fc6114f8605f6114ea606434611c7490919063ffffffff16565b611c8f90919063ffffffff16565b9081150290604051600060405180830381858888f19350505050158015611523573d6000803e3d6000fd5b505050565b60066020528060005260406000206000915054906101000a900473ffffffffffffffffffffffffffffffffffffffff1681565b80600b600082815260200190815260200160002060009054906101000a900473ffffffffffffffffffffffffffffffffffffffff1673ffffffffffffffffffffffffffffffffffffffff163373ffffffffffffffffffffffffffffffffffffffff16146115fd576040517f08c379a00000000000000000000000000000000000000000000000000000000081526004016115f4906125a7565b60405180910390fd5b600d6001600d805490506116119190612625565b81548110611622576116216125c7565b5b9060005260206000200154600d60098481548110611643576116426125c7565b5b90600052602060002090600502016004015481548110611666576116656125c7565b5b9060005260206000200181905550600d80548061168657611685612b4c565b5b600190038181906000526020600020016000905590556000600983815481106116b2576116b16125c7565b5b906000526020600020906005020160020160016101000a81548160ff021916908360ff1602179055506000600983815481106116f1576116f06125c7565b5b9060005260206000209060050201600301819055505050565b60008061171b600454600554611cd7565b9050336006600083815260200190815260200160002060006101000a81548173ffffffffffffffffffffffffffffffffffffffff021916908373ffffffffffffffffffffffffffffffffffffffff160217905550604051806040016040528060008152602001600060ff16815250600760003373ffffffffffffffffffffffffffffffffffffffff1673ffffffffffffffffffffffffffffffffffffffff1681526020019081526020016000206000820151816000015560208201518160010160006101000a81548160ff021916908360ff1602179055509050508091505090565b60055481565b61180b61091a565b61181457600080fd5b61181d81611e29565b50565b60006006600084815260200190815260200160002060009054906101000a900473ffffffffffffffffffffffffffffffffffffffff1690506006600084815260200190815260200160002060006101000a81549073ffffffffffffffffffffffffffffffffffffffff021916905581600760008373ffffffffffffffffffffffffffffffffffffffff1673ffffffffffffffffffffffffffffffffffffffff168152602001908152602001600020600001819055506001600760008373ffffffffffffffffffffffffffffffffffffffff1673ffffffffffffffffffffffffffffffffffffffff16815260200190815260200160002060010160006101000a81548160ff021916908360ff160217905550505050565b6064600c60003373ffffffffffffffffffffffffffffffffffffffff1673ffffffffffffffffffffffffffffffffffffffff1681526020019081526020016000205411156119b9576040517f08c379a00000000000000000000000000000000000000000000000000000000081526004016119b090612bc7565b60405180910390fd5b60006002426119c891906127c0565b905060006040518060400160405280600c81526020017f72616e646f6d537472696e670000000000000000000000000000000000000000815250905060096040518060e001604052806040518060400160405280600681526020017f6e6f4e616d65000000000000000000000000000000000000000000000000000081525081526020018381526020018460ff168152602001600060ff168152602001600063ffffffff16815260200160008152602001600081525090806001815401808255809150506001900390600052602060002090600502016000909190919091506000820151816000019080519060200190611ac3929190611f8e565b506020820151816001019080519060200190611ae0929190611f8e565b5060408201518160020160006101000a81548160ff021916908360ff16021790555060608201518160020160016101000a81548160ff021916908360ff16021790555060808201518160020160026101000a81548163ffffffff021916908363ffffffff16021790555060a0820151816003015560c08201518160040155505060006001600980549050611b749190612625565b905033600b600083815260200190815260200160002060006101000a81548173ffffffffffffffffffffffffffffffffffffffff021916908373ffffffffffffffffffffffffffffffffffffffff160217905550600c60003373ffffffffffffffffffffffffffffffffffffffff1673ffffffffffffffffffffffffffffffffffffffff1681526020019081526020016000206000815480929190611c1890612be7565b91905055503373ffffffffffffffffffffffffffffffffffffffff167fe4bc06e69dd7a0f1bc9ef5db431d371f0cab41d8156a6012711823b90466715b828486604051611c6793929190612cac565b60405180910390a2505050565b6000808284611c839190612cfd565b90508091505092915050565b6000808303611ca15760009050611cd1565b60008284611caf9190612d2e565b9050828482611cbe9190612cfd565b14611ccc57611ccb612d88565b5b809150505b92915050565b60007f000000000000000000000000000000000000000000000000000000000000000073ffffffffffffffffffffffffffffffffffffffff16634000aea07f000000000000000000000000000000000000000000000000000000000000000084866000604051602001611d4b929190612db7565b6040516020818303038152906040526040518463ffffffff1660e01b8152600401611d7893929190612e35565b6020604051808303816000875af1158015611d97573d6000803e3d6000fd5b505050506040513d601f19601f82011682018060405250810190611dbb9190612e9f565b506000611dde846000306001600089815260200190815260200160002054611f1f565b9050600180600086815260200190815260200160002054611dff91906129f8565b6001600086815260200190815260200160002081905550611e208482611f5b565b91505092915050565b600073ffffffffffffffffffffffffffffffffffffffff168173ffffffffffffffffffffffffffffffffffffffff1603611e6257600080fd5b8073ffffffffffffffffffffffffffffffffffffffff1660008054906101000a900473ffffffffffffffffffffffffffffffffffffffff1673ffffffffffffffffffffffffffffffffffffffff167f8be0079c531659141344cd1fd0a4f28419497f9722a3daafe3b4186f6b6457e060405160405180910390a3806000806101000a81548173ffffffffffffffffffffffffffffffffffffffff021916908373ffffffffffffffffffffffffffffffffffffffff16021790555050565b600084848484604051602001611f389493929190612ecc565b6040516020818303038152906040528051906020012060001c9050949350505050565b60008282604051602001611f70929190612f53565b60405160208183030381529060405280519060200120905092915050565b828054611f9a90612688565b90600052602060002090601f016020900481019282611fbc5760008555612003565b82601f10611fd557805160ff1916838001178555612003565b82800160010185558215612003579182015b82811115612002578251825591602001919060010190611fe7565b5b5090506120109190612014565b5090565b5b8082111561202d576000816000905550600101612015565b5090565b600080fd5b600080fd5b6000819050919050565b61204e8161203b565b811461205957600080fd5b50565b60008135905061206b81612045565b92915050565b6000806040838503121561208857612087612031565b5b60006120968582860161205c565b92505060206120a78582860161205c565b9150509250929050565b6000602082840312156120c7576120c6612031565b5b60006120d58482850161205c565b91505092915050565b600081519050919050565b600082825260208201905092915050565b60005b838110156121185780820151818401526020810190506120fd565b83811115612127576000848401525b50505050565b6000601f19601f8301169050919050565b6000612149826120de565b61215381856120e9565b93506121638185602086016120fa565b61216c8161212d565b840191505092915050565b600067ffffffffffffffff82169050919050565b61219481612177565b82525050565b600060808201905081810360008301526121b4818761213e565b90506121c3602083018661218b565b6121d0604083018561218b565b6121dd606083018461218b565b95945050505050565b600073ffffffffffffffffffffffffffffffffffffffff82169050919050565b6000612211826121e6565b9050919050565b61222181612206565b811461222c57600080fd5b50565b60008135905061223e81612218565b92915050565b60006020828403121561225a57612259612031565b5b60006122688482850161222f565b91505092915050565b61227a8161203b565b82525050565b600060ff82169050919050565b61229681612280565b82525050565b60006040820190506122b16000830185612271565b6122be602083018461228d565b9392505050565b6000819050919050565b6122d8816122c5565b82525050565b60006020820190506122f360008301846122cf565b92915050565b600060208201905061230e6000830184612271565b92915050565b61231d81612206565b82525050565b60006020820190506123386000830184612314565b92915050565b60008115159050919050565b6123538161233e565b82525050565b600060208201905061236e600083018461234a565b92915050565b61237d816122c5565b811461238857600080fd5b50565b60008135905061239a81612374565b92915050565b600080604083850312156123b7576123b6612031565b5b60006123c58582860161238b565b92505060206123d68582860161205c565b9150509250929050565b600063ffffffff82169050919050565b6123f9816123e0565b82525050565b600060e0820190508181036000830152612419818a61213e565b9050818103602083015261242d818961213e565b905061243c604083018861228d565b612449606083018761228d565b61245660808301866123f0565b61246360a0830185612271565b61247060c0830184612271565b98975050505050505050565b600080fd5b600080fd5b600080fd5b60008083601f8401126124a1576124a061247c565b5b8235905067ffffffffffffffff8111156124be576124bd612481565b5b6020830191508360018202830111156124da576124d9612486565b5b9250929050565b600080602083850312156124f8576124f7612031565b5b600083013567ffffffffffffffff81111561251657612515612036565b5b6125228582860161248b565b92509250509250929050565b60006020828403121561254457612543612031565b5b60006125528482850161238b565b91505092915050565b7f4e6f7420796f757220726f626f742e0000000000000000000000000000000000600082015250565b6000612591600f836120e9565b915061259c8261255b565b602082019050919050565b600060208201905081810360008301526125c081612584565b9050919050565b7f4e487b7100000000000000000000000000000000000000000000000000000000600052603260045260246000fd5b7f4e487b7100000000000000000000000000000000000000000000000000000000600052601160045260246000fd5b60006126308261203b565b915061263b8361203b565b92508282101561264e5761264d6125f6565b5b828203905092915050565b7f4e487b7100000000000000000000000000000000000000000000000000000000600052602260045260246000fd5b600060028204905060018216806126a057607f821691505b6020821081036126b3576126b2612659565b5b50919050565b7f4f6e6c7920565246436f6f7264696e61746f722063616e2066756c66696c6c00600082015250565b60006126ef601f836120e9565b91506126fa826126b9565b602082019050919050565b6000602082019050818103600083015261271e816126e2565b9050919050565b7f596f757220636f6d6d616e64657220616c726561647920657869737465642e00600082015250565b600061275b601f836120e9565b915061276682612725565b602082019050919050565b6000602082019050818103600083015261278a8161274e565b9050919050565b7f4e487b7100000000000000000000000000000000000000000000000000000000600052601260045260246000fd5b60006127cb8261203b565b91506127d68361203b565b9250826127e6576127e5612791565b5b828206905092915050565b6000819050919050565b6000612806826127f1565b91507f7fffffffffffffffffffffffffffffffffffffffffffffffffffffffffffffff8203612838576128376125f6565b5b600182019050919050565b7f4765742072616e646f6d20646e612066616c692e000000000000000000000000600082015250565b60006128796014836120e9565b915061288482612843565b602082019050919050565b600060208201905081810360008301526128a88161286c565b9050919050565b82818337600083830152505050565b60006128ca83856120e9565b93506128d78385846128af565b6128e08361212d565b840190509392505050565b6000819050919050565b600061291061290b61290684612177565b6128eb565b61203b565b9050919050565b612920816128f5565b82525050565b600060608201905061293b6000830187612271565b818103602083015261294e8185876128be565b905061295d6040830184612917565b95945050505050565b7f4c657373207468616e206f6e65206461792073696e6365206c6173742074696d60008201527f6520796f75206765742061206672656520726f626f742e000000000000000000602082015250565b60006129c26037836120e9565b91506129cd82612966565b604082019050919050565b600060208201905081810360008301526129f1816129b5565b9050919050565b6000612a038261203b565b9150612a0e8361203b565b9250827fffffffffffffffffffffffffffffffffffffffffffffffffffffffffffffffff03821115612a4357612a426125f6565b5b828201905092915050565b7f4974277320796f757220726f626f742c20796f752063616e277420627579206960008201527f742e000000000000000000000000000000000000000000000000000000000000602082015250565b6000612aaa6022836120e9565b9150612ab582612a4e565b604082019050919050565b60006020820190508181036000830152612ad981612a9d565b9050919050565b7f5468697320726f626f74206e6f74206f6e2073616c652e000000000000000000600082015250565b6000612b166017836120e9565b9150612b2182612ae0565b602082019050919050565b60006020820190508181036000830152612b4581612b09565b9050919050565b7f4e487b7100000000000000000000000000000000000000000000000000000000600052603160045260246000fd5b7f596f7572207265706f2069732066756c6c2e0000000000000000000000000000600082015250565b6000612bb16012836120e9565b9150612bbc82612b7b565b602082019050919050565b60006020820190508181036000830152612be081612ba4565b9050919050565b6000612bf28261203b565b91507fffffffffffffffffffffffffffffffffffffffffffffffffffffffffffffffff8203612c2457612c236125f6565b5b600182019050919050565b7f6e6f4e616d650000000000000000000000000000000000000000000000000000600082015250565b6000612c656006836120e9565b9150612c7082612c2f565b602082019050919050565b6000612c96612c91612c8c84612280565b6128eb565b61203b565b9050919050565b612ca681612c7b565b82525050565b6000608082019050612cc16000830186612271565b8181036020830152612cd281612c58565b90508181036040830152612ce6818561213e565b9050612cf56060830184612c9d565b949350505050565b6000612d088261203b565b9150612d138361203b565b925082612d2357612d22612791565b5b828204905092915050565b6000612d398261203b565b9150612d448361203b565b9250817fffffffffffffffffffffffffffffffffffffffffffffffffffffffffffffffff0483118215151615612d7d57612d7c6125f6565b5b828202905092915050565b7f4e487b7100000000000000000000000000000000000000000000000000000000600052600160045260246000fd5b6000604082019050612dcc60008301856122cf565b612dd96020830184612271565b9392505050565b600081519050919050565b600082825260208201905092915050565b6000612e0782612de0565b612e118185612deb565b9350612e218185602086016120fa565b612e2a8161212d565b840191505092915050565b6000606082019050612e4a6000830186612314565b612e576020830185612271565b8181036040830152612e698184612dfc565b9050949350505050565b612e7c8161233e565b8114612e8757600080fd5b50565b600081519050612e9981612e73565b92915050565b600060208284031215612eb557612eb4612031565b5b6000612ec384828501612e8a565b91505092915050565b6000608082019050612ee160008301876122cf565b612eee6020830186612271565b612efb6040830185612314565b612f086060830184612271565b95945050505050565b6000819050919050565b612f2c612f27826122c5565b612f11565b82525050565b6000819050919050565b612f4d612f488261203b565b612f32565b82525050565b6000612f5f8285612f1b565b602082019150612f6f8284612f3c565b602082019150819050939250505056fea26469706673582212200faff389400e24d15ac7b8dc18ac672f51098f92c1effa96694875e06ae3b80064736f6c634300080d0033",
  "immutableReferences": {
    "168": [
      {
        "length": 32,
        "start": 7387
      }
    ],
    "170": [
      {
        "length": 32,
        "start": 2470
      },
      {
        "length": 32,
        "start": 7447
      }
    ]
  },
  "source": "// SPDX-License-Identifier: MIT \npragma solidity ^0.8.13;\n\nimport \"./Basic.sol\";\nimport \"./SafeMath.sol\";\n\n//,wei\ncontract Trade is Basic {\n\n    using SafeMath for uint256;\n    uint[] public markets;\n\n    //\n    function saleRobot(uint robotId, uint price) external ownerOfRobot(robotId) {\n        markets.push(robotId);\n        robots[robotId].status = 1;\n        robots[robotId].price = price;\n        robots[robotId].idInMarket = markets.length - 1;\n    }\n\n    //\n    function setRobotPrice(uint robotId, uint price) external ownerOfRobot(robotId) {\n        robots[robotId].price = price;\n    }\n\n    //\n    function unSaleRobot(uint robotId) external ownerOfRobot(robotId) {\n        //remove from market\n        markets[robots[robotId].idInMarket] = markets[markets.length - 1];\n        markets.pop();\n        robots[robotId].status = 0;\n        robots[robotId].price = 0;\n    }\n\n    //\n    function buyRobot(uint robotId) external payable {\n        require(msg.sender != robotToOwner[robotId], \"It's your robot, you can't buy it.\");\n        require(robots[robotId].status == 1, \"This robot not on sale.\");\n        require(msg.value == robots[robotId].price);\n\n        //\n        markets[robots[robotId].idInMarket] = markets[markets.length - 1];\n        markets.pop();\n        robots[robotId].status = 0;\n        robots[robotId].price = 0;\n\n        //\n        address payable salerAddr = payable(robotToOwner[robotId]);\n\n        //\n        robotToOwner[robotId] = msg.sender;\n\n        //5%\n        salerAddr.transfer(msg.value.div(100).mul(95));\n    }\n}",
  "sourcePath": "/Users/liqinghao/Desktop/RoboHashWeb3/contracts/robotgame/Trade.sol",
  "compiler": {
    "name": "solc",
    "version": "0.8.13+commit.abaa5c0e.Emscripten.clang"
  },
  "schemaVersion": "3.4.16",
  "updatedAt": "2023-11-08T04:49:21.299Z",
  "devdoc": {
    "kind": "dev",
    "methods": {
      "isOwner()": {
        "returns": {
          "_0": "true if `msg.sender` is the owner of the contract."
        }
      },
      "owner()": {
        "returns": {
          "_0": "the address of the owner."
        }
      },
      "renounceOwnership()": {
        "details": "Allows the current owner to relinquish control of the contract."
      },
      "transferOwnership(address)": {
        "details": "Allows the current owner to transfer control of the contract to a newOwner.",
        "params": {
          "newOwner": "The address to transfer ownership to."
        }
      }
    },
    "version": 1
  },
  "userdoc": {
    "kind": "user",
    "methods": {
      "renounceOwnership()": {
        "notice": "Renouncing to ownership will leave the contract without an owner. It will not be possible to call the functions with the `onlyOwner` modifier anymore."
      }
    },
    "version": 1
  }
}