{
  "contractName": "Trade",
  "abi": [
    {
      "anonymous": false,
      "inputs": [
        {
          "indexed": false,
          "internalType": "uint256",
          "name": "id",
          "type": "uint256"
        },
        {
          "indexed": false,
          "internalType": "string",
          "name": "name",
          "type": "string"
        },
        {
          "indexed": false,
          "internalType": "string",
          "name": "dna",
          "type": "string"
        },
        {
          "indexed": true,
          "internalType": "address",
          "name": "owner",
          "type": "address"
        }
      ],
      "name": "NewCommander",
      "type": "event"
    },
    {
      "anonymous": false,
      "inputs": [
        {
          "indexed": false,
          "internalType": "uint256",
          "name": "id",
          "type": "uint256"
        },
        {
          "indexed": false,
          "internalType": "string",
          "name": "name",
          "type": "string"
        },
        {
          "indexed": false,
          "internalType": "string",
          "name": "dna",
          "type": "string"
        },
        {
          "indexed": false,
          "internalType": "uint256",
          "name": "spieces",
          "type": "uint256"
        },
        {
          "indexed": true,
          "internalType": "address",
          "name": "owner",
          "type": "address"
        }
      ],
      "name": "NewRobot",
      "type": "event"
    },
    {
      "anonymous": false,
      "inputs": [
        {
          "indexed": true,
          "internalType": "address",
          "name": "previousOwner",
          "type": "address"
        },
        {
          "indexed": true,
          "internalType": "address",
          "name": "newOwner",
          "type": "address"
        }
      ],
      "name": "OwnershipTransferred",
      "type": "event"
    },
    {
      "inputs": [
        {
          "internalType": "string",
          "name": "name",
          "type": "string"
        }
      ],
      "name": "CreateCommander",
      "outputs": [],
      "stateMutability": "nonpayable",
      "type": "function"
    },
    {
      "inputs": [
        {
          "internalType": "uint256",
          "name": "",
          "type": "uint256"
        }
      ],
      "name": "commanders",
      "outputs": [
        {
          "internalType": "string",
          "name": "name",
          "type": "string"
        },
        {
          "internalType": "string",
          "name": "dna",
          "type": "string"
        },
        {
          "internalType": "uint64",
          "name": "getFreeRobotReadyTime",
          "type": "uint64"
        },
        {
          "internalType": "uint64",
          "name": "giveStarReadyTime",
          "type": "uint64"
        }
      ],
      "stateMutability": "view",
      "type": "function"
    },
    {
      "inputs": [],
      "name": "getFreeRobot",
      "outputs": [],
      "stateMutability": "nonpayable",
      "type": "function"
    },
    {
      "inputs": [],
      "name": "isOwner",
      "outputs": [
        {
          "internalType": "bool",
          "name": "",
          "type": "bool"
        }
      ],
      "stateMutability": "view",
      "type": "function"
    },
    {
      "inputs": [
        {
          "internalType": "uint256",
          "name": "",
          "type": "uint256"
        }
      ],
      "name": "markets",
      "outputs": [
        {
          "internalType": "uint256",
          "name": "",
          "type": "uint256"
        }
      ],
      "stateMutability": "view",
      "type": "function"
    },
    {
      "inputs": [],
      "name": "owner",
      "outputs": [
        {
          "internalType": "address",
          "name": "",
          "type": "address"
        }
      ],
      "stateMutability": "view",
      "type": "function"
    },
    {
      "inputs": [
        {
          "internalType": "address",
          "name": "",
          "type": "address"
        }
      ],
      "name": "ownerRobotCount",
      "outputs": [
        {
          "internalType": "uint256",
          "name": "",
          "type": "uint256"
        }
      ],
      "stateMutability": "view",
      "type": "function"
    },
    {
      "inputs": [
        {
          "internalType": "address",
          "name": "",
          "type": "address"
        }
      ],
      "name": "ownerToCommander",
      "outputs": [
        {
          "internalType": "uint256",
          "name": "",
          "type": "uint256"
        }
      ],
      "stateMutability": "view",
      "type": "function"
    },
    {
      "inputs": [],
      "name": "renounceOwnership",
      "outputs": [],
      "stateMutability": "nonpayable",
      "type": "function"
    },
    {
      "inputs": [
        {
          "internalType": "uint256",
          "name": "",
          "type": "uint256"
        }
      ],
      "name": "robotToOwner",
      "outputs": [
        {
          "internalType": "address",
          "name": "",
          "type": "address"
        }
      ],
      "stateMutability": "view",
      "type": "function"
    },
    {
      "inputs": [
        {
          "internalType": "uint256",
          "name": "",
          "type": "uint256"
        }
      ],
      "name": "robots",
      "outputs": [
        {
          "internalType": "string",
          "name": "name",
          "type": "string"
        },
        {
          "internalType": "string",
          "name": "dna",
          "type": "string"
        },
        {
          "internalType": "uint8",
          "name": "spieces",
          "type": "uint8"
        },
        {
          "internalType": "uint8",
          "name": "status",
          "type": "uint8"
        },
        {
          "internalType": "uint32",
          "name": "stars",
          "type": "uint32"
        },
        {
          "internalType": "uint256",
          "name": "price",
          "type": "uint256"
        },
        {
          "internalType": "uint256",
          "name": "idInMarket",
          "type": "uint256"
        }
      ],
      "stateMutability": "view",
      "type": "function"
    },
    {
      "inputs": [
        {
          "internalType": "address",
          "name": "newOwner",
          "type": "address"
        }
      ],
      "name": "transferOwnership",
      "outputs": [],
      "stateMutability": "nonpayable",
      "type": "function"
    },
    {
      "inputs": [
        {
          "internalType": "uint256",
          "name": "robotId",
          "type": "uint256"
        },
        {
          "internalType": "uint256",
          "name": "price",
          "type": "uint256"
        }
      ],
      "name": "saleRobot",
      "outputs": [],
      "stateMutability": "nonpayable",
      "type": "function"
    },
    {
      "inputs": [
        {
          "internalType": "uint256",
          "name": "robotId",
          "type": "uint256"
        },
        {
          "internalType": "uint256",
          "name": "price",
          "type": "uint256"
        }
      ],
      "name": "setRobotPrice",
      "outputs": [],
      "stateMutability": "nonpayable",
      "type": "function"
    },
    {
      "inputs": [
        {
          "internalType": "uint256",
          "name": "robotId",
          "type": "uint256"
        }
      ],
      "name": "unSaleRobot",
      "outputs": [],
      "stateMutability": "nonpayable",
      "type": "function"
    },
    {
      "inputs": [
        {
          "internalType": "uint256",
          "name": "robotId",
          "type": "uint256"
        }
      ],
      "name": "buyRobot",
      "outputs": [],
      "stateMutability": "payable",
      "type": "function"
    }
  ],
  "bytecode": "0x60806040526201518060015560006002553480156200001d57600080fd5b50336000806101000a81548173ffffffffffffffffffffffffffffffffffffffff021916908373ffffffffffffffffffffffffffffffffffffffff16021790555060008054906101000a900473ffffffffffffffffffffffffffffffffffffffff1673ffffffffffffffffffffffffffffffffffffffff16600073ffffffffffffffffffffffffffffffffffffffff167f8be0079c531659141344cd1fd0a4f28419497f9722a3daafe3b4186f6b6457e060405160405180910390a3600360405180608001604052806040518060400160405280600481526020017f696e69740000000000000000000000000000000000000000000000000000000081525081526020016040518060400160405280600481526020017f696e6974000000000000000000000000000000000000000000000000000000008152508152602001600067ffffffffffffffff168152602001600067ffffffffffffffff1681525090806001815401808255809150506001900390600052602060002090600302016000909190919091506000820151816000019080519060200190620001c392919062000249565b506020820151816001019080519060200190620001e292919062000249565b5060408201518160020160006101000a81548167ffffffffffffffff021916908367ffffffffffffffff16021790555060608201518160020160086101000a81548167ffffffffffffffff021916908367ffffffffffffffff16021790555050506200035d565b828054620002579062000328565b90600052602060002090601f0160209004810192826200027b5760008555620002c7565b82601f106200029657805160ff1916838001178555620002c7565b82800160010185558215620002c7579182015b82811115620002c6578251825591602001919060010190620002a9565b5b509050620002d69190620002da565b5090565b5b80821115620002f5576000816000905550600101620002db565b5090565b7f4e487b7100000000000000000000000000000000000000000000000000000000600052602260045260246000fd5b600060028204905060018216806200034157607f821691505b602082108103620003575762000356620002f9565b5b50919050565b612582806200036d6000396000f3fe6080604052600436106100f35760003560e01c8063a03937c51161008a578063b1283e7711610059578063b1283e7714610331578063b331ae571461036e578063d06bd9e71461038a578063f2fde38b146103b3576100f3565b8063a03937c514610285578063a1a4d91c146102c8578063a7d9e53e146102f1578063b060ff191461031a576100f3565b8063715018a6116100c6578063715018a6146101db5780638da5cb5b146101f25780638f32d59b1461021d5780639403a0ce14610248576100f3565b806308bdadf8146100f8578063492d8b3d1461012157806365ceceb1146101615780636aa438dc1461019e575b600080fd5b34801561010457600080fd5b5061011f600480360381019061011a91906119a3565b6103dc565b005b34801561012d57600080fd5b50610148600480360381019061014391906119e3565b610550565b6040516101589493929190611acc565b60405180910390f35b34801561016d57600080fd5b5061018860048036038101906101839190611b7d565b6106c8565b6040516101959190611bb9565b60405180910390f35b3480156101aa57600080fd5b506101c560048036038101906101c09190611b7d565b6106e0565b6040516101d29190611bb9565b60405180910390f35b3480156101e757600080fd5b506101f06106f8565b005b3480156101fe57600080fd5b506102076107c7565b6040516102149190611be3565b60405180910390f35b34801561022957600080fd5b506102326107f0565b60405161023f9190611c19565b60405180910390f35b34801561025457600080fd5b5061026f600480360381019061026a91906119e3565b610847565b60405161027c9190611be3565b60405180910390f35b34801561029157600080fd5b506102ac60048036038101906102a791906119e3565b61087a565b6040516102bf9796959493929190611c6f565b60405180910390f35b3480156102d457600080fd5b506102ef60048036038101906102ea9190611d51565b610a06565b005b3480156102fd57600080fd5b50610318600480360381019061031391906119a3565b610cb4565b005b34801561032657600080fd5b5061032f610d85565b005b34801561033d57600080fd5b50610358600480360381019061035391906119e3565b610e92565b6040516103659190611bb9565b60405180910390f35b610388600480360381019061038391906119e3565b610eb6565b005b34801561039657600080fd5b506103b160048036038101906103ac91906119e3565b611204565b005b3480156103bf57600080fd5b506103da60048036038101906103d59190611b7d565b6113b3565b005b816006600082815260200190815260200160002060009054906101000a900473ffffffffffffffffffffffffffffffffffffffff1673ffffffffffffffffffffffffffffffffffffffff163373ffffffffffffffffffffffffffffffffffffffff161461047e576040517f08c379a000000000000000000000000000000000000000000000000000000000815260040161047590611dea565b60405180910390fd5b60088390806001815401808255809150506001900390600052602060002001600090919091909150556001600484815481106104bd576104bc611e0a565b5b906000526020600020906005020160020160016101000a81548160ff021916908360ff16021790555081600484815481106104fb576104fa611e0a565b5b90600052602060002090600502016003018190555060016008805490506105229190611e68565b6004848154811061053657610535611e0a565b5b906000526020600020906005020160040181905550505050565b6003818154811061056057600080fd5b906000526020600020906003020160009150905080600001805461058390611ecb565b80601f01602080910402602001604051908101604052809291908181526020018280546105af90611ecb565b80156105fc5780601f106105d1576101008083540402835291602001916105fc565b820191906000526020600020905b8154815290600101906020018083116105df57829003601f168201915b50505050509080600101805461061190611ecb565b80601f016020809104026020016040519081016040528092919081815260200182805461063d90611ecb565b801561068a5780601f1061065f5761010080835404028352916020019161068a565b820191906000526020600020905b81548152906001019060200180831161066d57829003601f168201915b5050505050908060020160009054906101000a900467ffffffffffffffff16908060020160089054906101000a900467ffffffffffffffff16905084565b60076020528060005260406000206000915090505481565b60056020528060005260406000206000915090505481565b6107006107f0565b61070957600080fd5b600073ffffffffffffffffffffffffffffffffffffffff1660008054906101000a900473ffffffffffffffffffffffffffffffffffffffff1673ffffffffffffffffffffffffffffffffffffffff167f8be0079c531659141344cd1fd0a4f28419497f9722a3daafe3b4186f6b6457e060405160405180910390a360008060006101000a81548173ffffffffffffffffffffffffffffffffffffffff021916908373ffffffffffffffffffffffffffffffffffffffff160217905550565b60008060009054906101000a900473ffffffffffffffffffffffffffffffffffffffff16905090565b60008060009054906101000a900473ffffffffffffffffffffffffffffffffffffffff1673ffffffffffffffffffffffffffffffffffffffff163373ffffffffffffffffffffffffffffffffffffffff1614905090565b60066020528060005260406000206000915054906101000a900473ffffffffffffffffffffffffffffffffffffffff1681565b6004818154811061088a57600080fd5b90600052602060002090600502016000915090508060000180546108ad90611ecb565b80601f01602080910402602001604051908101604052809291908181526020018280546108d990611ecb565b80156109265780601f106108fb57610100808354040283529160200191610926565b820191906000526020600020905b81548152906001019060200180831161090957829003601f168201915b50505050509080600101805461093b90611ecb565b80601f016020809104026020016040519081016040528092919081815260200182805461096790611ecb565b80156109b45780601f10610989576101008083540402835291602001916109b4565b820191906000526020600020905b81548152906001019060200180831161099757829003601f168201915b5050505050908060020160009054906101000a900460ff16908060020160019054906101000a900460ff16908060020160029054906101000a900463ffffffff16908060030154908060040154905087565b6000600560003373ffffffffffffffffffffffffffffffffffffffff1673ffffffffffffffffffffffffffffffffffffffff1681526020019081526020016000205414610a88576040517f08c379a0000000000000000000000000000000000000000000000000000000008152600401610a7f90611f48565b60405180910390fd5b60006040518060400160405280600c81526020017f72616e646f6d537472696e67000000000000000000000000000000000000000081525090506003604051806080016040528085858080601f016020809104026020016040519081016040528093929190818152602001838380828437600081840152601f19601f8201169050808301925050505050505081526020018381526020014267ffffffffffffffff1681526020014267ffffffffffffffff1681525090806001815401808255809150506001900390600052602060002090600302016000909190919091506000820151816000019080519060200190610b829291906118c0565b506020820151816001019080519060200190610b9f9291906118c0565b5060408201518160020160006101000a81548167ffffffffffffffff021916908367ffffffffffffffff16021790555060608201518160020160086101000a81548167ffffffffffffffff021916908367ffffffffffffffff160217905550505060006001600380549050610c149190611e68565b905080600560003373ffffffffffffffffffffffffffffffffffffffff1673ffffffffffffffffffffffffffffffffffffffff168152602001908152602001600020819055503373ffffffffffffffffffffffffffffffffffffffff167f0ba589754bdc7c1e308a8ce3362a7b42600571fdd695534edd1e0182e187149f82868686604051610ca69493929190611fa4565b60405180910390a250505050565b816006600082815260200190815260200160002060009054906101000a900473ffffffffffffffffffffffffffffffffffffffff1673ffffffffffffffffffffffffffffffffffffffff163373ffffffffffffffffffffffffffffffffffffffff1614610d56576040517f08c379a0000000000000000000000000000000000000000000000000000000008152600401610d4d90611dea565b60405180910390fd5b8160048481548110610d6b57610d6a611e0a565b5b906000526020600020906005020160030181905550505050565b60006003600560003373ffffffffffffffffffffffffffffffffffffffff1673ffffffffffffffffffffffffffffffffffffffff1681526020019081526020016000205481548110610dda57610dd9611e0a565b5b90600052602060002090600302019050428160020160009054906101000a900467ffffffffffffffff1667ffffffffffffffff161115610e4f576040517f08c379a0000000000000000000000000000000000000000000000000000000008152600401610e469061205d565b60405180910390fd5b610e576113d0565b60015442610e65919061207d565b8160020160006101000a81548167ffffffffffffffff021916908367ffffffffffffffff16021790555050565b60088181548110610ea257600080fd5b906000526020600020016000915090505481565b6006600082815260200190815260200160002060009054906101000a900473ffffffffffffffffffffffffffffffffffffffff1673ffffffffffffffffffffffffffffffffffffffff163373ffffffffffffffffffffffffffffffffffffffff1603610f57576040517f08c379a0000000000000000000000000000000000000000000000000000000008152600401610f4e90612145565b60405180910390fd5b600160048281548110610f6d57610f6c611e0a565b5b906000526020600020906005020160020160019054906101000a900460ff1660ff1614610fcf576040517f08c379a0000000000000000000000000000000000000000000000000000000008152600401610fc6906121b1565b60405180910390fd5b60048181548110610fe357610fe2611e0a565b5b906000526020600020906005020160030154341461100057600080fd5b600860016008805490506110149190611e68565b8154811061102557611024611e0a565b5b906000526020600020015460086004838154811061104657611045611e0a565b5b9060005260206000209060050201600401548154811061106957611068611e0a565b5b90600052602060002001819055506008805480611089576110886121d1565b5b600190038181906000526020600020016000905590556000600482815481106110b5576110b4611e0a565b5b906000526020600020906005020160020160016101000a81548160ff021916908360ff1602179055506000600482815481106110f4576110f3611e0a565b5b90600052602060002090600502016003018190555060006006600083815260200190815260200160002060009054906101000a900473ffffffffffffffffffffffffffffffffffffffff169050336006600084815260200190815260200160002060006101000a81548173ffffffffffffffffffffffffffffffffffffffff021916908373ffffffffffffffffffffffffffffffffffffffff1602179055508073ffffffffffffffffffffffffffffffffffffffff166108fc6111d4605f6111c660643461170b90919063ffffffff16565b61172690919063ffffffff16565b9081150290604051600060405180830381858888f193505050501580156111ff573d6000803e3d6000fd5b505050565b806006600082815260200190815260200160002060009054906101000a900473ffffffffffffffffffffffffffffffffffffffff1673ffffffffffffffffffffffffffffffffffffffff163373ffffffffffffffffffffffffffffffffffffffff16146112a6576040517f08c379a000000000000000000000000000000000000000000000000000000000815260040161129d90611dea565b60405180910390fd5b600860016008805490506112ba9190611e68565b815481106112cb576112ca611e0a565b5b90600052602060002001546008600484815481106112ec576112eb611e0a565b5b9060005260206000209060050201600401548154811061130f5761130e611e0a565b5b9060005260206000200181905550600880548061132f5761132e6121d1565b5b6001900381819060005260206000200160009055905560006004838154811061135b5761135a611e0a565b5b906000526020600020906005020160020160016101000a81548160ff021916908360ff16021790555060006004838154811061139a57611399611e0a565b5b9060005260206000209060050201600301819055505050565b6113bb6107f0565b6113c457600080fd5b6113cd8161176e565b50565b6064600760003373ffffffffffffffffffffffffffffffffffffffff1673ffffffffffffffffffffffffffffffffffffffff168152602001908152602001600020541115611453576040517f08c379a000000000000000000000000000000000000000000000000000000000815260040161144a9061224c565b60405180910390fd5b600061145f6002611864565b905060006040518060400160405280600c81526020017f72616e646f6d537472696e670000000000000000000000000000000000000000815250905060046040518060e001604052806040518060400160405280600681526020017f6e6f4e616d65000000000000000000000000000000000000000000000000000081525081526020018381526020018460ff168152602001600060ff168152602001600063ffffffff1681526020016000815260200160008152509080600181540180825580915050600190039060005260206000209060050201600090919091909150600082015181600001908051906020019061155a9291906118c0565b5060208201518160010190805190602001906115779291906118c0565b5060408201518160020160006101000a81548160ff021916908360ff16021790555060608201518160020160016101000a81548160ff021916908360ff16021790555060808201518160020160026101000a81548163ffffffff021916908363ffffffff16021790555060a0820151816003015560c0820151816004015550506000600160048054905061160b9190611e68565b9050336006600083815260200190815260200160002060006101000a81548173ffffffffffffffffffffffffffffffffffffffff021916908373ffffffffffffffffffffffffffffffffffffffff160217905550600760003373ffffffffffffffffffffffffffffffffffffffff1673ffffffffffffffffffffffffffffffffffffffff16815260200190815260200160002060008154809291906116af9061226c565b91905055503373ffffffffffffffffffffffffffffffffffffffff167fe4bc06e69dd7a0f1bc9ef5db431d371f0cab41d8156a6012711823b90466715b8284866040516116fe9392919061233b565b60405180910390a2505050565b600080828461171a91906123bb565b90508091505092915050565b60008083036117385760009050611768565b6000828461174691906123ec565b905082848261175591906123bb565b1461176357611762612446565b5b809150505b92915050565b600073ffffffffffffffffffffffffffffffffffffffff168173ffffffffffffffffffffffffffffffffffffffff16036117a757600080fd5b8073ffffffffffffffffffffffffffffffffffffffff1660008054906101000a900473ffffffffffffffffffffffffffffffffffffffff1673ffffffffffffffffffffffffffffffffffffffff167f8be0079c531659141344cd1fd0a4f28419497f9722a3daafe3b4186f6b6457e060405160405180910390a3806000806101000a81548173ffffffffffffffffffffffffffffffffffffffff021916908373ffffffffffffffffffffffffffffffffffffffff16021790555050565b6000600260008154809291906118799061226c565b9190505550814233600254604051602001611896939291906124de565b6040516020818303038152906040528051906020012060001c6118b9919061251b565b9050919050565b8280546118cc90611ecb565b90600052602060002090601f0160209004810192826118ee5760008555611935565b82601f1061190757805160ff1916838001178555611935565b82800160010185558215611935579182015b82811115611934578251825591602001919060010190611919565b5b5090506119429190611946565b5090565b5b8082111561195f576000816000905550600101611947565b5090565b600080fd5b600080fd5b6000819050919050565b6119808161196d565b811461198b57600080fd5b50565b60008135905061199d81611977565b92915050565b600080604083850312156119ba576119b9611963565b5b60006119c88582860161198e565b92505060206119d98582860161198e565b9150509250929050565b6000602082840312156119f9576119f8611963565b5b6000611a078482850161198e565b91505092915050565b600081519050919050565b600082825260208201905092915050565b60005b83811015611a4a578082015181840152602081019050611a2f565b83811115611a59576000848401525b50505050565b6000601f19601f8301169050919050565b6000611a7b82611a10565b611a858185611a1b565b9350611a95818560208601611a2c565b611a9e81611a5f565b840191505092915050565b600067ffffffffffffffff82169050919050565b611ac681611aa9565b82525050565b60006080820190508181036000830152611ae68187611a70565b90508181036020830152611afa8186611a70565b9050611b096040830185611abd565b611b166060830184611abd565b95945050505050565b600073ffffffffffffffffffffffffffffffffffffffff82169050919050565b6000611b4a82611b1f565b9050919050565b611b5a81611b3f565b8114611b6557600080fd5b50565b600081359050611b7781611b51565b92915050565b600060208284031215611b9357611b92611963565b5b6000611ba184828501611b68565b91505092915050565b611bb38161196d565b82525050565b6000602082019050611bce6000830184611baa565b92915050565b611bdd81611b3f565b82525050565b6000602082019050611bf86000830184611bd4565b92915050565b60008115159050919050565b611c1381611bfe565b82525050565b6000602082019050611c2e6000830184611c0a565b92915050565b600060ff82169050919050565b611c4a81611c34565b82525050565b600063ffffffff82169050919050565b611c6981611c50565b82525050565b600060e0820190508181036000830152611c89818a611a70565b90508181036020830152611c9d8189611a70565b9050611cac6040830188611c41565b611cb96060830187611c41565b611cc66080830186611c60565b611cd360a0830185611baa565b611ce060c0830184611baa565b98975050505050505050565b600080fd5b600080fd5b600080fd5b60008083601f840112611d1157611d10611cec565b5b8235905067ffffffffffffffff811115611d2e57611d2d611cf1565b5b602083019150836001820283011115611d4a57611d49611cf6565b5b9250929050565b60008060208385031215611d6857611d67611963565b5b600083013567ffffffffffffffff811115611d8657611d85611968565b5b611d9285828601611cfb565b92509250509250929050565b7f4e6f7420796f757220726f626f742e0000000000000000000000000000000000600082015250565b6000611dd4600f83611a1b565b9150611ddf82611d9e565b602082019050919050565b60006020820190508181036000830152611e0381611dc7565b9050919050565b7f4e487b7100000000000000000000000000000000000000000000000000000000600052603260045260246000fd5b7f4e487b7100000000000000000000000000000000000000000000000000000000600052601160045260246000fd5b6000611e738261196d565b9150611e7e8361196d565b925082821015611e9157611e90611e39565b5b828203905092915050565b7f4e487b7100000000000000000000000000000000000000000000000000000000600052602260045260246000fd5b60006002820490506001821680611ee357607f821691505b602082108103611ef657611ef5611e9c565b5b50919050565b7f596f757220636f6d6d616e64657220616c726561647920657869737465642e00600082015250565b6000611f32601f83611a1b565b9150611f3d82611efc565b602082019050919050565b60006020820190508181036000830152611f6181611f25565b9050919050565b82818337600083830152505050565b6000611f838385611a1b565b9350611f90838584611f68565b611f9983611a5f565b840190509392505050565b6000606082019050611fb96000830187611baa565b8181036020830152611fcc818587611f77565b90508181036040830152611fe08184611a70565b905095945050505050565b7f4c657373207468616e206f6e65206461792073696e6365206c6173742074696d60008201527f6520796f75206765742061206672656520726f626f742e000000000000000000602082015250565b6000612047603783611a1b565b915061205282611feb565b604082019050919050565b600060208201905081810360008301526120768161203a565b9050919050565b60006120888261196d565b91506120938361196d565b9250827fffffffffffffffffffffffffffffffffffffffffffffffffffffffffffffffff038211156120c8576120c7611e39565b5b828201905092915050565b7f4974277320796f757220726f626f742c20796f752063616e277420627579206960008201527f742e000000000000000000000000000000000000000000000000000000000000602082015250565b600061212f602283611a1b565b915061213a826120d3565b604082019050919050565b6000602082019050818103600083015261215e81612122565b9050919050565b7f5468697320726f626f74206e6f74206f6e2073616c652e000000000000000000600082015250565b600061219b601783611a1b565b91506121a682612165565b602082019050919050565b600060208201905081810360008301526121ca8161218e565b9050919050565b7f4e487b7100000000000000000000000000000000000000000000000000000000600052603160045260246000fd5b7f596f7572207265706f2069732066756c6c2e0000000000000000000000000000600082015250565b6000612236601283611a1b565b915061224182612200565b602082019050919050565b6000602082019050818103600083015261226581612229565b9050919050565b60006122778261196d565b91507fffffffffffffffffffffffffffffffffffffffffffffffffffffffffffffffff82036122a9576122a8611e39565b5b600182019050919050565b7f6e6f4e616d650000000000000000000000000000000000000000000000000000600082015250565b60006122ea600683611a1b565b91506122f5826122b4565b602082019050919050565b6000819050919050565b600061232561232061231b84611c34565b612300565b61196d565b9050919050565b6123358161230a565b82525050565b60006080820190506123506000830186611baa565b8181036020830152612361816122dd565b905081810360408301526123758185611a70565b9050612384606083018461232c565b949350505050565b7f4e487b7100000000000000000000000000000000000000000000000000000000600052601260045260246000fd5b60006123c68261196d565b91506123d18361196d565b9250826123e1576123e061238c565b5b828204905092915050565b60006123f78261196d565b91506124028361196d565b9250817fffffffffffffffffffffffffffffffffffffffffffffffffffffffffffffffff048311821515161561243b5761243a611e39565b5b828202905092915050565b7f4e487b7100000000000000000000000000000000000000000000000000000000600052600160045260246000fd5b6000819050919050565b61249061248b8261196d565b612475565b82525050565b60008160601b9050919050565b60006124ae82612496565b9050919050565b60006124c0826124a3565b9050919050565b6124d86124d382611b3f565b6124b5565b82525050565b60006124ea828661247f565b6020820191506124fa82856124c7565b60148201915061250a828461247f565b602082019150819050949350505050565b60006125268261196d565b91506125318361196d565b9250826125415761254061238c565b5b82820690509291505056fea26469706673582212202542c237e2b28e1ba4bc25cb09db862b3ffb5ede92b837a134032aef4af5b38264736f6c634300080d0033",
  "immutableReferences": {},
  "source": "// SPDX-License-Identifier: MIT \npragma solidity ^0.8.13;\n\nimport \"./Basic.sol\";\nimport \"./SafeMath.sol\";\n\n//,wei\ncontract Trade is Basic {\n\n    using SafeMath for uint256;\n    uint[] public markets;\n\n    //\n    function saleRobot(uint robotId, uint price) external ownerOfRobot(robotId) {\n        markets.push(robotId);\n        robots[robotId].status = 1;\n        robots[robotId].price = price;\n        robots[robotId].idInMarket = markets.length - 1;\n    }\n\n    //\n    function setRobotPrice(uint robotId, uint price) external ownerOfRobot(robotId) {\n        robots[robotId].price = price;\n    }\n\n    //\n    function unSaleRobot(uint robotId) external ownerOfRobot(robotId) {\n        //remove from market\n        markets[robots[robotId].idInMarket] = markets[markets.length - 1];\n        markets.pop();\n        robots[robotId].status = 0;\n        robots[robotId].price = 0;\n    }\n\n    //\n    function buyRobot(uint robotId) external payable {\n        require(msg.sender != robotToOwner[robotId], \"It's your robot, you can't buy it.\");\n        require(robots[robotId].status == 1, \"This robot not on sale.\");\n        require(msg.value == robots[robotId].price);\n\n        //\n        markets[robots[robotId].idInMarket] = markets[markets.length - 1];\n        markets.pop();\n        robots[robotId].status = 0;\n        robots[robotId].price = 0;\n\n        //\n        address payable salerAddr = payable(robotToOwner[robotId]);\n\n        //\n        robotToOwner[robotId] = msg.sender;\n\n        //5%\n        salerAddr.transfer(msg.value.div(100).mul(95));\n    }\n}",
  "sourcePath": "/Users/liqinghao/Desktop/RoboHashWeb3/contracts/robotgame/Trade.sol",
  "compiler": {
    "name": "solc",
    "version": "0.8.13+commit.abaa5c0e.Emscripten.clang"
  },
  "schemaVersion": "3.4.16",
  "updatedAt": "2023-11-07T01:29:54.124Z",
  "devdoc": {
    "kind": "dev",
    "methods": {
      "isOwner()": {
        "returns": {
          "_0": "true if `msg.sender` is the owner of the contract."
        }
      },
      "owner()": {
        "returns": {
          "_0": "the address of the owner."
        }
      },
      "renounceOwnership()": {
        "details": "Allows the current owner to relinquish control of the contract."
      },
      "transferOwnership(address)": {
        "details": "Allows the current owner to transfer control of the contract to a newOwner.",
        "params": {
          "newOwner": "The address to transfer ownership to."
        }
      }
    },
    "version": 1
  },
  "userdoc": {
    "kind": "user",
    "methods": {
      "renounceOwnership()": {
        "notice": "Renouncing to ownership will leave the contract without an owner. It will not be possible to call the functions with the `onlyOwner` modifier anymore."
      }
    },
    "version": 1
  }
}