{
  "contractName": "Trade",
  "abi": [
    {
      "anonymous": false,
      "inputs": [
        {
          "indexed": false,
          "internalType": "uint256",
          "name": "id",
          "type": "uint256"
        },
        {
          "indexed": false,
          "internalType": "string",
          "name": "name",
          "type": "string"
        },
        {
          "indexed": false,
          "internalType": "string",
          "name": "dna",
          "type": "string"
        },
        {
          "indexed": true,
          "internalType": "address",
          "name": "owner",
          "type": "address"
        }
      ],
      "name": "NewCommander",
      "type": "event"
    },
    {
      "anonymous": false,
      "inputs": [
        {
          "indexed": false,
          "internalType": "uint256",
          "name": "id",
          "type": "uint256"
        },
        {
          "indexed": false,
          "internalType": "string",
          "name": "name",
          "type": "string"
        },
        {
          "indexed": false,
          "internalType": "string",
          "name": "dna",
          "type": "string"
        },
        {
          "indexed": false,
          "internalType": "uint256",
          "name": "spieces",
          "type": "uint256"
        },
        {
          "indexed": true,
          "internalType": "address",
          "name": "owner",
          "type": "address"
        }
      ],
      "name": "NewRobot",
      "type": "event"
    },
    {
      "anonymous": false,
      "inputs": [
        {
          "indexed": true,
          "internalType": "address",
          "name": "previousOwner",
          "type": "address"
        },
        {
          "indexed": true,
          "internalType": "address",
          "name": "newOwner",
          "type": "address"
        }
      ],
      "name": "OwnershipTransferred",
      "type": "event"
    },
    {
      "inputs": [
        {
          "internalType": "string",
          "name": "name",
          "type": "string"
        }
      ],
      "name": "CreateCommander",
      "outputs": [],
      "stateMutability": "nonpayable",
      "type": "function"
    },
    {
      "inputs": [
        {
          "internalType": "uint256",
          "name": "",
          "type": "uint256"
        }
      ],
      "name": "commanders",
      "outputs": [
        {
          "internalType": "string",
          "name": "name",
          "type": "string"
        },
        {
          "internalType": "string",
          "name": "dna",
          "type": "string"
        },
        {
          "internalType": "uint64",
          "name": "getFreeRobotReadyTime",
          "type": "uint64"
        },
        {
          "internalType": "uint64",
          "name": "giveStarReadyTime",
          "type": "uint64"
        }
      ],
      "stateMutability": "view",
      "type": "function"
    },
    {
      "inputs": [],
      "name": "getFreeRobot",
      "outputs": [],
      "stateMutability": "nonpayable",
      "type": "function"
    },
    {
      "inputs": [],
      "name": "isOwner",
      "outputs": [
        {
          "internalType": "bool",
          "name": "",
          "type": "bool"
        }
      ],
      "stateMutability": "view",
      "type": "function"
    },
    {
      "inputs": [
        {
          "internalType": "uint256",
          "name": "",
          "type": "uint256"
        }
      ],
      "name": "markets",
      "outputs": [
        {
          "internalType": "uint256",
          "name": "",
          "type": "uint256"
        }
      ],
      "stateMutability": "view",
      "type": "function"
    },
    {
      "inputs": [],
      "name": "owner",
      "outputs": [
        {
          "internalType": "address",
          "name": "",
          "type": "address"
        }
      ],
      "stateMutability": "view",
      "type": "function"
    },
    {
      "inputs": [
        {
          "internalType": "address",
          "name": "",
          "type": "address"
        }
      ],
      "name": "ownerRobotCount",
      "outputs": [
        {
          "internalType": "uint256",
          "name": "",
          "type": "uint256"
        }
      ],
      "stateMutability": "view",
      "type": "function"
    },
    {
      "inputs": [
        {
          "internalType": "address",
          "name": "",
          "type": "address"
        }
      ],
      "name": "ownerToCommander",
      "outputs": [
        {
          "internalType": "uint256",
          "name": "",
          "type": "uint256"
        }
      ],
      "stateMutability": "view",
      "type": "function"
    },
    {
      "inputs": [],
      "name": "renounceOwnership",
      "outputs": [],
      "stateMutability": "nonpayable",
      "type": "function"
    },
    {
      "inputs": [
        {
          "internalType": "uint256",
          "name": "",
          "type": "uint256"
        }
      ],
      "name": "robotToOwner",
      "outputs": [
        {
          "internalType": "address",
          "name": "",
          "type": "address"
        }
      ],
      "stateMutability": "view",
      "type": "function"
    },
    {
      "inputs": [
        {
          "internalType": "uint256",
          "name": "",
          "type": "uint256"
        }
      ],
      "name": "robots",
      "outputs": [
        {
          "internalType": "string",
          "name": "name",
          "type": "string"
        },
        {
          "internalType": "string",
          "name": "dna",
          "type": "string"
        },
        {
          "internalType": "uint8",
          "name": "spieces",
          "type": "uint8"
        },
        {
          "internalType": "uint8",
          "name": "status",
          "type": "uint8"
        },
        {
          "internalType": "uint32",
          "name": "stars",
          "type": "uint32"
        },
        {
          "internalType": "uint256",
          "name": "price",
          "type": "uint256"
        },
        {
          "internalType": "uint256",
          "name": "idInMarket",
          "type": "uint256"
        }
      ],
      "stateMutability": "view",
      "type": "function"
    },
    {
      "inputs": [
        {
          "internalType": "address",
          "name": "newOwner",
          "type": "address"
        }
      ],
      "name": "transferOwnership",
      "outputs": [],
      "stateMutability": "nonpayable",
      "type": "function"
    },
    {
      "inputs": [
        {
          "internalType": "uint256",
          "name": "robotId",
          "type": "uint256"
        },
        {
          "internalType": "uint256",
          "name": "price",
          "type": "uint256"
        }
      ],
      "name": "saleRobot",
      "outputs": [],
      "stateMutability": "nonpayable",
      "type": "function"
    },
    {
      "inputs": [
        {
          "internalType": "uint256",
          "name": "robotId",
          "type": "uint256"
        },
        {
          "internalType": "uint256",
          "name": "price",
          "type": "uint256"
        }
      ],
      "name": "setRobotPrice",
      "outputs": [],
      "stateMutability": "nonpayable",
      "type": "function"
    },
    {
      "inputs": [
        {
          "internalType": "uint256",
          "name": "robotId",
          "type": "uint256"
        }
      ],
      "name": "unSaleRobot",
      "outputs": [],
      "stateMutability": "nonpayable",
      "type": "function"
    },
    {
      "inputs": [
        {
          "internalType": "uint256",
          "name": "robotId",
          "type": "uint256"
        }
      ],
      "name": "buyRobot",
      "outputs": [],
      "stateMutability": "payable",
      "type": "function"
    }
  ],
  "bytecode": "0x6080604052620151806001555f60025534801561001a575f80fd5b50335f806101000a81548173ffffffffffffffffffffffffffffffffffffffff021916908373ffffffffffffffffffffffffffffffffffffffff1602179055505f8054906101000a900473ffffffffffffffffffffffffffffffffffffffff1673ffffffffffffffffffffffffffffffffffffffff165f73ffffffffffffffffffffffffffffffffffffffff167f8be0079c531659141344cd1fd0a4f28419497f9722a3daafe3b4186f6b6457e060405160405180910390a36125f8806100e05f395ff3fe6080604052600436106100f2575f3560e01c8063a03937c511610089578063b1283e7711610058578063b1283e7714610323578063b331ae571461035f578063d06bd9e71461037b578063f2fde38b146103a3576100f2565b8063a03937c51461027b578063a1a4d91c146102bd578063a7d9e53e146102e5578063b060ff191461030d576100f2565b8063715018a6116100c5578063715018a6146101d55780638da5cb5b146101eb5780638f32d59b146102155780639403a0ce1461023f576100f2565b806308bdadf8146100f6578063492d8b3d1461011e57806365ceceb11461015d5780636aa438dc14610199575b5f80fd5b348015610101575f80fd5b5061011c6004803603810190610117919061182a565b6103cb565b005b348015610129575f80fd5b50610144600480360381019061013f9190611868565b610533565b604051610154949392919061193f565b60405180910390f35b348015610168575f80fd5b50610183600480360381019061017e91906119ea565b6106a1565b6040516101909190611a24565b60405180910390f35b3480156101a4575f80fd5b506101bf60048036038101906101ba91906119ea565b6106b6565b6040516101cc9190611a24565b60405180910390f35b3480156101e0575f80fd5b506101e96106cb565b005b3480156101f6575f80fd5b506101ff610795565b60405161020c9190611a4c565b60405180910390f35b348015610220575f80fd5b506102296107bc565b6040516102369190611a7f565b60405180910390f35b34801561024a575f80fd5b5061026560048036038101906102609190611868565b610811565b6040516102729190611a4c565b60405180910390f35b348015610286575f80fd5b506102a1600480360381019061029c9190611868565b610841565b6040516102b49796959493929190611ad1565b60405180910390f35b3480156102c8575f80fd5b506102e360048036038101906102de9190611bad565b6109c3565b005b3480156102f0575f80fd5b5061030b6004803603810190610306919061182a565b610c55565b005b348015610318575f80fd5b50610321610d21565b005b34801561032e575f80fd5b5061034960048036038101906103449190611868565b610e27565b6040516103569190611a24565b60405180910390f35b61037960048036038101906103749190611868565b610e47565b005b348015610386575f80fd5b506103a1600480360381019061039c9190611868565b611174565b005b3480156103ae575f80fd5b506103c960048036038101906103c491906119ea565b611311565b005b8160065f8281526020019081526020015f205f9054906101000a900473ffffffffffffffffffffffffffffffffffffffff1673ffffffffffffffffffffffffffffffffffffffff163373ffffffffffffffffffffffffffffffffffffffff161461046a576040517f08c379a000000000000000000000000000000000000000000000000000000000815260040161046190611c42565b60405180910390fd5b600883908060018154018082558091505060019003905f5260205f20015f90919091909150556001600484815481106104a6576104a5611c60565b5b905f5260205f20906005020160020160016101000a81548160ff021916908360ff16021790555081600484815481106104e2576104e1611c60565b5b905f5260205f2090600502016003018190555060016008805490506105079190611cba565b6004848154811061051b5761051a611c60565b5b905f5260205f20906005020160040181905550505050565b60038181548110610542575f80fd5b905f5260205f2090600302015f91509050805f01805461056190611d1a565b80601f016020809104026020016040519081016040528092919081815260200182805461058d90611d1a565b80156105d85780601f106105af576101008083540402835291602001916105d8565b820191905f5260205f20905b8154815290600101906020018083116105bb57829003601f168201915b5050505050908060010180546105ed90611d1a565b80601f016020809104026020016040519081016040528092919081815260200182805461061990611d1a565b80156106645780601f1061063b57610100808354040283529160200191610664565b820191905f5260205f20905b81548152906001019060200180831161064757829003601f168201915b505050505090806002015f9054906101000a900467ffffffffffffffff16908060020160089054906101000a900467ffffffffffffffff16905084565b6007602052805f5260405f205f915090505481565b6005602052805f5260405f205f915090505481565b6106d36107bc565b6106db575f80fd5b5f73ffffffffffffffffffffffffffffffffffffffff165f8054906101000a900473ffffffffffffffffffffffffffffffffffffffff1673ffffffffffffffffffffffffffffffffffffffff167f8be0079c531659141344cd1fd0a4f28419497f9722a3daafe3b4186f6b6457e060405160405180910390a35f805f6101000a81548173ffffffffffffffffffffffffffffffffffffffff021916908373ffffffffffffffffffffffffffffffffffffffff160217905550565b5f805f9054906101000a900473ffffffffffffffffffffffffffffffffffffffff16905090565b5f805f9054906101000a900473ffffffffffffffffffffffffffffffffffffffff1673ffffffffffffffffffffffffffffffffffffffff163373ffffffffffffffffffffffffffffffffffffffff1614905090565b6006602052805f5260405f205f915054906101000a900473ffffffffffffffffffffffffffffffffffffffff1681565b60048181548110610850575f80fd5b905f5260205f2090600502015f91509050805f01805461086f90611d1a565b80601f016020809104026020016040519081016040528092919081815260200182805461089b90611d1a565b80156108e65780601f106108bd576101008083540402835291602001916108e6565b820191905f5260205f20905b8154815290600101906020018083116108c957829003601f168201915b5050505050908060010180546108fb90611d1a565b80601f016020809104026020016040519081016040528092919081815260200182805461092790611d1a565b80156109725780601f1061094957610100808354040283529160200191610972565b820191905f5260205f20905b81548152906001019060200180831161095557829003601f168201915b505050505090806002015f9054906101000a900460ff16908060020160019054906101000a900460ff16908060020160029054906101000a900463ffffffff16908060030154908060040154905087565b5f60055f3373ffffffffffffffffffffffffffffffffffffffff1673ffffffffffffffffffffffffffffffffffffffff1681526020019081526020015f205403610a42576040517f08c379a0000000000000000000000000000000000000000000000000000000008152600401610a3990611d94565b60405180910390fd5b5f6040518060400160405280600c81526020017f72616e646f6d537472696e67000000000000000000000000000000000000000081525090506003604051806080016040528085858080601f0160208091040260200160405190810160405280939291908181526020018383808284375f81840152601f19601f8201169050808301925050505050505081526020018381526020014267ffffffffffffffff1681526020014267ffffffffffffffff16815250908060018154018082558091505060019003905f5260205f2090600302015f909190919091505f820151815f019081610b2e9190611f7c565b506020820151816001019081610b449190611f7c565b506040820151816002015f6101000a81548167ffffffffffffffff021916908367ffffffffffffffff16021790555060608201518160020160086101000a81548167ffffffffffffffff021916908367ffffffffffffffff16021790555050505f6001600380549050610bb79190611cba565b90508060055f3373ffffffffffffffffffffffffffffffffffffffff1673ffffffffffffffffffffffffffffffffffffffff1681526020019081526020015f20819055503373ffffffffffffffffffffffffffffffffffffffff167f0ba589754bdc7c1e308a8ce3362a7b42600571fdd695534edd1e0182e187149f82868686604051610c479493929190612085565b60405180910390a250505050565b8160065f8281526020019081526020015f205f9054906101000a900473ffffffffffffffffffffffffffffffffffffffff1673ffffffffffffffffffffffffffffffffffffffff163373ffffffffffffffffffffffffffffffffffffffff1614610cf4576040517f08c379a0000000000000000000000000000000000000000000000000000000008152600401610ceb90611c42565b60405180910390fd5b8160048481548110610d0957610d08611c60565b5b905f5260205f20906005020160030181905550505050565b5f600360055f3373ffffffffffffffffffffffffffffffffffffffff1673ffffffffffffffffffffffffffffffffffffffff1681526020019081526020015f205481548110610d7357610d72611c60565b5b905f5260205f209060030201905042816002015f9054906101000a900467ffffffffffffffff1667ffffffffffffffff161115610de5576040517f08c379a0000000000000000000000000000000000000000000000000000000008152600401610ddc9061213a565b60405180910390fd5b610ded61132d565b60015442610dfb9190612158565b816002015f6101000a81548167ffffffffffffffff021916908367ffffffffffffffff16021790555050565b60088181548110610e36575f80fd5b905f5260205f20015f915090505481565b60065f8281526020019081526020015f205f9054906101000a900473ffffffffffffffffffffffffffffffffffffffff1673ffffffffffffffffffffffffffffffffffffffff163373ffffffffffffffffffffffffffffffffffffffff1603610ee5576040517f08c379a0000000000000000000000000000000000000000000000000000000008152600401610edc906121fb565b60405180910390fd5b600160048281548110610efb57610efa611c60565b5b905f5260205f20906005020160020160019054906101000a900460ff1660ff1614610f5b576040517f08c379a0000000000000000000000000000000000000000000000000000000008152600401610f5290612263565b60405180910390fd5b60048181548110610f6f57610f6e611c60565b5b905f5260205f209060050201600301543414610f89575f80fd5b60086001600880549050610f9d9190611cba565b81548110610fae57610fad611c60565b5b905f5260205f200154600860048381548110610fcd57610fcc611c60565b5b905f5260205f2090600502016004015481548110610fee57610fed611c60565b5b905f5260205f200181905550600880548061100c5761100b612281565b5b600190038181905f5260205f20015f905590555f6004828154811061103457611033611c60565b5b905f5260205f20906005020160020160016101000a81548160ff021916908360ff1602179055505f600482815481106110705761106f611c60565b5b905f5260205f209060050201600301819055505f60065f8381526020019081526020015f205f9054906101000a900473ffffffffffffffffffffffffffffffffffffffff1690503360065f8481526020019081526020015f205f6101000a81548173ffffffffffffffffffffffffffffffffffffffff021916908373ffffffffffffffffffffffffffffffffffffffff1602179055508073ffffffffffffffffffffffffffffffffffffffff166108fc611147605f61113960643461164590919063ffffffff16565b61165f90919063ffffffff16565b90811502906040515f60405180830381858888f1935050505015801561116f573d5f803e3d5ffd5b505050565b8060065f8281526020019081526020015f205f9054906101000a900473ffffffffffffffffffffffffffffffffffffffff1673ffffffffffffffffffffffffffffffffffffffff163373ffffffffffffffffffffffffffffffffffffffff1614611213576040517f08c379a000000000000000000000000000000000000000000000000000000000815260040161120a90611c42565b60405180910390fd5b600860016008805490506112279190611cba565b8154811061123857611237611c60565b5b905f5260205f20015460086004848154811061125757611256611c60565b5b905f5260205f209060050201600401548154811061127857611277611c60565b5b905f5260205f200181905550600880548061129657611295612281565b5b600190038181905f5260205f20015f905590555f600483815481106112be576112bd611c60565b5b905f5260205f20906005020160020160016101000a81548160ff021916908360ff1602179055505f600483815481106112fa576112f9611c60565b5b905f5260205f209060050201600301819055505050565b6113196107bc565b611321575f80fd5b61132a816116a4565b50565b606460075f3373ffffffffffffffffffffffffffffffffffffffff1673ffffffffffffffffffffffffffffffffffffffff1681526020019081526020015f205411156113ae576040517f08c379a00000000000000000000000000000000000000000000000000000000081526004016113a5906122f8565b60405180910390fd5b5f6113b96002611796565b90505f6040518060400160405280600c81526020017f72616e646f6d537472696e670000000000000000000000000000000000000000815250905060046040518060e001604052806040518060400160405280600681526020017f6e6f4e616d65000000000000000000000000000000000000000000000000000081525081526020018381526020018460ff1681526020015f60ff1681526020015f63ffffffff1681526020015f81526020015f815250908060018154018082558091505060019003905f5260205f2090600502015f909190919091505f820151815f0190816114a39190611f7c565b5060208201518160010190816114b99190611f7c565b506040820151816002015f6101000a81548160ff021916908360ff16021790555060608201518160020160016101000a81548160ff021916908360ff16021790555060808201518160020160026101000a81548163ffffffff021916908363ffffffff16021790555060a0820151816003015560c0820151816004015550505f600160048054905061154b9190611cba565b90503360065f8381526020019081526020015f205f6101000a81548173ffffffffffffffffffffffffffffffffffffffff021916908373ffffffffffffffffffffffffffffffffffffffff16021790555060075f3373ffffffffffffffffffffffffffffffffffffffff1673ffffffffffffffffffffffffffffffffffffffff1681526020019081526020015f205f8154809291906115e990612316565b91905055503373ffffffffffffffffffffffffffffffffffffffff167fe4bc06e69dd7a0f1bc9ef5db431d371f0cab41d8156a6012711823b90466715b828486604051611638939291906123d7565b60405180910390a2505050565b5f8082846116539190612453565b90508091505092915050565b5f80830361166f575f905061169e565b5f828461167c9190612483565b905082848261168b9190612453565b14611699576116986124c4565b5b809150505b92915050565b5f73ffffffffffffffffffffffffffffffffffffffff168173ffffffffffffffffffffffffffffffffffffffff16036116db575f80fd5b8073ffffffffffffffffffffffffffffffffffffffff165f8054906101000a900473ffffffffffffffffffffffffffffffffffffffff1673ffffffffffffffffffffffffffffffffffffffff167f8be0079c531659141344cd1fd0a4f28419497f9722a3daafe3b4186f6b6457e060405160405180910390a3805f806101000a81548173ffffffffffffffffffffffffffffffffffffffff021916908373ffffffffffffffffffffffffffffffffffffffff16021790555050565b5f60025f8154809291906117a990612316565b91905055508142336002546040516020016117c693929190612556565b604051602081830303815290604052805190602001205f1c6117e89190612592565b9050919050565b5f80fd5b5f80fd5b5f819050919050565b611809816117f7565b8114611813575f80fd5b50565b5f8135905061182481611800565b92915050565b5f80604083850312156118405761183f6117ef565b5b5f61184d85828601611816565b925050602061185e85828601611816565b9150509250929050565b5f6020828403121561187d5761187c6117ef565b5b5f61188a84828501611816565b91505092915050565b5f81519050919050565b5f82825260208201905092915050565b5f5b838110156118ca5780820151818401526020810190506118af565b5f8484015250505050565b5f601f19601f8301169050919050565b5f6118ef82611893565b6118f9818561189d565b93506119098185602086016118ad565b611912816118d5565b840191505092915050565b5f67ffffffffffffffff82169050919050565b6119398161191d565b82525050565b5f6080820190508181035f83015261195781876118e5565b9050818103602083015261196b81866118e5565b905061197a6040830185611930565b6119876060830184611930565b95945050505050565b5f73ffffffffffffffffffffffffffffffffffffffff82169050919050565b5f6119b982611990565b9050919050565b6119c9816119af565b81146119d3575f80fd5b50565b5f813590506119e4816119c0565b92915050565b5f602082840312156119ff576119fe6117ef565b5b5f611a0c848285016119d6565b91505092915050565b611a1e816117f7565b82525050565b5f602082019050611a375f830184611a15565b92915050565b611a46816119af565b82525050565b5f602082019050611a5f5f830184611a3d565b92915050565b5f8115159050919050565b611a7981611a65565b82525050565b5f602082019050611a925f830184611a70565b92915050565b5f60ff82169050919050565b611aad81611a98565b82525050565b5f63ffffffff82169050919050565b611acb81611ab3565b82525050565b5f60e0820190508181035f830152611ae9818a6118e5565b90508181036020830152611afd81896118e5565b9050611b0c6040830188611aa4565b611b196060830187611aa4565b611b266080830186611ac2565b611b3360a0830185611a15565b611b4060c0830184611a15565b98975050505050505050565b5f80fd5b5f80fd5b5f80fd5b5f8083601f840112611b6d57611b6c611b4c565b5b8235905067ffffffffffffffff811115611b8a57611b89611b50565b5b602083019150836001820283011115611ba657611ba5611b54565b5b9250929050565b5f8060208385031215611bc357611bc26117ef565b5b5f83013567ffffffffffffffff811115611be057611bdf6117f3565b5b611bec85828601611b58565b92509250509250929050565b7f4e6f7420796f757220726f626f742e00000000000000000000000000000000005f82015250565b5f611c2c600f8361189d565b9150611c3782611bf8565b602082019050919050565b5f6020820190508181035f830152611c5981611c20565b9050919050565b7f4e487b71000000000000000000000000000000000000000000000000000000005f52603260045260245ffd5b7f4e487b71000000000000000000000000000000000000000000000000000000005f52601160045260245ffd5b5f611cc4826117f7565b9150611ccf836117f7565b9250828203905081811115611ce757611ce6611c8d565b5b92915050565b7f4e487b71000000000000000000000000000000000000000000000000000000005f52602260045260245ffd5b5f6002820490506001821680611d3157607f821691505b602082108103611d4457611d43611ced565b5b50919050565b7f596f757220636f6d6d616e64657220616c726561647920657869737465642e005f82015250565b5f611d7e601f8361189d565b9150611d8982611d4a565b602082019050919050565b5f6020820190508181035f830152611dab81611d72565b9050919050565b7f4e487b71000000000000000000000000000000000000000000000000000000005f52604160045260245ffd5b5f819050815f5260205f209050919050565b5f6020601f8301049050919050565b5f82821b905092915050565b5f60088302611e3b7fffffffffffffffffffffffffffffffffffffffffffffffffffffffffffffffff82611e00565b611e458683611e00565b95508019841693508086168417925050509392505050565b5f819050919050565b5f611e80611e7b611e76846117f7565b611e5d565b6117f7565b9050919050565b5f819050919050565b611e9983611e66565b611ead611ea582611e87565b848454611e0c565b825550505050565b5f90565b611ec1611eb5565b611ecc818484611e90565b505050565b5b81811015611eef57611ee45f82611eb9565b600181019050611ed2565b5050565b601f821115611f3457611f0581611ddf565b611f0e84611df1565b81016020851015611f1d578190505b611f31611f2985611df1565b830182611ed1565b50505b505050565b5f82821c905092915050565b5f611f545f1984600802611f39565b1980831691505092915050565b5f611f6c8383611f45565b9150826002028217905092915050565b611f8582611893565b67ffffffffffffffff811115611f9e57611f9d611db2565b5b611fa88254611d1a565b611fb3828285611ef3565b5f60209050601f831160018114611fe4575f8415611fd2578287015190505b611fdc8582611f61565b865550612043565b601f198416611ff286611ddf565b5f5b8281101561201957848901518255600182019150602085019450602081019050611ff4565b868310156120365784890151612032601f891682611f45565b8355505b6001600288020188555050505b505050505050565b828183375f83830152505050565b5f612064838561189d565b935061207183858461204b565b61207a836118d5565b840190509392505050565b5f6060820190506120985f830187611a15565b81810360208301526120ab818587612059565b905081810360408301526120bf81846118e5565b905095945050505050565b7f4c657373207468616e206f6e65206461792073696e6365206c6173742074696d5f8201527f6520796f75206765742061206672656520726f626f742e000000000000000000602082015250565b5f61212460378361189d565b915061212f826120ca565b604082019050919050565b5f6020820190508181035f83015261215181612118565b9050919050565b5f612162826117f7565b915061216d836117f7565b925082820190508082111561218557612184611c8d565b5b92915050565b7f4974277320796f757220726f626f742c20796f752063616e27742062757920695f8201527f742e000000000000000000000000000000000000000000000000000000000000602082015250565b5f6121e560228361189d565b91506121f08261218b565b604082019050919050565b5f6020820190508181035f830152612212816121d9565b9050919050565b7f5468697320726f626f74206e6f74206f6e2073616c652e0000000000000000005f82015250565b5f61224d60178361189d565b915061225882612219565b602082019050919050565b5f6020820190508181035f83015261227a81612241565b9050919050565b7f4e487b71000000000000000000000000000000000000000000000000000000005f52603160045260245ffd5b7f596f7572207265706f2069732066756c6c2e00000000000000000000000000005f82015250565b5f6122e260128361189d565b91506122ed826122ae565b602082019050919050565b5f6020820190508181035f83015261230f816122d6565b9050919050565b5f612320826117f7565b91507fffffffffffffffffffffffffffffffffffffffffffffffffffffffffffffffff820361235257612351611c8d565b5b600182019050919050565b7f6e6f4e616d6500000000000000000000000000000000000000000000000000005f82015250565b5f61239160068361189d565b915061239c8261235d565b602082019050919050565b5f6123c16123bc6123b784611a98565b611e5d565b6117f7565b9050919050565b6123d1816123a7565b82525050565b5f6080820190506123ea5f830186611a15565b81810360208301526123fb81612385565b9050818103604083015261240f81856118e5565b905061241e60608301846123c8565b949350505050565b7f4e487b71000000000000000000000000000000000000000000000000000000005f52601260045260245ffd5b5f61245d826117f7565b9150612468836117f7565b92508261247857612477612426565b5b828204905092915050565b5f61248d826117f7565b9150612498836117f7565b92508282026124a6816117f7565b915082820484148315176124bd576124bc611c8d565b5b5092915050565b7f4e487b71000000000000000000000000000000000000000000000000000000005f52600160045260245ffd5b5f819050919050565b61250b612506826117f7565b6124f1565b82525050565b5f8160601b9050919050565b5f61252782612511565b9050919050565b5f6125388261251d565b9050919050565b61255061254b826119af565b61252e565b82525050565b5f61256182866124fa565b602082019150612571828561253f565b60148201915061258182846124fa565b602082019150819050949350505050565b5f61259c826117f7565b91506125a7836117f7565b9250826125b7576125b6612426565b5b82820690509291505056fea2646970667358221220fda2cf620961126cab1a1fd09971f8a3219431c0351087f55e18b09b6f25d99664736f6c63430008150033",
  "immutableReferences": {},
  "source": "// SPDX-License-Identifier: MIT \npragma solidity ^0.8.21;\n\nimport \"./Basic.sol\";\nimport \"./SafeMath.sol\";\n\n//,wei\ncontract Trade is Basic {\n\n    using SafeMath for uint256;\n    uint[] public markets;\n\n    //\n    function saleRobot(uint robotId, uint price) external ownerOfRobot(robotId) {\n        markets.push(robotId);\n        robots[robotId].status = 1;\n        robots[robotId].price = price;\n        robots[robotId].idInMarket = markets.length - 1;\n    }\n\n    //\n    function setRobotPrice(uint robotId, uint price) external ownerOfRobot(robotId) {\n        robots[robotId].price = price;\n    }\n\n    //\n    function unSaleRobot(uint robotId) external ownerOfRobot(robotId) {\n        //remove from market\n        markets[robots[robotId].idInMarket] = markets[markets.length - 1];\n        markets.pop();\n        robots[robotId].status = 0;\n        robots[robotId].price = 0;\n    }\n\n    //\n    function buyRobot(uint robotId) external payable {\n        require(msg.sender != robotToOwner[robotId], \"It's your robot, you can't buy it.\");\n        require(robots[robotId].status == 1, \"This robot not on sale.\");\n        require(msg.value == robots[robotId].price);\n\n        //\n        markets[robots[robotId].idInMarket] = markets[markets.length - 1];\n        markets.pop();\n        robots[robotId].status = 0;\n        robots[robotId].price = 0;\n\n        //\n        address payable salerAddr = payable(robotToOwner[robotId]);\n\n        //\n        robotToOwner[robotId] = msg.sender;\n\n        //5%\n        salerAddr.transfer(msg.value.div(100).mul(95));\n    }\n}",
  "sourcePath": "/Users/liqinghao/Desktop/RoboHashWeb3/contracts/robotgame/Trade.sol",
  "compiler": {
    "name": "solc",
    "version": "0.8.21+commit.d9974bed.Emscripten.clang"
  },
  "schemaVersion": "3.4.16",
  "updatedAt": "2023-11-06T02:21:21.367Z",
  "devdoc": {
    "kind": "dev",
    "methods": {
      "isOwner()": {
        "returns": {
          "_0": "true if `msg.sender` is the owner of the contract."
        }
      },
      "owner()": {
        "returns": {
          "_0": "the address of the owner."
        }
      },
      "renounceOwnership()": {
        "details": "Allows the current owner to relinquish control of the contract."
      },
      "transferOwnership(address)": {
        "details": "Allows the current owner to transfer control of the contract to a newOwner.",
        "params": {
          "newOwner": "The address to transfer ownership to."
        }
      }
    },
    "version": 1
  },
  "userdoc": {
    "kind": "user",
    "methods": {
      "renounceOwnership()": {
        "notice": "Renouncing to ownership will leave the contract without an owner. It will not be possible to call the functions with the `onlyOwner` modifier anymore."
      }
    },
    "version": 1
  }
}